{
  "_format": "hh3-artifact-1",
  "contractName": "CertificateNFT",
  "sourceName": "contracts/CertificateNFT.sol",
  "abi": [
    {
      "inputs": [
        {
          "internalType": "address",
          "name": "initialOwner",
          "type": "address"
        }
      ],
      "stateMutability": "nonpayable",
      "type": "constructor"
    },
    {
      "inputs": [],
      "name": "AccessControlBadConfirmation",
      "type": "error"
    },
    {
      "inputs": [
        {
          "internalType": "address",
          "name": "account",
          "type": "address"
        },
        {
          "internalType": "bytes32",
          "name": "neededRole",
          "type": "bytes32"
        }
      ],
      "name": "AccessControlUnauthorizedAccount",
      "type": "error"
    },
    {
      "inputs": [
        {
          "internalType": "address",
          "name": "sender",
          "type": "address"
        },
        {
          "internalType": "uint256",
          "name": "tokenId",
          "type": "uint256"
        },
        {
          "internalType": "address",
          "name": "owner",
          "type": "address"
        }
      ],
      "name": "ERC721IncorrectOwner",
      "type": "error"
    },
    {
      "inputs": [
        {
          "internalType": "address",
          "name": "operator",
          "type": "address"
        },
        {
          "internalType": "uint256",
          "name": "tokenId",
          "type": "uint256"
        }
      ],
      "name": "ERC721InsufficientApproval",
      "type": "error"
    },
    {
      "inputs": [
        {
          "internalType": "address",
          "name": "approver",
          "type": "address"
        }
      ],
      "name": "ERC721InvalidApprover",
      "type": "error"
    },
    {
      "inputs": [
        {
          "internalType": "address",
          "name": "operator",
          "type": "address"
        }
      ],
      "name": "ERC721InvalidOperator",
      "type": "error"
    },
    {
      "inputs": [
        {
          "internalType": "address",
          "name": "owner",
          "type": "address"
        }
      ],
      "name": "ERC721InvalidOwner",
      "type": "error"
    },
    {
      "inputs": [
        {
          "internalType": "address",
          "name": "receiver",
          "type": "address"
        }
      ],
      "name": "ERC721InvalidReceiver",
      "type": "error"
    },
    {
      "inputs": [
        {
          "internalType": "address",
          "name": "sender",
          "type": "address"
        }
      ],
      "name": "ERC721InvalidSender",
      "type": "error"
    },
    {
      "inputs": [
        {
          "internalType": "uint256",
          "name": "tokenId",
          "type": "uint256"
        }
      ],
      "name": "ERC721NonexistentToken",
      "type": "error"
    },
    {
      "inputs": [],
      "name": "EnforcedPause",
      "type": "error"
    },
    {
      "inputs": [],
      "name": "ExpectedPause",
      "type": "error"
    },
    {
      "inputs": [
        {
          "internalType": "address",
          "name": "owner",
          "type": "address"
        }
      ],
      "name": "OwnableInvalidOwner",
      "type": "error"
    },
    {
      "inputs": [
        {
          "internalType": "address",
          "name": "account",
          "type": "address"
        }
      ],
      "name": "OwnableUnauthorizedAccount",
      "type": "error"
    },
    {
      "anonymous": false,
      "inputs": [
        {
          "indexed": true,
          "internalType": "address",
          "name": "owner",
          "type": "address"
        },
        {
          "indexed": true,
          "internalType": "address",
          "name": "approved",
          "type": "address"
        },
        {
          "indexed": true,
          "internalType": "uint256",
          "name": "tokenId",
          "type": "uint256"
        }
      ],
      "name": "Approval",
      "type": "event"
    },
    {
      "anonymous": false,
      "inputs": [
        {
          "indexed": true,
          "internalType": "address",
          "name": "owner",
          "type": "address"
        },
        {
          "indexed": true,
          "internalType": "address",
          "name": "operator",
          "type": "address"
        },
        {
          "indexed": false,
          "internalType": "bool",
          "name": "approved",
          "type": "bool"
        }
      ],
      "name": "ApprovalForAll",
      "type": "event"
    },
    {
      "anonymous": false,
      "inputs": [
        {
          "indexed": false,
          "internalType": "uint256",
          "name": "_fromTokenId",
          "type": "uint256"
        },
        {
          "indexed": false,
          "internalType": "uint256",
          "name": "_toTokenId",
          "type": "uint256"
        }
      ],
      "name": "BatchMetadataUpdate",
      "type": "event"
    },
    {
      "anonymous": false,
      "inputs": [
        {
          "indexed": true,
          "internalType": "uint256",
          "name": "tokenId",
          "type": "uint256"
        },
        {
          "indexed": true,
          "internalType": "address",
          "name": "recipient",
          "type": "address"
        },
        {
          "indexed": false,
          "internalType": "string",
          "name": "tokenURI",
          "type": "string"
        }
      ],
      "name": "CertificateMinted",
      "type": "event"
    },
    {
      "anonymous": false,
      "inputs": [
        {
          "indexed": true,
          "internalType": "uint256",
          "name": "tokenId",
          "type": "uint256"
        },
        {
          "indexed": true,
          "internalType": "address",
          "name": "revoker",
          "type": "address"
        }
      ],
      "name": "CertificateRevoked",
      "type": "event"
    },
    {
      "anonymous": false,
      "inputs": [
        {
          "indexed": true,
          "internalType": "address",
          "name": "admin",
          "type": "address"
        },
        {
          "indexed": true,
          "internalType": "address",
          "name": "user",
          "type": "address"
        },
        {
          "indexed": true,
          "internalType": "bytes32",
          "name": "role",
          "type": "bytes32"
        },
        {
          "indexed": false,
          "internalType": "string",
          "name": "reason",
          "type": "string"
        }
      ],
      "name": "EmergencyRoleRevoked",
      "type": "event"
    },
    {
      "anonymous": false,
      "inputs": [
        {
          "indexed": false,
          "internalType": "uint256",
          "name": "_tokenId",
          "type": "uint256"
        }
      ],
      "name": "MetadataUpdate",
      "type": "event"
    },
    {
      "anonymous": false,
      "inputs": [
        {
          "indexed": true,
          "internalType": "address",
          "name": "previousOwner",
          "type": "address"
        },
        {
          "indexed": true,
          "internalType": "address",
          "name": "newOwner",
          "type": "address"
        }
      ],
      "name": "OwnershipTransferred",
      "type": "event"
    },
    {
      "anonymous": false,
      "inputs": [
        {
          "indexed": false,
          "internalType": "address",
          "name": "account",
          "type": "address"
        }
      ],
      "name": "Paused",
      "type": "event"
    },
    {
      "anonymous": false,
      "inputs": [
        {
          "indexed": true,
          "internalType": "bytes32",
          "name": "role",
          "type": "bytes32"
        },
        {
          "indexed": true,
          "internalType": "bytes32",
          "name": "previousAdminRole",
          "type": "bytes32"
        },
        {
          "indexed": true,
          "internalType": "bytes32",
          "name": "newAdminRole",
          "type": "bytes32"
        }
      ],
      "name": "RoleAdminChanged",
      "type": "event"
    },
    {
      "anonymous": false,
      "inputs": [
        {
          "indexed": true,
          "internalType": "bytes32",
          "name": "role",
          "type": "bytes32"
        },
        {
          "indexed": true,
          "internalType": "address",
          "name": "account",
          "type": "address"
        },
        {
          "indexed": true,
          "internalType": "address",
          "name": "sender",
          "type": "address"
        }
      ],
      "name": "RoleGranted",
      "type": "event"
    },
    {
      "anonymous": false,
      "inputs": [
        {
          "indexed": true,
          "internalType": "address",
          "name": "requester",
          "type": "address"
        },
        {
          "indexed": true,
          "internalType": "bytes32",
          "name": "role",
          "type": "bytes32"
        },
        {
          "indexed": false,
          "internalType": "string",
          "name": "justification",
          "type": "string"
        }
      ],
      "name": "RoleRequested",
      "type": "event"
    },
    {
      "anonymous": false,
      "inputs": [
        {
          "indexed": true,
          "internalType": "bytes32",
          "name": "role",
          "type": "bytes32"
        },
        {
          "indexed": true,
          "internalType": "address",
          "name": "account",
          "type": "address"
        },
        {
          "indexed": true,
          "internalType": "address",
          "name": "sender",
          "type": "address"
        }
      ],
      "name": "RoleRevoked",
      "type": "event"
    },
    {
      "anonymous": false,
      "inputs": [
        {
          "indexed": true,
          "internalType": "address",
          "name": "from",
          "type": "address"
        },
        {
          "indexed": true,
          "internalType": "address",
          "name": "to",
          "type": "address"
        },
        {
          "indexed": true,
          "internalType": "uint256",
          "name": "tokenId",
          "type": "uint256"
        }
      ],
      "name": "Transfer",
      "type": "event"
    },
    {
      "anonymous": false,
      "inputs": [
        {
          "indexed": false,
          "internalType": "address",
          "name": "account",
          "type": "address"
        }
      ],
      "name": "Unpaused",
      "type": "event"
    },
    {
      "inputs": [],
      "name": "ADMIN_ROLE",
      "outputs": [
        {
          "internalType": "bytes32",
          "name": "",
          "type": "bytes32"
        }
      ],
      "stateMutability": "view",
      "type": "function"
    },
    {
      "inputs": [],
      "name": "DEFAULT_ADMIN_ROLE",
      "outputs": [
        {
          "internalType": "bytes32",
          "name": "",
          "type": "bytes32"
        }
      ],
      "stateMutability": "view",
      "type": "function"
    },
    {
      "inputs": [],
      "name": "ISSUER_ROLE",
      "outputs": [
        {
          "internalType": "bytes32",
          "name": "",
          "type": "bytes32"
        }
      ],
      "stateMutability": "view",
      "type": "function"
    },
    {
      "inputs": [],
      "name": "REVOKER_ROLE",
      "outputs": [
        {
          "internalType": "bytes32",
          "name": "",
          "type": "bytes32"
        }
      ],
      "stateMutability": "view",
      "type": "function"
    },
    {
      "inputs": [],
      "name": "SUPER_ADMIN_ROLE",
      "outputs": [
        {
          "internalType": "bytes32",
          "name": "",
          "type": "bytes32"
        }
      ],
      "stateMutability": "view",
      "type": "function"
    },
    {
      "inputs": [],
      "name": "VERIFIER_ROLE",
      "outputs": [
        {
          "internalType": "bytes32",
          "name": "",
          "type": "bytes32"
        }
      ],
      "stateMutability": "view",
      "type": "function"
    },
    {
      "inputs": [
        {
          "internalType": "address",
          "name": "to",
          "type": "address"
        },
        {
          "internalType": "uint256",
          "name": "tokenId",
          "type": "uint256"
        }
      ],
      "name": "approve",
      "outputs": [],
      "stateMutability": "nonpayable",
      "type": "function"
    },
    {
      "inputs": [
        {
          "internalType": "address",
          "name": "owner",
          "type": "address"
        }
      ],
      "name": "balanceOf",
      "outputs": [
        {
          "internalType": "uint256",
          "name": "",
          "type": "uint256"
        }
      ],
      "stateMutability": "view",
      "type": "function"
    },
    {
      "inputs": [
        {
          "internalType": "address[]",
          "name": "users",
          "type": "address[]"
        },
        {
          "internalType": "bytes32[]",
          "name": "roles",
          "type": "bytes32[]"
        }
      ],
      "name": "batchGrantRoles",
      "outputs": [],
      "stateMutability": "nonpayable",
      "type": "function"
    },
    {
      "inputs": [
        {
          "internalType": "address",
          "name": "account",
          "type": "address"
        }
      ],
      "name": "canIssue",
      "outputs": [
        {
          "internalType": "bool",
          "name": "",
          "type": "bool"
        }
      ],
      "stateMutability": "view",
      "type": "function"
    },
    {
      "inputs": [
        {
          "internalType": "address",
          "name": "account",
          "type": "address"
        }
      ],
      "name": "canRevoke",
      "outputs": [
        {
          "internalType": "bool",
          "name": "",
          "type": "bool"
        }
      ],
      "stateMutability": "view",
      "type": "function"
    },
    {
      "inputs": [
        {
          "internalType": "address",
          "name": "user",
          "type": "address"
        },
        {
          "internalType": "bytes32",
          "name": "role",
          "type": "bytes32"
        },
        {
          "internalType": "string",
          "name": "reason",
          "type": "string"
        }
      ],
      "name": "emergencyRevokeRole",
      "outputs": [],
      "stateMutability": "nonpayable",
      "type": "function"
    },
    {
      "inputs": [
        {
          "internalType": "uint256",
          "name": "tokenId",
          "type": "uint256"
        }
      ],
      "name": "getApproved",
      "outputs": [
        {
          "internalType": "address",
          "name": "",
          "type": "address"
        }
      ],
      "stateMutability": "view",
      "type": "function"
    },
    {
      "inputs": [
        {
          "internalType": "uint256",
          "name": "tokenId",
          "type": "uint256"
        }
      ],
      "name": "getCertificateDetails",
      "outputs": [
        {
          "internalType": "address",
          "name": "owner",
          "type": "address"
        },
        {
          "internalType": "uint256",
          "name": "mintedAt",
          "type": "uint256"
        },
        {
          "internalType": "bool",
          "name": "revoked",
          "type": "bool"
        },
        {
          "internalType": "string",
          "name": "uri",
          "type": "string"
        }
      ],
      "stateMutability": "view",
      "type": "function"
    },
    {
      "inputs": [
        {
          "internalType": "bytes32",
          "name": "role",
          "type": "bytes32"
        }
      ],
      "name": "getRoleAdmin",
      "outputs": [
        {
          "internalType": "bytes32",
          "name": "",
          "type": "bytes32"
        }
      ],
      "stateMutability": "view",
      "type": "function"
    },
    {
      "inputs": [
        {
          "internalType": "bytes32",
          "name": "role",
          "type": "bytes32"
        }
      ],
      "name": "getRoleMemberCount",
      "outputs": [
        {
          "internalType": "uint256",
          "name": "",
          "type": "uint256"
        }
      ],
      "stateMutability": "view",
      "type": "function"
    },
    {
      "inputs": [
        {
          "internalType": "bytes32",
          "name": "role",
          "type": "bytes32"
        }
      ],
      "name": "getRoleMembers",
      "outputs": [
        {
          "internalType": "address[]",
          "name": "",
          "type": "address[]"
        }
      ],
      "stateMutability": "view",
      "type": "function"
    },
    {
      "inputs": [],
      "name": "getTotalMinted",
      "outputs": [
        {
          "internalType": "uint256",
          "name": "",
          "type": "uint256"
        }
      ],
      "stateMutability": "view",
      "type": "function"
    },
    {
      "inputs": [
        {
          "internalType": "address",
          "name": "account",
          "type": "address"
        }
      ],
      "name": "getUserRoles",
      "outputs": [
        {
          "internalType": "bytes32[]",
          "name": "",
          "type": "bytes32[]"
        }
      ],
      "stateMutability": "view",
      "type": "function"
    },
    {
      "inputs": [
        {
          "internalType": "bytes32",
          "name": "role",
          "type": "bytes32"
        },
        {
          "internalType": "address",
          "name": "account",
          "type": "address"
        }
      ],
      "name": "grantRole",
      "outputs": [],
      "stateMutability": "nonpayable",
      "type": "function"
    },
    {
      "inputs": [
        {
          "internalType": "bytes32",
          "name": "role",
          "type": "bytes32"
        },
        {
          "internalType": "address",
          "name": "account",
          "type": "address"
        }
      ],
      "name": "hasRole",
      "outputs": [
        {
          "internalType": "bool",
          "name": "",
          "type": "bool"
        }
      ],
      "stateMutability": "view",
      "type": "function"
    },
    {
      "inputs": [
        {
          "internalType": "address",
          "name": "account",
          "type": "address"
        }
      ],
      "name": "isAdmin",
      "outputs": [
        {
          "internalType": "bool",
          "name": "",
          "type": "bool"
        }
      ],
      "stateMutability": "view",
      "type": "function"
    },
    {
      "inputs": [
        {
          "internalType": "address",
          "name": "owner",
          "type": "address"
        },
        {
          "internalType": "address",
          "name": "operator",
          "type": "address"
        }
      ],
      "name": "isApprovedForAll",
      "outputs": [
        {
          "internalType": "bool",
          "name": "",
          "type": "bool"
        }
      ],
      "stateMutability": "view",
      "type": "function"
    },
    {
      "inputs": [
        {
          "internalType": "uint256",
          "name": "tokenId",
          "type": "uint256"
        }
      ],
      "name": "isRevoked",
      "outputs": [
        {
          "internalType": "bool",
          "name": "",
          "type": "bool"
        }
      ],
      "stateMutability": "view",
      "type": "function"
    },
    {
      "inputs": [
        {
          "internalType": "address",
          "name": "recipient",
          "type": "address"
        },
        {
          "internalType": "string",
          "name": "_tokenURI",
          "type": "string"
        }
      ],
      "name": "mintCertificate",
      "outputs": [
        {
          "internalType": "uint256",
          "name": "",
          "type": "uint256"
        }
      ],
      "stateMutability": "nonpayable",
      "type": "function"
    },
    {
      "inputs": [],
      "name": "name",
      "outputs": [
        {
          "internalType": "string",
          "name": "",
          "type": "string"
        }
      ],
      "stateMutability": "view",
      "type": "function"
    },
    {
      "inputs": [],
      "name": "owner",
      "outputs": [
        {
          "internalType": "address",
          "name": "",
          "type": "address"
        }
      ],
      "stateMutability": "view",
      "type": "function"
    },
    {
      "inputs": [
        {
          "internalType": "uint256",
          "name": "tokenId",
          "type": "uint256"
        }
      ],
      "name": "ownerOf",
      "outputs": [
        {
          "internalType": "address",
          "name": "",
          "type": "address"
        }
      ],
      "stateMutability": "view",
      "type": "function"
    },
    {
      "inputs": [],
      "name": "pause",
      "outputs": [],
      "stateMutability": "nonpayable",
      "type": "function"
    },
    {
      "inputs": [],
      "name": "paused",
      "outputs": [
        {
          "internalType": "bool",
          "name": "",
          "type": "bool"
        }
      ],
      "stateMutability": "view",
      "type": "function"
    },
    {
      "inputs": [],
      "name": "renounceOwnership",
      "outputs": [],
      "stateMutability": "nonpayable",
      "type": "function"
    },
    {
      "inputs": [
        {
          "internalType": "bytes32",
          "name": "role",
          "type": "bytes32"
        },
        {
          "internalType": "address",
          "name": "callerConfirmation",
          "type": "address"
        }
      ],
      "name": "renounceRole",
      "outputs": [],
      "stateMutability": "nonpayable",
      "type": "function"
    },
    {
      "inputs": [
        {
          "internalType": "bytes32",
          "name": "role",
          "type": "bytes32"
        },
        {
          "internalType": "string",
          "name": "justification",
          "type": "string"
        }
      ],
      "name": "requestRole",
      "outputs": [],
      "stateMutability": "nonpayable",
      "type": "function"
    },
    {
      "inputs": [
        {
          "internalType": "uint256",
          "name": "tokenId",
          "type": "uint256"
        }
      ],
      "name": "revokeCertificate",
      "outputs": [],
      "stateMutability": "nonpayable",
      "type": "function"
    },
    {
      "inputs": [
        {
          "internalType": "bytes32",
          "name": "role",
          "type": "bytes32"
        },
        {
          "internalType": "address",
          "name": "account",
          "type": "address"
        }
      ],
      "name": "revokeRole",
      "outputs": [],
      "stateMutability": "nonpayable",
      "type": "function"
    },
    {
      "inputs": [
        {
          "internalType": "address",
          "name": "from",
          "type": "address"
        },
        {
          "internalType": "address",
          "name": "to",
          "type": "address"
        },
        {
          "internalType": "uint256",
          "name": "tokenId",
          "type": "uint256"
        }
      ],
      "name": "safeTransferFrom",
      "outputs": [],
      "stateMutability": "nonpayable",
      "type": "function"
    },
    {
      "inputs": [
        {
          "internalType": "address",
          "name": "from",
          "type": "address"
        },
        {
          "internalType": "address",
          "name": "to",
          "type": "address"
        },
        {
          "internalType": "uint256",
          "name": "tokenId",
          "type": "uint256"
        },
        {
          "internalType": "bytes",
          "name": "data",
          "type": "bytes"
        }
      ],
      "name": "safeTransferFrom",
      "outputs": [],
      "stateMutability": "nonpayable",
      "type": "function"
    },
    {
      "inputs": [
        {
          "internalType": "address",
          "name": "operator",
          "type": "address"
        },
        {
          "internalType": "bool",
          "name": "approved",
          "type": "bool"
        }
      ],
      "name": "setApprovalForAll",
      "outputs": [],
      "stateMutability": "nonpayable",
      "type": "function"
    },
    {
      "inputs": [
        {
          "internalType": "bytes4",
          "name": "interfaceId",
          "type": "bytes4"
        }
      ],
      "name": "supportsInterface",
      "outputs": [
        {
          "internalType": "bool",
          "name": "",
          "type": "bool"
        }
      ],
      "stateMutability": "view",
      "type": "function"
    },
    {
      "inputs": [],
      "name": "symbol",
      "outputs": [
        {
          "internalType": "string",
          "name": "",
          "type": "string"
        }
      ],
      "stateMutability": "view",
      "type": "function"
    },
    {
      "inputs": [
        {
          "internalType": "uint256",
          "name": "tokenId",
          "type": "uint256"
        }
      ],
      "name": "tokenURI",
      "outputs": [
        {
          "internalType": "string",
          "name": "",
          "type": "string"
        }
      ],
      "stateMutability": "view",
      "type": "function"
    },
    {
      "inputs": [
        {
          "internalType": "address",
          "name": "from",
          "type": "address"
        },
        {
          "internalType": "address",
          "name": "to",
          "type": "address"
        },
        {
          "internalType": "uint256",
          "name": "tokenId",
          "type": "uint256"
        }
      ],
      "name": "transferFrom",
      "outputs": [],
      "stateMutability": "nonpayable",
      "type": "function"
    },
    {
      "inputs": [
        {
          "internalType": "address",
          "name": "newOwner",
          "type": "address"
        }
      ],
      "name": "transferOwnership",
      "outputs": [],
      "stateMutability": "nonpayable",
      "type": "function"
    },
    {
      "inputs": [],
      "name": "unpause",
      "outputs": [],
      "stateMutability": "nonpayable",
      "type": "function"
    },
    {
      "inputs": [
        {
          "internalType": "uint256",
          "name": "tokenId",
          "type": "uint256"
        }
      ],
      "name": "verifyCertificate",
      "outputs": [
        {
          "internalType": "bool",
          "name": "isValid",
          "type": "bool"
        }
      ],
      "stateMutability": "view",
      "type": "function"
    }
  ],
  "bytecode": "0x608060405234801561000f575f5ffd5b5060405161583e38038061583e833981810160405281019061003191906105f9565b806040518060400160405280600e81526020017f43657274696669636174654e46540000000000000000000000000000000000008152506040518060400160405280600481526020017f4345525400000000000000000000000000000000000000000000000000000000815250815f90816100ac9190610861565b5080600190816100bc9190610861565b5050505f73ffffffffffffffffffffffffffffffffffffffff168173ffffffffffffffffffffffffffffffffffffffff160361012f575f6040517f1e4fbdf7000000000000000000000000000000000000000000000000000000008152600401610126919061093f565b60405180910390fd5b61013e816102fb60201b60201c565b506101515f5f1b826103be60201b60201c565b506101827f7613a25ecc738585a232ad50a301178f12b3ba8887d13e138b523c4269c47689826103be60201b60201c565b506101b57f7613a25ecc738585a232ad50a301178f12b3ba8887d13e138b523c4269c476895f5f1b6104b460201b60201c565b6102057fa49807205ce4d355092ef5a8a18f56e8913cf4a201fbe287825b095693c217757f7613a25ecc738585a232ad50a301178f12b3ba8887d13e138b523c4269c476896104b460201b60201c565b6102557f114e74f6ea3bd819998f78687bfcb11b140da08e9b7d222fa9c1f1ba1f2aa1227fa49807205ce4d355092ef5a8a18f56e8913cf4a201fbe287825b095693c217756104b460201b60201c565b6102a57fce3f34913921da558f105cefb578d87278debbbd073a8d552b5de0d168deee307fa49807205ce4d355092ef5a8a18f56e8913cf4a201fbe287825b095693c217756104b460201b60201c565b6102f57f0ce23c3e399818cfee81a7ab0880f714e53d7672b08df0fa62f2843416e1ea097fa49807205ce4d355092ef5a8a18f56e8913cf4a201fbe287825b095693c217756104b460201b60201c565b50610958565b5f60075f9054906101000a900473ffffffffffffffffffffffffffffffffffffffff1690508160075f6101000a81548173ffffffffffffffffffffffffffffffffffffffff021916908373ffffffffffffffffffffffffffffffffffffffff1602179055508173ffffffffffffffffffffffffffffffffffffffff168173ffffffffffffffffffffffffffffffffffffffff167f8be0079c531659141344cd1fd0a4f28419497f9722a3daafe3b4186f6b6457e060405160405180910390a35050565b5f6103cf838361051360201b60201c565b6104aa57600160085f8581526020019081526020015f205f015f8473ffffffffffffffffffffffffffffffffffffffff1673ffffffffffffffffffffffffffffffffffffffff1681526020019081526020015f205f6101000a81548160ff02191690831515021790555061044761057760201b60201c565b73ffffffffffffffffffffffffffffffffffffffff168273ffffffffffffffffffffffffffffffffffffffff16847f2f8788117e7eff1d82e926ec794901d17c78024a50270940304540a733656f0d60405160405180910390a4600190506104ae565b5f90505b92915050565b5f6104c48361057e60201b60201c565b90508160085f8581526020019081526020015f20600101819055508181847fbd79b86ffe0ab8e8776151514217cd7cacd52c909f66475c3af44e129f0b00ff60405160405180910390a4505050565b5f60085f8481526020019081526020015f205f015f8373ffffffffffffffffffffffffffffffffffffffff1673ffffffffffffffffffffffffffffffffffffffff1681526020019081526020015f205f9054906101000a900460ff16905092915050565b5f33905090565b5f60085f8381526020019081526020015f20600101549050919050565b5f5ffd5b5f73ffffffffffffffffffffffffffffffffffffffff82169050919050565b5f6105c88261059f565b9050919050565b6105d8816105be565b81146105e2575f5ffd5b50565b5f815190506105f3816105cf565b92915050565b5f6020828403121561060e5761060d61059b565b5b5f61061b848285016105e5565b91505092915050565b5f81519050919050565b7f4e487b71000000000000000000000000000000000000000000000000000000005f52604160045260245ffd5b7f4e487b71000000000000000000000000000000000000000000000000000000005f52602260045260245ffd5b5f600282049050600182168061069f57607f821691505b6020821081036106b2576106b161065b565b5b50919050565b5f819050815f5260205f209050919050565b5f6020601f8301049050919050565b5f82821b905092915050565b5f600883026107147fffffffffffffffffffffffffffffffffffffffffffffffffffffffffffffffff826106d9565b61071e86836106d9565b95508019841693508086168417925050509392505050565b5f819050919050565b5f819050919050565b5f61076261075d61075884610736565b61073f565b610736565b9050919050565b5f819050919050565b61077b83610748565b61078f61078782610769565b8484546106e5565b825550505050565b5f5f905090565b6107a6610797565b6107b1818484610772565b505050565b5b818110156107d4576107c95f8261079e565b6001810190506107b7565b5050565b601f821115610819576107ea816106b8565b6107f3846106ca565b81016020851015610802578190505b61081661080e856106ca565b8301826107b6565b50505b505050565b5f82821c905092915050565b5f6108395f198460080261081e565b1980831691505092915050565b5f610851838361082a565b9150826002028217905092915050565b61086a82610624565b67ffffffffffffffff8111156108835761088261062e565b5b61088d8254610688565b6108988282856107d8565b5f60209050601f8311600181146108c9575f84156108b7578287015190505b6108c18582610846565b865550610928565b601f1984166108d7866106b8565b5f5b828110156108fe578489015182556001820191506020850194506020810190506108d9565b8683101561091b5784890151610917601f89168261082a565b8355505b6001600288020188555050505b505050505050565b610939816105be565b82525050565b5f6020820190506109525f830184610930565b92915050565b614ed9806109655f395ff3fe608060405234801561000f575f5ffd5b506004361061027d575f3560e01c806370a082311161015a57806395d89b41116100cc578063c87b56dd11610085578063c87b56dd146107d2578063ca15c87314610802578063d547741f14610832578063e7705db61461084e578063e985e9c51461086c578063f2fde38b1461089c5761027d565b806395d89b41146106fb578063a217fddf14610719578063a22cb46514610737578063a3246ad314610753578063a901fe5e14610783578063b88d4fde146107b65761027d565b806382aefa241161011e57806382aefa24146106395780638456cb59146106575780638d66692d146106615780638d7055111461067d5780638da5cb5b146106ad57806391d14854146106cb5761027d565b806370a08231146105a7578063715018a6146105d757806375b238fc146105e1578063768b01aa146105ff5780637c4acabf1461061b5761027d565b8063248a9ca3116101f357806342842e0e116101b757806342842e0e146104d35780634460bdd6146104ef578063447fd63c1461050d5780635c975abb146105295780635ccc561e146105475780636352211e146105775761027d565b8063248a9ca31461043157806324d7806c146104615780632f2ff15d1461049157806336568abe146104ad5780633f4ba83a146104c95761027d565b8063081812fc11610245578063081812fc1461034b578063095ea7b31461037b5780630ca1c5c9146103975780631692a942146103b557806318f0eb9b146103e557806323b872dd146104155761027d565b806301ffc9a71461028157806306a36aee146102b157806306f5497e146102e157806306fdde03146102fd5780630712249f1461031b575b5f5ffd5b61029b600480360381019061029691906137ec565b6108b8565b6040516102a89190613831565b60405180910390f35b6102cb60048036038101906102c691906138a4565b6108c9565b6040516102d8919061398f565b60405180910390f35b6102fb60048036038101906102f691906139e2565b610b9e565b005b610305610d5e565b6040516103129190613a7d565b60405180910390f35b61033560048036038101906103309190613bc9565b610ded565b6040516103429190613c32565b60405180910390f35b610365600480360381019061036091906139e2565b611080565b6040516103729190613c5a565b60405180910390f35b61039560048036038101906103909190613c73565b61109b565b005b61039f6110b1565b6040516103ac9190613c32565b60405180910390f35b6103cf60048036038101906103ca91906139e2565b6110ba565b6040516103dc9190613831565b60405180910390f35b6103ff60048036038101906103fa91906138a4565b611125565b60405161040c9190613831565b60405180910390f35b61042f600480360381019061042a9190613cb1565b6111b9565b005b61044b60048036038101906104469190613d2b565b6112b8565b6040516104589190613d65565b60405180910390f35b61047b600480360381019061047691906138a4565b6112d5565b6040516104889190613831565b60405180910390f35b6104ab60048036038101906104a69190613d7e565b611338565b005b6104c760048036038101906104c29190613d7e565b611466565b005b6104d16114e1565b005b6104ed60048036038101906104e89190613cb1565b611516565b005b6104f7611535565b6040516105049190613d65565b60405180910390f35b61052760048036038101906105229190613dbc565b611559565b005b610531611643565b60405161053e9190613831565b60405180910390f35b610561600480360381019061055c91906139e2565b611658565b60405161056e9190613831565b60405180910390f35b610591600480360381019061058c91906139e2565b61167e565b60405161059e9190613c5a565b60405180910390f35b6105c160048036038101906105bc91906138a4565b61168f565b6040516105ce9190613c32565b60405180910390f35b6105df611745565b005b6105e9611758565b6040516105f69190613d65565b60405180910390f35b61061960048036038101906106149190613e28565b61177c565b005b6106236118f9565b6040516106309190613d65565b60405180910390f35b61064161191d565b60405161064e9190613d65565b60405180910390f35b61065f611941565b005b61067b60048036038101906106769190614006565b611976565b005b610697600480360381019061069291906138a4565b611a43565b6040516106a49190613831565b60405180910390f35b6106b5611ad7565b6040516106c29190613c5a565b60405180910390f35b6106e560048036038101906106e09190613d7e565b611aff565b6040516106f29190613831565b60405180910390f35b610703611b63565b6040516107109190613a7d565b60405180910390f35b610721611bf3565b60405161072e9190613d65565b60405180910390f35b610751600480360381019061074c91906140a6565b611bf9565b005b61076d60048036038101906107689190613d2b565b611c0f565b60405161077a919061419b565b60405180910390f35b61079d600480360381019061079891906139e2565b611c73565b6040516107ad94939291906141bb565b60405180910390f35b6107d060048036038101906107cb91906142a3565b611e41565b005b6107ec60048036038101906107e791906139e2565b611e66565b6040516107f99190613a7d565b60405180910390f35b61081c60048036038101906108179190613d2b565b611f71565b6040516108299190613c32565b60405180910390f35b61084c60048036038101906108479190613d7e565b611f93565b005b6108566120c1565b6040516108639190613d65565b60405180910390f35b61088660048036038101906108819190614323565b6120e5565b6040516108939190613831565b60405180910390f35b6108b660048036038101906108b191906138a4565b612173565b005b5f6108c2826121f7565b9050919050565b60605f600567ffffffffffffffff8111156108e7576108e6613aa5565b5b6040519080825280602002602001820160405280156109155781602001602082028036833780820191505090505b5090507f7613a25ecc738585a232ad50a301178f12b3ba8887d13e138b523c4269c47689815f8151811061094c5761094b614361565b5b6020026020010181815250507fa49807205ce4d355092ef5a8a18f56e8913cf4a201fbe287825b095693c217758160018151811061098d5761098c614361565b5b6020026020010181815250507f114e74f6ea3bd819998f78687bfcb11b140da08e9b7d222fa9c1f1ba1f2aa122816002815181106109ce576109cd614361565b5b6020026020010181815250507fce3f34913921da558f105cefb578d87278debbbd073a8d552b5de0d168deee3081600381518110610a0f57610a0e614361565b5b6020026020010181815250507f0ce23c3e399818cfee81a7ab0880f714e53d7672b08df0fa62f2843416e1ea0981600481518110610a5057610a4f614361565b5b6020026020010181815250505f5f90505f5f90505b8251811015610ab357610a92838281518110610a8457610a83614361565b5b602002602001015186611aff565b15610aa6578180610aa2906143bb565b9250505b8080600101915050610a65565b505f8167ffffffffffffffff811115610acf57610ace613aa5565b5b604051908082528060200260200182016040528015610afd5781602001602082028036833780820191505090505b5090505f5f90505f5f90505b8451811015610b9157610b36858281518110610b2857610b27614361565b5b602002602001015188611aff565b15610b8457848181518110610b4e57610b4d614361565b5b6020026020010151838381518110610b6957610b68614361565b5b6020026020010181815250508180610b80906143bb565b9250505b8080600101915050610b09565b5081945050505050919050565b610ba6612270565b610baf33611125565b610bee576040517f08c379a0000000000000000000000000000000000000000000000000000000008152600401610be59061444c565b60405180910390fd5b5f73ffffffffffffffffffffffffffffffffffffffff16610c0e826122b1565b73ffffffffffffffffffffffffffffffffffffffff1603610c64576040517f08c379a0000000000000000000000000000000000000000000000000000000008152600401610c5b906144b4565b60405180910390fd5b600b5f8281526020019081526020015f205f9054906101000a900460ff1615610cc2576040517f08c379a0000000000000000000000000000000000000000000000000000000008152600401610cb99061451c565b60405180910390fd5b6001600b5f8381526020019081526020015f205f6101000a81548160ff0219169083151502179055506001600c5f8381526020019081526020015f206002015f6101000a81548160ff0219169083151502179055503373ffffffffffffffffffffffffffffffffffffffff16817f325c62e70cfaa61cf0709d9607ea9d8451b235297c4b47c65ff6a6449c9faca460405160405180910390a350565b60605f8054610d6c90614567565b80601f0160208091040260200160405190810160405280929190818152602001828054610d9890614567565b8015610de35780601f10610dba57610100808354040283529160200191610de3565b820191905f5260205f20905b815481529060010190602001808311610dc657829003601f168201915b5050505050905090565b5f610df6612270565b610dff33611a43565b610e3e576040517f08c379a0000000000000000000000000000000000000000000000000000000008152600401610e35906145e1565b60405180910390fd5b5f73ffffffffffffffffffffffffffffffffffffffff168373ffffffffffffffffffffffffffffffffffffffff1603610eac576040517f08c379a0000000000000000000000000000000000000000000000000000000008152600401610ea390614649565b60405180910390fd5b5f825111610eef576040517f08c379a0000000000000000000000000000000000000000000000000000000008152600401610ee6906146b1565b60405180910390fd5b6001600a5f828254610f0191906146cf565b925050819055505f600a549050610f1884826122ea565b610f228184612307565b60405180608001604052808573ffffffffffffffffffffffffffffffffffffffff1681526020014281526020015f151581526020016040518060400160405280600881526020017f5374616e64617264000000000000000000000000000000000000000000000000815250815250600c5f8381526020019081526020015f205f820151815f015f6101000a81548173ffffffffffffffffffffffffffffffffffffffff021916908373ffffffffffffffffffffffffffffffffffffffff160217905550602082015181600101556040820151816002015f6101000a81548160ff021916908315150217905550606082015181600301908161102391906148a2565b509050508373ffffffffffffffffffffffffffffffffffffffff16817f8f25ba6a82901a4fd6415ef13a61a268ca433a2b06840284ed6cee98d0237d9e8560405161106e9190613a7d565b60405180910390a38091505092915050565b5f61108a82612361565b50611094826123e7565b9050919050565b6110ad82826110a8612420565b612427565b5050565b5f600a54905090565b5f5f73ffffffffffffffffffffffffffffffffffffffff166110db836122b1565b73ffffffffffffffffffffffffffffffffffffffff16036110fe575f9050611120565b600b5f8381526020019081526020015f205f9054906101000a900460ff161590505b919050565b5f6111507f7613a25ecc738585a232ad50a301178f12b3ba8887d13e138b523c4269c4768983611aff565b8061118157506111807fa49807205ce4d355092ef5a8a18f56e8913cf4a201fbe287825b095693c2177583611aff565b5b806111b257506111b17fce3f34913921da558f105cefb578d87278debbbd073a8d552b5de0d168deee3083611aff565b5b9050919050565b5f73ffffffffffffffffffffffffffffffffffffffff168273ffffffffffffffffffffffffffffffffffffffff1603611229575f6040517f64a0ae920000000000000000000000000000000000000000000000000000000081526004016112209190613c5a565b60405180910390fd5b5f61123c8383611237612420565b612439565b90508373ffffffffffffffffffffffffffffffffffffffff168173ffffffffffffffffffffffffffffffffffffffff16146112b2578382826040517f64283d7b0000000000000000000000000000000000000000000000000000000081526004016112a993929190614971565b60405180910390fd5b50505050565b5f60085f8381526020019081526020015f20600101549050919050565b5f6113007f7613a25ecc738585a232ad50a301178f12b3ba8887d13e138b523c4269c4768983611aff565b8061133157506113307fa49807205ce4d355092ef5a8a18f56e8913cf4a201fbe287825b095693c2177583611aff565b5b9050919050565b6113627f7613a25ecc738585a232ad50a301178f12b3ba8887d13e138b523c4269c4768933611aff565b15611457577fa49807205ce4d355092ef5a8a18f56e8913cf4a201fbe287825b095693c217758214806113b457507f114e74f6ea3bd819998f78687bfcb11b140da08e9b7d222fa9c1f1ba1f2aa12282145b806113de57507fce3f34913921da558f105cefb578d87278debbbd073a8d552b5de0d168deee3082145b8061140857507f0ce23c3e399818cfee81a7ab0880f714e53d7672b08df0fa62f2843416e1ea0982145b611447576040517f08c379a000000000000000000000000000000000000000000000000000000000815260040161143e90614a16565b60405180910390fd5b6114518282612503565b50611462565b61146182826125ed565b5b5050565b61146e612420565b73ffffffffffffffffffffffffffffffffffffffff168173ffffffffffffffffffffffffffffffffffffffff16146114d2576040517f6697b23200000000000000000000000000000000000000000000000000000000815260040160405180910390fd5b6114dc828261260f565b505050565b7f7613a25ecc738585a232ad50a301178f12b3ba8887d13e138b523c4269c4768961150b816126f9565b61151361270d565b50565b61153083838360405180602001604052805f815250611e41565b505050565b7f7613a25ecc738585a232ad50a301178f12b3ba8887d13e138b523c4269c4768981565b7f7613a25ecc738585a232ad50a301178f12b3ba8887d13e138b523c4269c47689611583816126f9565b61158d8385611aff565b6115cc576040517f08c379a00000000000000000000000000000000000000000000000000000000081526004016115c390614a7e565b60405180910390fd5b6115d6838561260f565b50828473ffffffffffffffffffffffffffffffffffffffff163373ffffffffffffffffffffffffffffffffffffffff167ff460e388dc46fdee464ee024ca3b0c33ab26345ac38de78ea140bb5cbce141c1856040516116359190613a7d565b60405180910390a450505050565b5f60095f9054906101000a900460ff16905090565b5f600b5f8381526020019081526020015f205f9054906101000a900460ff169050919050565b5f61168882612361565b9050919050565b5f5f73ffffffffffffffffffffffffffffffffffffffff168273ffffffffffffffffffffffffffffffffffffffff1603611700575f6040517f89c62b640000000000000000000000000000000000000000000000000000000081526004016116f79190613c5a565b60405180910390fd5b60035f8373ffffffffffffffffffffffffffffffffffffffff1673ffffffffffffffffffffffffffffffffffffffff1681526020019081526020015f20549050919050565b61174d61276e565b6117565f6127f5565b565b7fa49807205ce4d355092ef5a8a18f56e8913cf4a201fbe287825b095693c2177581565b6117868233611aff565b156117c6576040517f08c379a00000000000000000000000000000000000000000000000000000000081526004016117bd90614ae6565b60405180910390fd5b7f114e74f6ea3bd819998f78687bfcb11b140da08e9b7d222fa9c1f1ba1f2aa12282148061181357507fce3f34913921da558f105cefb578d87278debbbd073a8d552b5de0d168deee3082145b8061183d57507f0ce23c3e399818cfee81a7ab0880f714e53d7672b08df0fa62f2843416e1ea0982145b8061186757507fa49807205ce4d355092ef5a8a18f56e8913cf4a201fbe287825b095693c2177582145b6118a6576040517f08c379a000000000000000000000000000000000000000000000000000000000815260040161189d90614b4e565b60405180910390fd5b813373ffffffffffffffffffffffffffffffffffffffff167f98f6f2d133c420a141a671ce9479e3956417c7f04bd370de1cd64ce10d385d94836040516118ed9190613a7d565b60405180910390a35050565b7fce3f34913921da558f105cefb578d87278debbbd073a8d552b5de0d168deee3081565b7f114e74f6ea3bd819998f78687bfcb11b140da08e9b7d222fa9c1f1ba1f2aa12281565b7f7613a25ecc738585a232ad50a301178f12b3ba8887d13e138b523c4269c4768961196b816126f9565b6119736128b8565b50565b7f7613a25ecc738585a232ad50a301178f12b3ba8887d13e138b523c4269c476896119a0816126f9565b81518351146119e4576040517f08c379a00000000000000000000000000000000000000000000000000000000081526004016119db90614bb6565b60405180910390fd5b5f5f90505b8351811015611a3d57611a30838281518110611a0857611a07614361565b5b6020026020010151858381518110611a2357611a22614361565b5b6020026020010151611338565b80806001019150506119e9565b50505050565b5f611a6e7f7613a25ecc738585a232ad50a301178f12b3ba8887d13e138b523c4269c4768983611aff565b80611a9f5750611a9e7fa49807205ce4d355092ef5a8a18f56e8913cf4a201fbe287825b095693c2177583611aff565b5b80611ad05750611acf7f114e74f6ea3bd819998f78687bfcb11b140da08e9b7d222fa9c1f1ba1f2aa12283611aff565b5b9050919050565b5f60075f9054906101000a900473ffffffffffffffffffffffffffffffffffffffff16905090565b5f60085f8481526020019081526020015f205f015f8373ffffffffffffffffffffffffffffffffffffffff1673ffffffffffffffffffffffffffffffffffffffff1681526020019081526020015f205f9054906101000a900460ff16905092915050565b606060018054611b7290614567565b80601f0160208091040260200160405190810160405280929190818152602001828054611b9e90614567565b8015611be95780601f10611bc057610100808354040283529160200191611be9565b820191905f5260205f20905b815481529060010190602001808311611bcc57829003601f168201915b5050505050905090565b5f5f1b81565b611c0b611c04612420565b838361291a565b5050565b60605f611c1b83611f71565b90505f8167ffffffffffffffff811115611c3857611c37613aa5565b5b604051908082528060200260200182016040528015611c665781602001602082028036833780820191505090505b5090508092505050919050565b5f5f5f60605f73ffffffffffffffffffffffffffffffffffffffff16611c98866122b1565b73ffffffffffffffffffffffffffffffffffffffff1603611cee576040517f08c379a0000000000000000000000000000000000000000000000000000000008152600401611ce5906144b4565b60405180910390fd5b5f600c5f8781526020019081526020015f206040518060800160405290815f82015f9054906101000a900473ffffffffffffffffffffffffffffffffffffffff1673ffffffffffffffffffffffffffffffffffffffff1673ffffffffffffffffffffffffffffffffffffffff16815260200160018201548152602001600282015f9054906101000a900460ff16151515158152602001600382018054611d9390614567565b80601f0160208091040260200160405190810160405280929190818152602001828054611dbf90614567565b8015611e0a5780601f10611de157610100808354040283529160200191611e0a565b820191905f5260205f20905b815481529060010190602001808311611ded57829003601f168201915b5050505050815250509050611e1e866122b1565b81602001518260400151611e3189611e66565b9450945094509450509193509193565b611e4c8484846111b9565b611e60611e57612420565b85858585612a83565b50505050565b6060611e7182612361565b505f60065f8481526020019081526020015f208054611e8f90614567565b80601f0160208091040260200160405190810160405280929190818152602001828054611ebb90614567565b8015611f065780601f10611edd57610100808354040283529160200191611f06565b820191905f5260205f20905b815481529060010190602001808311611ee957829003601f168201915b505050505090505f611f16612c2f565b90505f815103611f2a578192505050611f6c565b5f82511115611f5e578082604051602001611f46929190614c0e565b60405160208183030381529060405292505050611f6c565b611f6784612c45565b925050505b919050565b5f611f7c8233611aff565b15611f8a5760019050611f8e565b5f90505b919050565b611fbd7f7613a25ecc738585a232ad50a301178f12b3ba8887d13e138b523c4269c4768933611aff565b156120b2577fa49807205ce4d355092ef5a8a18f56e8913cf4a201fbe287825b095693c2177582148061200f57507f114e74f6ea3bd819998f78687bfcb11b140da08e9b7d222fa9c1f1ba1f2aa12282145b8061203957507fce3f34913921da558f105cefb578d87278debbbd073a8d552b5de0d168deee3082145b8061206357507f0ce23c3e399818cfee81a7ab0880f714e53d7672b08df0fa62f2843416e1ea0982145b6120a2576040517f08c379a000000000000000000000000000000000000000000000000000000000815260040161209990614ca1565b60405180910390fd5b6120ac828261260f565b506120bd565b6120bc8282612cab565b5b5050565b7f0ce23c3e399818cfee81a7ab0880f714e53d7672b08df0fa62f2843416e1ea0981565b5f60055f8473ffffffffffffffffffffffffffffffffffffffff1673ffffffffffffffffffffffffffffffffffffffff1681526020019081526020015f205f8373ffffffffffffffffffffffffffffffffffffffff1673ffffffffffffffffffffffffffffffffffffffff1681526020019081526020015f205f9054906101000a900460ff16905092915050565b61217b61276e565b5f73ffffffffffffffffffffffffffffffffffffffff168173ffffffffffffffffffffffffffffffffffffffff16036121eb575f6040517f1e4fbdf70000000000000000000000000000000000000000000000000000000081526004016121e29190613c5a565b60405180910390fd5b6121f4816127f5565b50565b5f7f7965db0b000000000000000000000000000000000000000000000000000000007bffffffffffffffffffffffffffffffffffffffffffffffffffffffff1916827bffffffffffffffffffffffffffffffffffffffffffffffffffffffff19161480612269575061226882612ccd565b5b9050919050565b612278611643565b156122af576040517fd93c066500000000000000000000000000000000000000000000000000000000815260040160405180910390fd5b565b5f60025f8381526020019081526020015f205f9054906101000a900473ffffffffffffffffffffffffffffffffffffffff169050919050565b612303828260405180602001604052805f815250612d2d565b5050565b8060065f8481526020019081526020015f20908161232591906148a2565b507ff8e1a15aba9398e019f0b49df1a4fde98ee17ae345cb5f6b5e2c27f5033e8ce7826040516123559190613c32565b60405180910390a15050565b5f5f61236c836122b1565b90505f73ffffffffffffffffffffffffffffffffffffffff168173ffffffffffffffffffffffffffffffffffffffff16036123de57826040517f7e2732890000000000000000000000000000000000000000000000000000000081526004016123d59190613c32565b60405180910390fd5b80915050919050565b5f60045f8381526020019081526020015f205f9054906101000a900473ffffffffffffffffffffffffffffffffffffffff169050919050565b5f33905090565b6124348383836001612d50565b505050565b5f5f612444846122b1565b90505f73ffffffffffffffffffffffffffffffffffffffff168173ffffffffffffffffffffffffffffffffffffffff16141580156124ae57505f73ffffffffffffffffffffffffffffffffffffffff168573ffffffffffffffffffffffffffffffffffffffff1614155b156124ee576040517f08c379a00000000000000000000000000000000000000000000000000000000081526004016124e590614d2f565b60405180910390fd5b6124f9858585612f0f565b9150509392505050565b5f61250e8383611aff565b6125e357600160085f8581526020019081526020015f205f015f8473ffffffffffffffffffffffffffffffffffffffff1673ffffffffffffffffffffffffffffffffffffffff1681526020019081526020015f205f6101000a81548160ff021916908315150217905550612580612420565b73ffffffffffffffffffffffffffffffffffffffff168273ffffffffffffffffffffffffffffffffffffffff16847f2f8788117e7eff1d82e926ec794901d17c78024a50270940304540a733656f0d60405160405180910390a4600190506125e7565b5f90505b92915050565b6125f6826112b8565b6125ff816126f9565b6126098383612503565b50505050565b5f61261a8383611aff565b156126ef575f60085f8581526020019081526020015f205f015f8473ffffffffffffffffffffffffffffffffffffffff1673ffffffffffffffffffffffffffffffffffffffff1681526020019081526020015f205f6101000a81548160ff02191690831515021790555061268c612420565b73ffffffffffffffffffffffffffffffffffffffff168273ffffffffffffffffffffffffffffffffffffffff16847ff6391f5c32d9c69d2a47ea670b442974b53935d1edc7fd64eb21e047a839171b60405160405180910390a4600190506126f3565b5f90505b92915050565b61270a81612705612420565b61311a565b50565b61271561316b565b5f60095f6101000a81548160ff0219169083151502179055507f5db9ee0a495bf2e6ff9c91a7834c1ba4fdd244a5e8aa4e537bd38aeae4b073aa612757612420565b6040516127649190613c5a565b60405180910390a1565b612776612420565b73ffffffffffffffffffffffffffffffffffffffff16612794611ad7565b73ffffffffffffffffffffffffffffffffffffffff16146127f3576127b7612420565b6040517f118cdaa70000000000000000000000000000000000000000000000000000000081526004016127ea9190613c5a565b60405180910390fd5b565b5f60075f9054906101000a900473ffffffffffffffffffffffffffffffffffffffff1690508160075f6101000a81548173ffffffffffffffffffffffffffffffffffffffff021916908373ffffffffffffffffffffffffffffffffffffffff1602179055508173ffffffffffffffffffffffffffffffffffffffff168173ffffffffffffffffffffffffffffffffffffffff167f8be0079c531659141344cd1fd0a4f28419497f9722a3daafe3b4186f6b6457e060405160405180910390a35050565b6128c0612270565b600160095f6101000a81548160ff0219169083151502179055507f62e78cea01bee320cd4e420270b5ea74000d11b0c9f74754ebdbfc544b05a258612903612420565b6040516129109190613c5a565b60405180910390a1565b5f73ffffffffffffffffffffffffffffffffffffffff168273ffffffffffffffffffffffffffffffffffffffff160361298a57816040517f5b08ba180000000000000000000000000000000000000000000000000000000081526004016129819190613c5a565b60405180910390fd5b8060055f8573ffffffffffffffffffffffffffffffffffffffff1673ffffffffffffffffffffffffffffffffffffffff1681526020019081526020015f205f8473ffffffffffffffffffffffffffffffffffffffff1673ffffffffffffffffffffffffffffffffffffffff1681526020019081526020015f205f6101000a81548160ff0219169083151502179055508173ffffffffffffffffffffffffffffffffffffffff168373ffffffffffffffffffffffffffffffffffffffff167f17307eab39ab6107e8899845ad3d59bd9653f200f220920489ca2b5937696c3183604051612a769190613831565b60405180910390a3505050565b5f8373ffffffffffffffffffffffffffffffffffffffff163b1115612c28578273ffffffffffffffffffffffffffffffffffffffff1663150b7a02868685856040518563ffffffff1660e01b8152600401612ae19493929190614d9f565b6020604051808303815f875af1925050508015612b1c57506040513d601f19601f82011682018060405250810190612b199190614dfd565b60015b612b9d573d805f8114612b4a576040519150601f19603f3d011682016040523d82523d5f602084013e612b4f565b606091505b505f815103612b9557836040517f64a0ae92000000000000000000000000000000000000000000000000000000008152600401612b8c9190613c5a565b60405180910390fd5b805160208201fd5b63150b7a0260e01b7bffffffffffffffffffffffffffffffffffffffffffffffffffffffff1916817bffffffffffffffffffffffffffffffffffffffffffffffffffffffff191614612c2657836040517f64a0ae92000000000000000000000000000000000000000000000000000000008152600401612c1d9190613c5a565b60405180910390fd5b505b5050505050565b606060405180602001604052805f815250905090565b6060612c5082612361565b505f612c5a612c2f565b90505f815111612c785760405180602001604052805f815250612ca3565b80612c82846131ab565b604051602001612c93929190614c0e565b6040516020818303038152906040525b915050919050565b612cb4826112b8565b612cbd816126f9565b612cc7838361260f565b50505050565b5f634906490660e01b7bffffffffffffffffffffffffffffffffffffffffffffffffffffffff1916827bffffffffffffffffffffffffffffffffffffffffffffffffffffffff19161480612d265750612d2582613275565b5b9050919050565b612d378383613356565b612d4b612d42612420565b5f858585612a83565b505050565b8080612d8857505f73ffffffffffffffffffffffffffffffffffffffff168273ffffffffffffffffffffffffffffffffffffffff1614155b15612eba575f612d9784612361565b90505f73ffffffffffffffffffffffffffffffffffffffff168373ffffffffffffffffffffffffffffffffffffffff1614158015612e0157508273ffffffffffffffffffffffffffffffffffffffff168173ffffffffffffffffffffffffffffffffffffffff1614155b8015612e145750612e1281846120e5565b155b15612e5657826040517fa9fbf51f000000000000000000000000000000000000000000000000000000008152600401612e4d9190613c5a565b60405180910390fd5b8115612eb857838573ffffffffffffffffffffffffffffffffffffffff168273ffffffffffffffffffffffffffffffffffffffff167f8c5be1e5ebec7d5bd14f71427d1e84f3dd0314c0f7b2291e5b200ac8c7c3b92560405160405180910390a45b505b8360045f8581526020019081526020015f205f6101000a81548173ffffffffffffffffffffffffffffffffffffffff021916908373ffffffffffffffffffffffffffffffffffffffff16021790555050505050565b5f5f612f1a846122b1565b90505f73ffffffffffffffffffffffffffffffffffffffff168373ffffffffffffffffffffffffffffffffffffffff1614612f5b57612f5a818486613449565b5b5f73ffffffffffffffffffffffffffffffffffffffff168173ffffffffffffffffffffffffffffffffffffffff1614612fe657612f9a5f855f5f612d50565b600160035f8373ffffffffffffffffffffffffffffffffffffffff1673ffffffffffffffffffffffffffffffffffffffff1681526020019081526020015f205f82825403925050819055505b5f73ffffffffffffffffffffffffffffffffffffffff168573ffffffffffffffffffffffffffffffffffffffff161461306557600160035f8773ffffffffffffffffffffffffffffffffffffffff1673ffffffffffffffffffffffffffffffffffffffff1681526020019081526020015f205f82825401925050819055505b8460025f8681526020019081526020015f205f6101000a81548173ffffffffffffffffffffffffffffffffffffffff021916908373ffffffffffffffffffffffffffffffffffffffff160217905550838573ffffffffffffffffffffffffffffffffffffffff168273ffffffffffffffffffffffffffffffffffffffff167fddf252ad1be2c89b69c2b068fc378daa952ba7f163c4a11628f55a4df523b3ef60405160405180910390a4809150509392505050565b6131248282611aff565b6131675780826040517fe2517d3f00000000000000000000000000000000000000000000000000000000815260040161315e929190614e28565b60405180910390fd5b5050565b613173611643565b6131a9576040517f8dfc202b00000000000000000000000000000000000000000000000000000000815260040160405180910390fd5b565b60605f60016131b98461350c565b0190505f8167ffffffffffffffff8111156131d7576131d6613aa5565b5b6040519080825280601f01601f1916602001820160405280156132095781602001600182028036833780820191505090505b5090505f82602083010190505b60011561326a578080600190039150507f3031323334353637383961626364656600000000000000000000000000000000600a86061a8153600a858161325f5761325e614e4f565b5b0494505f8503613216575b819350505050919050565b5f7f80ac58cd000000000000000000000000000000000000000000000000000000007bffffffffffffffffffffffffffffffffffffffffffffffffffffffff1916827bffffffffffffffffffffffffffffffffffffffffffffffffffffffff1916148061333f57507f5b5e139f000000000000000000000000000000000000000000000000000000007bffffffffffffffffffffffffffffffffffffffffffffffffffffffff1916827bffffffffffffffffffffffffffffffffffffffffffffffffffffffff1916145b8061334f575061334e8261365d565b5b9050919050565b5f73ffffffffffffffffffffffffffffffffffffffff168273ffffffffffffffffffffffffffffffffffffffff16036133c6575f6040517f64a0ae920000000000000000000000000000000000000000000000000000000081526004016133bd9190613c5a565b60405180910390fd5b5f6133d283835f612439565b90505f73ffffffffffffffffffffffffffffffffffffffff168173ffffffffffffffffffffffffffffffffffffffff1614613444575f6040517f73c6ac6e00000000000000000000000000000000000000000000000000000000815260040161343b9190613c5a565b60405180910390fd5b505050565b6134548383836136c6565b613507575f73ffffffffffffffffffffffffffffffffffffffff168373ffffffffffffffffffffffffffffffffffffffff16036134c857806040517f7e2732890000000000000000000000000000000000000000000000000000000081526004016134bf9190613c32565b60405180910390fd5b81816040517f177e802f0000000000000000000000000000000000000000000000000000000081526004016134fe929190614e7c565b60405180910390fd5b505050565b5f5f5f90507a184f03e93ff9f4daa797ed6e38ed64bf6a1f0100000000000000008310613568577a184f03e93ff9f4daa797ed6e38ed64bf6a1f010000000000000000838161355e5761355d614e4f565b5b0492506040810190505b6d04ee2d6d415b85acef810000000083106135a5576d04ee2d6d415b85acef8100000000838161359b5761359a614e4f565b5b0492506020810190505b662386f26fc1000083106135d457662386f26fc1000083816135ca576135c9614e4f565b5b0492506010810190505b6305f5e10083106135fd576305f5e10083816135f3576135f2614e4f565b5b0492506008810190505b612710831061362257612710838161361857613617614e4f565b5b0492506004810190505b60648310613645576064838161363b5761363a614e4f565b5b0492506002810190505b600a8310613654576001810190505b80915050919050565b5f7f01ffc9a7000000000000000000000000000000000000000000000000000000007bffffffffffffffffffffffffffffffffffffffffffffffffffffffff1916827bffffffffffffffffffffffffffffffffffffffffffffffffffffffff1916149050919050565b5f5f73ffffffffffffffffffffffffffffffffffffffff168373ffffffffffffffffffffffffffffffffffffffff161415801561377d57508273ffffffffffffffffffffffffffffffffffffffff168473ffffffffffffffffffffffffffffffffffffffff16148061373e575061373d84846120e5565b5b8061377c57508273ffffffffffffffffffffffffffffffffffffffff16613764836123e7565b73ffffffffffffffffffffffffffffffffffffffff16145b5b90509392505050565b5f604051905090565b5f5ffd5b5f5ffd5b5f7fffffffff0000000000000000000000000000000000000000000000000000000082169050919050565b6137cb81613797565b81146137d5575f5ffd5b50565b5f813590506137e6816137c2565b92915050565b5f602082840312156138015761380061378f565b5b5f61380e848285016137d8565b91505092915050565b5f8115159050919050565b61382b81613817565b82525050565b5f6020820190506138445f830184613822565b92915050565b5f73ffffffffffffffffffffffffffffffffffffffff82169050919050565b5f6138738261384a565b9050919050565b61388381613869565b811461388d575f5ffd5b50565b5f8135905061389e8161387a565b92915050565b5f602082840312156138b9576138b861378f565b5b5f6138c684828501613890565b91505092915050565b5f81519050919050565b5f82825260208201905092915050565b5f819050602082019050919050565b5f819050919050565b61390a816138f8565b82525050565b5f61391b8383613901565b60208301905092915050565b5f602082019050919050565b5f61393d826138cf565b61394781856138d9565b9350613952836138e9565b805f5b838110156139825781516139698882613910565b975061397483613927565b925050600181019050613955565b5085935050505092915050565b5f6020820190508181035f8301526139a78184613933565b905092915050565b5f819050919050565b6139c1816139af565b81146139cb575f5ffd5b50565b5f813590506139dc816139b8565b92915050565b5f602082840312156139f7576139f661378f565b5b5f613a04848285016139ce565b91505092915050565b5f81519050919050565b5f82825260208201905092915050565b8281835e5f83830152505050565b5f601f19601f8301169050919050565b5f613a4f82613a0d565b613a598185613a17565b9350613a69818560208601613a27565b613a7281613a35565b840191505092915050565b5f6020820190508181035f830152613a958184613a45565b905092915050565b5f5ffd5b5f5ffd5b7f4e487b71000000000000000000000000000000000000000000000000000000005f52604160045260245ffd5b613adb82613a35565b810181811067ffffffffffffffff82111715613afa57613af9613aa5565b5b80604052505050565b5f613b0c613786565b9050613b188282613ad2565b919050565b5f67ffffffffffffffff821115613b3757613b36613aa5565b5b613b4082613a35565b9050602081019050919050565b828183375f83830152505050565b5f613b6d613b6884613b1d565b613b03565b905082815260208101848484011115613b8957613b88613aa1565b5b613b94848285613b4d565b509392505050565b5f82601f830112613bb057613baf613a9d565b5b8135613bc0848260208601613b5b565b91505092915050565b5f5f60408385031215613bdf57613bde61378f565b5b5f613bec85828601613890565b925050602083013567ffffffffffffffff811115613c0d57613c0c613793565b5b613c1985828601613b9c565b9150509250929050565b613c2c816139af565b82525050565b5f602082019050613c455f830184613c23565b92915050565b613c5481613869565b82525050565b5f602082019050613c6d5f830184613c4b565b92915050565b5f5f60408385031215613c8957613c8861378f565b5b5f613c9685828601613890565b9250506020613ca7858286016139ce565b9150509250929050565b5f5f5f60608486031215613cc857613cc761378f565b5b5f613cd586828701613890565b9350506020613ce686828701613890565b9250506040613cf7868287016139ce565b9150509250925092565b613d0a816138f8565b8114613d14575f5ffd5b50565b5f81359050613d2581613d01565b92915050565b5f60208284031215613d4057613d3f61378f565b5b5f613d4d84828501613d17565b91505092915050565b613d5f816138f8565b82525050565b5f602082019050613d785f830184613d56565b92915050565b5f5f60408385031215613d9457613d9361378f565b5b5f613da185828601613d17565b9250506020613db285828601613890565b9150509250929050565b5f5f5f60608486031215613dd357613dd261378f565b5b5f613de086828701613890565b9350506020613df186828701613d17565b925050604084013567ffffffffffffffff811115613e1257613e11613793565b5b613e1e86828701613b9c565b9150509250925092565b5f5f60408385031215613e3e57613e3d61378f565b5b5f613e4b85828601613d17565b925050602083013567ffffffffffffffff811115613e6c57613e6b613793565b5b613e7885828601613b9c565b9150509250929050565b5f67ffffffffffffffff821115613e9c57613e9b613aa5565b5b602082029050602081019050919050565b5f5ffd5b5f613ec3613ebe84613e82565b613b03565b90508083825260208201905060208402830185811115613ee657613ee5613ead565b5b835b81811015613f0f5780613efb8882613890565b845260208401935050602081019050613ee8565b5050509392505050565b5f82601f830112613f2d57613f2c613a9d565b5b8135613f3d848260208601613eb1565b91505092915050565b5f67ffffffffffffffff821115613f6057613f5f613aa5565b5b602082029050602081019050919050565b5f613f83613f7e84613f46565b613b03565b90508083825260208201905060208402830185811115613fa657613fa5613ead565b5b835b81811015613fcf5780613fbb8882613d17565b845260208401935050602081019050613fa8565b5050509392505050565b5f82601f830112613fed57613fec613a9d565b5b8135613ffd848260208601613f71565b91505092915050565b5f5f6040838503121561401c5761401b61378f565b5b5f83013567ffffffffffffffff81111561403957614038613793565b5b61404585828601613f19565b925050602083013567ffffffffffffffff81111561406657614065613793565b5b61407285828601613fd9565b9150509250929050565b61408581613817565b811461408f575f5ffd5b50565b5f813590506140a08161407c565b92915050565b5f5f604083850312156140bc576140bb61378f565b5b5f6140c985828601613890565b92505060206140da85828601614092565b9150509250929050565b5f81519050919050565b5f82825260208201905092915050565b5f819050602082019050919050565b61411681613869565b82525050565b5f614127838361410d565b60208301905092915050565b5f602082019050919050565b5f614149826140e4565b61415381856140ee565b935061415e836140fe565b805f5b8381101561418e578151614175888261411c565b975061418083614133565b925050600181019050614161565b5085935050505092915050565b5f6020820190508181035f8301526141b3818461413f565b905092915050565b5f6080820190506141ce5f830187613c4b565b6141db6020830186613c23565b6141e86040830185613822565b81810360608301526141fa8184613a45565b905095945050505050565b5f67ffffffffffffffff82111561421f5761421e613aa5565b5b61422882613a35565b9050602081019050919050565b5f61424761424284614205565b613b03565b90508281526020810184848401111561426357614262613aa1565b5b61426e848285613b4d565b509392505050565b5f82601f83011261428a57614289613a9d565b5b813561429a848260208601614235565b91505092915050565b5f5f5f5f608085870312156142bb576142ba61378f565b5b5f6142c887828801613890565b94505060206142d987828801613890565b93505060406142ea878288016139ce565b925050606085013567ffffffffffffffff81111561430b5761430a613793565b5b61431787828801614276565b91505092959194509250565b5f5f604083850312156143395761433861378f565b5b5f61434685828601613890565b925050602061435785828601613890565b9150509250929050565b7f4e487b71000000000000000000000000000000000000000000000000000000005f52603260045260245ffd5b7f4e487b71000000000000000000000000000000000000000000000000000000005f52601160045260245ffd5b5f6143c5826139af565b91507fffffffffffffffffffffffffffffffffffffffffffffffffffffffffffffffff82036143f7576143f661438e565b5b600182019050919050565b7f4d7573742068617665205245564f4b45525f524f4c45206f72206869676865725f82015250565b5f614436602083613a17565b915061444182614402565b602082019050919050565b5f6020820190508181035f8301526144638161442a565b9050919050565b7f436572746966696361746520646f6573206e6f742065786973740000000000005f82015250565b5f61449e601a83613a17565b91506144a98261446a565b602082019050919050565b5f6020820190508181035f8301526144cb81614492565b9050919050565b7f436572746966696361746520616c7265616479207265766f6b656400000000005f82015250565b5f614506601b83613a17565b9150614511826144d2565b602082019050919050565b5f6020820190508181035f830152614533816144fa565b9050919050565b7f4e487b71000000000000000000000000000000000000000000000000000000005f52602260045260245ffd5b5f600282049050600182168061457e57607f821691505b6020821081036145915761459061453a565b5b50919050565b7f4d7573742068617665204953535545525f524f4c45206f7220686967686572005f82015250565b5f6145cb601f83613a17565b91506145d682614597565b602082019050919050565b5f6020820190508181035f8301526145f8816145bf565b9050919050565b7f43616e6e6f74206d696e7420746f207a65726f206164647265737300000000005f82015250565b5f614633601b83613a17565b915061463e826145ff565b602082019050919050565b5f6020820190508181035f83015261466081614627565b9050919050565b7f546f6b656e205552492063616e6e6f7420626520656d707479000000000000005f82015250565b5f61469b601983613a17565b91506146a682614667565b602082019050919050565b5f6020820190508181035f8301526146c88161468f565b9050919050565b5f6146d9826139af565b91506146e4836139af565b92508282019050808211156146fc576146fb61438e565b5b92915050565b5f819050815f5260205f209050919050565b5f6020601f8301049050919050565b5f82821b905092915050565b5f6008830261475e7fffffffffffffffffffffffffffffffffffffffffffffffffffffffffffffffff82614723565b6147688683614723565b95508019841693508086168417925050509392505050565b5f819050919050565b5f6147a361479e614799846139af565b614780565b6139af565b9050919050565b5f819050919050565b6147bc83614789565b6147d06147c8826147aa565b84845461472f565b825550505050565b5f5f905090565b6147e76147d8565b6147f28184846147b3565b505050565b5b818110156148155761480a5f826147df565b6001810190506147f8565b5050565b601f82111561485a5761482b81614702565b61483484614714565b81016020851015614843578190505b61485761484f85614714565b8301826147f7565b50505b505050565b5f82821c905092915050565b5f61487a5f198460080261485f565b1980831691505092915050565b5f614892838361486b565b9150826002028217905092915050565b6148ab82613a0d565b67ffffffffffffffff8111156148c4576148c3613aa5565b5b6148ce8254614567565b6148d9828285614819565b5f60209050601f83116001811461490a575f84156148f8578287015190505b6149028582614887565b865550614969565b601f19841661491886614702565b5f5b8281101561493f5784890151825560018201915060208501945060208101905061491a565b8683101561495c5784890151614958601f89168261486b565b8355505b6001600288020188555050505b505050505050565b5f6060820190506149845f830186613c4b565b6149916020830185613c23565b61499e6040830184613c4b565b949350505050565b7f53555045525f41444d494e2063616e6e6f74206772616e742044454641554c545f8201527f5f41444d494e5f524f4c45000000000000000000000000000000000000000000602082015250565b5f614a00602b83613a17565b9150614a0b826149a6565b604082019050919050565b5f6020820190508181035f830152614a2d816149f4565b9050919050565b7f5573657220646f6573206e6f742068617665207468697320726f6c65000000005f82015250565b5f614a68601c83613a17565b9150614a7382614a34565b602082019050919050565b5f6020820190508181035f830152614a9581614a5c565b9050919050565b7f416c726561647920686173207468697320726f6c6500000000000000000000005f82015250565b5f614ad0601583613a17565b9150614adb82614a9c565b602082019050919050565b5f6020820190508181035f830152614afd81614ac4565b9050919050565b7f43616e6e6f7420726571756573742053555045525f41444d494e5f524f4c45005f82015250565b5f614b38601f83613a17565b9150614b4382614b04565b602082019050919050565b5f6020820190508181035f830152614b6581614b2c565b9050919050565b7f417272617973206c656e677468206d69736d61746368000000000000000000005f82015250565b5f614ba0601683613a17565b9150614bab82614b6c565b602082019050919050565b5f6020820190508181035f830152614bcd81614b94565b9050919050565b5f81905092915050565b5f614be882613a0d565b614bf28185614bd4565b9350614c02818560208601613a27565b80840191505092915050565b5f614c198285614bde565b9150614c258284614bde565b91508190509392505050565b7f53555045525f41444d494e2063616e6e6f74207265766f6b652044454641554c5f8201527f545f41444d494e5f524f4c450000000000000000000000000000000000000000602082015250565b5f614c8b602c83613a17565b9150614c9682614c31565b604082019050919050565b5f6020820190508181035f830152614cb881614c7f565b9050919050565b7f436572746966696361746520697320736f756c626f756e6420616e64206e6f6e5f8201527f2d7472616e7366657261626c6500000000000000000000000000000000000000602082015250565b5f614d19602d83613a17565b9150614d2482614cbf565b604082019050919050565b5f6020820190508181035f830152614d4681614d0d565b9050919050565b5f81519050919050565b5f82825260208201905092915050565b5f614d7182614d4d565b614d7b8185614d57565b9350614d8b818560208601613a27565b614d9481613a35565b840191505092915050565b5f608082019050614db25f830187613c4b565b614dbf6020830186613c4b565b614dcc6040830185613c23565b8181036060830152614dde8184614d67565b905095945050505050565b5f81519050614df7816137c2565b92915050565b5f60208284031215614e1257614e1161378f565b5b5f614e1f84828501614de9565b91505092915050565b5f604082019050614e3b5f830185613c4b565b614e486020830184613d56565b9392505050565b7f4e487b71000000000000000000000000000000000000000000000000000000005f52601260045260245ffd5b5f604082019050614e8f5f830185613c4b565b614e9c6020830184613c23565b939250505056fea26469706673582212207c36e16af68719b185fbe1ca6500c6bb4e181adffa67936409b5ff93ff89f75664736f6c634300081c0033",
  "linkReferences": {},
  "deployedLinkReferences": {},
  "immutableReferences": {},
  "inputSourceName": "project/contracts/CertificateNFT.sol",
  "buildInfoId": "solc-0_8_28-66e60de4420559e92e16efca61584fe200a2e11d"
}