{
  "_format": "hh3-artifact-1",
  "contractName": "CertificateNFT",
  "sourceName": "contracts/CertificateNFT.sol",
  "abi": [
    {
      "inputs": [
        {
          "internalType": "address",
          "name": "initialOwner",
          "type": "address"
        }
      ],
      "stateMutability": "nonpayable",
      "type": "constructor"
    },
    {
      "inputs": [],
      "name": "AccessControlBadConfirmation",
      "type": "error"
    },
    {
      "inputs": [
        {
          "internalType": "address",
          "name": "account",
          "type": "address"
        },
        {
          "internalType": "bytes32",
          "name": "neededRole",
          "type": "bytes32"
        }
      ],
      "name": "AccessControlUnauthorizedAccount",
      "type": "error"
    },
    {
      "inputs": [
        {
          "internalType": "address",
          "name": "sender",
          "type": "address"
        },
        {
          "internalType": "uint256",
          "name": "tokenId",
          "type": "uint256"
        },
        {
          "internalType": "address",
          "name": "owner",
          "type": "address"
        }
      ],
      "name": "ERC721IncorrectOwner",
      "type": "error"
    },
    {
      "inputs": [
        {
          "internalType": "address",
          "name": "operator",
          "type": "address"
        },
        {
          "internalType": "uint256",
          "name": "tokenId",
          "type": "uint256"
        }
      ],
      "name": "ERC721InsufficientApproval",
      "type": "error"
    },
    {
      "inputs": [
        {
          "internalType": "address",
          "name": "approver",
          "type": "address"
        }
      ],
      "name": "ERC721InvalidApprover",
      "type": "error"
    },
    {
      "inputs": [
        {
          "internalType": "address",
          "name": "operator",
          "type": "address"
        }
      ],
      "name": "ERC721InvalidOperator",
      "type": "error"
    },
    {
      "inputs": [
        {
          "internalType": "address",
          "name": "owner",
          "type": "address"
        }
      ],
      "name": "ERC721InvalidOwner",
      "type": "error"
    },
    {
      "inputs": [
        {
          "internalType": "address",
          "name": "receiver",
          "type": "address"
        }
      ],
      "name": "ERC721InvalidReceiver",
      "type": "error"
    },
    {
      "inputs": [
        {
          "internalType": "address",
          "name": "sender",
          "type": "address"
        }
      ],
      "name": "ERC721InvalidSender",
      "type": "error"
    },
    {
      "inputs": [
        {
          "internalType": "uint256",
          "name": "tokenId",
          "type": "uint256"
        }
      ],
      "name": "ERC721NonexistentToken",
      "type": "error"
    },
    {
      "inputs": [],
      "name": "EnforcedPause",
      "type": "error"
    },
    {
      "inputs": [],
      "name": "ExpectedPause",
      "type": "error"
    },
    {
      "inputs": [
        {
          "internalType": "address",
          "name": "owner",
          "type": "address"
        }
      ],
      "name": "OwnableInvalidOwner",
      "type": "error"
    },
    {
      "inputs": [
        {
          "internalType": "address",
          "name": "account",
          "type": "address"
        }
      ],
      "name": "OwnableUnauthorizedAccount",
      "type": "error"
    },
    {
      "anonymous": false,
      "inputs": [
        {
          "indexed": true,
          "internalType": "address",
          "name": "owner",
          "type": "address"
        },
        {
          "indexed": true,
          "internalType": "address",
          "name": "approved",
          "type": "address"
        },
        {
          "indexed": true,
          "internalType": "uint256",
          "name": "tokenId",
          "type": "uint256"
        }
      ],
      "name": "Approval",
      "type": "event"
    },
    {
      "anonymous": false,
      "inputs": [
        {
          "indexed": true,
          "internalType": "address",
          "name": "owner",
          "type": "address"
        },
        {
          "indexed": true,
          "internalType": "address",
          "name": "operator",
          "type": "address"
        },
        {
          "indexed": false,
          "internalType": "bool",
          "name": "approved",
          "type": "bool"
        }
      ],
      "name": "ApprovalForAll",
      "type": "event"
    },
    {
      "anonymous": false,
      "inputs": [
        {
          "indexed": false,
          "internalType": "uint256",
          "name": "_fromTokenId",
          "type": "uint256"
        },
        {
          "indexed": false,
          "internalType": "uint256",
          "name": "_toTokenId",
          "type": "uint256"
        }
      ],
      "name": "BatchMetadataUpdate",
      "type": "event"
    },
    {
      "anonymous": false,
      "inputs": [
        {
          "indexed": true,
          "internalType": "uint256",
          "name": "tokenId",
          "type": "uint256"
        },
        {
          "indexed": true,
          "internalType": "address",
          "name": "recipient",
          "type": "address"
        },
        {
          "indexed": false,
          "internalType": "string",
          "name": "tokenURI",
          "type": "string"
        }
      ],
      "name": "CertificateMinted",
      "type": "event"
    },
    {
      "anonymous": false,
      "inputs": [
        {
          "indexed": true,
          "internalType": "uint256",
          "name": "tokenId",
          "type": "uint256"
        },
        {
          "indexed": true,
          "internalType": "address",
          "name": "revoker",
          "type": "address"
        }
      ],
      "name": "CertificateRevoked",
      "type": "event"
    },
    {
      "anonymous": false,
      "inputs": [
        {
          "indexed": true,
          "internalType": "address",
          "name": "admin",
          "type": "address"
        },
        {
          "indexed": true,
          "internalType": "address",
          "name": "user",
          "type": "address"
        },
        {
          "indexed": true,
          "internalType": "bytes32",
          "name": "role",
          "type": "bytes32"
        },
        {
          "indexed": false,
          "internalType": "string",
          "name": "reason",
          "type": "string"
        }
      ],
      "name": "EmergencyRoleRevoked",
      "type": "event"
    },
    {
      "anonymous": false,
      "inputs": [
        {
          "indexed": false,
          "internalType": "uint256",
          "name": "_tokenId",
          "type": "uint256"
        }
      ],
      "name": "MetadataUpdate",
      "type": "event"
    },
    {
      "anonymous": false,
      "inputs": [
        {
          "indexed": true,
          "internalType": "address",
          "name": "previousOwner",
          "type": "address"
        },
        {
          "indexed": true,
          "internalType": "address",
          "name": "newOwner",
          "type": "address"
        }
      ],
      "name": "OwnershipTransferred",
      "type": "event"
    },
    {
      "anonymous": false,
      "inputs": [
        {
          "indexed": false,
          "internalType": "address",
          "name": "account",
          "type": "address"
        }
      ],
      "name": "Paused",
      "type": "event"
    },
    {
      "anonymous": false,
      "inputs": [
        {
          "indexed": true,
          "internalType": "bytes32",
          "name": "role",
          "type": "bytes32"
        },
        {
          "indexed": true,
          "internalType": "bytes32",
          "name": "previousAdminRole",
          "type": "bytes32"
        },
        {
          "indexed": true,
          "internalType": "bytes32",
          "name": "newAdminRole",
          "type": "bytes32"
        }
      ],
      "name": "RoleAdminChanged",
      "type": "event"
    },
    {
      "anonymous": false,
      "inputs": [
        {
          "indexed": true,
          "internalType": "bytes32",
          "name": "role",
          "type": "bytes32"
        },
        {
          "indexed": true,
          "internalType": "address",
          "name": "account",
          "type": "address"
        },
        {
          "indexed": true,
          "internalType": "address",
          "name": "sender",
          "type": "address"
        }
      ],
      "name": "RoleGranted",
      "type": "event"
    },
    {
      "anonymous": false,
      "inputs": [
        {
          "indexed": true,
          "internalType": "address",
          "name": "requester",
          "type": "address"
        },
        {
          "indexed": true,
          "internalType": "bytes32",
          "name": "role",
          "type": "bytes32"
        },
        {
          "indexed": false,
          "internalType": "string",
          "name": "justification",
          "type": "string"
        }
      ],
      "name": "RoleRequested",
      "type": "event"
    },
    {
      "anonymous": false,
      "inputs": [
        {
          "indexed": true,
          "internalType": "bytes32",
          "name": "role",
          "type": "bytes32"
        },
        {
          "indexed": true,
          "internalType": "address",
          "name": "account",
          "type": "address"
        },
        {
          "indexed": true,
          "internalType": "address",
          "name": "sender",
          "type": "address"
        }
      ],
      "name": "RoleRevoked",
      "type": "event"
    },
    {
      "anonymous": false,
      "inputs": [
        {
          "indexed": true,
          "internalType": "address",
          "name": "from",
          "type": "address"
        },
        {
          "indexed": true,
          "internalType": "address",
          "name": "to",
          "type": "address"
        },
        {
          "indexed": true,
          "internalType": "uint256",
          "name": "tokenId",
          "type": "uint256"
        }
      ],
      "name": "Transfer",
      "type": "event"
    },
    {
      "anonymous": false,
      "inputs": [
        {
          "indexed": false,
          "internalType": "address",
          "name": "account",
          "type": "address"
        }
      ],
      "name": "Unpaused",
      "type": "event"
    },
    {
      "inputs": [],
      "name": "ADMIN_ROLE",
      "outputs": [
        {
          "internalType": "bytes32",
          "name": "",
          "type": "bytes32"
        }
      ],
      "stateMutability": "view",
      "type": "function"
    },
    {
      "inputs": [],
      "name": "DEFAULT_ADMIN_ROLE",
      "outputs": [
        {
          "internalType": "bytes32",
          "name": "",
          "type": "bytes32"
        }
      ],
      "stateMutability": "view",
      "type": "function"
    },
    {
      "inputs": [],
      "name": "ISSUER_ROLE",
      "outputs": [
        {
          "internalType": "bytes32",
          "name": "",
          "type": "bytes32"
        }
      ],
      "stateMutability": "view",
      "type": "function"
    },
    {
      "inputs": [],
      "name": "REVOKER_ROLE",
      "outputs": [
        {
          "internalType": "bytes32",
          "name": "",
          "type": "bytes32"
        }
      ],
      "stateMutability": "view",
      "type": "function"
    },
    {
      "inputs": [],
      "name": "SUPER_ADMIN_ROLE",
      "outputs": [
        {
          "internalType": "bytes32",
          "name": "",
          "type": "bytes32"
        }
      ],
      "stateMutability": "view",
      "type": "function"
    },
    {
      "inputs": [],
      "name": "VERIFIER_ROLE",
      "outputs": [
        {
          "internalType": "bytes32",
          "name": "",
          "type": "bytes32"
        }
      ],
      "stateMutability": "view",
      "type": "function"
    },
    {
      "inputs": [
        {
          "internalType": "address",
          "name": "to",
          "type": "address"
        },
        {
          "internalType": "uint256",
          "name": "tokenId",
          "type": "uint256"
        }
      ],
      "name": "approve",
      "outputs": [],
      "stateMutability": "nonpayable",
      "type": "function"
    },
    {
      "inputs": [
        {
          "internalType": "address",
          "name": "owner",
          "type": "address"
        }
      ],
      "name": "balanceOf",
      "outputs": [
        {
          "internalType": "uint256",
          "name": "",
          "type": "uint256"
        }
      ],
      "stateMutability": "view",
      "type": "function"
    },
    {
      "inputs": [
        {
          "internalType": "address[]",
          "name": "users",
          "type": "address[]"
        },
        {
          "internalType": "bytes32[]",
          "name": "roles",
          "type": "bytes32[]"
        }
      ],
      "name": "batchGrantRoles",
      "outputs": [],
      "stateMutability": "nonpayable",
      "type": "function"
    },
    {
      "inputs": [
        {
          "internalType": "address",
          "name": "account",
          "type": "address"
        }
      ],
      "name": "canIssue",
      "outputs": [
        {
          "internalType": "bool",
          "name": "",
          "type": "bool"
        }
      ],
      "stateMutability": "view",
      "type": "function"
    },
    {
      "inputs": [
        {
          "internalType": "address",
          "name": "account",
          "type": "address"
        }
      ],
      "name": "canRevoke",
      "outputs": [
        {
          "internalType": "bool",
          "name": "",
          "type": "bool"
        }
      ],
      "stateMutability": "view",
      "type": "function"
    },
    {
      "inputs": [
        {
          "internalType": "address",
          "name": "user",
          "type": "address"
        },
        {
          "internalType": "bytes32",
          "name": "role",
          "type": "bytes32"
        },
        {
          "internalType": "string",
          "name": "reason",
          "type": "string"
        }
      ],
      "name": "emergencyRevokeRole",
      "outputs": [],
      "stateMutability": "nonpayable",
      "type": "function"
    },
    {
      "inputs": [
        {
          "internalType": "uint256",
          "name": "tokenId",
          "type": "uint256"
        }
      ],
      "name": "getApproved",
      "outputs": [
        {
          "internalType": "address",
          "name": "",
          "type": "address"
        }
      ],
      "stateMutability": "view",
      "type": "function"
    },
    {
      "inputs": [
        {
          "internalType": "uint256",
          "name": "tokenId",
          "type": "uint256"
        }
      ],
      "name": "getCertificateDetails",
      "outputs": [
        {
          "internalType": "address",
          "name": "owner",
          "type": "address"
        },
        {
          "internalType": "uint256",
          "name": "mintedAt",
          "type": "uint256"
        },
        {
          "internalType": "bool",
          "name": "revoked",
          "type": "bool"
        },
        {
          "internalType": "string",
          "name": "uri",
          "type": "string"
        }
      ],
      "stateMutability": "view",
      "type": "function"
    },
    {
      "inputs": [
        {
          "internalType": "bytes32",
          "name": "role",
          "type": "bytes32"
        }
      ],
      "name": "getRoleAdmin",
      "outputs": [
        {
          "internalType": "bytes32",
          "name": "",
          "type": "bytes32"
        }
      ],
      "stateMutability": "view",
      "type": "function"
    },
    {
      "inputs": [
        {
          "internalType": "bytes32",
          "name": "role",
          "type": "bytes32"
        }
      ],
      "name": "getRoleMemberCount",
      "outputs": [
        {
          "internalType": "uint256",
          "name": "",
          "type": "uint256"
        }
      ],
      "stateMutability": "view",
      "type": "function"
    },
    {
      "inputs": [
        {
          "internalType": "bytes32",
          "name": "role",
          "type": "bytes32"
        }
      ],
      "name": "getRoleMembers",
      "outputs": [
        {
          "internalType": "address[]",
          "name": "",
          "type": "address[]"
        }
      ],
      "stateMutability": "view",
      "type": "function"
    },
    {
      "inputs": [],
      "name": "getTotalMinted",
      "outputs": [
        {
          "internalType": "uint256",
          "name": "",
          "type": "uint256"
        }
      ],
      "stateMutability": "view",
      "type": "function"
    },
    {
      "inputs": [
        {
          "internalType": "address",
          "name": "account",
          "type": "address"
        }
      ],
      "name": "getUserRoles",
      "outputs": [
        {
          "internalType": "bytes32[]",
          "name": "",
          "type": "bytes32[]"
        }
      ],
      "stateMutability": "view",
      "type": "function"
    },
    {
      "inputs": [
        {
          "internalType": "bytes32",
          "name": "role",
          "type": "bytes32"
        },
        {
          "internalType": "address",
          "name": "account",
          "type": "address"
        }
      ],
      "name": "grantRole",
      "outputs": [],
      "stateMutability": "nonpayable",
      "type": "function"
    },
    {
      "inputs": [
        {
          "internalType": "bytes32",
          "name": "role",
          "type": "bytes32"
        },
        {
          "internalType": "address",
          "name": "account",
          "type": "address"
        }
      ],
      "name": "hasRole",
      "outputs": [
        {
          "internalType": "bool",
          "name": "",
          "type": "bool"
        }
      ],
      "stateMutability": "view",
      "type": "function"
    },
    {
      "inputs": [
        {
          "internalType": "address",
          "name": "account",
          "type": "address"
        }
      ],
      "name": "isAdmin",
      "outputs": [
        {
          "internalType": "bool",
          "name": "",
          "type": "bool"
        }
      ],
      "stateMutability": "view",
      "type": "function"
    },
    {
      "inputs": [
        {
          "internalType": "address",
          "name": "owner",
          "type": "address"
        },
        {
          "internalType": "address",
          "name": "operator",
          "type": "address"
        }
      ],
      "name": "isApprovedForAll",
      "outputs": [
        {
          "internalType": "bool",
          "name": "",
          "type": "bool"
        }
      ],
      "stateMutability": "view",
      "type": "function"
    },
    {
      "inputs": [
        {
          "internalType": "uint256",
          "name": "tokenId",
          "type": "uint256"
        }
      ],
      "name": "isRevoked",
      "outputs": [
        {
          "internalType": "bool",
          "name": "",
          "type": "bool"
        }
      ],
      "stateMutability": "view",
      "type": "function"
    },
    {
      "inputs": [
        {
          "internalType": "address",
          "name": "recipient",
          "type": "address"
        },
        {
          "internalType": "string",
          "name": "_tokenURI",
          "type": "string"
        }
      ],
      "name": "mintCertificate",
      "outputs": [
        {
          "internalType": "uint256",
          "name": "",
          "type": "uint256"
        }
      ],
      "stateMutability": "nonpayable",
      "type": "function"
    },
    {
      "inputs": [],
      "name": "name",
      "outputs": [
        {
          "internalType": "string",
          "name": "",
          "type": "string"
        }
      ],
      "stateMutability": "view",
      "type": "function"
    },
    {
      "inputs": [],
      "name": "owner",
      "outputs": [
        {
          "internalType": "address",
          "name": "",
          "type": "address"
        }
      ],
      "stateMutability": "view",
      "type": "function"
    },
    {
      "inputs": [
        {
          "internalType": "uint256",
          "name": "tokenId",
          "type": "uint256"
        }
      ],
      "name": "ownerOf",
      "outputs": [
        {
          "internalType": "address",
          "name": "",
          "type": "address"
        }
      ],
      "stateMutability": "view",
      "type": "function"
    },
    {
      "inputs": [],
      "name": "pause",
      "outputs": [],
      "stateMutability": "nonpayable",
      "type": "function"
    },
    {
      "inputs": [],
      "name": "paused",
      "outputs": [
        {
          "internalType": "bool",
          "name": "",
          "type": "bool"
        }
      ],
      "stateMutability": "view",
      "type": "function"
    },
    {
      "inputs": [],
      "name": "renounceOwnership",
      "outputs": [],
      "stateMutability": "nonpayable",
      "type": "function"
    },
    {
      "inputs": [
        {
          "internalType": "bytes32",
          "name": "role",
          "type": "bytes32"
        },
        {
          "internalType": "address",
          "name": "callerConfirmation",
          "type": "address"
        }
      ],
      "name": "renounceRole",
      "outputs": [],
      "stateMutability": "nonpayable",
      "type": "function"
    },
    {
      "inputs": [
        {
          "internalType": "bytes32",
          "name": "role",
          "type": "bytes32"
        },
        {
          "internalType": "string",
          "name": "justification",
          "type": "string"
        }
      ],
      "name": "requestRole",
      "outputs": [],
      "stateMutability": "nonpayable",
      "type": "function"
    },
    {
      "inputs": [
        {
          "internalType": "uint256",
          "name": "tokenId",
          "type": "uint256"
        }
      ],
      "name": "revokeCertificate",
      "outputs": [],
      "stateMutability": "nonpayable",
      "type": "function"
    },
    {
      "inputs": [
        {
          "internalType": "bytes32",
          "name": "role",
          "type": "bytes32"
        },
        {
          "internalType": "address",
          "name": "account",
          "type": "address"
        }
      ],
      "name": "revokeRole",
      "outputs": [],
      "stateMutability": "nonpayable",
      "type": "function"
    },
    {
      "inputs": [
        {
          "internalType": "address",
          "name": "from",
          "type": "address"
        },
        {
          "internalType": "address",
          "name": "to",
          "type": "address"
        },
        {
          "internalType": "uint256",
          "name": "tokenId",
          "type": "uint256"
        }
      ],
      "name": "safeTransferFrom",
      "outputs": [],
      "stateMutability": "nonpayable",
      "type": "function"
    },
    {
      "inputs": [
        {
          "internalType": "address",
          "name": "from",
          "type": "address"
        },
        {
          "internalType": "address",
          "name": "to",
          "type": "address"
        },
        {
          "internalType": "uint256",
          "name": "tokenId",
          "type": "uint256"
        },
        {
          "internalType": "bytes",
          "name": "data",
          "type": "bytes"
        }
      ],
      "name": "safeTransferFrom",
      "outputs": [],
      "stateMutability": "nonpayable",
      "type": "function"
    },
    {
      "inputs": [
        {
          "internalType": "address",
          "name": "operator",
          "type": "address"
        },
        {
          "internalType": "bool",
          "name": "approved",
          "type": "bool"
        }
      ],
      "name": "setApprovalForAll",
      "outputs": [],
      "stateMutability": "nonpayable",
      "type": "function"
    },
    {
      "inputs": [
        {
          "internalType": "bytes4",
          "name": "interfaceId",
          "type": "bytes4"
        }
      ],
      "name": "supportsInterface",
      "outputs": [
        {
          "internalType": "bool",
          "name": "",
          "type": "bool"
        }
      ],
      "stateMutability": "view",
      "type": "function"
    },
    {
      "inputs": [],
      "name": "symbol",
      "outputs": [
        {
          "internalType": "string",
          "name": "",
          "type": "string"
        }
      ],
      "stateMutability": "view",
      "type": "function"
    },
    {
      "inputs": [
        {
          "internalType": "uint256",
          "name": "tokenId",
          "type": "uint256"
        }
      ],
      "name": "tokenURI",
      "outputs": [
        {
          "internalType": "string",
          "name": "",
          "type": "string"
        }
      ],
      "stateMutability": "view",
      "type": "function"
    },
    {
      "inputs": [
        {
          "internalType": "address",
          "name": "from",
          "type": "address"
        },
        {
          "internalType": "address",
          "name": "to",
          "type": "address"
        },
        {
          "internalType": "uint256",
          "name": "tokenId",
          "type": "uint256"
        }
      ],
      "name": "transferFrom",
      "outputs": [],
      "stateMutability": "nonpayable",
      "type": "function"
    },
    {
      "inputs": [
        {
          "internalType": "address",
          "name": "newOwner",
          "type": "address"
        }
      ],
      "name": "transferOwnership",
      "outputs": [],
      "stateMutability": "nonpayable",
      "type": "function"
    },
    {
      "inputs": [],
      "name": "unpause",
      "outputs": [],
      "stateMutability": "nonpayable",
      "type": "function"
    },
    {
      "inputs": [
        {
          "internalType": "uint256",
          "name": "tokenId",
          "type": "uint256"
        }
      ],
      "name": "verifyCertificate",
      "outputs": [
        {
          "internalType": "bool",
          "name": "isValid",
          "type": "bool"
        }
      ],
      "stateMutability": "view",
      "type": "function"
    }
  ],
  "bytecode": "0x608060405234801561000f575f5ffd5b506040516154c63803806154c6833981810160405281019061003191906105f9565b806040518060400160405280600e81526020017f43657274696669636174654e46540000000000000000000000000000000000008152506040518060400160405280600481526020017f4345525400000000000000000000000000000000000000000000000000000000815250815f90816100ac9190610861565b5080600190816100bc9190610861565b5050505f73ffffffffffffffffffffffffffffffffffffffff168173ffffffffffffffffffffffffffffffffffffffff160361012f575f6040517f1e4fbdf7000000000000000000000000000000000000000000000000000000008152600401610126919061093f565b60405180910390fd5b61013e816102fb60201b60201c565b506101515f5f1b826103be60201b60201c565b506101827f7613a25ecc738585a232ad50a301178f12b3ba8887d13e138b523c4269c47689826103be60201b60201c565b506101b57f7613a25ecc738585a232ad50a301178f12b3ba8887d13e138b523c4269c476895f5f1b6104b460201b60201c565b6102057fa49807205ce4d355092ef5a8a18f56e8913cf4a201fbe287825b095693c217757f7613a25ecc738585a232ad50a301178f12b3ba8887d13e138b523c4269c476896104b460201b60201c565b6102557f114e74f6ea3bd819998f78687bfcb11b140da08e9b7d222fa9c1f1ba1f2aa1227fa49807205ce4d355092ef5a8a18f56e8913cf4a201fbe287825b095693c217756104b460201b60201c565b6102a57fce3f34913921da558f105cefb578d87278debbbd073a8d552b5de0d168deee307fa49807205ce4d355092ef5a8a18f56e8913cf4a201fbe287825b095693c217756104b460201b60201c565b6102f57f0ce23c3e399818cfee81a7ab0880f714e53d7672b08df0fa62f2843416e1ea097fa49807205ce4d355092ef5a8a18f56e8913cf4a201fbe287825b095693c217756104b460201b60201c565b50610958565b5f60075f9054906101000a900473ffffffffffffffffffffffffffffffffffffffff1690508160075f6101000a81548173ffffffffffffffffffffffffffffffffffffffff021916908373ffffffffffffffffffffffffffffffffffffffff1602179055508173ffffffffffffffffffffffffffffffffffffffff168173ffffffffffffffffffffffffffffffffffffffff167f8be0079c531659141344cd1fd0a4f28419497f9722a3daafe3b4186f6b6457e060405160405180910390a35050565b5f6103cf838361051360201b60201c565b6104aa57600160085f8581526020019081526020015f205f015f8473ffffffffffffffffffffffffffffffffffffffff1673ffffffffffffffffffffffffffffffffffffffff1681526020019081526020015f205f6101000a81548160ff02191690831515021790555061044761057760201b60201c565b73ffffffffffffffffffffffffffffffffffffffff168273ffffffffffffffffffffffffffffffffffffffff16847f2f8788117e7eff1d82e926ec794901d17c78024a50270940304540a733656f0d60405160405180910390a4600190506104ae565b5f90505b92915050565b5f6104c48361057e60201b60201c565b90508160085f8581526020019081526020015f20600101819055508181847fbd79b86ffe0ab8e8776151514217cd7cacd52c909f66475c3af44e129f0b00ff60405160405180910390a4505050565b5f60085f8481526020019081526020015f205f015f8373ffffffffffffffffffffffffffffffffffffffff1673ffffffffffffffffffffffffffffffffffffffff1681526020019081526020015f205f9054906101000a900460ff16905092915050565b5f33905090565b5f60085f8381526020019081526020015f20600101549050919050565b5f5ffd5b5f73ffffffffffffffffffffffffffffffffffffffff82169050919050565b5f6105c88261059f565b9050919050565b6105d8816105be565b81146105e2575f5ffd5b50565b5f815190506105f3816105cf565b92915050565b5f6020828403121561060e5761060d61059b565b5b5f61061b848285016105e5565b91505092915050565b5f81519050919050565b7f4e487b71000000000000000000000000000000000000000000000000000000005f52604160045260245ffd5b7f4e487b71000000000000000000000000000000000000000000000000000000005f52602260045260245ffd5b5f600282049050600182168061069f57607f821691505b6020821081036106b2576106b161065b565b5b50919050565b5f819050815f5260205f209050919050565b5f6020601f8301049050919050565b5f82821b905092915050565b5f600883026107147fffffffffffffffffffffffffffffffffffffffffffffffffffffffffffffffff826106d9565b61071e86836106d9565b95508019841693508086168417925050509392505050565b5f819050919050565b5f819050919050565b5f61076261075d61075884610736565b61073f565b610736565b9050919050565b5f819050919050565b61077b83610748565b61078f61078782610769565b8484546106e5565b825550505050565b5f5f905090565b6107a6610797565b6107b1818484610772565b505050565b5b818110156107d4576107c95f8261079e565b6001810190506107b7565b5050565b601f821115610819576107ea816106b8565b6107f3846106ca565b81016020851015610802578190505b61081661080e856106ca565b8301826107b6565b50505b505050565b5f82821c905092915050565b5f6108395f198460080261081e565b1980831691505092915050565b5f610851838361082a565b9150826002028217905092915050565b61086a82610624565b67ffffffffffffffff8111156108835761088261062e565b5b61088d8254610688565b6108988282856107d8565b5f60209050601f8311600181146108c9575f84156108b7578287015190505b6108c18582610846565b865550610928565b601f1984166108d7866106b8565b5f5b828110156108fe578489015182556001820191506020850194506020810190506108d9565b8683101561091b5784890151610917601f89168261082a565b8355505b6001600288020188555050505b505050505050565b610939816105be565b82525050565b5f6020820190506109525f830184610930565b92915050565b614b61806109655f395ff3fe608060405234801561000f575f5ffd5b506004361061027d575f3560e01c806370a082311161015a57806395d89b41116100cc578063c87b56dd11610085578063c87b56dd146107d2578063ca15c87314610802578063d547741f14610832578063e7705db61461084e578063e985e9c51461086c578063f2fde38b1461089c5761027d565b806395d89b41146106fb578063a217fddf14610719578063a22cb46514610737578063a3246ad314610753578063a901fe5e14610783578063b88d4fde146107b65761027d565b806382aefa241161011e57806382aefa24146106395780638456cb59146106575780638d66692d146106615780638d7055111461067d5780638da5cb5b146106ad57806391d14854146106cb5761027d565b806370a08231146105a7578063715018a6146105d757806375b238fc146105e1578063768b01aa146105ff5780637c4acabf1461061b5761027d565b8063248a9ca3116101f357806342842e0e116101b757806342842e0e146104d35780634460bdd6146104ef578063447fd63c1461050d5780635c975abb146105295780635ccc561e146105475780636352211e146105775761027d565b8063248a9ca31461043157806324d7806c146104615780632f2ff15d1461049157806336568abe146104ad5780633f4ba83a146104c95761027d565b8063081812fc11610245578063081812fc1461034b578063095ea7b31461037b5780630ca1c5c9146103975780631692a942146103b557806318f0eb9b146103e557806323b872dd146104155761027d565b806301ffc9a71461028157806306a36aee146102b157806306f5497e146102e157806306fdde03146102fd5780630712249f1461031b575b5f5ffd5b61029b60048036038101906102969190613590565b6108b8565b6040516102a891906135d5565b60405180910390f35b6102cb60048036038101906102c69190613648565b6108c9565b6040516102d89190613733565b60405180910390f35b6102fb60048036038101906102f69190613786565b610b9e565b005b610305610d5e565b6040516103129190613821565b60405180910390f35b6103356004803603810190610330919061396d565b610ded565b60405161034291906139d6565b60405180910390f35b61036560048036038101906103609190613786565b611080565b60405161037291906139fe565b60405180910390f35b61039560048036038101906103909190613a17565b61109b565b005b61039f6110b1565b6040516103ac91906139d6565b60405180910390f35b6103cf60048036038101906103ca9190613786565b6110ba565b6040516103dc91906135d5565b60405180910390f35b6103ff60048036038101906103fa9190613648565b611125565b60405161040c91906135d5565b60405180910390f35b61042f600480360381019061042a9190613a55565b6111b9565b005b61044b60048036038101906104469190613acf565b6112b8565b6040516104589190613b09565b60405180910390f35b61047b60048036038101906104769190613648565b6112d5565b60405161048891906135d5565b60405180910390f35b6104ab60048036038101906104a69190613b22565b611338565b005b6104c760048036038101906104c29190613b22565b61135a565b005b6104d16113d5565b005b6104ed60048036038101906104e89190613a55565b61140a565b005b6104f7611429565b6040516105049190613b09565b60405180910390f35b61052760048036038101906105229190613b60565b61144d565b005b610531611537565b60405161053e91906135d5565b60405180910390f35b610561600480360381019061055c9190613786565b61154c565b60405161056e91906135d5565b60405180910390f35b610591600480360381019061058c9190613786565b611572565b60405161059e91906139fe565b60405180910390f35b6105c160048036038101906105bc9190613648565b611583565b6040516105ce91906139d6565b60405180910390f35b6105df611639565b005b6105e961164c565b6040516105f69190613b09565b60405180910390f35b61061960048036038101906106149190613bcc565b611670565b005b6106236117ed565b6040516106309190613b09565b60405180910390f35b610641611811565b60405161064e9190613b09565b60405180910390f35b61065f611835565b005b61067b60048036038101906106769190613daa565b61186a565b005b61069760048036038101906106929190613648565b611937565b6040516106a491906135d5565b60405180910390f35b6106b56119cb565b6040516106c291906139fe565b60405180910390f35b6106e560048036038101906106e09190613b22565b6119f3565b6040516106f291906135d5565b60405180910390f35b610703611a57565b6040516107109190613821565b60405180910390f35b610721611ae7565b60405161072e9190613b09565b60405180910390f35b610751600480360381019061074c9190613e4a565b611aed565b005b61076d60048036038101906107689190613acf565b611b03565b60405161077a9190613f3f565b60405180910390f35b61079d60048036038101906107989190613786565b611b67565b6040516107ad9493929190613f5f565b60405180910390f35b6107d060048036038101906107cb9190614047565b611d35565b005b6107ec60048036038101906107e79190613786565b611d5a565b6040516107f99190613821565b60405180910390f35b61081c60048036038101906108179190613acf565b611e65565b60405161082991906139d6565b60405180910390f35b61084c60048036038101906108479190613b22565b611e87565b005b610856611ea9565b6040516108639190613b09565b60405180910390f35b610886600480360381019061088191906140c7565b611ecd565b60405161089391906135d5565b60405180910390f35b6108b660048036038101906108b19190613648565b611f5b565b005b5f6108c282611fdf565b9050919050565b60605f600567ffffffffffffffff8111156108e7576108e6613849565b5b6040519080825280602002602001820160405280156109155781602001602082028036833780820191505090505b5090507f7613a25ecc738585a232ad50a301178f12b3ba8887d13e138b523c4269c47689815f8151811061094c5761094b614105565b5b6020026020010181815250507fa49807205ce4d355092ef5a8a18f56e8913cf4a201fbe287825b095693c217758160018151811061098d5761098c614105565b5b6020026020010181815250507f114e74f6ea3bd819998f78687bfcb11b140da08e9b7d222fa9c1f1ba1f2aa122816002815181106109ce576109cd614105565b5b6020026020010181815250507fce3f34913921da558f105cefb578d87278debbbd073a8d552b5de0d168deee3081600381518110610a0f57610a0e614105565b5b6020026020010181815250507f0ce23c3e399818cfee81a7ab0880f714e53d7672b08df0fa62f2843416e1ea0981600481518110610a5057610a4f614105565b5b6020026020010181815250505f5f90505f5f90505b8251811015610ab357610a92838281518110610a8457610a83614105565b5b6020026020010151866119f3565b15610aa6578180610aa29061415f565b9250505b8080600101915050610a65565b505f8167ffffffffffffffff811115610acf57610ace613849565b5b604051908082528060200260200182016040528015610afd5781602001602082028036833780820191505090505b5090505f5f90505f5f90505b8451811015610b9157610b36858281518110610b2857610b27614105565b5b6020026020010151886119f3565b15610b8457848181518110610b4e57610b4d614105565b5b6020026020010151838381518110610b6957610b68614105565b5b6020026020010181815250508180610b809061415f565b9250505b8080600101915050610b09565b5081945050505050919050565b610ba6612058565b610baf33611125565b610bee576040517f08c379a0000000000000000000000000000000000000000000000000000000008152600401610be5906141f0565b60405180910390fd5b5f73ffffffffffffffffffffffffffffffffffffffff16610c0e82612099565b73ffffffffffffffffffffffffffffffffffffffff1603610c64576040517f08c379a0000000000000000000000000000000000000000000000000000000008152600401610c5b90614258565b60405180910390fd5b600b5f8281526020019081526020015f205f9054906101000a900460ff1615610cc2576040517f08c379a0000000000000000000000000000000000000000000000000000000008152600401610cb9906142c0565b60405180910390fd5b6001600b5f8381526020019081526020015f205f6101000a81548160ff0219169083151502179055506001600c5f8381526020019081526020015f206002015f6101000a81548160ff0219169083151502179055503373ffffffffffffffffffffffffffffffffffffffff16817f325c62e70cfaa61cf0709d9607ea9d8451b235297c4b47c65ff6a6449c9faca460405160405180910390a350565b60605f8054610d6c9061430b565b80601f0160208091040260200160405190810160405280929190818152602001828054610d989061430b565b8015610de35780601f10610dba57610100808354040283529160200191610de3565b820191905f5260205f20905b815481529060010190602001808311610dc657829003601f168201915b5050505050905090565b5f610df6612058565b610dff33611937565b610e3e576040517f08c379a0000000000000000000000000000000000000000000000000000000008152600401610e3590614385565b60405180910390fd5b5f73ffffffffffffffffffffffffffffffffffffffff168373ffffffffffffffffffffffffffffffffffffffff1603610eac576040517f08c379a0000000000000000000000000000000000000000000000000000000008152600401610ea3906143ed565b60405180910390fd5b5f825111610eef576040517f08c379a0000000000000000000000000000000000000000000000000000000008152600401610ee690614455565b60405180910390fd5b6001600a5f828254610f019190614473565b925050819055505f600a549050610f1884826120d2565b610f2281846120ef565b60405180608001604052808573ffffffffffffffffffffffffffffffffffffffff1681526020014281526020015f151581526020016040518060400160405280600881526020017f5374616e64617264000000000000000000000000000000000000000000000000815250815250600c5f8381526020019081526020015f205f820151815f015f6101000a81548173ffffffffffffffffffffffffffffffffffffffff021916908373ffffffffffffffffffffffffffffffffffffffff160217905550602082015181600101556040820151816002015f6101000a81548160ff02191690831515021790555060608201518160030190816110239190614646565b509050508373ffffffffffffffffffffffffffffffffffffffff16817f8f25ba6a82901a4fd6415ef13a61a268ca433a2b06840284ed6cee98d0237d9e8560405161106e9190613821565b60405180910390a38091505092915050565b5f61108a82612149565b50611094826121cf565b9050919050565b6110ad82826110a8612208565b61220f565b5050565b5f600a54905090565b5f5f73ffffffffffffffffffffffffffffffffffffffff166110db83612099565b73ffffffffffffffffffffffffffffffffffffffff16036110fe575f9050611120565b600b5f8381526020019081526020015f205f9054906101000a900460ff161590505b919050565b5f6111507f7613a25ecc738585a232ad50a301178f12b3ba8887d13e138b523c4269c47689836119f3565b8061118157506111807fa49807205ce4d355092ef5a8a18f56e8913cf4a201fbe287825b095693c21775836119f3565b5b806111b257506111b17fce3f34913921da558f105cefb578d87278debbbd073a8d552b5de0d168deee30836119f3565b5b9050919050565b5f73ffffffffffffffffffffffffffffffffffffffff168273ffffffffffffffffffffffffffffffffffffffff1603611229575f6040517f64a0ae9200000000000000000000000000000000000000000000000000000000815260040161122091906139fe565b60405180910390fd5b5f61123c8383611237612208565b612221565b90508373ffffffffffffffffffffffffffffffffffffffff168173ffffffffffffffffffffffffffffffffffffffff16146112b2578382826040517f64283d7b0000000000000000000000000000000000000000000000000000000081526004016112a993929190614715565b60405180910390fd5b50505050565b5f60085f8381526020019081526020015f20600101549050919050565b5f6113007f7613a25ecc738585a232ad50a301178f12b3ba8887d13e138b523c4269c47689836119f3565b8061133157506113307fa49807205ce4d355092ef5a8a18f56e8913cf4a201fbe287825b095693c21775836119f3565b5b9050919050565b611341826112b8565b61134a816122eb565b61135483836122ff565b50505050565b611362612208565b73ffffffffffffffffffffffffffffffffffffffff168173ffffffffffffffffffffffffffffffffffffffff16146113c6576040517f6697b23200000000000000000000000000000000000000000000000000000000815260040160405180910390fd5b6113d082826123e9565b505050565b7f7613a25ecc738585a232ad50a301178f12b3ba8887d13e138b523c4269c476896113ff816122eb565b6114076124d3565b50565b61142483838360405180602001604052805f815250611d35565b505050565b7f7613a25ecc738585a232ad50a301178f12b3ba8887d13e138b523c4269c4768981565b7f7613a25ecc738585a232ad50a301178f12b3ba8887d13e138b523c4269c47689611477816122eb565b61148183856119f3565b6114c0576040517f08c379a00000000000000000000000000000000000000000000000000000000081526004016114b790614794565b60405180910390fd5b6114ca83856123e9565b50828473ffffffffffffffffffffffffffffffffffffffff163373ffffffffffffffffffffffffffffffffffffffff167ff460e388dc46fdee464ee024ca3b0c33ab26345ac38de78ea140bb5cbce141c1856040516115299190613821565b60405180910390a450505050565b5f60095f9054906101000a900460ff16905090565b5f600b5f8381526020019081526020015f205f9054906101000a900460ff169050919050565b5f61157c82612149565b9050919050565b5f5f73ffffffffffffffffffffffffffffffffffffffff168273ffffffffffffffffffffffffffffffffffffffff16036115f4575f6040517f89c62b640000000000000000000000000000000000000000000000000000000081526004016115eb91906139fe565b60405180910390fd5b60035f8373ffffffffffffffffffffffffffffffffffffffff1673ffffffffffffffffffffffffffffffffffffffff1681526020019081526020015f20549050919050565b611641612534565b61164a5f6125bb565b565b7fa49807205ce4d355092ef5a8a18f56e8913cf4a201fbe287825b095693c2177581565b61167a82336119f3565b156116ba576040517f08c379a00000000000000000000000000000000000000000000000000000000081526004016116b1906147fc565b60405180910390fd5b7f114e74f6ea3bd819998f78687bfcb11b140da08e9b7d222fa9c1f1ba1f2aa12282148061170757507fce3f34913921da558f105cefb578d87278debbbd073a8d552b5de0d168deee3082145b8061173157507f0ce23c3e399818cfee81a7ab0880f714e53d7672b08df0fa62f2843416e1ea0982145b8061175b57507fa49807205ce4d355092ef5a8a18f56e8913cf4a201fbe287825b095693c2177582145b61179a576040517f08c379a000000000000000000000000000000000000000000000000000000000815260040161179190614864565b60405180910390fd5b813373ffffffffffffffffffffffffffffffffffffffff167f98f6f2d133c420a141a671ce9479e3956417c7f04bd370de1cd64ce10d385d94836040516117e19190613821565b60405180910390a35050565b7fce3f34913921da558f105cefb578d87278debbbd073a8d552b5de0d168deee3081565b7f114e74f6ea3bd819998f78687bfcb11b140da08e9b7d222fa9c1f1ba1f2aa12281565b7f7613a25ecc738585a232ad50a301178f12b3ba8887d13e138b523c4269c4768961185f816122eb565b61186761267e565b50565b7f7613a25ecc738585a232ad50a301178f12b3ba8887d13e138b523c4269c47689611894816122eb565b81518351146118d8576040517f08c379a00000000000000000000000000000000000000000000000000000000081526004016118cf906148cc565b60405180910390fd5b5f5f90505b8351811015611931576119248382815181106118fc576118fb614105565b5b602002602001015185838151811061191757611916614105565b5b6020026020010151611338565b80806001019150506118dd565b50505050565b5f6119627f7613a25ecc738585a232ad50a301178f12b3ba8887d13e138b523c4269c47689836119f3565b8061199357506119927fa49807205ce4d355092ef5a8a18f56e8913cf4a201fbe287825b095693c21775836119f3565b5b806119c457506119c37f114e74f6ea3bd819998f78687bfcb11b140da08e9b7d222fa9c1f1ba1f2aa122836119f3565b5b9050919050565b5f60075f9054906101000a900473ffffffffffffffffffffffffffffffffffffffff16905090565b5f60085f8481526020019081526020015f205f015f8373ffffffffffffffffffffffffffffffffffffffff1673ffffffffffffffffffffffffffffffffffffffff1681526020019081526020015f205f9054906101000a900460ff16905092915050565b606060018054611a669061430b565b80601f0160208091040260200160405190810160405280929190818152602001828054611a929061430b565b8015611add5780601f10611ab457610100808354040283529160200191611add565b820191905f5260205f20905b815481529060010190602001808311611ac057829003601f168201915b5050505050905090565b5f5f1b81565b611aff611af8612208565b83836126e0565b5050565b60605f611b0f83611e65565b90505f8167ffffffffffffffff811115611b2c57611b2b613849565b5b604051908082528060200260200182016040528015611b5a5781602001602082028036833780820191505090505b5090508092505050919050565b5f5f5f60605f73ffffffffffffffffffffffffffffffffffffffff16611b8c86612099565b73ffffffffffffffffffffffffffffffffffffffff1603611be2576040517f08c379a0000000000000000000000000000000000000000000000000000000008152600401611bd990614258565b60405180910390fd5b5f600c5f8781526020019081526020015f206040518060800160405290815f82015f9054906101000a900473ffffffffffffffffffffffffffffffffffffffff1673ffffffffffffffffffffffffffffffffffffffff1673ffffffffffffffffffffffffffffffffffffffff16815260200160018201548152602001600282015f9054906101000a900460ff16151515158152602001600382018054611c879061430b565b80601f0160208091040260200160405190810160405280929190818152602001828054611cb39061430b565b8015611cfe5780601f10611cd557610100808354040283529160200191611cfe565b820191905f5260205f20905b815481529060010190602001808311611ce157829003601f168201915b5050505050815250509050611d1286612099565b81602001518260400151611d2589611d5a565b9450945094509450509193509193565b611d408484846111b9565b611d54611d4b612208565b85858585612849565b50505050565b6060611d6582612149565b505f60065f8481526020019081526020015f208054611d839061430b565b80601f0160208091040260200160405190810160405280929190818152602001828054611daf9061430b565b8015611dfa5780601f10611dd157610100808354040283529160200191611dfa565b820191905f5260205f20905b815481529060010190602001808311611ddd57829003601f168201915b505050505090505f611e0a6129f5565b90505f815103611e1e578192505050611e60565b5f82511115611e52578082604051602001611e3a929190614924565b60405160208183030381529060405292505050611e60565b611e5b84612a0b565b925050505b919050565b5f611e7082336119f3565b15611e7e5760019050611e82565b5f90505b919050565b611e90826112b8565b611e99816122eb565b611ea383836123e9565b50505050565b7f0ce23c3e399818cfee81a7ab0880f714e53d7672b08df0fa62f2843416e1ea0981565b5f60055f8473ffffffffffffffffffffffffffffffffffffffff1673ffffffffffffffffffffffffffffffffffffffff1681526020019081526020015f205f8373ffffffffffffffffffffffffffffffffffffffff1673ffffffffffffffffffffffffffffffffffffffff1681526020019081526020015f205f9054906101000a900460ff16905092915050565b611f63612534565b5f73ffffffffffffffffffffffffffffffffffffffff168173ffffffffffffffffffffffffffffffffffffffff1603611fd3575f6040517f1e4fbdf7000000000000000000000000000000000000000000000000000000008152600401611fca91906139fe565b60405180910390fd5b611fdc816125bb565b50565b5f7f7965db0b000000000000000000000000000000000000000000000000000000007bffffffffffffffffffffffffffffffffffffffffffffffffffffffff1916827bffffffffffffffffffffffffffffffffffffffffffffffffffffffff19161480612051575061205082612a71565b5b9050919050565b612060611537565b15612097576040517fd93c066500000000000000000000000000000000000000000000000000000000815260040160405180910390fd5b565b5f60025f8381526020019081526020015f205f9054906101000a900473ffffffffffffffffffffffffffffffffffffffff169050919050565b6120eb828260405180602001604052805f815250612ad1565b5050565b8060065f8481526020019081526020015f20908161210d9190614646565b507ff8e1a15aba9398e019f0b49df1a4fde98ee17ae345cb5f6b5e2c27f5033e8ce78260405161213d91906139d6565b60405180910390a15050565b5f5f61215483612099565b90505f73ffffffffffffffffffffffffffffffffffffffff168173ffffffffffffffffffffffffffffffffffffffff16036121c657826040517f7e2732890000000000000000000000000000000000000000000000000000000081526004016121bd91906139d6565b60405180910390fd5b80915050919050565b5f60045f8381526020019081526020015f205f9054906101000a900473ffffffffffffffffffffffffffffffffffffffff169050919050565b5f33905090565b61221c8383836001612af4565b505050565b5f5f61222c84612099565b90505f73ffffffffffffffffffffffffffffffffffffffff168173ffffffffffffffffffffffffffffffffffffffff161415801561229657505f73ffffffffffffffffffffffffffffffffffffffff168573ffffffffffffffffffffffffffffffffffffffff1614155b156122d6576040517f08c379a00000000000000000000000000000000000000000000000000000000081526004016122cd906149b7565b60405180910390fd5b6122e1858585612cb3565b9150509392505050565b6122fc816122f7612208565b612ebe565b50565b5f61230a83836119f3565b6123df57600160085f8581526020019081526020015f205f015f8473ffffffffffffffffffffffffffffffffffffffff1673ffffffffffffffffffffffffffffffffffffffff1681526020019081526020015f205f6101000a81548160ff02191690831515021790555061237c612208565b73ffffffffffffffffffffffffffffffffffffffff168273ffffffffffffffffffffffffffffffffffffffff16847f2f8788117e7eff1d82e926ec794901d17c78024a50270940304540a733656f0d60405160405180910390a4600190506123e3565b5f90505b92915050565b5f6123f483836119f3565b156124c9575f60085f8581526020019081526020015f205f015f8473ffffffffffffffffffffffffffffffffffffffff1673ffffffffffffffffffffffffffffffffffffffff1681526020019081526020015f205f6101000a81548160ff021916908315150217905550612466612208565b73ffffffffffffffffffffffffffffffffffffffff168273ffffffffffffffffffffffffffffffffffffffff16847ff6391f5c32d9c69d2a47ea670b442974b53935d1edc7fd64eb21e047a839171b60405160405180910390a4600190506124cd565b5f90505b92915050565b6124db612f0f565b5f60095f6101000a81548160ff0219169083151502179055507f5db9ee0a495bf2e6ff9c91a7834c1ba4fdd244a5e8aa4e537bd38aeae4b073aa61251d612208565b60405161252a91906139fe565b60405180910390a1565b61253c612208565b73ffffffffffffffffffffffffffffffffffffffff1661255a6119cb565b73ffffffffffffffffffffffffffffffffffffffff16146125b95761257d612208565b6040517f118cdaa70000000000000000000000000000000000000000000000000000000081526004016125b091906139fe565b60405180910390fd5b565b5f60075f9054906101000a900473ffffffffffffffffffffffffffffffffffffffff1690508160075f6101000a81548173ffffffffffffffffffffffffffffffffffffffff021916908373ffffffffffffffffffffffffffffffffffffffff1602179055508173ffffffffffffffffffffffffffffffffffffffff168173ffffffffffffffffffffffffffffffffffffffff167f8be0079c531659141344cd1fd0a4f28419497f9722a3daafe3b4186f6b6457e060405160405180910390a35050565b612686612058565b600160095f6101000a81548160ff0219169083151502179055507f62e78cea01bee320cd4e420270b5ea74000d11b0c9f74754ebdbfc544b05a2586126c9612208565b6040516126d691906139fe565b60405180910390a1565b5f73ffffffffffffffffffffffffffffffffffffffff168273ffffffffffffffffffffffffffffffffffffffff160361275057816040517f5b08ba1800000000000000000000000000000000000000000000000000000000815260040161274791906139fe565b60405180910390fd5b8060055f8573ffffffffffffffffffffffffffffffffffffffff1673ffffffffffffffffffffffffffffffffffffffff1681526020019081526020015f205f8473ffffffffffffffffffffffffffffffffffffffff1673ffffffffffffffffffffffffffffffffffffffff1681526020019081526020015f205f6101000a81548160ff0219169083151502179055508173ffffffffffffffffffffffffffffffffffffffff168373ffffffffffffffffffffffffffffffffffffffff167f17307eab39ab6107e8899845ad3d59bd9653f200f220920489ca2b5937696c318360405161283c91906135d5565b60405180910390a3505050565b5f8373ffffffffffffffffffffffffffffffffffffffff163b11156129ee578273ffffffffffffffffffffffffffffffffffffffff1663150b7a02868685856040518563ffffffff1660e01b81526004016128a79493929190614a27565b6020604051808303815f875af19250505080156128e257506040513d601f19601f820116820180604052508101906128df9190614a85565b60015b612963573d805f8114612910576040519150601f19603f3d011682016040523d82523d5f602084013e612915565b606091505b505f81510361295b57836040517f64a0ae9200000000000000000000000000000000000000000000000000000000815260040161295291906139fe565b60405180910390fd5b805160208201fd5b63150b7a0260e01b7bffffffffffffffffffffffffffffffffffffffffffffffffffffffff1916817bffffffffffffffffffffffffffffffffffffffffffffffffffffffff1916146129ec57836040517f64a0ae920000000000000000000000000000000000000000000000000000000081526004016129e391906139fe565b60405180910390fd5b505b5050505050565b606060405180602001604052805f815250905090565b6060612a1682612149565b505f612a206129f5565b90505f815111612a3e5760405180602001604052805f815250612a69565b80612a4884612f4f565b604051602001612a59929190614924565b6040516020818303038152906040525b915050919050565b5f634906490660e01b7bffffffffffffffffffffffffffffffffffffffffffffffffffffffff1916827bffffffffffffffffffffffffffffffffffffffffffffffffffffffff19161480612aca5750612ac982613019565b5b9050919050565b612adb83836130fa565b612aef612ae6612208565b5f858585612849565b505050565b8080612b2c57505f73ffffffffffffffffffffffffffffffffffffffff168273ffffffffffffffffffffffffffffffffffffffff1614155b15612c5e575f612b3b84612149565b90505f73ffffffffffffffffffffffffffffffffffffffff168373ffffffffffffffffffffffffffffffffffffffff1614158015612ba557508273ffffffffffffffffffffffffffffffffffffffff168173ffffffffffffffffffffffffffffffffffffffff1614155b8015612bb85750612bb68184611ecd565b155b15612bfa57826040517fa9fbf51f000000000000000000000000000000000000000000000000000000008152600401612bf191906139fe565b60405180910390fd5b8115612c5c57838573ffffffffffffffffffffffffffffffffffffffff168273ffffffffffffffffffffffffffffffffffffffff167f8c5be1e5ebec7d5bd14f71427d1e84f3dd0314c0f7b2291e5b200ac8c7c3b92560405160405180910390a45b505b8360045f8581526020019081526020015f205f6101000a81548173ffffffffffffffffffffffffffffffffffffffff021916908373ffffffffffffffffffffffffffffffffffffffff16021790555050505050565b5f5f612cbe84612099565b90505f73ffffffffffffffffffffffffffffffffffffffff168373ffffffffffffffffffffffffffffffffffffffff1614612cff57612cfe8184866131ed565b5b5f73ffffffffffffffffffffffffffffffffffffffff168173ffffffffffffffffffffffffffffffffffffffff1614612d8a57612d3e5f855f5f612af4565b600160035f8373ffffffffffffffffffffffffffffffffffffffff1673ffffffffffffffffffffffffffffffffffffffff1681526020019081526020015f205f82825403925050819055505b5f73ffffffffffffffffffffffffffffffffffffffff168573ffffffffffffffffffffffffffffffffffffffff1614612e0957600160035f8773ffffffffffffffffffffffffffffffffffffffff1673ffffffffffffffffffffffffffffffffffffffff1681526020019081526020015f205f82825401925050819055505b8460025f8681526020019081526020015f205f6101000a81548173ffffffffffffffffffffffffffffffffffffffff021916908373ffffffffffffffffffffffffffffffffffffffff160217905550838573ffffffffffffffffffffffffffffffffffffffff168273ffffffffffffffffffffffffffffffffffffffff167fddf252ad1be2c89b69c2b068fc378daa952ba7f163c4a11628f55a4df523b3ef60405160405180910390a4809150509392505050565b612ec882826119f3565b612f0b5780826040517fe2517d3f000000000000000000000000000000000000000000000000000000008152600401612f02929190614ab0565b60405180910390fd5b5050565b612f17611537565b612f4d576040517f8dfc202b00000000000000000000000000000000000000000000000000000000815260040160405180910390fd5b565b60605f6001612f5d846132b0565b0190505f8167ffffffffffffffff811115612f7b57612f7a613849565b5b6040519080825280601f01601f191660200182016040528015612fad5781602001600182028036833780820191505090505b5090505f82602083010190505b60011561300e578080600190039150507f3031323334353637383961626364656600000000000000000000000000000000600a86061a8153600a858161300357613002614ad7565b5b0494505f8503612fba575b819350505050919050565b5f7f80ac58cd000000000000000000000000000000000000000000000000000000007bffffffffffffffffffffffffffffffffffffffffffffffffffffffff1916827bffffffffffffffffffffffffffffffffffffffffffffffffffffffff191614806130e357507f5b5e139f000000000000000000000000000000000000000000000000000000007bffffffffffffffffffffffffffffffffffffffffffffffffffffffff1916827bffffffffffffffffffffffffffffffffffffffffffffffffffffffff1916145b806130f357506130f282613401565b5b9050919050565b5f73ffffffffffffffffffffffffffffffffffffffff168273ffffffffffffffffffffffffffffffffffffffff160361316a575f6040517f64a0ae9200000000000000000000000000000000000000000000000000000000815260040161316191906139fe565b60405180910390fd5b5f61317683835f612221565b90505f73ffffffffffffffffffffffffffffffffffffffff168173ffffffffffffffffffffffffffffffffffffffff16146131e8575f6040517f73c6ac6e0000000000000000000000000000000000000000000000000000000081526004016131df91906139fe565b60405180910390fd5b505050565b6131f883838361346a565b6132ab575f73ffffffffffffffffffffffffffffffffffffffff168373ffffffffffffffffffffffffffffffffffffffff160361326c57806040517f7e27328900000000000000000000000000000000000000000000000000000000815260040161326391906139d6565b60405180910390fd5b81816040517f177e802f0000000000000000000000000000000000000000000000000000000081526004016132a2929190614b04565b60405180910390fd5b505050565b5f5f5f90507a184f03e93ff9f4daa797ed6e38ed64bf6a1f010000000000000000831061330c577a184f03e93ff9f4daa797ed6e38ed64bf6a1f010000000000000000838161330257613301614ad7565b5b0492506040810190505b6d04ee2d6d415b85acef81000000008310613349576d04ee2d6d415b85acef8100000000838161333f5761333e614ad7565b5b0492506020810190505b662386f26fc10000831061337857662386f26fc10000838161336e5761336d614ad7565b5b0492506010810190505b6305f5e10083106133a1576305f5e100838161339757613396614ad7565b5b0492506008810190505b61271083106133c65761271083816133bc576133bb614ad7565b5b0492506004810190505b606483106133e957606483816133df576133de614ad7565b5b0492506002810190505b600a83106133f8576001810190505b80915050919050565b5f7f01ffc9a7000000000000000000000000000000000000000000000000000000007bffffffffffffffffffffffffffffffffffffffffffffffffffffffff1916827bffffffffffffffffffffffffffffffffffffffffffffffffffffffff1916149050919050565b5f5f73ffffffffffffffffffffffffffffffffffffffff168373ffffffffffffffffffffffffffffffffffffffff161415801561352157508273ffffffffffffffffffffffffffffffffffffffff168473ffffffffffffffffffffffffffffffffffffffff1614806134e257506134e18484611ecd565b5b8061352057508273ffffffffffffffffffffffffffffffffffffffff16613508836121cf565b73ffffffffffffffffffffffffffffffffffffffff16145b5b90509392505050565b5f604051905090565b5f5ffd5b5f5ffd5b5f7fffffffff0000000000000000000000000000000000000000000000000000000082169050919050565b61356f8161353b565b8114613579575f5ffd5b50565b5f8135905061358a81613566565b92915050565b5f602082840312156135a5576135a4613533565b5b5f6135b28482850161357c565b91505092915050565b5f8115159050919050565b6135cf816135bb565b82525050565b5f6020820190506135e85f8301846135c6565b92915050565b5f73ffffffffffffffffffffffffffffffffffffffff82169050919050565b5f613617826135ee565b9050919050565b6136278161360d565b8114613631575f5ffd5b50565b5f813590506136428161361e565b92915050565b5f6020828403121561365d5761365c613533565b5b5f61366a84828501613634565b91505092915050565b5f81519050919050565b5f82825260208201905092915050565b5f819050602082019050919050565b5f819050919050565b6136ae8161369c565b82525050565b5f6136bf83836136a5565b60208301905092915050565b5f602082019050919050565b5f6136e182613673565b6136eb818561367d565b93506136f68361368d565b805f5b8381101561372657815161370d88826136b4565b9750613718836136cb565b9250506001810190506136f9565b5085935050505092915050565b5f6020820190508181035f83015261374b81846136d7565b905092915050565b5f819050919050565b61376581613753565b811461376f575f5ffd5b50565b5f813590506137808161375c565b92915050565b5f6020828403121561379b5761379a613533565b5b5f6137a884828501613772565b91505092915050565b5f81519050919050565b5f82825260208201905092915050565b8281835e5f83830152505050565b5f601f19601f8301169050919050565b5f6137f3826137b1565b6137fd81856137bb565b935061380d8185602086016137cb565b613816816137d9565b840191505092915050565b5f6020820190508181035f83015261383981846137e9565b905092915050565b5f5ffd5b5f5ffd5b7f4e487b71000000000000000000000000000000000000000000000000000000005f52604160045260245ffd5b61387f826137d9565b810181811067ffffffffffffffff8211171561389e5761389d613849565b5b80604052505050565b5f6138b061352a565b90506138bc8282613876565b919050565b5f67ffffffffffffffff8211156138db576138da613849565b5b6138e4826137d9565b9050602081019050919050565b828183375f83830152505050565b5f61391161390c846138c1565b6138a7565b90508281526020810184848401111561392d5761392c613845565b5b6139388482856138f1565b509392505050565b5f82601f83011261395457613953613841565b5b81356139648482602086016138ff565b91505092915050565b5f5f6040838503121561398357613982613533565b5b5f61399085828601613634565b925050602083013567ffffffffffffffff8111156139b1576139b0613537565b5b6139bd85828601613940565b9150509250929050565b6139d081613753565b82525050565b5f6020820190506139e95f8301846139c7565b92915050565b6139f88161360d565b82525050565b5f602082019050613a115f8301846139ef565b92915050565b5f5f60408385031215613a2d57613a2c613533565b5b5f613a3a85828601613634565b9250506020613a4b85828601613772565b9150509250929050565b5f5f5f60608486031215613a6c57613a6b613533565b5b5f613a7986828701613634565b9350506020613a8a86828701613634565b9250506040613a9b86828701613772565b9150509250925092565b613aae8161369c565b8114613ab8575f5ffd5b50565b5f81359050613ac981613aa5565b92915050565b5f60208284031215613ae457613ae3613533565b5b5f613af184828501613abb565b91505092915050565b613b038161369c565b82525050565b5f602082019050613b1c5f830184613afa565b92915050565b5f5f60408385031215613b3857613b37613533565b5b5f613b4585828601613abb565b9250506020613b5685828601613634565b9150509250929050565b5f5f5f60608486031215613b7757613b76613533565b5b5f613b8486828701613634565b9350506020613b9586828701613abb565b925050604084013567ffffffffffffffff811115613bb657613bb5613537565b5b613bc286828701613940565b9150509250925092565b5f5f60408385031215613be257613be1613533565b5b5f613bef85828601613abb565b925050602083013567ffffffffffffffff811115613c1057613c0f613537565b5b613c1c85828601613940565b9150509250929050565b5f67ffffffffffffffff821115613c4057613c3f613849565b5b602082029050602081019050919050565b5f5ffd5b5f613c67613c6284613c26565b6138a7565b90508083825260208201905060208402830185811115613c8a57613c89613c51565b5b835b81811015613cb35780613c9f8882613634565b845260208401935050602081019050613c8c565b5050509392505050565b5f82601f830112613cd157613cd0613841565b5b8135613ce1848260208601613c55565b91505092915050565b5f67ffffffffffffffff821115613d0457613d03613849565b5b602082029050602081019050919050565b5f613d27613d2284613cea565b6138a7565b90508083825260208201905060208402830185811115613d4a57613d49613c51565b5b835b81811015613d735780613d5f8882613abb565b845260208401935050602081019050613d4c565b5050509392505050565b5f82601f830112613d9157613d90613841565b5b8135613da1848260208601613d15565b91505092915050565b5f5f60408385031215613dc057613dbf613533565b5b5f83013567ffffffffffffffff811115613ddd57613ddc613537565b5b613de985828601613cbd565b925050602083013567ffffffffffffffff811115613e0a57613e09613537565b5b613e1685828601613d7d565b9150509250929050565b613e29816135bb565b8114613e33575f5ffd5b50565b5f81359050613e4481613e20565b92915050565b5f5f60408385031215613e6057613e5f613533565b5b5f613e6d85828601613634565b9250506020613e7e85828601613e36565b9150509250929050565b5f81519050919050565b5f82825260208201905092915050565b5f819050602082019050919050565b613eba8161360d565b82525050565b5f613ecb8383613eb1565b60208301905092915050565b5f602082019050919050565b5f613eed82613e88565b613ef78185613e92565b9350613f0283613ea2565b805f5b83811015613f32578151613f198882613ec0565b9750613f2483613ed7565b925050600181019050613f05565b5085935050505092915050565b5f6020820190508181035f830152613f578184613ee3565b905092915050565b5f608082019050613f725f8301876139ef565b613f7f60208301866139c7565b613f8c60408301856135c6565b8181036060830152613f9e81846137e9565b905095945050505050565b5f67ffffffffffffffff821115613fc357613fc2613849565b5b613fcc826137d9565b9050602081019050919050565b5f613feb613fe684613fa9565b6138a7565b90508281526020810184848401111561400757614006613845565b5b6140128482856138f1565b509392505050565b5f82601f83011261402e5761402d613841565b5b813561403e848260208601613fd9565b91505092915050565b5f5f5f5f6080858703121561405f5761405e613533565b5b5f61406c87828801613634565b945050602061407d87828801613634565b935050604061408e87828801613772565b925050606085013567ffffffffffffffff8111156140af576140ae613537565b5b6140bb8782880161401a565b91505092959194509250565b5f5f604083850312156140dd576140dc613533565b5b5f6140ea85828601613634565b92505060206140fb85828601613634565b9150509250929050565b7f4e487b71000000000000000000000000000000000000000000000000000000005f52603260045260245ffd5b7f4e487b71000000000000000000000000000000000000000000000000000000005f52601160045260245ffd5b5f61416982613753565b91507fffffffffffffffffffffffffffffffffffffffffffffffffffffffffffffffff820361419b5761419a614132565b5b600182019050919050565b7f4d7573742068617665205245564f4b45525f524f4c45206f72206869676865725f82015250565b5f6141da6020836137bb565b91506141e5826141a6565b602082019050919050565b5f6020820190508181035f830152614207816141ce565b9050919050565b7f436572746966696361746520646f6573206e6f742065786973740000000000005f82015250565b5f614242601a836137bb565b915061424d8261420e565b602082019050919050565b5f6020820190508181035f83015261426f81614236565b9050919050565b7f436572746966696361746520616c7265616479207265766f6b656400000000005f82015250565b5f6142aa601b836137bb565b91506142b582614276565b602082019050919050565b5f6020820190508181035f8301526142d78161429e565b9050919050565b7f4e487b71000000000000000000000000000000000000000000000000000000005f52602260045260245ffd5b5f600282049050600182168061432257607f821691505b602082108103614335576143346142de565b5b50919050565b7f4d7573742068617665204953535545525f524f4c45206f7220686967686572005f82015250565b5f61436f601f836137bb565b915061437a8261433b565b602082019050919050565b5f6020820190508181035f83015261439c81614363565b9050919050565b7f43616e6e6f74206d696e7420746f207a65726f206164647265737300000000005f82015250565b5f6143d7601b836137bb565b91506143e2826143a3565b602082019050919050565b5f6020820190508181035f830152614404816143cb565b9050919050565b7f546f6b656e205552492063616e6e6f7420626520656d707479000000000000005f82015250565b5f61443f6019836137bb565b915061444a8261440b565b602082019050919050565b5f6020820190508181035f83015261446c81614433565b9050919050565b5f61447d82613753565b915061448883613753565b92508282019050808211156144a05761449f614132565b5b92915050565b5f819050815f5260205f209050919050565b5f6020601f8301049050919050565b5f82821b905092915050565b5f600883026145027fffffffffffffffffffffffffffffffffffffffffffffffffffffffffffffffff826144c7565b61450c86836144c7565b95508019841693508086168417925050509392505050565b5f819050919050565b5f61454761454261453d84613753565b614524565b613753565b9050919050565b5f819050919050565b6145608361452d565b61457461456c8261454e565b8484546144d3565b825550505050565b5f5f905090565b61458b61457c565b614596818484614557565b505050565b5b818110156145b9576145ae5f82614583565b60018101905061459c565b5050565b601f8211156145fe576145cf816144a6565b6145d8846144b8565b810160208510156145e7578190505b6145fb6145f3856144b8565b83018261459b565b50505b505050565b5f82821c905092915050565b5f61461e5f1984600802614603565b1980831691505092915050565b5f614636838361460f565b9150826002028217905092915050565b61464f826137b1565b67ffffffffffffffff81111561466857614667613849565b5b614672825461430b565b61467d8282856145bd565b5f60209050601f8311600181146146ae575f841561469c578287015190505b6146a6858261462b565b86555061470d565b601f1984166146bc866144a6565b5f5b828110156146e3578489015182556001820191506020850194506020810190506146be565b8683101561470057848901516146fc601f89168261460f565b8355505b6001600288020188555050505b505050505050565b5f6060820190506147285f8301866139ef565b61473560208301856139c7565b61474260408301846139ef565b949350505050565b7f5573657220646f6573206e6f742068617665207468697320726f6c65000000005f82015250565b5f61477e601c836137bb565b91506147898261474a565b602082019050919050565b5f6020820190508181035f8301526147ab81614772565b9050919050565b7f416c726561647920686173207468697320726f6c6500000000000000000000005f82015250565b5f6147e66015836137bb565b91506147f1826147b2565b602082019050919050565b5f6020820190508181035f830152614813816147da565b9050919050565b7f43616e6e6f7420726571756573742053555045525f41444d494e5f524f4c45005f82015250565b5f61484e601f836137bb565b91506148598261481a565b602082019050919050565b5f6020820190508181035f83015261487b81614842565b9050919050565b7f417272617973206c656e677468206d69736d61746368000000000000000000005f82015250565b5f6148b66016836137bb565b91506148c182614882565b602082019050919050565b5f6020820190508181035f8301526148e3816148aa565b9050919050565b5f81905092915050565b5f6148fe826137b1565b61490881856148ea565b93506149188185602086016137cb565b80840191505092915050565b5f61492f82856148f4565b915061493b82846148f4565b91508190509392505050565b7f436572746966696361746520697320736f756c626f756e6420616e64206e6f6e5f8201527f2d7472616e7366657261626c6500000000000000000000000000000000000000602082015250565b5f6149a1602d836137bb565b91506149ac82614947565b604082019050919050565b5f6020820190508181035f8301526149ce81614995565b9050919050565b5f81519050919050565b5f82825260208201905092915050565b5f6149f9826149d5565b614a0381856149df565b9350614a138185602086016137cb565b614a1c816137d9565b840191505092915050565b5f608082019050614a3a5f8301876139ef565b614a4760208301866139ef565b614a5460408301856139c7565b8181036060830152614a6681846149ef565b905095945050505050565b5f81519050614a7f81613566565b92915050565b5f60208284031215614a9a57614a99613533565b5b5f614aa784828501614a71565b91505092915050565b5f604082019050614ac35f8301856139ef565b614ad06020830184613afa565b9392505050565b7f4e487b71000000000000000000000000000000000000000000000000000000005f52601260045260245ffd5b5f604082019050614b175f8301856139ef565b614b2460208301846139c7565b939250505056fea2646970667358221220889a278ba253341e7d8944ffcdebda457eb319ab7020d9c3430662c51687f73a64736f6c634300081c0033",
  "linkReferences": {},
  "deployedLinkReferences": {},
  "immutableReferences": {},
  "inputSourceName": "project/contracts/CertificateNFT.sol",
  "buildInfoId": "solc-0_8_28-db295576fac4367ae264095738b7b16b0a0fae78"
}