{"project/contracts/CertificateNFT.sol":{"CertificateNFT":{"abi":[{"inputs":[{"internalType":"address","name":"initialOwner","type":"address"}],"stateMutability":"nonpayable","type":"constructor"},{"inputs":[],"name":"AccessControlBadConfirmation","type":"error"},{"inputs":[{"internalType":"address","name":"account","type":"address"},{"internalType":"bytes32","name":"neededRole","type":"bytes32"}],"name":"AccessControlUnauthorizedAccount","type":"error"},{"inputs":[{"internalType":"address","name":"sender","type":"address"},{"internalType":"uint256","name":"tokenId","type":"uint256"},{"internalType":"address","name":"owner","type":"address"}],"name":"ERC721IncorrectOwner","type":"error"},{"inputs":[{"internalType":"address","name":"operator","type":"address"},{"internalType":"uint256","name":"tokenId","type":"uint256"}],"name":"ERC721InsufficientApproval","type":"error"},{"inputs":[{"internalType":"address","name":"approver","type":"address"}],"name":"ERC721InvalidApprover","type":"error"},{"inputs":[{"internalType":"address","name":"operator","type":"address"}],"name":"ERC721InvalidOperator","type":"error"},{"inputs":[{"internalType":"address","name":"owner","type":"address"}],"name":"ERC721InvalidOwner","type":"error"},{"inputs":[{"internalType":"address","name":"receiver","type":"address"}],"name":"ERC721InvalidReceiver","type":"error"},{"inputs":[{"internalType":"address","name":"sender","type":"address"}],"name":"ERC721InvalidSender","type":"error"},{"inputs":[{"internalType":"uint256","name":"tokenId","type":"uint256"}],"name":"ERC721NonexistentToken","type":"error"},{"inputs":[],"name":"EnforcedPause","type":"error"},{"inputs":[],"name":"ExpectedPause","type":"error"},{"inputs":[{"internalType":"address","name":"owner","type":"address"}],"name":"OwnableInvalidOwner","type":"error"},{"inputs":[{"internalType":"address","name":"account","type":"address"}],"name":"OwnableUnauthorizedAccount","type":"error"},{"anonymous":false,"inputs":[{"indexed":true,"internalType":"address","name":"owner","type":"address"},{"indexed":true,"internalType":"address","name":"approved","type":"address"},{"indexed":true,"internalType":"uint256","name":"tokenId","type":"uint256"}],"name":"Approval","type":"event"},{"anonymous":false,"inputs":[{"indexed":true,"internalType":"address","name":"owner","type":"address"},{"indexed":true,"internalType":"address","name":"operator","type":"address"},{"indexed":false,"internalType":"bool","name":"approved","type":"bool"}],"name":"ApprovalForAll","type":"event"},{"anonymous":false,"inputs":[{"indexed":true,"internalType":"uint256","name":"proposalId","type":"uint256"},{"indexed":true,"internalType":"address","name":"approver","type":"address"},{"indexed":false,"internalType":"uint256","name":"approvalCount","type":"uint256"}],"name":"ApprovalRevoked","type":"event"},{"anonymous":false,"inputs":[{"indexed":false,"internalType":"uint256","name":"_fromTokenId","type":"uint256"},{"indexed":false,"internalType":"uint256","name":"_toTokenId","type":"uint256"}],"name":"BatchMetadataUpdate","type":"event"},{"anonymous":false,"inputs":[{"indexed":true,"internalType":"uint256","name":"tokenId","type":"uint256"},{"indexed":true,"internalType":"address","name":"recipient","type":"address"},{"indexed":false,"internalType":"string","name":"tokenURI","type":"string"}],"name":"CertificateMinted","type":"event"},{"anonymous":false,"inputs":[{"indexed":true,"internalType":"uint256","name":"tokenId","type":"uint256"},{"indexed":true,"internalType":"address","name":"revoker","type":"address"}],"name":"CertificateRevoked","type":"event"},{"anonymous":false,"inputs":[{"indexed":true,"internalType":"address","name":"admin","type":"address"},{"indexed":true,"internalType":"address","name":"user","type":"address"},{"indexed":true,"internalType":"bytes32","name":"role","type":"bytes32"},{"indexed":false,"internalType":"string","name":"reason","type":"string"}],"name":"EmergencyRoleRevoked","type":"event"},{"anonymous":false,"inputs":[{"indexed":false,"internalType":"uint256","name":"_tokenId","type":"uint256"}],"name":"MetadataUpdate","type":"event"},{"anonymous":false,"inputs":[{"indexed":true,"internalType":"address","name":"previousOwner","type":"address"},{"indexed":true,"internalType":"address","name":"newOwner","type":"address"}],"name":"OwnershipTransferred","type":"event"},{"anonymous":false,"inputs":[{"indexed":false,"internalType":"address","name":"account","type":"address"}],"name":"Paused","type":"event"},{"anonymous":false,"inputs":[{"indexed":true,"internalType":"uint256","name":"proposalId","type":"uint256"},{"indexed":true,"internalType":"address","name":"approver","type":"address"},{"indexed":false,"internalType":"uint256","name":"approvalCount","type":"uint256"}],"name":"ProposalApproved","type":"event"},{"anonymous":false,"inputs":[{"indexed":true,"internalType":"uint256","name":"proposalId","type":"uint256"},{"indexed":true,"internalType":"address","name":"canceller","type":"address"}],"name":"ProposalCancelled","type":"event"},{"anonymous":false,"inputs":[{"indexed":true,"internalType":"uint256","name":"proposalId","type":"uint256"},{"indexed":true,"internalType":"address","name":"proposer","type":"address"},{"indexed":true,"internalType":"address","name":"recipient","type":"address"},{"indexed":false,"internalType":"string","name":"metadataURI","type":"string"}],"name":"ProposalCreated","type":"event"},{"anonymous":false,"inputs":[{"indexed":true,"internalType":"uint256","name":"proposalId","type":"uint256"},{"indexed":true,"internalType":"uint256","name":"tokenId","type":"uint256"},{"indexed":true,"internalType":"address","name":"recipient","type":"address"}],"name":"ProposalExecuted","type":"event"},{"anonymous":false,"inputs":[{"indexed":true,"internalType":"bytes32","name":"role","type":"bytes32"},{"indexed":true,"internalType":"bytes32","name":"previousAdminRole","type":"bytes32"},{"indexed":true,"internalType":"bytes32","name":"newAdminRole","type":"bytes32"}],"name":"RoleAdminChanged","type":"event"},{"anonymous":false,"inputs":[{"indexed":true,"internalType":"bytes32","name":"role","type":"bytes32"},{"indexed":true,"internalType":"address","name":"account","type":"address"},{"indexed":true,"internalType":"address","name":"sender","type":"address"}],"name":"RoleGranted","type":"event"},{"anonymous":false,"inputs":[{"indexed":true,"internalType":"address","name":"requester","type":"address"},{"indexed":true,"internalType":"bytes32","name":"role","type":"bytes32"},{"indexed":false,"internalType":"string","name":"justification","type":"string"}],"name":"RoleRequested","type":"event"},{"anonymous":false,"inputs":[{"indexed":true,"internalType":"bytes32","name":"role","type":"bytes32"},{"indexed":true,"internalType":"address","name":"account","type":"address"},{"indexed":true,"internalType":"address","name":"sender","type":"address"}],"name":"RoleRevoked","type":"event"},{"anonymous":false,"inputs":[{"indexed":false,"internalType":"uint256","name":"oldThreshold","type":"uint256"},{"indexed":false,"internalType":"uint256","name":"newThreshold","type":"uint256"},{"indexed":false,"internalType":"address","name":"changedBy","type":"address"}],"name":"ThresholdChanged","type":"event"},{"anonymous":false,"inputs":[{"indexed":true,"internalType":"address","name":"from","type":"address"},{"indexed":true,"internalType":"address","name":"to","type":"address"},{"indexed":true,"internalType":"uint256","name":"tokenId","type":"uint256"}],"name":"Transfer","type":"event"},{"anonymous":false,"inputs":[{"indexed":false,"internalType":"address","name":"account","type":"address"}],"name":"Unpaused","type":"event"},{"inputs":[],"name":"ADMIN_ROLE","outputs":[{"internalType":"bytes32","name":"","type":"bytes32"}],"stateMutability":"view","type":"function"},{"inputs":[],"name":"DEFAULT_ADMIN_ROLE","outputs":[{"internalType":"bytes32","name":"","type":"bytes32"}],"stateMutability":"view","type":"function"},{"inputs":[],"name":"ISSUER_ROLE","outputs":[{"internalType":"bytes32","name":"","type":"bytes32"}],"stateMutability":"view","type":"function"},{"inputs":[],"name":"REVOKER_ROLE","outputs":[{"internalType":"bytes32","name":"","type":"bytes32"}],"stateMutability":"view","type":"function"},{"inputs":[],"name":"SUPER_ADMIN_ROLE","outputs":[{"internalType":"bytes32","name":"","type":"bytes32"}],"stateMutability":"view","type":"function"},{"inputs":[],"name":"VERIFIER_ROLE","outputs":[{"internalType":"bytes32","name":"","type":"bytes32"}],"stateMutability":"view","type":"function"},{"inputs":[],"name":"approvalThreshold","outputs":[{"internalType":"uint256","name":"","type":"uint256"}],"stateMutability":"view","type":"function"},{"inputs":[{"internalType":"address","name":"to","type":"address"},{"internalType":"uint256","name":"tokenId","type":"uint256"}],"name":"approve","outputs":[],"stateMutability":"nonpayable","type":"function"},{"inputs":[{"internalType":"uint256","name":"proposalId","type":"uint256"}],"name":"approveProposal","outputs":[],"stateMutability":"nonpayable","type":"function"},{"inputs":[{"internalType":"address","name":"owner","type":"address"}],"name":"balanceOf","outputs":[{"internalType":"uint256","name":"","type":"uint256"}],"stateMutability":"view","type":"function"},{"inputs":[{"internalType":"address[]","name":"users","type":"address[]"},{"internalType":"bytes32[]","name":"roles","type":"bytes32[]"}],"name":"batchGrantRoles","outputs":[],"stateMutability":"nonpayable","type":"function"},{"inputs":[{"internalType":"address","name":"account","type":"address"}],"name":"canIssue","outputs":[{"internalType":"bool","name":"","type":"bool"}],"stateMutability":"view","type":"function"},{"inputs":[{"internalType":"address","name":"account","type":"address"}],"name":"canRevoke","outputs":[{"internalType":"bool","name":"","type":"bool"}],"stateMutability":"view","type":"function"},{"inputs":[{"internalType":"uint256","name":"proposalId","type":"uint256"}],"name":"cancelProposal","outputs":[],"stateMutability":"nonpayable","type":"function"},{"inputs":[{"internalType":"address","name":"recipient","type":"address"},{"internalType":"string","name":"recipientName","type":"string"},{"internalType":"string","name":"grade","type":"string"},{"internalType":"string","name":"metadataURI","type":"string"}],"name":"createProposal","outputs":[{"internalType":"uint256","name":"","type":"uint256"}],"stateMutability":"nonpayable","type":"function"},{"inputs":[{"internalType":"address","name":"user","type":"address"},{"internalType":"bytes32","name":"role","type":"bytes32"},{"internalType":"string","name":"reason","type":"string"}],"name":"emergencyRevokeRole","outputs":[],"stateMutability":"nonpayable","type":"function"},{"inputs":[{"internalType":"uint256","name":"proposalId","type":"uint256"}],"name":"executeProposal","outputs":[],"stateMutability":"nonpayable","type":"function"},{"inputs":[],"name":"getAllProposalIds","outputs":[{"internalType":"uint256[]","name":"","type":"uint256[]"}],"stateMutability":"view","type":"function"},{"inputs":[{"internalType":"uint256","name":"tokenId","type":"uint256"}],"name":"getApproved","outputs":[{"internalType":"address","name":"","type":"address"}],"stateMutability":"view","type":"function"},{"inputs":[{"internalType":"uint256","name":"tokenId","type":"uint256"}],"name":"getCertificateDetails","outputs":[{"internalType":"address","name":"owner","type":"address"},{"internalType":"uint256","name":"mintedAt","type":"uint256"},{"internalType":"bool","name":"revoked","type":"bool"},{"internalType":"string","name":"uri","type":"string"}],"stateMutability":"view","type":"function"},{"inputs":[],"name":"getPendingProposals","outputs":[{"internalType":"uint256[]","name":"","type":"uint256[]"}],"stateMutability":"view","type":"function"},{"inputs":[{"internalType":"uint256","name":"proposalId","type":"uint256"}],"name":"getProposal","outputs":[{"internalType":"uint256","name":"id","type":"uint256"},{"internalType":"address","name":"proposer","type":"address"},{"internalType":"address","name":"recipient","type":"address"},{"internalType":"string","name":"recipientName","type":"string"},{"internalType":"string","name":"grade","type":"string"},{"internalType":"string","name":"metadataURI","type":"string"},{"internalType":"uint256","name":"approvalCount","type":"uint256"},{"internalType":"uint256","name":"createdAt","type":"uint256"},{"internalType":"bool","name":"executed","type":"bool"},{"internalType":"bool","name":"cancelled","type":"bool"}],"stateMutability":"view","type":"function"},{"inputs":[{"internalType":"uint256","name":"proposalId","type":"uint256"}],"name":"getProposalApprovers","outputs":[{"internalType":"address[]","name":"","type":"address[]"}],"stateMutability":"view","type":"function"},{"inputs":[],"name":"getProposalCount","outputs":[{"internalType":"uint256","name":"","type":"uint256"}],"stateMutability":"view","type":"function"},{"inputs":[{"internalType":"bytes32","name":"role","type":"bytes32"}],"name":"getRoleAdmin","outputs":[{"internalType":"bytes32","name":"","type":"bytes32"}],"stateMutability":"view","type":"function"},{"inputs":[{"internalType":"bytes32","name":"role","type":"bytes32"}],"name":"getRoleMemberCount","outputs":[{"internalType":"uint256","name":"","type":"uint256"}],"stateMutability":"view","type":"function"},{"inputs":[{"internalType":"bytes32","name":"role","type":"bytes32"}],"name":"getRoleMembers","outputs":[{"internalType":"address[]","name":"","type":"address[]"}],"stateMutability":"view","type":"function"},{"inputs":[],"name":"getTotalMinted","outputs":[{"internalType":"uint256","name":"","type":"uint256"}],"stateMutability":"view","type":"function"},{"inputs":[{"internalType":"address","name":"account","type":"address"}],"name":"getUserRoles","outputs":[{"internalType":"bytes32[]","name":"","type":"bytes32[]"}],"stateMutability":"view","type":"function"},{"inputs":[{"internalType":"bytes32","name":"role","type":"bytes32"},{"internalType":"address","name":"account","type":"address"}],"name":"grantRole","outputs":[],"stateMutability":"nonpayable","type":"function"},{"inputs":[{"internalType":"uint256","name":"proposalId","type":"uint256"},{"internalType":"address","name":"approver","type":"address"}],"name":"hasApproved","outputs":[{"internalType":"bool","name":"","type":"bool"}],"stateMutability":"view","type":"function"},{"inputs":[{"internalType":"bytes32","name":"role","type":"bytes32"},{"internalType":"address","name":"account","type":"address"}],"name":"hasRole","outputs":[{"internalType":"bool","name":"","type":"bool"}],"stateMutability":"view","type":"function"},{"inputs":[{"internalType":"address","name":"account","type":"address"}],"name":"isAdmin","outputs":[{"internalType":"bool","name":"","type":"bool"}],"stateMutability":"view","type":"function"},{"inputs":[{"internalType":"address","name":"owner","type":"address"},{"internalType":"address","name":"operator","type":"address"}],"name":"isApprovedForAll","outputs":[{"internalType":"bool","name":"","type":"bool"}],"stateMutability":"view","type":"function"},{"inputs":[{"internalType":"uint256","name":"tokenId","type":"uint256"}],"name":"isRevoked","outputs":[{"internalType":"bool","name":"","type":"bool"}],"stateMutability":"view","type":"function"},{"inputs":[{"internalType":"address","name":"recipient","type":"address"},{"internalType":"string","name":"_tokenURI","type":"string"}],"name":"mintCertificate","outputs":[{"internalType":"uint256","name":"","type":"uint256"}],"stateMutability":"nonpayable","type":"function"},{"inputs":[],"name":"name","outputs":[{"internalType":"string","name":"","type":"string"}],"stateMutability":"view","type":"function"},{"inputs":[],"name":"owner","outputs":[{"internalType":"address","name":"","type":"address"}],"stateMutability":"view","type":"function"},{"inputs":[{"internalType":"uint256","name":"tokenId","type":"uint256"}],"name":"ownerOf","outputs":[{"internalType":"address","name":"","type":"address"}],"stateMutability":"view","type":"function"},{"inputs":[],"name":"pause","outputs":[],"stateMutability":"nonpayable","type":"function"},{"inputs":[],"name":"paused","outputs":[{"internalType":"bool","name":"","type":"bool"}],"stateMutability":"view","type":"function"},{"inputs":[{"internalType":"uint256","name":"","type":"uint256"},{"internalType":"address","name":"","type":"address"}],"name":"proposalApprovals","outputs":[{"internalType":"bool","name":"","type":"bool"}],"stateMutability":"view","type":"function"},{"inputs":[{"internalType":"uint256","name":"","type":"uint256"},{"internalType":"uint256","name":"","type":"uint256"}],"name":"proposalApprovers","outputs":[{"internalType":"address","name":"","type":"address"}],"stateMutability":"view","type":"function"},{"inputs":[{"internalType":"uint256","name":"","type":"uint256"}],"name":"proposals","outputs":[{"internalType":"uint256","name":"proposalId","type":"uint256"},{"internalType":"address","name":"proposer","type":"address"},{"internalType":"address","name":"recipient","type":"address"},{"internalType":"string","name":"recipientName","type":"string"},{"internalType":"string","name":"grade","type":"string"},{"internalType":"string","name":"metadataURI","type":"string"},{"internalType":"uint256","name":"approvalCount","type":"uint256"},{"internalType":"uint256","name":"createdAt","type":"uint256"},{"internalType":"bool","name":"executed","type":"bool"},{"internalType":"bool","name":"cancelled","type":"bool"}],"stateMutability":"view","type":"function"},{"inputs":[],"name":"renounceOwnership","outputs":[],"stateMutability":"nonpayable","type":"function"},{"inputs":[{"internalType":"bytes32","name":"role","type":"bytes32"},{"internalType":"address","name":"callerConfirmation","type":"address"}],"name":"renounceRole","outputs":[],"stateMutability":"nonpayable","type":"function"},{"inputs":[{"internalType":"bytes32","name":"role","type":"bytes32"},{"internalType":"string","name":"justification","type":"string"}],"name":"requestRole","outputs":[],"stateMutability":"nonpayable","type":"function"},{"inputs":[{"internalType":"uint256","name":"proposalId","type":"uint256"}],"name":"revokeApproval","outputs":[],"stateMutability":"nonpayable","type":"function"},{"inputs":[{"internalType":"uint256","name":"tokenId","type":"uint256"}],"name":"revokeCertificate","outputs":[],"stateMutability":"nonpayable","type":"function"},{"inputs":[{"internalType":"bytes32","name":"role","type":"bytes32"},{"internalType":"address","name":"account","type":"address"}],"name":"revokeRole","outputs":[],"stateMutability":"nonpayable","type":"function"},{"inputs":[{"internalType":"address","name":"from","type":"address"},{"internalType":"address","name":"to","type":"address"},{"internalType":"uint256","name":"tokenId","type":"uint256"}],"name":"safeTransferFrom","outputs":[],"stateMutability":"nonpayable","type":"function"},{"inputs":[{"internalType":"address","name":"from","type":"address"},{"internalType":"address","name":"to","type":"address"},{"internalType":"uint256","name":"tokenId","type":"uint256"},{"internalType":"bytes","name":"data","type":"bytes"}],"name":"safeTransferFrom","outputs":[],"stateMutability":"nonpayable","type":"function"},{"inputs":[{"internalType":"address","name":"operator","type":"address"},{"internalType":"bool","name":"approved","type":"bool"}],"name":"setApprovalForAll","outputs":[],"stateMutability":"nonpayable","type":"function"},{"inputs":[{"internalType":"uint256","name":"newThreshold","type":"uint256"}],"name":"setApprovalThreshold","outputs":[],"stateMutability":"nonpayable","type":"function"},{"inputs":[{"internalType":"bytes4","name":"interfaceId","type":"bytes4"}],"name":"supportsInterface","outputs":[{"internalType":"bool","name":"","type":"bool"}],"stateMutability":"view","type":"function"},{"inputs":[],"name":"symbol","outputs":[{"internalType":"string","name":"","type":"string"}],"stateMutability":"view","type":"function"},{"inputs":[{"internalType":"uint256","name":"tokenId","type":"uint256"}],"name":"tokenURI","outputs":[{"internalType":"string","name":"","type":"string"}],"stateMutability":"view","type":"function"},{"inputs":[{"internalType":"address","name":"from","type":"address"},{"internalType":"address","name":"to","type":"address"},{"internalType":"uint256","name":"tokenId","type":"uint256"}],"name":"transferFrom","outputs":[],"stateMutability":"nonpayable","type":"function"},{"inputs":[{"internalType":"address","name":"newOwner","type":"address"}],"name":"transferOwnership","outputs":[],"stateMutability":"nonpayable","type":"function"},{"inputs":[],"name":"unpause","outputs":[],"stateMutability":"nonpayable","type":"function"},{"inputs":[{"internalType":"uint256","name":"tokenId","type":"uint256"}],"name":"verifyCertificate","outputs":[{"internalType":"bool","name":"isValid","type":"bool"}],"stateMutability":"view","type":"function"}],"evm":{"bytecode":{"linkReferences":{},"object":"608060405234801561000f575f5ffd5b50604051614fbb380380614fbb83398101604081905261002e9161031e565b806040518060400160405280600e81526020016d10d95c9d1a599a58d85d1953919560921b8152506040518060400160405280600481526020016310d1549560e21b815250815f908161008191906103e3565b50600161008e82826103e3565b5050506001600160a01b0381166100be57604051631e4fbdf760e01b81525f600482015260240160405180910390fd5b6100c7816101d6565b506100d25f82610227565b506100ea5f516020614f7b5f395f51905f5282610227565b506101025f516020614f7b5f395f51905f525f6102d4565b6101265f516020614f9b5f395f51905f525f516020614f7b5f395f51905f526102d4565b61015d7f114e74f6ea3bd819998f78687bfcb11b140da08e9b7d222fa9c1f1ba1f2aa1225f516020614f9b5f395f51905f526102d4565b6101947fce3f34913921da558f105cefb578d87278debbbd073a8d552b5de0d168deee305f516020614f9b5f395f51905f526102d4565b6101cb7f0ce23c3e399818cfee81a7ab0880f714e53d7672b08df0fa62f2843416e1ea095f516020614f9b5f395f51905f526102d4565b506003600e5561049d565b600780546001600160a01b038381166001600160a01b0319831681179093556040519116919082907f8be0079c531659141344cd1fd0a4f28419497f9722a3daafe3b4186f6b6457e0905f90a35050565b5f8281526008602090815260408083206001600160a01b038516845290915281205460ff166102cb575f8381526008602090815260408083206001600160a01b03861684529091529020805460ff191660011790556102833390565b6001600160a01b0316826001600160a01b0316847f2f8788117e7eff1d82e926ec794901d17c78024a50270940304540a733656f0d60405160405180910390a45060016102ce565b505f5b92915050565b5f82815260086020526040808220600101805490849055905190918391839186917fbd79b86ffe0ab8e8776151514217cd7cacd52c909f66475c3af44e129f0b00ff9190a4505050565b5f6020828403121561032e575f5ffd5b81516001600160a01b0381168114610344575f5ffd5b9392505050565b634e487b7160e01b5f52604160045260245ffd5b600181811c9082168061037357607f821691505b60208210810361039157634e487b7160e01b5f52602260045260245ffd5b50919050565b601f8211156103de57805f5260205f20601f840160051c810160208510156103bc5750805b601f840160051c820191505b818110156103db575f81556001016103c8565b50505b505050565b81516001600160401b038111156103fc576103fc61034b565b6104108161040a845461035f565b84610397565b6020601f821160018114610442575f831561042b5750848201515b5f19600385901b1c1916600184901b1784556103db565b5f84815260208120601f198516915b828110156104715787850151825560209485019460019092019101610451565b508482101561048e57868401515f19600387901b60f8161c191681555b50505050600190811b01905550565b614ad1806104aa5f395ff3fe608060405234801561000f575f5ffd5b506004361061039e575f3560e01c806375b238fc116101ea578063a22cb46511610114578063c87b56dd116100a9578063e7705db611610079578063e7705db614610854578063e985e9c514610868578063efa90d361461087b578063f2fde38b14610883575f5ffd5b8063c87b56dd14610808578063ca15c8731461081b578063d547741f1461082e578063e0a8f6f514610841575f5ffd5b8063b1e130fc116100e4578063b1e130fc146107c7578063b88d4fde146107da578063c08cc02d146107ed578063c7f758a8146107f5575f5ffd5b8063a22cb46514610776578063a3246ad314610789578063a80db6fc1461079c578063a901fe5e146107a4575f5ffd5b80638d7055111161018a57806398951b561161015a57806398951b56146107365780639dae1e7714610749578063a0016b8c1461075c578063a217fddf1461076f575f5ffd5b80638d705511146106f75780638da5cb5b1461070a57806391d148541461071b57806395d89b411461072e575f5ffd5b80637d0eef61116101c55780637d0eef61146106bf57806382aefa24146106c85780638456cb59146106dc5780638d66692d146106e4575f5ffd5b806375b238fc14610684578063768b01aa146106985780637c4acabf146106ab575f5ffd5b806324d7806c116102cb578063447fd63c1161026b5780635d07c0e21161023b5780635d07c0e2146106435780636352211e1461065657806370a0823114610669578063715018a61461067c575f5ffd5b8063447fd63c146105d65780634733c271146105e95780635c975abb146106165780635ccc561e14610621575f5ffd5b806336568abe116102a657806336568abe146105945780633f4ba83a146105a757806342842e0e146105af5780634460bdd6146105c2575f5ffd5b806324d7806c1461054e5780632e8e2f5d146105615780632f2ff15d14610581575f5ffd5b8063095ea7b31161034157806318f0eb9b1161031157806318f0eb9b146104ce5780632358d5a8146104e157806323b872dd14610519578063248a9ca31461052c575f5ffd5b8063095ea7b31461048d5780630ca1c5c9146104a05780630d61b519146104a85780631692a942146104bb575f5ffd5b806306f5497e1161037c57806306f5497e1461041757806306fdde031461042c5780630712249f14610441578063081812fc14610462575f5ffd5b8063013cf08b146103a257806301ffc9a7146103d457806306a36aee146103f7575b5f5ffd5b6103b56103b0366004613fe6565b610896565b6040516103cb9a9998979695949392919061402b565b60405180910390f35b6103e76103e23660046140c6565b610a8a565b60405190151581526020016103cb565b61040a6104053660046140fc565b610a9a565b6040516103cb9190614115565b61042a610425366004613fe6565b610cbb565b005b610434610e3d565b6040516103cb919061414c565b61045461044f366004614218565b610ecc565b6040519081526020016103cb565b610475610470366004613fe6565b61119a565b6040516001600160a01b0390911681526020016103cb565b61042a61049b366004614262565b6111c1565b600a54610454565b61042a6104b6366004613fe6565b6111d0565b6103e76104c9366004613fe6565b611349565b6103e76104dc3660046140fc565b611381565b6103e76104ef36600461428a565b5f9182526010602090815260408084206001600160a01b0393909316845291905290205460ff1690565b61042a6105273660046142b4565b6113d3565b61045461053a366004613fe6565b5f9081526008602052604090206001015490565b6103e761055c3660046140fc565b61145c565b61057461056f366004613fe6565b611491565b6040516103cb91906142ee565b61042a61058f36600461428a565b6114fa565b61042a6105a236600461428a565b6115e4565b61042a611617565b61042a6105bd3660046142b4565b611639565b6104545f516020614a3c5f395f51905f5281565b61042a6105e436600461432e565b611653565b6103e76105f736600461428a565b601060209081525f928352604080842090915290825290205460ff1681565b60095460ff166103e7565b6103e761062f366004613fe6565b5f908152600b602052604090205460ff1690565b610475610651366004614380565b61171d565b610475610664366004613fe6565b611751565b6104546106773660046140fc565b61175b565b61042a6117a0565b6104545f516020614a5c5f395f51905f5281565b61042a6106a63660046143a0565b6117b3565b6104545f5160206149fc5f395f51905f5281565b610454600e5481565b6104545f516020614a1c5f395f51905f5281565b61042a6118e9565b61042a6106f2366004614459565b611908565b6103e76107053660046140fc565b6119b8565b6007546001600160a01b0316610475565b6103e761072936600461428a565b611a06565b610434611a30565b61042a610744366004613fe6565b611a3f565b610454610757366004614510565b611cda565b61042a61076a366004613fe6565b612077565b6104545f81565b61042a6107843660046145ac565b61217a565b610574610797366004613fe6565b612185565b61040a6121de565b6107b76107b2366004613fe6565b612771565b6040516103cb94939291906145e5565b61042a6107d5366004613fe6565b612905565b61042a6107e836600461461d565b612b75565b600d54610454565b6103b5610803366004613fe6565b612b8d565b610434610816366004613fe6565b612e49565b610454610829366004613fe6565b612f54565b61042a61083c36600461428a565b612f73565b61042a61084f366004613fe6565b61304f565b6104545f516020614a7c5f395f51905f5281565b6103e7610876366004614687565b613185565b61040a6131b2565b61042a6108913660046140fc565b613207565b600f6020525f9081526040902080546001820154600283015460038401805493946001600160a01b039384169493909216926108d1906146af565b80601f01602080910402602001604051908101604052809291908181526020018280546108fd906146af565b80156109485780601f1061091f57610100808354040283529160200191610948565b820191905f5260205f20905b81548152906001019060200180831161092b57829003601f168201915b50505050509080600401805461095d906146af565b80601f0160208091040260200160405190810160405280929190818152602001828054610989906146af565b80156109d45780601f106109ab576101008083540402835291602001916109d4565b820191905f5260205f20905b8154815290600101906020018083116109b757829003601f168201915b5050505050908060050180546109e9906146af565b80601f0160208091040260200160405190810160405280929190818152602001828054610a15906146af565b8015610a605780601f10610a3757610100808354040283529160200191610a60565b820191905f5260205f20905b815481529060010190602001808311610a4357829003601f168201915b50505050600683015460078401546008909401549293909290915060ff808216916101009004168a565b5f610a9482613241565b92915050565b60408051600580825260c082019092526060915f91906020820160a0803683370190505090505f516020614a3c5f395f51905f52815f81518110610ae057610ae06146e7565b6020026020010181815250505f516020614a5c5f395f51905f5281600181518110610b0d57610b0d6146e7565b6020026020010181815250505f516020614a1c5f395f51905f5281600281518110610b3a57610b3a6146e7565b6020026020010181815250505f5160206149fc5f395f51905f5281600381518110610b6757610b676146e7565b6020026020010181815250505f516020614a7c5f395f51905f5281600481518110610b9457610b946146e7565b60209081029190910101525f805b8251811015610be957610bce838281518110610bc057610bc06146e7565b602002602001015186611a06565b15610be15781610bdd8161470f565b9250505b600101610ba2565b505f816001600160401b03811115610c0357610c0361415e565b604051908082528060200260200182016040528015610c2c578160200160208202803683370190505b5090505f805b8451811015610cb057610c5e858281518110610c5057610c506146e7565b602002602001015188611a06565b15610ca857848181518110610c7557610c756146e7565b6020026020010151838381518110610c8f57610c8f6146e7565b602090810291909101015281610ca48161470f565b9250505b600101610c32565b509095945050505050565b610cc3613265565b610ccc33611381565b610d1d5760405162461bcd60e51b815260206004820181905260248201527f4d7573742068617665205245564f4b45525f524f4c45206f722068696768657260448201526064015b60405180910390fd5b5f818152600260205260409020546001600160a01b0316610d805760405162461bcd60e51b815260206004820152601a60248201527f436572746966696361746520646f6573206e6f742065786973740000000000006044820152606401610d14565b5f818152600b602052604090205460ff1615610dde5760405162461bcd60e51b815260206004820152601b60248201527f436572746966696361746520616c7265616479207265766f6b656400000000006044820152606401610d14565b5f818152600b602090815260408083208054600160ff199182168117909255600c90935281842060020180549093161790915551339183917f325c62e70cfaa61cf0709d9607ea9d8451b235297c4b47c65ff6a6449c9faca49190a350565b60605f8054610e4b906146af565b80601f0160208091040260200160405190810160405280929190818152602001828054610e77906146af565b8015610ec25780601f10610e9957610100808354040283529160200191610ec2565b820191905f5260205f20905b815481529060010190602001808311610ea557829003601f168201915b5050505050905090565b5f610ed5613265565b610eec5f516020614a5c5f395f51905f5233611a06565b1580610f0a5750610f0a5f516020614a3c5f395f51905f5233611a06565b610f8a5760405162461bcd60e51b8152602060048201526044602482018190527f41444d494e73206d757374207573652070726f706f73616c2073797374656d2e908201527f204f6e6c792053555045525f41444d494e2063616e206d696e742064697265636064820152633a363c9760e11b608482015260a401610d14565b610f93336119b8565b610fdf5760405162461bcd60e51b815260206004820152601f60248201527f4d7573742068617665204953535545525f524f4c45206f7220686967686572006044820152606401610d14565b6001600160a01b0383166110355760405162461bcd60e51b815260206004820152601b60248201527f43616e6e6f74206d696e7420746f207a65726f206164647265737300000000006044820152606401610d14565b5f8251116110855760405162461bcd60e51b815260206004820152601960248201527f546f6b656e205552492063616e6e6f7420626520656d707479000000000000006044820152606401610d14565b6001600a5f8282546110979190614727565b9091555050600a546110a98482613289565b6110b381846132a2565b604080516080810182526001600160a01b0386811682524260208084019182525f84860181815286518088018852600881526714dd185b99185c9960c21b8185015260608701908152888352600c909352959020845181546001600160a01b031916941693909317835590516001830155925160028201805460ff19169115159190911790559151909190600382019061114d908261477e565b50905050836001600160a01b0316817f8f25ba6a82901a4fd6415ef13a61a268ca433a2b06840284ed6cee98d0237d9e8560405161118b919061414c565b60405180910390a39392505050565b5f6111a4826132f1565b505f828152600460205260409020546001600160a01b0316610a94565b6111cc828233613329565b5050565b6111d8613265565b6111ef5f516020614a5c5f395f51905f5233611a06565b8061120c575061120c5f516020614a3c5f395f51905f5233611a06565b6112745760405162461bcd60e51b815260206004820152603360248201527f4d75737420686176652041444d494e20726f6c65206f722068696768657220746044820152726f20657865637574652070726f706f73616c7360681b6064820152608401610d14565b5f818152600f6020526040812080549091036112a25760405162461bcd60e51b8152600401610d1490614838565b600881015460ff16156112c75760405162461bcd60e51b8152600401610d149061486f565b6008810154610100900460ff16156112f15760405162461bcd60e51b8152600401610d14906148a6565b600e54816006015410156113405760405162461bcd60e51b8152602060048201526016602482015275496e73756666696369656e7420617070726f76616c7360501b6044820152606401610d14565b6111cc82613336565b5f818152600260205260408120546001600160a01b031661136b57505f919050565b505f908152600b602052604090205460ff161590565b5f6113995f516020614a3c5f395f51905f5283611a06565b806113b657506113b65f516020614a5c5f395f51905f5283611a06565b80610a945750610a945f5160206149fc5f395f51905f5283611a06565b6001600160a01b0382166113fc57604051633250574960e11b81525f6004820152602401610d14565b5f61140883833361354f565b9050836001600160a01b0316816001600160a01b031614611456576040516364283d7b60e01b81526001600160a01b0380861660048301526024820184905282166044820152606401610d14565b50505050565b5f6114745f516020614a3c5f395f51905f5283611a06565b80610a945750610a945f516020614a5c5f395f51905f5283611a06565b5f818152601160209081526040918290208054835181840281018401909452808452606093928301828280156114ee57602002820191905f5260205f20905b81546001600160a01b031681526001909101906020018083116114d0575b50505050509050919050565b6115115f516020614a3c5f395f51905f5233611a06565b156115da575f516020614a5c5f395f51905f5282148061153d57505f516020614a1c5f395f51905f5282145b8061155457505f5160206149fc5f395f51905f5282145b8061156b57505f516020614a7c5f395f51905f5282145b6115cb5760405162461bcd60e51b815260206004820152602b60248201527f53555045525f41444d494e2063616e6e6f74206772616e742044454641554c5460448201526a5f41444d494e5f524f4c4560a81b6064820152608401610d14565b6115d582826135f4565b505050565b6111cc8282613685565b6001600160a01b038116331461160d5760405163334bd91960e11b815260040160405180910390fd5b6115d582826136a9565b5f516020614a3c5f395f51905f5261162e81613714565b61163661371e565b50565b6115d583838360405180602001604052805f815250612b75565b5f516020614a3c5f395f51905f5261166a81613714565b6116748385611a06565b6116c05760405162461bcd60e51b815260206004820152601c60248201527f5573657220646f6573206e6f742068617665207468697320726f6c65000000006044820152606401610d14565b6116ca83856136a9565b5082846001600160a01b0316336001600160a01b03167ff460e388dc46fdee464ee024ca3b0c33ab26345ac38de78ea140bb5cbce141c18560405161170f919061414c565b60405180910390a450505050565b6011602052815f5260405f208181548110611736575f80fd5b5f918252602090912001546001600160a01b03169150829050565b5f610a94826132f1565b5f6001600160a01b038216611785576040516322718ad960e21b81525f6004820152602401610d14565b506001600160a01b03165f9081526003602052604090205490565b6117a8613770565b6117b15f61379d565b565b6117bd8233611a06565b156118025760405162461bcd60e51b8152602060048201526015602482015274416c726561647920686173207468697320726f6c6560581b6044820152606401610d14565b5f516020614a1c5f395f51905f5282148061182957505f5160206149fc5f395f51905f5282145b8061184057505f516020614a7c5f395f51905f5282145b8061185757505f516020614a5c5f395f51905f5282145b6118a35760405162461bcd60e51b815260206004820152601f60248201527f43616e6e6f7420726571756573742053555045525f41444d494e5f524f4c45006044820152606401610d14565b81336001600160a01b03167f98f6f2d133c420a141a671ce9479e3956417c7f04bd370de1cd64ce10d385d94836040516118dd919061414c565b60405180910390a35050565b5f516020614a3c5f395f51905f5261190081613714565b6116366137ee565b5f516020614a3c5f395f51905f5261191f81613714565b81518351146119695760405162461bcd60e51b8152602060048201526016602482015275082e4e4c2f2e640d8cadccee8d040dad2e6dac2e8c6d60531b6044820152606401610d14565b5f5b8351811015611456576119b0838281518110611989576119896146e7565b60200260200101518583815181106119a3576119a36146e7565b60200260200101516114fa565b60010161196b565b5f6119d05f516020614a3c5f395f51905f5283611a06565b806119ed57506119ed5f516020614a5c5f395f51905f5283611a06565b80610a945750610a945f516020614a1c5f395f51905f52835b5f9182526008602090815260408084206001600160a01b0393909316845291905290205460ff1690565b606060018054610e4b906146af565b611a47613265565b611a5e5f516020614a5c5f395f51905f5233611a06565b80611a7b5750611a7b5f516020614a3c5f395f51905f5233611a06565b611ae35760405162461bcd60e51b815260206004820152603360248201527f4d75737420686176652041444d494e20726f6c65206f722068696768657220746044820152726f20617070726f76652070726f706f73616c7360681b6064820152608401610d14565b5f818152600f602052604081208054909103611b115760405162461bcd60e51b8152600401610d1490614838565b600881015460ff1615611b365760405162461bcd60e51b8152600401610d149061486f565b6008810154610100900460ff1615611b605760405162461bcd60e51b8152600401610d14906148a6565b6001810154336001600160a01b0390911603611bbe5760405162461bcd60e51b815260206004820181905260248201527f43616e6e6f7420617070726f766520796f7572206f776e2070726f706f73616c6044820152606401610d14565b5f82815260106020908152604080832033845290915290205460ff1615611c1a5760405162461bcd60e51b815260206004820152601060248201526f105b1c9958591e48185c1c1c9bdd995960821b6044820152606401610d14565b5f82815260106020908152604080832033808552908352818420805460ff19166001908117909155868552601184529184208054808401825590855292842090920180546001600160a01b03191690921790915560068301805491929091611c83908490614727565b90915550506006810154604051908152339083907f2f0f51d2f12c71357e60d575d47e93e081dbaf32072245ab1e01540f0aadbf1a9060200160405180910390a3600e548160060154106111cc576111cc82613336565b5f611ce3613265565b611cfa5f516020614a5c5f395f51905f5233611a06565b80611d175750611d175f516020614a3c5f395f51905f5233611a06565b611d7e5760405162461bcd60e51b815260206004820152603260248201527f4d75737420686176652041444d494e20726f6c65206f722068696768657220746044820152716f206372656174652070726f706f73616c7360701b6064820152608401610d14565b6001600160a01b038516611dd45760405162461bcd60e51b815260206004820152601960248201527f496e76616c696420726563697069656e742061646472657373000000000000006044820152606401610d14565b5f845111611e245760405162461bcd60e51b815260206004820152601e60248201527f526563697069656e74206e616d652063616e6e6f7420626520656d70747900006044820152606401610d14565b5f835111611e6c5760405162461bcd60e51b815260206004820152601560248201527447726164652063616e6e6f7420626520656d70747960581b6044820152606401610d14565b5f825111611ebc5760405162461bcd60e51b815260206004820152601c60248201527f4d65746164617461205552492063616e6e6f7420626520656d707479000000006044820152606401610d14565b6001600d5f828254611ece9190614727565b9091555050600d5460408051610140810182528281523360208083019182526001600160a01b038a8116848601908152606085018b8152608086018b905260a086018a90525f60c087018190524260e088015261010087018190526101208701819052888152600f909452959092208451815592516001840180546001600160a01b03199081169284169290921790559151600284018054909316911617905591519091906003820190611f82908261477e565b5060808201516004820190611f97908261477e565b5060a08201516005820190611fac908261477e565b5060c0820151600682015560e0820151600782015561010080830151600890920180546101209094015161ffff1990941692151561ff0019169290921792151502919091179055601280546001810182555f919091527fbb8a6a4669ba250d26cd7a459eca9d215f8307e33aebe50379bc5a3617ec3444018190556040516001600160a01b03871690339083907fbf0fcd54b591a07a1943cf5eaf6fdd64e31bc7b4c469e9ba81fb00e21fd859f59061206690889061414c565b60405180910390a495945050505050565b5f516020614a3c5f395f51905f5261208e81613714565b5f82116120dd5760405162461bcd60e51b815260206004820181905260248201527f5468726573686f6c64206d7573742062652067726561746572207468616e20306044820152606401610d14565b600a82111561212e5760405162461bcd60e51b815260206004820152601b60248201527f5468726573686f6c6420746f6f206869676820286d61782031302900000000006044820152606401610d14565b600e8054908390556040805182815260208101859052338183015290517f9a1127d9e62039a535871e1a9a938d02bcb5ce43543c8284b8ff514499eb23e79181900360600190a1505050565b6111cc33838361382b565b60605f61219183612f54565b90505f816001600160401b038111156121ac576121ac61415e565b6040519080825280602002602001820160405280156121d5578160200160208202803683370190505b50949350505050565b60605f805b601254811015612472575f60128281548110612201576122016146e7565b5f918252602080832090910154808352600f825260408084208151610140810183528154815260018201546001600160a01b03908116958201959095526002820154909416918401919091526003810180549295509091606084019190612267906146af565b80601f0160208091040260200160405190810160405280929190818152602001828054612293906146af565b80156122de5780601f106122b5576101008083540402835291602001916122de565b820191905f5260205f20905b8154815290600101906020018083116122c157829003601f168201915b505050505081526020016004820180546122f7906146af565b80601f0160208091040260200160405190810160405280929190818152602001828054612323906146af565b801561236e5780601f106123455761010080835404028352916020019161236e565b820191905f5260205f20905b81548152906001019060200180831161235157829003601f168201915b50505050508152602001600582018054612387906146af565b80601f01602080910402602001604051908101604052809291908181526020018280546123b3906146af565b80156123fe5780601f106123d5576101008083540402835291602001916123fe565b820191905f5260205f20905b8154815290600101906020018083116123e157829003601f168201915b5050509183525050600682015460208201526007820154604082015260089091015460ff80821615156060840152610100918290041615156080909201919091528101519091501580156124555750806101200151155b1561246857836124648161470f565b9450505b50506001016121e3565b505f816001600160401b0381111561248c5761248c61415e565b6040519080825280602002602001820160405280156124b5578160200160208202803683370190505b5090505f805b601254811015612768575f601282815481106124d9576124d96146e7565b5f918252602080832090910154808352600f825260408084208151610140810183528154815260018201546001600160a01b0390811695820195909552600282015490941691840191909152600381018054929550909160608401919061253f906146af565b80601f016020809104026020016040519081016040528092919081815260200182805461256b906146af565b80156125b65780601f1061258d576101008083540402835291602001916125b6565b820191905f5260205f20905b81548152906001019060200180831161259957829003601f168201915b505050505081526020016004820180546125cf906146af565b80601f01602080910402602001604051908101604052809291908181526020018280546125fb906146af565b80156126465780601f1061261d57610100808354040283529160200191612646565b820191905f5260205f20905b81548152906001019060200180831161262957829003601f168201915b5050505050815260200160058201805461265f906146af565b80601f016020809104026020016040519081016040528092919081815260200182805461268b906146af565b80156126d65780601f106126ad576101008083540402835291602001916126d6565b820191905f5260205f20905b8154815290600101906020018083116126b957829003601f168201915b5050509183525050600682015460208201526007820154604082015260089091015460ff808216151560608401526101009182900416151560809092019190915281015190915015801561272d5750806101200151155b1561275e5781858581518110612745576127456146e7565b60209081029190910101528361275a8161470f565b9450505b50506001016124bb565b50909392505050565b5f8080606081612795865f908152600260205260409020546001600160a01b031690565b6001600160a01b0316036127eb5760405162461bcd60e51b815260206004820152601a60248201527f436572746966696361746520646f6573206e6f742065786973740000000000006044820152606401610d14565b5f858152600c60209081526040808320815160808101835281546001600160a01b03168152600182015493810193909352600281015460ff16151591830191909152600381018054606084019190612842906146af565b80601f016020809104026020016040519081016040528092919081815260200182805461286e906146af565b80156128b95780601f10612890576101008083540402835291602001916128b9565b820191905f5260205f20905b81548152906001019060200180831161289c57829003601f168201915b50505050508152505090506128e2865f908152600260205260409020546001600160a01b031690565b816020015182604001516128f589612e49565b9450945094509450509193509193565b61290d613265565b5f818152600f60205260408120805490910361293b5760405162461bcd60e51b8152600401610d1490614838565b600881015460ff16156129605760405162461bcd60e51b8152600401610d149061486f565b6008810154610100900460ff161561298a5760405162461bcd60e51b8152600401610d14906148a6565b5f82815260106020908152604080832033845290915290205460ff166129eb5760405162461bcd60e51b81526020600482015260166024820152752737ba1030b8383937bb32b210313c9039b2b73232b960511b6044820152606401610d14565b5f8281526010602090815260408083203384529091528120805460ff1916905560068201805460019290612a209084906148d5565b90915550505f828152601160205260408120905b8154811015612b2757336001600160a01b0316828281548110612a5957612a596146e7565b5f918252602090912001546001600160a01b031603612b1f5781548290612a82906001906148d5565b81548110612a9257612a926146e7565b905f5260205f20015f9054906101000a90046001600160a01b0316828281548110612abf57612abf6146e7565b905f5260205f20015f6101000a8154816001600160a01b0302191690836001600160a01b0316021790555081805480612afa57612afa6148e8565b5f8281526020902081015f1990810180546001600160a01b0319169055019055612b27565b600101612a34565b50336001600160a01b0316837f3897f90b3a67b47c3c460799ac827c771876a05b3e0a49e3ccc82e33158877858460060154604051612b6891815260200190565b60405180910390a3505050565b612b808484846113d3565b61145633858585856138c1565b5f818152600f602090815260408083208151610140810183528154815260018201546001600160a01b039081169482019490945260028201549093169183019190915260038101805484938493606093849384938793849384938493849390929091838a019190612bfd906146af565b80601f0160208091040260200160405190810160405280929190818152602001828054612c29906146af565b8015612c745780601f10612c4b57610100808354040283529160200191612c74565b820191905f5260205f20905b815481529060010190602001808311612c5757829003601f168201915b50505050508152602001600482018054612c8d906146af565b80601f0160208091040260200160405190810160405280929190818152602001828054612cb9906146af565b8015612d045780601f10612cdb57610100808354040283529160200191612d04565b820191905f5260205f20905b815481529060010190602001808311612ce757829003601f168201915b50505050508152602001600582018054612d1d906146af565b80601f0160208091040260200160405190810160405280929190818152602001828054612d49906146af565b8015612d945780601f10612d6b57610100808354040283529160200191612d94565b820191905f5260205f20905b815481529060010190602001808311612d7757829003601f168201915b5050509183525050600682015460208201526007820154604082015260089091015460ff8082161515606084015261010090910416151560809091015280519091505f03612df45760405162461bcd60e51b8152600401610d1490614838565b805f015181602001518260400151836060015184608001518560a001518660c001518760e001518861010001518961012001519a509a509a509a509a509a509a509a509a509a50509193959799509193959799565b6060612e54826132f1565b505f8281526006602052604081208054612e6d906146af565b80601f0160208091040260200160405190810160405280929190818152602001828054612e99906146af565b8015612ee45780601f10612ebb57610100808354040283529160200191612ee4565b820191905f5260205f20905b815481529060010190602001808311612ec757829003601f168201915b505050505090505f612f0060408051602081019091525f815290565b905080515f03612f11575092915050565b815115612f43578082604051602001612f2b929190614913565b60405160208183030381529060405292505050919050565b612f4c846139e9565b949350505050565b5f612f5f8233611a06565b15612f6c57506001919050565b505f919050565b612f8a5f516020614a3c5f395f51905f5233611a06565b15613045575f516020614a5c5f395f51905f52821480612fb657505f516020614a1c5f395f51905f5282145b80612fcd57505f5160206149fc5f395f51905f5282145b80612fe457505f516020614a7c5f395f51905f5282145b61160d5760405162461bcd60e51b815260206004820152602c60248201527f53555045525f41444d494e2063616e6e6f74207265766f6b652044454641554c60448201526b545f41444d494e5f524f4c4560a01b6064820152608401610d14565b6111cc8282613a5a565b5f516020614a3c5f395f51905f5261306681613714565b5f828152600f6020526040812080549091036130945760405162461bcd60e51b8152600401610d1490614838565b600881015460ff16156130e95760405162461bcd60e51b815260206004820152601f60248201527f43616e6e6f742063616e63656c2065786563757465642070726f706f73616c006044820152606401610d14565b6008810154610100900460ff16156131435760405162461bcd60e51b815260206004820152601a60248201527f50726f706f73616c20616c72656164792063616e63656c6c65640000000000006044820152606401610d14565b60088101805461ff001916610100179055604051339084907f74c34a008ce735d9fcf0bd03a9b238d212ad4c441c020661f4ffbb6442645b85905f90a3505050565b6001600160a01b039182165f90815260056020908152604080832093909416825291909152205460ff1690565b60606012805480602002602001604051908101604052809291908181526020018280548015610ec257602002820191905f5260205f20905b8154815260200190600101908083116131ea575050505050905090565b61320f613770565b6001600160a01b03811661323857604051631e4fbdf760e01b81525f6004820152602401610d14565b6116368161379d565b5f6001600160e01b03198216637965db0b60e01b1480610a945750610a9482613a7e565b60095460ff16156117b15760405163d93c066560e01b815260040160405180910390fd5b6111cc828260405180602001604052805f815250613aa2565b5f8281526006602052604090206132b9828261477e565b506040518281527ff8e1a15aba9398e019f0b49df1a4fde98ee17ae345cb5f6b5e2c27f5033e8ce79060200160405180910390a15050565b5f818152600260205260408120546001600160a01b031680610a9457604051637e27328960e01b815260048101849052602401610d14565b6115d58383836001613ab9565b5f818152600f6020526040812060088101805460ff19166001908117909155600a80549293919290919061336b908490614727565b9091555050600a54600282015461338b906001600160a01b031682613289565b61341f8183600501805461339e906146af565b80601f01602080910402602001604051908101604052809291908181526020018280546133ca906146af565b80156134155780601f106133ec57610100808354040283529160200191613415565b820191905f5260205f20905b8154815290600101906020018083116133f857829003601f168201915b50505050506132a2565b604080516080810182526002848101546001600160a01b0390811683524260208085019182525f858701818152875180890189526012815271135d5b1d1a4b54da59c8105c1c1c9bdd995960721b8185015260608801908152898352600c909352969020855181546001600160a01b0319169416939093178355905160018301559351918101805460ff191692151592909217909155915190919060038201906134c9908261477e565b50505060028201546040516001600160a01b0390911690829085907fe285e47f4804f679760aa4e907da874045af16436d55df64b64ffd9ca2539dfa905f90a460028201546040516001600160a01b039091169082907f8f25ba6a82901a4fd6415ef13a61a268ca433a2b06840284ed6cee98d0237d9e90612b68906005870190614927565b5f828152600260205260408120546001600160a01b0316801580159061357d57506001600160a01b03851615155b156135e05760405162461bcd60e51b815260206004820152602d60248201527f436572746966696361746520697320736f756c626f756e6420616e64206e6f6e60448201526c2d7472616e7366657261626c6560981b6064820152608401610d14565b6135eb858585613bbd565b95945050505050565b5f6135ff8383611a06565b61367e575f8381526008602090815260408083206001600160a01b03861684529091529020805460ff191660011790556136363390565b6001600160a01b0316826001600160a01b0316847f2f8788117e7eff1d82e926ec794901d17c78024a50270940304540a733656f0d60405160405180910390a4506001610a94565b505f610a94565b5f8281526008602052604090206001015461369f81613714565b61145683836135f4565b5f6136b48383611a06565b1561367e575f8381526008602090815260408083206001600160a01b0386168085529252808320805460ff1916905551339286917ff6391f5c32d9c69d2a47ea670b442974b53935d1edc7fd64eb21e047a839171b9190a4506001610a94565b6116368133613caf565b613726613ce8565b6009805460ff191690557f5db9ee0a495bf2e6ff9c91a7834c1ba4fdd244a5e8aa4e537bd38aeae4b073aa335b6040516001600160a01b03909116815260200160405180910390a1565b6007546001600160a01b031633146117b15760405163118cdaa760e01b8152336004820152602401610d14565b600780546001600160a01b038381166001600160a01b0319831681179093556040519116919082907f8be0079c531659141344cd1fd0a4f28419497f9722a3daafe3b4186f6b6457e0905f90a35050565b6137f6613265565b6009805460ff191660011790557f62e78cea01bee320cd4e420270b5ea74000d11b0c9f74754ebdbfc544b05a2586137533390565b6001600160a01b03821661385d57604051630b61174360e31b81526001600160a01b0383166004820152602401610d14565b6001600160a01b038381165f81815260056020908152604080832094871680845294825291829020805460ff191686151590811790915591519182527f17307eab39ab6107e8899845ad3d59bd9653f200f220920489ca2b5937696c319101612b68565b6001600160a01b0383163b156139e257604051630a85bd0160e11b81526001600160a01b0384169063150b7a02906139039088908890879087906004016149ae565b6020604051808303815f875af192505050801561393d575060408051601f3d908101601f1916820190925261393a918101906149e0565b60015b6139a4573d80801561396a576040519150601f19603f3d011682016040523d82523d5f602084013e61396f565b606091505b5080515f0361399c57604051633250574960e11b81526001600160a01b0385166004820152602401610d14565b805160208201fd5b6001600160e01b03198116630a85bd0160e11b146139e057604051633250574960e11b81526001600160a01b0385166004820152602401610d14565b505b5050505050565b60606139f4826132f1565b505f613a0a60408051602081019091525f815290565b90505f815111613a285760405180602001604052805f815250613a53565b80613a3284613d0b565b604051602001613a43929190614913565b6040516020818303038152906040525b9392505050565b5f82815260086020526040902060010154613a7481613714565b61145683836136a9565b5f6001600160e01b03198216632483248360e11b1480610a945750610a9482613d9a565b613aac8383613de9565b6115d5335f8585856138c1565b8080613acd57506001600160a01b03821615155b15613b8e575f613adc846132f1565b90506001600160a01b03831615801590613b085750826001600160a01b0316816001600160a01b031614155b8015613b1b5750613b198184613185565b155b15613b445760405163a9fbf51f60e01b81526001600160a01b0384166004820152602401610d14565b8115613b8c5783856001600160a01b0316826001600160a01b03167f8c5be1e5ebec7d5bd14f71427d1e84f3dd0314c0f7b2291e5b200ac8c7c3b92560405160405180910390a45b505b50505f90815260046020526040902080546001600160a01b0319166001600160a01b0392909216919091179055565b5f828152600260205260408120546001600160a01b0390811690831615613be957613be9818486613e4a565b6001600160a01b03811615613c2357613c045f855f5f613ab9565b6001600160a01b0381165f90815260036020526040902080545f190190555b6001600160a01b03851615613c51576001600160a01b0385165f908152600360205260409020805460010190555b5f8481526002602052604080822080546001600160a01b0319166001600160a01b0389811691821790925591518793918516917fddf252ad1be2c89b69c2b068fc378daa952ba7f163c4a11628f55a4df523b3ef91a4949350505050565b613cb98282611a06565b6111cc5760405163e2517d3f60e01b81526001600160a01b038216600482015260248101839052604401610d14565b60095460ff166117b157604051638dfc202b60e01b815260040160405180910390fd5b60605f613d1783613eae565b60010190505f816001600160401b03811115613d3557613d3561415e565b6040519080825280601f01601f191660200182016040528015613d5f576020820181803683370190505b5090508181016020015b5f19016f181899199a1a9b1b9c1cb0b131b232b360811b600a86061a8153600a8504945084613d6957509392505050565b5f6001600160e01b031982166380ac58cd60e01b1480613dca57506001600160e01b03198216635b5e139f60e01b145b80610a9457506301ffc9a760e01b6001600160e01b0319831614610a94565b6001600160a01b038216613e1257604051633250574960e11b81525f6004820152602401610d14565b5f613e1e83835f61354f565b90506001600160a01b038116156115d5576040516339e3563760e11b81525f6004820152602401610d14565b613e55838383613f85565b6115d5576001600160a01b038316613e8357604051637e27328960e01b815260048101829052602401610d14565b60405163177e802f60e01b81526001600160a01b038316600482015260248101829052604401610d14565b5f8072184f03e93ff9f4daa797ed6e38ed64bf6a1f0160401b8310613eec5772184f03e93ff9f4daa797ed6e38ed64bf6a1f0160401b830492506040015b6d04ee2d6d415b85acef81000000008310613f18576d04ee2d6d415b85acef8100000000830492506020015b662386f26fc100008310613f3657662386f26fc10000830492506010015b6305f5e1008310613f4e576305f5e100830492506008015b6127108310613f6257612710830492506004015b60648310613f74576064830492506002015b600a8310610a945760010192915050565b5f6001600160a01b03831615801590612f4c5750826001600160a01b0316846001600160a01b03161480613fbe5750613fbe8484613185565b80612f4c5750505f908152600460205260409020546001600160a01b03908116911614919050565b5f60208284031215613ff6575f5ffd5b5035919050565b5f81518084528060208401602086015e5f602082860101526020601f19601f83011685010191505092915050565b8a81526001600160a01b038a8116602083015289166040820152610140606082018190525f9061405d9083018a613ffd565b828103608084015261406f818a613ffd565b905082810360a08401526140838189613ffd565b60c0840197909752505060e08101939093529015156101008301521515610120909101529695505050505050565b6001600160e01b031981168114611636575f5ffd5b5f602082840312156140d6575f5ffd5b8135613a53816140b1565b80356001600160a01b03811681146140f7575f5ffd5b919050565b5f6020828403121561410c575f5ffd5b613a53826140e1565b602080825282518282018190525f918401906040840190835b81811015610cb057835183526020938401939092019160010161412e565b602081525f613a536020830184613ffd565b634e487b7160e01b5f52604160045260245ffd5b604051601f8201601f191681016001600160401b038111828210171561419a5761419a61415e565b604052919050565b5f5f6001600160401b038411156141bb576141bb61415e565b50601f8301601f19166020016141d081614172565b9150508281528383830111156141e4575f5ffd5b828260208301375f602084830101529392505050565b5f82601f830112614209575f5ffd5b613a53838335602085016141a2565b5f5f60408385031215614229575f5ffd5b614232836140e1565b915060208301356001600160401b0381111561424c575f5ffd5b614258858286016141fa565b9150509250929050565b5f5f60408385031215614273575f5ffd5b61427c836140e1565b946020939093013593505050565b5f5f6040838503121561429b575f5ffd5b823591506142ab602084016140e1565b90509250929050565b5f5f5f606084860312156142c6575f5ffd5b6142cf846140e1565b92506142dd602085016140e1565b929592945050506040919091013590565b602080825282518282018190525f918401906040840190835b81811015610cb05783516001600160a01b0316835260209384019390920191600101614307565b5f5f5f60608486031215614340575f5ffd5b614349846140e1565b92506020840135915060408401356001600160401b0381111561436a575f5ffd5b614376868287016141fa565b9150509250925092565b5f5f60408385031215614391575f5ffd5b50508035926020909101359150565b5f5f604083850312156143b1575f5ffd5b8235915060208301356001600160401b0381111561424c575f5ffd5b5f6001600160401b038211156143e5576143e561415e565b5060051b60200190565b5f82601f8301126143fe575f5ffd5b813561441161440c826143cd565b614172565b8082825260208201915060208360051b860101925085831115614432575f5ffd5b602085015b8381101561444f578035835260209283019201614437565b5095945050505050565b5f5f6040838503121561446a575f5ffd5b82356001600160401b0381111561447f575f5ffd5b8301601f8101851361448f575f5ffd5b803561449d61440c826143cd565b8082825260208201915060208360051b8501019250878311156144be575f5ffd5b6020840193505b828410156144e7576144d6846140e1565b8252602093840193909101906144c5565b945050505060208301356001600160401b03811115614504575f5ffd5b614258858286016143ef565b5f5f5f5f60808587031215614523575f5ffd5b61452c856140e1565b935060208501356001600160401b03811115614546575f5ffd5b614552878288016141fa565b93505060408501356001600160401b0381111561456d575f5ffd5b614579878288016141fa565b92505060608501356001600160401b03811115614594575f5ffd5b6145a0878288016141fa565b91505092959194509250565b5f5f604083850312156145bd575f5ffd5b6145c6836140e1565b9150602083013580151581146145da575f5ffd5b809150509250929050565b60018060a01b03851681528360208201528215156040820152608060608201525f6146136080830184613ffd565b9695505050505050565b5f5f5f5f60808587031215614630575f5ffd5b614639856140e1565b9350614647602086016140e1565b92506040850135915060608501356001600160401b03811115614668575f5ffd5b8501601f81018713614678575f5ffd5b6145a0878235602084016141a2565b5f5f60408385031215614698575f5ffd5b6146a1836140e1565b91506142ab602084016140e1565b600181811c908216806146c357607f821691505b6020821081036146e157634e487b7160e01b5f52602260045260245ffd5b50919050565b634e487b7160e01b5f52603260045260245ffd5b634e487b7160e01b5f52601160045260245ffd5b5f60018201614720576147206146fb565b5060010190565b80820180821115610a9457610a946146fb565b601f8211156115d557805f5260205f20601f840160051c8101602085101561475f5750805b601f840160051c820191505b818110156139e2575f815560010161476b565b81516001600160401b038111156147975761479761415e565b6147ab816147a584546146af565b8461473a565b6020601f8211600181146147dd575f83156147c65750848201515b5f19600385901b1c1916600184901b1784556139e2565b5f84815260208120601f198516915b8281101561480c57878501518255602094850194600190920191016147ec565b508482101561482957868401515f19600387901b60f8161c191681555b50505050600190811b01905550565b60208082526017908201527f50726f706f73616c20646f6573206e6f74206578697374000000000000000000604082015260600190565b60208082526019908201527f50726f706f73616c20616c726561647920657865637574656400000000000000604082015260600190565b602080825260159082015274141c9bdc1bdcd85b081a5cc818d85b98d95b1b1959605a1b604082015260600190565b81810381811115610a9457610a946146fb565b634e487b7160e01b5f52603160045260245ffd5b5f81518060208401855e5f93019283525090919050565b5f612f4c61492183866148fc565b846148fc565b602081525f5f8354614938816146af565b806020860152600182165f81146149565760018114614972576149a3565b60ff1983166040870152604082151560051b87010193506149a3565b865f5260205f205f5b8381101561499a5781548882016040015260019091019060200161497b565b87016040019450505b509195945050505050565b6001600160a01b03858116825284166020820152604081018390526080606082018190525f9061461390830184613ffd565b5f602082840312156149f0575f5ffd5b8151613a53816140b156fece3f34913921da558f105cefb578d87278debbbd073a8d552b5de0d168deee30114e74f6ea3bd819998f78687bfcb11b140da08e9b7d222fa9c1f1ba1f2aa1227613a25ecc738585a232ad50a301178f12b3ba8887d13e138b523c4269c47689a49807205ce4d355092ef5a8a18f56e8913cf4a201fbe287825b095693c217750ce23c3e399818cfee81a7ab0880f714e53d7672b08df0fa62f2843416e1ea09a2646970667358221220d4d2c1c6fa61ee6f77a0b11d3ac2695d7facf2d0b1ba051dc2d7d98f2cc1886c64736f6c634300081c00337613a25ecc738585a232ad50a301178f12b3ba8887d13e138b523c4269c47689a49807205ce4d355092ef5a8a18f56e8913cf4a201fbe287825b095693c21775","opcodes":"PUSH1 0x80 PUSH1 0x40 MSTORE CALLVALUE DUP1 ISZERO PUSH2 0xF JUMPI PUSH0 PUSH0 REVERT JUMPDEST POP PUSH1 0x40 MLOAD PUSH2 0x4FBB CODESIZE SUB DUP1 PUSH2 0x4FBB DUP4 CODECOPY DUP2 ADD PUSH1 0x40 DUP2 SWAP1 MSTORE PUSH2 0x2E SWAP2 PUSH2 0x31E JUMP JUMPDEST DUP1 PUSH1 0x40 MLOAD DUP1 PUSH1 0x40 ADD PUSH1 0x40 MSTORE DUP1 PUSH1 0xE DUP2 MSTORE PUSH1 0x20 ADD PUSH14 0x10D95C9D1A599A58D85D19539195 PUSH1 0x92 SHL DUP2 MSTORE POP PUSH1 0x40 MLOAD DUP1 PUSH1 0x40 ADD PUSH1 0x40 MSTORE DUP1 PUSH1 0x4 DUP2 MSTORE PUSH1 0x20 ADD PUSH4 0x10D15495 PUSH1 0xE2 SHL DUP2 MSTORE POP DUP2 PUSH0 SWAP1 DUP2 PUSH2 0x81 SWAP2 SWAP1 PUSH2 0x3E3 JUMP JUMPDEST POP PUSH1 0x1 PUSH2 0x8E DUP3 DUP3 PUSH2 0x3E3 JUMP JUMPDEST POP POP POP PUSH1 0x1 PUSH1 0x1 PUSH1 0xA0 SHL SUB DUP2 AND PUSH2 0xBE JUMPI PUSH1 0x40 MLOAD PUSH4 0x1E4FBDF7 PUSH1 0xE0 SHL DUP2 MSTORE PUSH0 PUSH1 0x4 DUP3 ADD MSTORE PUSH1 0x24 ADD PUSH1 0x40 MLOAD DUP1 SWAP2 SUB SWAP1 REVERT JUMPDEST PUSH2 0xC7 DUP2 PUSH2 0x1D6 JUMP JUMPDEST POP PUSH2 0xD2 PUSH0 DUP3 PUSH2 0x227 JUMP JUMPDEST POP PUSH2 0xEA PUSH0 MLOAD PUSH1 0x20 PUSH2 0x4F7B PUSH0 CODECOPY PUSH0 MLOAD SWAP1 PUSH0 MSTORE DUP3 PUSH2 0x227 JUMP JUMPDEST POP PUSH2 0x102 PUSH0 MLOAD PUSH1 0x20 PUSH2 0x4F7B PUSH0 CODECOPY PUSH0 MLOAD SWAP1 PUSH0 MSTORE PUSH0 PUSH2 0x2D4 JUMP JUMPDEST PUSH2 0x126 PUSH0 MLOAD PUSH1 0x20 PUSH2 0x4F9B PUSH0 CODECOPY PUSH0 MLOAD SWAP1 PUSH0 MSTORE PUSH0 MLOAD PUSH1 0x20 PUSH2 0x4F7B PUSH0 CODECOPY PUSH0 MLOAD SWAP1 PUSH0 MSTORE PUSH2 0x2D4 JUMP JUMPDEST PUSH2 0x15D PUSH32 0x114E74F6EA3BD819998F78687BFCB11B140DA08E9B7D222FA9C1F1BA1F2AA122 PUSH0 MLOAD PUSH1 0x20 PUSH2 0x4F9B PUSH0 CODECOPY PUSH0 MLOAD SWAP1 PUSH0 MSTORE PUSH2 0x2D4 JUMP JUMPDEST PUSH2 0x194 PUSH32 0xCE3F34913921DA558F105CEFB578D87278DEBBBD073A8D552B5DE0D168DEEE30 PUSH0 MLOAD PUSH1 0x20 PUSH2 0x4F9B PUSH0 CODECOPY PUSH0 MLOAD SWAP1 PUSH0 MSTORE PUSH2 0x2D4 JUMP JUMPDEST PUSH2 0x1CB PUSH32 0xCE23C3E399818CFEE81A7AB0880F714E53D7672B08DF0FA62F2843416E1EA09 PUSH0 MLOAD PUSH1 0x20 PUSH2 0x4F9B PUSH0 CODECOPY PUSH0 MLOAD SWAP1 PUSH0 MSTORE PUSH2 0x2D4 JUMP JUMPDEST POP PUSH1 0x3 PUSH1 0xE SSTORE PUSH2 0x49D JUMP JUMPDEST PUSH1 0x7 DUP1 SLOAD PUSH1 0x1 PUSH1 0x1 PUSH1 0xA0 SHL SUB DUP4 DUP2 AND PUSH1 0x1 PUSH1 0x1 PUSH1 0xA0 SHL SUB NOT DUP4 AND DUP2 OR SWAP1 SWAP4 SSTORE PUSH1 0x40 MLOAD SWAP2 AND SWAP2 SWAP1 DUP3 SWAP1 PUSH32 0x8BE0079C531659141344CD1FD0A4F28419497F9722A3DAAFE3B4186F6B6457E0 SWAP1 PUSH0 SWAP1 LOG3 POP POP JUMP JUMPDEST PUSH0 DUP3 DUP2 MSTORE PUSH1 0x8 PUSH1 0x20 SWAP1 DUP2 MSTORE PUSH1 0x40 DUP1 DUP4 KECCAK256 PUSH1 0x1 PUSH1 0x1 PUSH1 0xA0 SHL SUB DUP6 AND DUP5 MSTORE SWAP1 SWAP2 MSTORE DUP2 KECCAK256 SLOAD PUSH1 0xFF AND PUSH2 0x2CB JUMPI PUSH0 DUP4 DUP2 MSTORE PUSH1 0x8 PUSH1 0x20 SWAP1 DUP2 MSTORE PUSH1 0x40 DUP1 DUP4 KECCAK256 PUSH1 0x1 PUSH1 0x1 PUSH1 0xA0 SHL SUB DUP7 AND DUP5 MSTORE SWAP1 SWAP2 MSTORE SWAP1 KECCAK256 DUP1 SLOAD PUSH1 0xFF NOT AND PUSH1 0x1 OR SWAP1 SSTORE PUSH2 0x283 CALLER SWAP1 JUMP JUMPDEST PUSH1 0x1 PUSH1 0x1 PUSH1 0xA0 SHL SUB AND DUP3 PUSH1 0x1 PUSH1 0x1 PUSH1 0xA0 SHL SUB AND DUP5 PUSH32 0x2F8788117E7EFF1D82E926EC794901D17C78024A50270940304540A733656F0D PUSH1 0x40 MLOAD PUSH1 0x40 MLOAD DUP1 SWAP2 SUB SWAP1 LOG4 POP PUSH1 0x1 PUSH2 0x2CE JUMP JUMPDEST POP PUSH0 JUMPDEST SWAP3 SWAP2 POP POP JUMP JUMPDEST PUSH0 DUP3 DUP2 MSTORE PUSH1 0x8 PUSH1 0x20 MSTORE PUSH1 0x40 DUP1 DUP3 KECCAK256 PUSH1 0x1 ADD DUP1 SLOAD SWAP1 DUP5 SWAP1 SSTORE SWAP1 MLOAD SWAP1 SWAP2 DUP4 SWAP2 DUP4 SWAP2 DUP7 SWAP2 PUSH32 0xBD79B86FFE0AB8E8776151514217CD7CACD52C909F66475C3AF44E129F0B00FF SWAP2 SWAP1 LOG4 POP POP POP JUMP JUMPDEST PUSH0 PUSH1 0x20 DUP3 DUP5 SUB SLT ISZERO PUSH2 0x32E JUMPI PUSH0 PUSH0 REVERT JUMPDEST DUP2 MLOAD PUSH1 0x1 PUSH1 0x1 PUSH1 0xA0 SHL SUB DUP2 AND DUP2 EQ PUSH2 0x344 JUMPI PUSH0 PUSH0 REVERT JUMPDEST SWAP4 SWAP3 POP POP POP JUMP JUMPDEST PUSH4 0x4E487B71 PUSH1 0xE0 SHL PUSH0 MSTORE PUSH1 0x41 PUSH1 0x4 MSTORE PUSH1 0x24 PUSH0 REVERT JUMPDEST PUSH1 0x1 DUP2 DUP2 SHR SWAP1 DUP3 AND DUP1 PUSH2 0x373 JUMPI PUSH1 0x7F DUP3 AND SWAP2 POP JUMPDEST PUSH1 0x20 DUP3 LT DUP2 SUB PUSH2 0x391 JUMPI PUSH4 0x4E487B71 PUSH1 0xE0 SHL PUSH0 MSTORE PUSH1 0x22 PUSH1 0x4 MSTORE PUSH1 0x24 PUSH0 REVERT JUMPDEST POP SWAP2 SWAP1 POP JUMP JUMPDEST PUSH1 0x1F DUP3 GT ISZERO PUSH2 0x3DE JUMPI DUP1 PUSH0 MSTORE PUSH1 0x20 PUSH0 KECCAK256 PUSH1 0x1F DUP5 ADD PUSH1 0x5 SHR DUP2 ADD PUSH1 0x20 DUP6 LT ISZERO PUSH2 0x3BC JUMPI POP DUP1 JUMPDEST PUSH1 0x1F DUP5 ADD PUSH1 0x5 SHR DUP3 ADD SWAP2 POP JUMPDEST DUP2 DUP2 LT ISZERO PUSH2 0x3DB JUMPI PUSH0 DUP2 SSTORE PUSH1 0x1 ADD PUSH2 0x3C8 JUMP JUMPDEST POP POP JUMPDEST POP POP POP JUMP JUMPDEST DUP2 MLOAD PUSH1 0x1 PUSH1 0x1 PUSH1 0x40 SHL SUB DUP2 GT ISZERO PUSH2 0x3FC JUMPI PUSH2 0x3FC PUSH2 0x34B JUMP JUMPDEST PUSH2 0x410 DUP2 PUSH2 0x40A DUP5 SLOAD PUSH2 0x35F JUMP JUMPDEST DUP5 PUSH2 0x397 JUMP JUMPDEST PUSH1 0x20 PUSH1 0x1F DUP3 GT PUSH1 0x1 DUP2 EQ PUSH2 0x442 JUMPI PUSH0 DUP4 ISZERO PUSH2 0x42B JUMPI POP DUP5 DUP3 ADD MLOAD JUMPDEST PUSH0 NOT PUSH1 0x3 DUP6 SWAP1 SHL SHR NOT AND PUSH1 0x1 DUP5 SWAP1 SHL OR DUP5 SSTORE PUSH2 0x3DB JUMP JUMPDEST PUSH0 DUP5 DUP2 MSTORE PUSH1 0x20 DUP2 KECCAK256 PUSH1 0x1F NOT DUP6 AND SWAP2 JUMPDEST DUP3 DUP2 LT ISZERO PUSH2 0x471 JUMPI DUP8 DUP6 ADD MLOAD DUP3 SSTORE PUSH1 0x20 SWAP5 DUP6 ADD SWAP5 PUSH1 0x1 SWAP1 SWAP3 ADD SWAP2 ADD PUSH2 0x451 JUMP JUMPDEST POP DUP5 DUP3 LT ISZERO PUSH2 0x48E JUMPI DUP7 DUP5 ADD MLOAD PUSH0 NOT PUSH1 0x3 DUP8 SWAP1 SHL PUSH1 0xF8 AND SHR NOT AND DUP2 SSTORE JUMPDEST POP POP POP POP PUSH1 0x1 SWAP1 DUP2 SHL ADD SWAP1 SSTORE POP JUMP JUMPDEST PUSH2 0x4AD1 DUP1 PUSH2 0x4AA PUSH0 CODECOPY PUSH0 RETURN INVALID PUSH1 0x80 PUSH1 0x40 MSTORE CALLVALUE DUP1 ISZERO PUSH2 0xF JUMPI PUSH0 PUSH0 REVERT JUMPDEST POP PUSH1 0x4 CALLDATASIZE LT PUSH2 0x39E JUMPI PUSH0 CALLDATALOAD PUSH1 0xE0 SHR DUP1 PUSH4 0x75B238FC GT PUSH2 0x1EA JUMPI DUP1 PUSH4 0xA22CB465 GT PUSH2 0x114 JUMPI DUP1 PUSH4 0xC87B56DD GT PUSH2 0xA9 JUMPI DUP1 PUSH4 0xE7705DB6 GT PUSH2 0x79 JUMPI DUP1 PUSH4 0xE7705DB6 EQ PUSH2 0x854 JUMPI DUP1 PUSH4 0xE985E9C5 EQ PUSH2 0x868 JUMPI DUP1 PUSH4 0xEFA90D36 EQ PUSH2 0x87B JUMPI DUP1 PUSH4 0xF2FDE38B EQ PUSH2 0x883 JUMPI PUSH0 PUSH0 REVERT JUMPDEST DUP1 PUSH4 0xC87B56DD EQ PUSH2 0x808 JUMPI DUP1 PUSH4 0xCA15C873 EQ PUSH2 0x81B JUMPI DUP1 PUSH4 0xD547741F EQ PUSH2 0x82E JUMPI DUP1 PUSH4 0xE0A8F6F5 EQ PUSH2 0x841 JUMPI PUSH0 PUSH0 REVERT JUMPDEST DUP1 PUSH4 0xB1E130FC GT PUSH2 0xE4 JUMPI DUP1 PUSH4 0xB1E130FC EQ PUSH2 0x7C7 JUMPI DUP1 PUSH4 0xB88D4FDE EQ PUSH2 0x7DA JUMPI DUP1 PUSH4 0xC08CC02D EQ PUSH2 0x7ED JUMPI DUP1 PUSH4 0xC7F758A8 EQ PUSH2 0x7F5 JUMPI PUSH0 PUSH0 REVERT JUMPDEST DUP1 PUSH4 0xA22CB465 EQ PUSH2 0x776 JUMPI DUP1 PUSH4 0xA3246AD3 EQ PUSH2 0x789 JUMPI DUP1 PUSH4 0xA80DB6FC EQ PUSH2 0x79C JUMPI DUP1 PUSH4 0xA901FE5E EQ PUSH2 0x7A4 JUMPI PUSH0 PUSH0 REVERT JUMPDEST DUP1 PUSH4 0x8D705511 GT PUSH2 0x18A JUMPI DUP1 PUSH4 0x98951B56 GT PUSH2 0x15A JUMPI DUP1 PUSH4 0x98951B56 EQ PUSH2 0x736 JUMPI DUP1 PUSH4 0x9DAE1E77 EQ PUSH2 0x749 JUMPI DUP1 PUSH4 0xA0016B8C EQ PUSH2 0x75C JUMPI DUP1 PUSH4 0xA217FDDF EQ PUSH2 0x76F JUMPI PUSH0 PUSH0 REVERT JUMPDEST DUP1 PUSH4 0x8D705511 EQ PUSH2 0x6F7 JUMPI DUP1 PUSH4 0x8DA5CB5B EQ PUSH2 0x70A JUMPI DUP1 PUSH4 0x91D14854 EQ PUSH2 0x71B JUMPI DUP1 PUSH4 0x95D89B41 EQ PUSH2 0x72E JUMPI PUSH0 PUSH0 REVERT JUMPDEST DUP1 PUSH4 0x7D0EEF61 GT PUSH2 0x1C5 JUMPI DUP1 PUSH4 0x7D0EEF61 EQ PUSH2 0x6BF JUMPI DUP1 PUSH4 0x82AEFA24 EQ PUSH2 0x6C8 JUMPI DUP1 PUSH4 0x8456CB59 EQ PUSH2 0x6DC JUMPI DUP1 PUSH4 0x8D66692D EQ PUSH2 0x6E4 JUMPI PUSH0 PUSH0 REVERT JUMPDEST DUP1 PUSH4 0x75B238FC EQ PUSH2 0x684 JUMPI DUP1 PUSH4 0x768B01AA EQ PUSH2 0x698 JUMPI DUP1 PUSH4 0x7C4ACABF EQ PUSH2 0x6AB JUMPI PUSH0 PUSH0 REVERT JUMPDEST DUP1 PUSH4 0x24D7806C GT PUSH2 0x2CB JUMPI DUP1 PUSH4 0x447FD63C GT PUSH2 0x26B JUMPI DUP1 PUSH4 0x5D07C0E2 GT PUSH2 0x23B JUMPI DUP1 PUSH4 0x5D07C0E2 EQ PUSH2 0x643 JUMPI DUP1 PUSH4 0x6352211E EQ PUSH2 0x656 JUMPI DUP1 PUSH4 0x70A08231 EQ PUSH2 0x669 JUMPI DUP1 PUSH4 0x715018A6 EQ PUSH2 0x67C JUMPI PUSH0 PUSH0 REVERT JUMPDEST DUP1 PUSH4 0x447FD63C EQ PUSH2 0x5D6 JUMPI DUP1 PUSH4 0x4733C271 EQ PUSH2 0x5E9 JUMPI DUP1 PUSH4 0x5C975ABB EQ PUSH2 0x616 JUMPI DUP1 PUSH4 0x5CCC561E EQ PUSH2 0x621 JUMPI PUSH0 PUSH0 REVERT JUMPDEST DUP1 PUSH4 0x36568ABE GT PUSH2 0x2A6 JUMPI DUP1 PUSH4 0x36568ABE EQ PUSH2 0x594 JUMPI DUP1 PUSH4 0x3F4BA83A EQ PUSH2 0x5A7 JUMPI DUP1 PUSH4 0x42842E0E EQ PUSH2 0x5AF JUMPI DUP1 PUSH4 0x4460BDD6 EQ PUSH2 0x5C2 JUMPI PUSH0 PUSH0 REVERT JUMPDEST DUP1 PUSH4 0x24D7806C EQ PUSH2 0x54E JUMPI DUP1 PUSH4 0x2E8E2F5D EQ PUSH2 0x561 JUMPI DUP1 PUSH4 0x2F2FF15D EQ PUSH2 0x581 JUMPI PUSH0 PUSH0 REVERT JUMPDEST DUP1 PUSH4 0x95EA7B3 GT PUSH2 0x341 JUMPI DUP1 PUSH4 0x18F0EB9B GT PUSH2 0x311 JUMPI DUP1 PUSH4 0x18F0EB9B EQ PUSH2 0x4CE JUMPI DUP1 PUSH4 0x2358D5A8 EQ PUSH2 0x4E1 JUMPI DUP1 PUSH4 0x23B872DD EQ PUSH2 0x519 JUMPI DUP1 PUSH4 0x248A9CA3 EQ PUSH2 0x52C JUMPI PUSH0 PUSH0 REVERT JUMPDEST DUP1 PUSH4 0x95EA7B3 EQ PUSH2 0x48D JUMPI DUP1 PUSH4 0xCA1C5C9 EQ PUSH2 0x4A0 JUMPI DUP1 PUSH4 0xD61B519 EQ PUSH2 0x4A8 JUMPI DUP1 PUSH4 0x1692A942 EQ PUSH2 0x4BB JUMPI PUSH0 PUSH0 REVERT JUMPDEST DUP1 PUSH4 0x6F5497E GT PUSH2 0x37C JUMPI DUP1 PUSH4 0x6F5497E EQ PUSH2 0x417 JUMPI DUP1 PUSH4 0x6FDDE03 EQ PUSH2 0x42C JUMPI DUP1 PUSH4 0x712249F EQ PUSH2 0x441 JUMPI DUP1 PUSH4 0x81812FC EQ PUSH2 0x462 JUMPI PUSH0 PUSH0 REVERT JUMPDEST DUP1 PUSH4 0x13CF08B EQ PUSH2 0x3A2 JUMPI DUP1 PUSH4 0x1FFC9A7 EQ PUSH2 0x3D4 JUMPI DUP1 PUSH4 0x6A36AEE EQ PUSH2 0x3F7 JUMPI JUMPDEST PUSH0 PUSH0 REVERT JUMPDEST PUSH2 0x3B5 PUSH2 0x3B0 CALLDATASIZE PUSH1 0x4 PUSH2 0x3FE6 JUMP JUMPDEST PUSH2 0x896 JUMP JUMPDEST PUSH1 0x40 MLOAD PUSH2 0x3CB SWAP11 SWAP10 SWAP9 SWAP8 SWAP7 SWAP6 SWAP5 SWAP4 SWAP3 SWAP2 SWAP1 PUSH2 0x402B JUMP JUMPDEST PUSH1 0x40 MLOAD DUP1 SWAP2 SUB SWAP1 RETURN JUMPDEST PUSH2 0x3E7 PUSH2 0x3E2 CALLDATASIZE PUSH1 0x4 PUSH2 0x40C6 JUMP JUMPDEST PUSH2 0xA8A JUMP JUMPDEST PUSH1 0x40 MLOAD SWAP1 ISZERO ISZERO DUP2 MSTORE PUSH1 0x20 ADD PUSH2 0x3CB JUMP JUMPDEST PUSH2 0x40A PUSH2 0x405 CALLDATASIZE PUSH1 0x4 PUSH2 0x40FC JUMP JUMPDEST PUSH2 0xA9A JUMP JUMPDEST PUSH1 0x40 MLOAD PUSH2 0x3CB SWAP2 SWAP1 PUSH2 0x4115 JUMP JUMPDEST PUSH2 0x42A PUSH2 0x425 CALLDATASIZE PUSH1 0x4 PUSH2 0x3FE6 JUMP JUMPDEST PUSH2 0xCBB JUMP JUMPDEST STOP JUMPDEST PUSH2 0x434 PUSH2 0xE3D JUMP JUMPDEST PUSH1 0x40 MLOAD PUSH2 0x3CB SWAP2 SWAP1 PUSH2 0x414C JUMP JUMPDEST PUSH2 0x454 PUSH2 0x44F CALLDATASIZE PUSH1 0x4 PUSH2 0x4218 JUMP JUMPDEST PUSH2 0xECC JUMP JUMPDEST PUSH1 0x40 MLOAD SWAP1 DUP2 MSTORE PUSH1 0x20 ADD PUSH2 0x3CB JUMP JUMPDEST PUSH2 0x475 PUSH2 0x470 CALLDATASIZE PUSH1 0x4 PUSH2 0x3FE6 JUMP JUMPDEST PUSH2 0x119A JUMP JUMPDEST PUSH1 0x40 MLOAD PUSH1 0x1 PUSH1 0x1 PUSH1 0xA0 SHL SUB SWAP1 SWAP2 AND DUP2 MSTORE PUSH1 0x20 ADD PUSH2 0x3CB JUMP JUMPDEST PUSH2 0x42A PUSH2 0x49B CALLDATASIZE PUSH1 0x4 PUSH2 0x4262 JUMP JUMPDEST PUSH2 0x11C1 JUMP JUMPDEST PUSH1 0xA SLOAD PUSH2 0x454 JUMP JUMPDEST PUSH2 0x42A PUSH2 0x4B6 CALLDATASIZE PUSH1 0x4 PUSH2 0x3FE6 JUMP JUMPDEST PUSH2 0x11D0 JUMP JUMPDEST PUSH2 0x3E7 PUSH2 0x4C9 CALLDATASIZE PUSH1 0x4 PUSH2 0x3FE6 JUMP JUMPDEST PUSH2 0x1349 JUMP JUMPDEST PUSH2 0x3E7 PUSH2 0x4DC CALLDATASIZE PUSH1 0x4 PUSH2 0x40FC JUMP JUMPDEST PUSH2 0x1381 JUMP JUMPDEST PUSH2 0x3E7 PUSH2 0x4EF CALLDATASIZE PUSH1 0x4 PUSH2 0x428A JUMP JUMPDEST PUSH0 SWAP2 DUP3 MSTORE PUSH1 0x10 PUSH1 0x20 SWAP1 DUP2 MSTORE PUSH1 0x40 DUP1 DUP5 KECCAK256 PUSH1 0x1 PUSH1 0x1 PUSH1 0xA0 SHL SUB SWAP4 SWAP1 SWAP4 AND DUP5 MSTORE SWAP2 SWAP1 MSTORE SWAP1 KECCAK256 SLOAD PUSH1 0xFF AND SWAP1 JUMP JUMPDEST PUSH2 0x42A PUSH2 0x527 CALLDATASIZE PUSH1 0x4 PUSH2 0x42B4 JUMP JUMPDEST PUSH2 0x13D3 JUMP JUMPDEST PUSH2 0x454 PUSH2 0x53A CALLDATASIZE PUSH1 0x4 PUSH2 0x3FE6 JUMP JUMPDEST PUSH0 SWAP1 DUP2 MSTORE PUSH1 0x8 PUSH1 0x20 MSTORE PUSH1 0x40 SWAP1 KECCAK256 PUSH1 0x1 ADD SLOAD SWAP1 JUMP JUMPDEST PUSH2 0x3E7 PUSH2 0x55C CALLDATASIZE PUSH1 0x4 PUSH2 0x40FC JUMP JUMPDEST PUSH2 0x145C JUMP JUMPDEST PUSH2 0x574 PUSH2 0x56F CALLDATASIZE PUSH1 0x4 PUSH2 0x3FE6 JUMP JUMPDEST PUSH2 0x1491 JUMP JUMPDEST PUSH1 0x40 MLOAD PUSH2 0x3CB SWAP2 SWAP1 PUSH2 0x42EE JUMP JUMPDEST PUSH2 0x42A PUSH2 0x58F CALLDATASIZE PUSH1 0x4 PUSH2 0x428A JUMP JUMPDEST PUSH2 0x14FA JUMP JUMPDEST PUSH2 0x42A PUSH2 0x5A2 CALLDATASIZE PUSH1 0x4 PUSH2 0x428A JUMP JUMPDEST PUSH2 0x15E4 JUMP JUMPDEST PUSH2 0x42A PUSH2 0x1617 JUMP JUMPDEST PUSH2 0x42A PUSH2 0x5BD CALLDATASIZE PUSH1 0x4 PUSH2 0x42B4 JUMP JUMPDEST PUSH2 0x1639 JUMP JUMPDEST PUSH2 0x454 PUSH0 MLOAD PUSH1 0x20 PUSH2 0x4A3C PUSH0 CODECOPY PUSH0 MLOAD SWAP1 PUSH0 MSTORE DUP2 JUMP JUMPDEST PUSH2 0x42A PUSH2 0x5E4 CALLDATASIZE PUSH1 0x4 PUSH2 0x432E JUMP JUMPDEST PUSH2 0x1653 JUMP JUMPDEST PUSH2 0x3E7 PUSH2 0x5F7 CALLDATASIZE PUSH1 0x4 PUSH2 0x428A JUMP JUMPDEST PUSH1 0x10 PUSH1 0x20 SWAP1 DUP2 MSTORE PUSH0 SWAP3 DUP4 MSTORE PUSH1 0x40 DUP1 DUP5 KECCAK256 SWAP1 SWAP2 MSTORE SWAP1 DUP3 MSTORE SWAP1 KECCAK256 SLOAD PUSH1 0xFF AND DUP2 JUMP JUMPDEST PUSH1 0x9 SLOAD PUSH1 0xFF AND PUSH2 0x3E7 JUMP JUMPDEST PUSH2 0x3E7 PUSH2 0x62F CALLDATASIZE PUSH1 0x4 PUSH2 0x3FE6 JUMP JUMPDEST PUSH0 SWAP1 DUP2 MSTORE PUSH1 0xB PUSH1 0x20 MSTORE PUSH1 0x40 SWAP1 KECCAK256 SLOAD PUSH1 0xFF AND SWAP1 JUMP JUMPDEST PUSH2 0x475 PUSH2 0x651 CALLDATASIZE PUSH1 0x4 PUSH2 0x4380 JUMP JUMPDEST PUSH2 0x171D JUMP JUMPDEST PUSH2 0x475 PUSH2 0x664 CALLDATASIZE PUSH1 0x4 PUSH2 0x3FE6 JUMP JUMPDEST PUSH2 0x1751 JUMP JUMPDEST PUSH2 0x454 PUSH2 0x677 CALLDATASIZE PUSH1 0x4 PUSH2 0x40FC JUMP JUMPDEST PUSH2 0x175B JUMP JUMPDEST PUSH2 0x42A PUSH2 0x17A0 JUMP JUMPDEST PUSH2 0x454 PUSH0 MLOAD PUSH1 0x20 PUSH2 0x4A5C PUSH0 CODECOPY PUSH0 MLOAD SWAP1 PUSH0 MSTORE DUP2 JUMP JUMPDEST PUSH2 0x42A PUSH2 0x6A6 CALLDATASIZE PUSH1 0x4 PUSH2 0x43A0 JUMP JUMPDEST PUSH2 0x17B3 JUMP JUMPDEST PUSH2 0x454 PUSH0 MLOAD PUSH1 0x20 PUSH2 0x49FC PUSH0 CODECOPY PUSH0 MLOAD SWAP1 PUSH0 MSTORE DUP2 JUMP JUMPDEST PUSH2 0x454 PUSH1 0xE SLOAD DUP2 JUMP JUMPDEST PUSH2 0x454 PUSH0 MLOAD PUSH1 0x20 PUSH2 0x4A1C PUSH0 CODECOPY PUSH0 MLOAD SWAP1 PUSH0 MSTORE DUP2 JUMP JUMPDEST PUSH2 0x42A PUSH2 0x18E9 JUMP JUMPDEST PUSH2 0x42A PUSH2 0x6F2 CALLDATASIZE PUSH1 0x4 PUSH2 0x4459 JUMP JUMPDEST PUSH2 0x1908 JUMP JUMPDEST PUSH2 0x3E7 PUSH2 0x705 CALLDATASIZE PUSH1 0x4 PUSH2 0x40FC JUMP JUMPDEST PUSH2 0x19B8 JUMP JUMPDEST PUSH1 0x7 SLOAD PUSH1 0x1 PUSH1 0x1 PUSH1 0xA0 SHL SUB AND PUSH2 0x475 JUMP JUMPDEST PUSH2 0x3E7 PUSH2 0x729 CALLDATASIZE PUSH1 0x4 PUSH2 0x428A JUMP JUMPDEST PUSH2 0x1A06 JUMP JUMPDEST PUSH2 0x434 PUSH2 0x1A30 JUMP JUMPDEST PUSH2 0x42A PUSH2 0x744 CALLDATASIZE PUSH1 0x4 PUSH2 0x3FE6 JUMP JUMPDEST PUSH2 0x1A3F JUMP JUMPDEST PUSH2 0x454 PUSH2 0x757 CALLDATASIZE PUSH1 0x4 PUSH2 0x4510 JUMP JUMPDEST PUSH2 0x1CDA JUMP JUMPDEST PUSH2 0x42A PUSH2 0x76A CALLDATASIZE PUSH1 0x4 PUSH2 0x3FE6 JUMP JUMPDEST PUSH2 0x2077 JUMP JUMPDEST PUSH2 0x454 PUSH0 DUP2 JUMP JUMPDEST PUSH2 0x42A PUSH2 0x784 CALLDATASIZE PUSH1 0x4 PUSH2 0x45AC JUMP JUMPDEST PUSH2 0x217A JUMP JUMPDEST PUSH2 0x574 PUSH2 0x797 CALLDATASIZE PUSH1 0x4 PUSH2 0x3FE6 JUMP JUMPDEST PUSH2 0x2185 JUMP JUMPDEST PUSH2 0x40A PUSH2 0x21DE JUMP JUMPDEST PUSH2 0x7B7 PUSH2 0x7B2 CALLDATASIZE PUSH1 0x4 PUSH2 0x3FE6 JUMP JUMPDEST PUSH2 0x2771 JUMP JUMPDEST PUSH1 0x40 MLOAD PUSH2 0x3CB SWAP5 SWAP4 SWAP3 SWAP2 SWAP1 PUSH2 0x45E5 JUMP JUMPDEST PUSH2 0x42A PUSH2 0x7D5 CALLDATASIZE PUSH1 0x4 PUSH2 0x3FE6 JUMP JUMPDEST PUSH2 0x2905 JUMP JUMPDEST PUSH2 0x42A PUSH2 0x7E8 CALLDATASIZE PUSH1 0x4 PUSH2 0x461D JUMP JUMPDEST PUSH2 0x2B75 JUMP JUMPDEST PUSH1 0xD SLOAD PUSH2 0x454 JUMP JUMPDEST PUSH2 0x3B5 PUSH2 0x803 CALLDATASIZE PUSH1 0x4 PUSH2 0x3FE6 JUMP JUMPDEST PUSH2 0x2B8D JUMP JUMPDEST PUSH2 0x434 PUSH2 0x816 CALLDATASIZE PUSH1 0x4 PUSH2 0x3FE6 JUMP JUMPDEST PUSH2 0x2E49 JUMP JUMPDEST PUSH2 0x454 PUSH2 0x829 CALLDATASIZE PUSH1 0x4 PUSH2 0x3FE6 JUMP JUMPDEST PUSH2 0x2F54 JUMP JUMPDEST PUSH2 0x42A PUSH2 0x83C CALLDATASIZE PUSH1 0x4 PUSH2 0x428A JUMP JUMPDEST PUSH2 0x2F73 JUMP JUMPDEST PUSH2 0x42A PUSH2 0x84F CALLDATASIZE PUSH1 0x4 PUSH2 0x3FE6 JUMP JUMPDEST PUSH2 0x304F JUMP JUMPDEST PUSH2 0x454 PUSH0 MLOAD PUSH1 0x20 PUSH2 0x4A7C PUSH0 CODECOPY PUSH0 MLOAD SWAP1 PUSH0 MSTORE DUP2 JUMP JUMPDEST PUSH2 0x3E7 PUSH2 0x876 CALLDATASIZE PUSH1 0x4 PUSH2 0x4687 JUMP JUMPDEST PUSH2 0x3185 JUMP JUMPDEST PUSH2 0x40A PUSH2 0x31B2 JUMP JUMPDEST PUSH2 0x42A PUSH2 0x891 CALLDATASIZE PUSH1 0x4 PUSH2 0x40FC JUMP JUMPDEST PUSH2 0x3207 JUMP JUMPDEST PUSH1 0xF PUSH1 0x20 MSTORE PUSH0 SWAP1 DUP2 MSTORE PUSH1 0x40 SWAP1 KECCAK256 DUP1 SLOAD PUSH1 0x1 DUP3 ADD SLOAD PUSH1 0x2 DUP4 ADD SLOAD PUSH1 0x3 DUP5 ADD DUP1 SLOAD SWAP4 SWAP5 PUSH1 0x1 PUSH1 0x1 PUSH1 0xA0 SHL SUB SWAP4 DUP5 AND SWAP5 SWAP4 SWAP1 SWAP3 AND SWAP3 PUSH2 0x8D1 SWAP1 PUSH2 0x46AF JUMP JUMPDEST DUP1 PUSH1 0x1F ADD PUSH1 0x20 DUP1 SWAP2 DIV MUL PUSH1 0x20 ADD PUSH1 0x40 MLOAD SWAP1 DUP2 ADD PUSH1 0x40 MSTORE DUP1 SWAP3 SWAP2 SWAP1 DUP2 DUP2 MSTORE PUSH1 0x20 ADD DUP3 DUP1 SLOAD PUSH2 0x8FD SWAP1 PUSH2 0x46AF JUMP JUMPDEST DUP1 ISZERO PUSH2 0x948 JUMPI DUP1 PUSH1 0x1F LT PUSH2 0x91F JUMPI PUSH2 0x100 DUP1 DUP4 SLOAD DIV MUL DUP4 MSTORE SWAP2 PUSH1 0x20 ADD SWAP2 PUSH2 0x948 JUMP JUMPDEST DUP3 ADD SWAP2 SWAP1 PUSH0 MSTORE PUSH1 0x20 PUSH0 KECCAK256 SWAP1 JUMPDEST DUP2 SLOAD DUP2 MSTORE SWAP1 PUSH1 0x1 ADD SWAP1 PUSH1 0x20 ADD DUP1 DUP4 GT PUSH2 0x92B JUMPI DUP3 SWAP1 SUB PUSH1 0x1F AND DUP3 ADD SWAP2 JUMPDEST POP POP POP POP POP SWAP1 DUP1 PUSH1 0x4 ADD DUP1 SLOAD PUSH2 0x95D SWAP1 PUSH2 0x46AF JUMP JUMPDEST DUP1 PUSH1 0x1F ADD PUSH1 0x20 DUP1 SWAP2 DIV MUL PUSH1 0x20 ADD PUSH1 0x40 MLOAD SWAP1 DUP2 ADD PUSH1 0x40 MSTORE DUP1 SWAP3 SWAP2 SWAP1 DUP2 DUP2 MSTORE PUSH1 0x20 ADD DUP3 DUP1 SLOAD PUSH2 0x989 SWAP1 PUSH2 0x46AF JUMP JUMPDEST DUP1 ISZERO PUSH2 0x9D4 JUMPI DUP1 PUSH1 0x1F LT PUSH2 0x9AB JUMPI PUSH2 0x100 DUP1 DUP4 SLOAD DIV MUL DUP4 MSTORE SWAP2 PUSH1 0x20 ADD SWAP2 PUSH2 0x9D4 JUMP JUMPDEST DUP3 ADD SWAP2 SWAP1 PUSH0 MSTORE PUSH1 0x20 PUSH0 KECCAK256 SWAP1 JUMPDEST DUP2 SLOAD DUP2 MSTORE SWAP1 PUSH1 0x1 ADD SWAP1 PUSH1 0x20 ADD DUP1 DUP4 GT PUSH2 0x9B7 JUMPI DUP3 SWAP1 SUB PUSH1 0x1F AND DUP3 ADD SWAP2 JUMPDEST POP POP POP POP POP SWAP1 DUP1 PUSH1 0x5 ADD DUP1 SLOAD PUSH2 0x9E9 SWAP1 PUSH2 0x46AF JUMP JUMPDEST DUP1 PUSH1 0x1F ADD PUSH1 0x20 DUP1 SWAP2 DIV MUL PUSH1 0x20 ADD PUSH1 0x40 MLOAD SWAP1 DUP2 ADD PUSH1 0x40 MSTORE DUP1 SWAP3 SWAP2 SWAP1 DUP2 DUP2 MSTORE PUSH1 0x20 ADD DUP3 DUP1 SLOAD PUSH2 0xA15 SWAP1 PUSH2 0x46AF JUMP JUMPDEST DUP1 ISZERO PUSH2 0xA60 JUMPI DUP1 PUSH1 0x1F LT PUSH2 0xA37 JUMPI PUSH2 0x100 DUP1 DUP4 SLOAD DIV MUL DUP4 MSTORE SWAP2 PUSH1 0x20 ADD SWAP2 PUSH2 0xA60 JUMP JUMPDEST DUP3 ADD SWAP2 SWAP1 PUSH0 MSTORE PUSH1 0x20 PUSH0 KECCAK256 SWAP1 JUMPDEST DUP2 SLOAD DUP2 MSTORE SWAP1 PUSH1 0x1 ADD SWAP1 PUSH1 0x20 ADD DUP1 DUP4 GT PUSH2 0xA43 JUMPI DUP3 SWAP1 SUB PUSH1 0x1F AND DUP3 ADD SWAP2 JUMPDEST POP POP POP POP PUSH1 0x6 DUP4 ADD SLOAD PUSH1 0x7 DUP5 ADD SLOAD PUSH1 0x8 SWAP1 SWAP5 ADD SLOAD SWAP3 SWAP4 SWAP1 SWAP3 SWAP1 SWAP2 POP PUSH1 0xFF DUP1 DUP3 AND SWAP2 PUSH2 0x100 SWAP1 DIV AND DUP11 JUMP JUMPDEST PUSH0 PUSH2 0xA94 DUP3 PUSH2 0x3241 JUMP JUMPDEST SWAP3 SWAP2 POP POP JUMP JUMPDEST PUSH1 0x40 DUP1 MLOAD PUSH1 0x5 DUP1 DUP3 MSTORE PUSH1 0xC0 DUP3 ADD SWAP1 SWAP3 MSTORE PUSH1 0x60 SWAP2 PUSH0 SWAP2 SWAP1 PUSH1 0x20 DUP3 ADD PUSH1 0xA0 DUP1 CALLDATASIZE DUP4 CALLDATACOPY ADD SWAP1 POP POP SWAP1 POP PUSH0 MLOAD PUSH1 0x20 PUSH2 0x4A3C PUSH0 CODECOPY PUSH0 MLOAD SWAP1 PUSH0 MSTORE DUP2 PUSH0 DUP2 MLOAD DUP2 LT PUSH2 0xAE0 JUMPI PUSH2 0xAE0 PUSH2 0x46E7 JUMP JUMPDEST PUSH1 0x20 MUL PUSH1 0x20 ADD ADD DUP2 DUP2 MSTORE POP POP PUSH0 MLOAD PUSH1 0x20 PUSH2 0x4A5C PUSH0 CODECOPY PUSH0 MLOAD SWAP1 PUSH0 MSTORE DUP2 PUSH1 0x1 DUP2 MLOAD DUP2 LT PUSH2 0xB0D JUMPI PUSH2 0xB0D PUSH2 0x46E7 JUMP JUMPDEST PUSH1 0x20 MUL PUSH1 0x20 ADD ADD DUP2 DUP2 MSTORE POP POP PUSH0 MLOAD PUSH1 0x20 PUSH2 0x4A1C PUSH0 CODECOPY PUSH0 MLOAD SWAP1 PUSH0 MSTORE DUP2 PUSH1 0x2 DUP2 MLOAD DUP2 LT PUSH2 0xB3A JUMPI PUSH2 0xB3A PUSH2 0x46E7 JUMP JUMPDEST PUSH1 0x20 MUL PUSH1 0x20 ADD ADD DUP2 DUP2 MSTORE POP POP PUSH0 MLOAD PUSH1 0x20 PUSH2 0x49FC PUSH0 CODECOPY PUSH0 MLOAD SWAP1 PUSH0 MSTORE DUP2 PUSH1 0x3 DUP2 MLOAD DUP2 LT PUSH2 0xB67 JUMPI PUSH2 0xB67 PUSH2 0x46E7 JUMP JUMPDEST PUSH1 0x20 MUL PUSH1 0x20 ADD ADD DUP2 DUP2 MSTORE POP POP PUSH0 MLOAD PUSH1 0x20 PUSH2 0x4A7C PUSH0 CODECOPY PUSH0 MLOAD SWAP1 PUSH0 MSTORE DUP2 PUSH1 0x4 DUP2 MLOAD DUP2 LT PUSH2 0xB94 JUMPI PUSH2 0xB94 PUSH2 0x46E7 JUMP JUMPDEST PUSH1 0x20 SWAP1 DUP2 MUL SWAP2 SWAP1 SWAP2 ADD ADD MSTORE PUSH0 DUP1 JUMPDEST DUP3 MLOAD DUP2 LT ISZERO PUSH2 0xBE9 JUMPI PUSH2 0xBCE DUP4 DUP3 DUP2 MLOAD DUP2 LT PUSH2 0xBC0 JUMPI PUSH2 0xBC0 PUSH2 0x46E7 JUMP JUMPDEST PUSH1 0x20 MUL PUSH1 0x20 ADD ADD MLOAD DUP7 PUSH2 0x1A06 JUMP JUMPDEST ISZERO PUSH2 0xBE1 JUMPI DUP2 PUSH2 0xBDD DUP2 PUSH2 0x470F JUMP JUMPDEST SWAP3 POP POP JUMPDEST PUSH1 0x1 ADD PUSH2 0xBA2 JUMP JUMPDEST POP PUSH0 DUP2 PUSH1 0x1 PUSH1 0x1 PUSH1 0x40 SHL SUB DUP2 GT ISZERO PUSH2 0xC03 JUMPI PUSH2 0xC03 PUSH2 0x415E JUMP JUMPDEST PUSH1 0x40 MLOAD SWAP1 DUP1 DUP3 MSTORE DUP1 PUSH1 0x20 MUL PUSH1 0x20 ADD DUP3 ADD PUSH1 0x40 MSTORE DUP1 ISZERO PUSH2 0xC2C JUMPI DUP2 PUSH1 0x20 ADD PUSH1 0x20 DUP3 MUL DUP1 CALLDATASIZE DUP4 CALLDATACOPY ADD SWAP1 POP JUMPDEST POP SWAP1 POP PUSH0 DUP1 JUMPDEST DUP5 MLOAD DUP2 LT ISZERO PUSH2 0xCB0 JUMPI PUSH2 0xC5E DUP6 DUP3 DUP2 MLOAD DUP2 LT PUSH2 0xC50 JUMPI PUSH2 0xC50 PUSH2 0x46E7 JUMP JUMPDEST PUSH1 0x20 MUL PUSH1 0x20 ADD ADD MLOAD DUP9 PUSH2 0x1A06 JUMP JUMPDEST ISZERO PUSH2 0xCA8 JUMPI DUP5 DUP2 DUP2 MLOAD DUP2 LT PUSH2 0xC75 JUMPI PUSH2 0xC75 PUSH2 0x46E7 JUMP JUMPDEST PUSH1 0x20 MUL PUSH1 0x20 ADD ADD MLOAD DUP4 DUP4 DUP2 MLOAD DUP2 LT PUSH2 0xC8F JUMPI PUSH2 0xC8F PUSH2 0x46E7 JUMP JUMPDEST PUSH1 0x20 SWAP1 DUP2 MUL SWAP2 SWAP1 SWAP2 ADD ADD MSTORE DUP2 PUSH2 0xCA4 DUP2 PUSH2 0x470F JUMP JUMPDEST SWAP3 POP POP JUMPDEST PUSH1 0x1 ADD PUSH2 0xC32 JUMP JUMPDEST POP SWAP1 SWAP6 SWAP5 POP POP POP POP POP JUMP JUMPDEST PUSH2 0xCC3 PUSH2 0x3265 JUMP JUMPDEST PUSH2 0xCCC CALLER PUSH2 0x1381 JUMP JUMPDEST PUSH2 0xD1D JUMPI PUSH1 0x40 MLOAD PUSH3 0x461BCD PUSH1 0xE5 SHL DUP2 MSTORE PUSH1 0x20 PUSH1 0x4 DUP3 ADD DUP2 SWAP1 MSTORE PUSH1 0x24 DUP3 ADD MSTORE PUSH32 0x4D7573742068617665205245564F4B45525F524F4C45206F7220686967686572 PUSH1 0x44 DUP3 ADD MSTORE PUSH1 0x64 ADD JUMPDEST PUSH1 0x40 MLOAD DUP1 SWAP2 SUB SWAP1 REVERT JUMPDEST PUSH0 DUP2 DUP2 MSTORE PUSH1 0x2 PUSH1 0x20 MSTORE PUSH1 0x40 SWAP1 KECCAK256 SLOAD PUSH1 0x1 PUSH1 0x1 PUSH1 0xA0 SHL SUB AND PUSH2 0xD80 JUMPI PUSH1 0x40 MLOAD PUSH3 0x461BCD PUSH1 0xE5 SHL DUP2 MSTORE PUSH1 0x20 PUSH1 0x4 DUP3 ADD MSTORE PUSH1 0x1A PUSH1 0x24 DUP3 ADD MSTORE PUSH32 0x436572746966696361746520646F6573206E6F74206578697374000000000000 PUSH1 0x44 DUP3 ADD MSTORE PUSH1 0x64 ADD PUSH2 0xD14 JUMP JUMPDEST PUSH0 DUP2 DUP2 MSTORE PUSH1 0xB PUSH1 0x20 MSTORE PUSH1 0x40 SWAP1 KECCAK256 SLOAD PUSH1 0xFF AND ISZERO PUSH2 0xDDE JUMPI PUSH1 0x40 MLOAD PUSH3 0x461BCD PUSH1 0xE5 SHL DUP2 MSTORE PUSH1 0x20 PUSH1 0x4 DUP3 ADD MSTORE PUSH1 0x1B PUSH1 0x24 DUP3 ADD MSTORE PUSH32 0x436572746966696361746520616C7265616479207265766F6B65640000000000 PUSH1 0x44 DUP3 ADD MSTORE PUSH1 0x64 ADD PUSH2 0xD14 JUMP JUMPDEST PUSH0 DUP2 DUP2 MSTORE PUSH1 0xB PUSH1 0x20 SWAP1 DUP2 MSTORE PUSH1 0x40 DUP1 DUP4 KECCAK256 DUP1 SLOAD PUSH1 0x1 PUSH1 0xFF NOT SWAP2 DUP3 AND DUP2 OR SWAP1 SWAP3 SSTORE PUSH1 0xC SWAP1 SWAP4 MSTORE DUP2 DUP5 KECCAK256 PUSH1 0x2 ADD DUP1 SLOAD SWAP1 SWAP4 AND OR SWAP1 SWAP2 SSTORE MLOAD CALLER SWAP2 DUP4 SWAP2 PUSH32 0x325C62E70CFAA61CF0709D9607EA9D8451B235297C4B47C65FF6A6449C9FACA4 SWAP2 SWAP1 LOG3 POP JUMP JUMPDEST PUSH1 0x60 PUSH0 DUP1 SLOAD PUSH2 0xE4B SWAP1 PUSH2 0x46AF JUMP JUMPDEST DUP1 PUSH1 0x1F ADD PUSH1 0x20 DUP1 SWAP2 DIV MUL PUSH1 0x20 ADD PUSH1 0x40 MLOAD SWAP1 DUP2 ADD PUSH1 0x40 MSTORE DUP1 SWAP3 SWAP2 SWAP1 DUP2 DUP2 MSTORE PUSH1 0x20 ADD DUP3 DUP1 SLOAD PUSH2 0xE77 SWAP1 PUSH2 0x46AF JUMP JUMPDEST DUP1 ISZERO PUSH2 0xEC2 JUMPI DUP1 PUSH1 0x1F LT PUSH2 0xE99 JUMPI PUSH2 0x100 DUP1 DUP4 SLOAD DIV MUL DUP4 MSTORE SWAP2 PUSH1 0x20 ADD SWAP2 PUSH2 0xEC2 JUMP JUMPDEST DUP3 ADD SWAP2 SWAP1 PUSH0 MSTORE PUSH1 0x20 PUSH0 KECCAK256 SWAP1 JUMPDEST DUP2 SLOAD DUP2 MSTORE SWAP1 PUSH1 0x1 ADD SWAP1 PUSH1 0x20 ADD DUP1 DUP4 GT PUSH2 0xEA5 JUMPI DUP3 SWAP1 SUB PUSH1 0x1F AND DUP3 ADD SWAP2 JUMPDEST POP POP POP POP POP SWAP1 POP SWAP1 JUMP JUMPDEST PUSH0 PUSH2 0xED5 PUSH2 0x3265 JUMP JUMPDEST PUSH2 0xEEC PUSH0 MLOAD PUSH1 0x20 PUSH2 0x4A5C PUSH0 CODECOPY PUSH0 MLOAD SWAP1 PUSH0 MSTORE CALLER PUSH2 0x1A06 JUMP JUMPDEST ISZERO DUP1 PUSH2 0xF0A JUMPI POP PUSH2 0xF0A PUSH0 MLOAD PUSH1 0x20 PUSH2 0x4A3C PUSH0 CODECOPY PUSH0 MLOAD SWAP1 PUSH0 MSTORE CALLER PUSH2 0x1A06 JUMP JUMPDEST PUSH2 0xF8A JUMPI PUSH1 0x40 MLOAD PUSH3 0x461BCD PUSH1 0xE5 SHL DUP2 MSTORE PUSH1 0x20 PUSH1 0x4 DUP3 ADD MSTORE PUSH1 0x44 PUSH1 0x24 DUP3 ADD DUP2 SWAP1 MSTORE PUSH32 0x41444D494E73206D757374207573652070726F706F73616C2073797374656D2E SWAP1 DUP3 ADD MSTORE PUSH32 0x204F6E6C792053555045525F41444D494E2063616E206D696E74206469726563 PUSH1 0x64 DUP3 ADD MSTORE PUSH4 0x3A363C97 PUSH1 0xE1 SHL PUSH1 0x84 DUP3 ADD MSTORE PUSH1 0xA4 ADD PUSH2 0xD14 JUMP JUMPDEST PUSH2 0xF93 CALLER PUSH2 0x19B8 JUMP JUMPDEST PUSH2 0xFDF JUMPI PUSH1 0x40 MLOAD PUSH3 0x461BCD PUSH1 0xE5 SHL DUP2 MSTORE PUSH1 0x20 PUSH1 0x4 DUP3 ADD MSTORE PUSH1 0x1F PUSH1 0x24 DUP3 ADD MSTORE PUSH32 0x4D7573742068617665204953535545525F524F4C45206F722068696768657200 PUSH1 0x44 DUP3 ADD MSTORE PUSH1 0x64 ADD PUSH2 0xD14 JUMP JUMPDEST PUSH1 0x1 PUSH1 0x1 PUSH1 0xA0 SHL SUB DUP4 AND PUSH2 0x1035 JUMPI PUSH1 0x40 MLOAD PUSH3 0x461BCD PUSH1 0xE5 SHL DUP2 MSTORE PUSH1 0x20 PUSH1 0x4 DUP3 ADD MSTORE PUSH1 0x1B PUSH1 0x24 DUP3 ADD MSTORE PUSH32 0x43616E6E6F74206D696E7420746F207A65726F20616464726573730000000000 PUSH1 0x44 DUP3 ADD MSTORE PUSH1 0x64 ADD PUSH2 0xD14 JUMP JUMPDEST PUSH0 DUP3 MLOAD GT PUSH2 0x1085 JUMPI PUSH1 0x40 MLOAD PUSH3 0x461BCD PUSH1 0xE5 SHL DUP2 MSTORE PUSH1 0x20 PUSH1 0x4 DUP3 ADD MSTORE PUSH1 0x19 PUSH1 0x24 DUP3 ADD MSTORE PUSH32 0x546F6B656E205552492063616E6E6F7420626520656D70747900000000000000 PUSH1 0x44 DUP3 ADD MSTORE PUSH1 0x64 ADD PUSH2 0xD14 JUMP JUMPDEST PUSH1 0x1 PUSH1 0xA PUSH0 DUP3 DUP3 SLOAD PUSH2 0x1097 SWAP2 SWAP1 PUSH2 0x4727 JUMP JUMPDEST SWAP1 SWAP2 SSTORE POP POP PUSH1 0xA SLOAD PUSH2 0x10A9 DUP5 DUP3 PUSH2 0x3289 JUMP JUMPDEST PUSH2 0x10B3 DUP2 DUP5 PUSH2 0x32A2 JUMP JUMPDEST PUSH1 0x40 DUP1 MLOAD PUSH1 0x80 DUP2 ADD DUP3 MSTORE PUSH1 0x1 PUSH1 0x1 PUSH1 0xA0 SHL SUB DUP7 DUP2 AND DUP3 MSTORE TIMESTAMP PUSH1 0x20 DUP1 DUP5 ADD SWAP2 DUP3 MSTORE PUSH0 DUP5 DUP7 ADD DUP2 DUP2 MSTORE DUP7 MLOAD DUP1 DUP9 ADD DUP9 MSTORE PUSH1 0x8 DUP2 MSTORE PUSH8 0x14DD185B99185C99 PUSH1 0xC2 SHL DUP2 DUP6 ADD MSTORE PUSH1 0x60 DUP8 ADD SWAP1 DUP2 MSTORE DUP9 DUP4 MSTORE PUSH1 0xC SWAP1 SWAP4 MSTORE SWAP6 SWAP1 KECCAK256 DUP5 MLOAD DUP2 SLOAD PUSH1 0x1 PUSH1 0x1 PUSH1 0xA0 SHL SUB NOT AND SWAP5 AND SWAP4 SWAP1 SWAP4 OR DUP4 SSTORE SWAP1 MLOAD PUSH1 0x1 DUP4 ADD SSTORE SWAP3 MLOAD PUSH1 0x2 DUP3 ADD DUP1 SLOAD PUSH1 0xFF NOT AND SWAP2 ISZERO ISZERO SWAP2 SWAP1 SWAP2 OR SWAP1 SSTORE SWAP2 MLOAD SWAP1 SWAP2 SWAP1 PUSH1 0x3 DUP3 ADD SWAP1 PUSH2 0x114D SWAP1 DUP3 PUSH2 0x477E JUMP JUMPDEST POP SWAP1 POP POP DUP4 PUSH1 0x1 PUSH1 0x1 PUSH1 0xA0 SHL SUB AND DUP2 PUSH32 0x8F25BA6A82901A4FD6415EF13A61A268CA433A2B06840284ED6CEE98D0237D9E DUP6 PUSH1 0x40 MLOAD PUSH2 0x118B SWAP2 SWAP1 PUSH2 0x414C JUMP JUMPDEST PUSH1 0x40 MLOAD DUP1 SWAP2 SUB SWAP1 LOG3 SWAP4 SWAP3 POP POP POP JUMP JUMPDEST PUSH0 PUSH2 0x11A4 DUP3 PUSH2 0x32F1 JUMP JUMPDEST POP PUSH0 DUP3 DUP2 MSTORE PUSH1 0x4 PUSH1 0x20 MSTORE PUSH1 0x40 SWAP1 KECCAK256 SLOAD PUSH1 0x1 PUSH1 0x1 PUSH1 0xA0 SHL SUB AND PUSH2 0xA94 JUMP JUMPDEST PUSH2 0x11CC DUP3 DUP3 CALLER PUSH2 0x3329 JUMP JUMPDEST POP POP JUMP JUMPDEST PUSH2 0x11D8 PUSH2 0x3265 JUMP JUMPDEST PUSH2 0x11EF PUSH0 MLOAD PUSH1 0x20 PUSH2 0x4A5C PUSH0 CODECOPY PUSH0 MLOAD SWAP1 PUSH0 MSTORE CALLER PUSH2 0x1A06 JUMP JUMPDEST DUP1 PUSH2 0x120C JUMPI POP PUSH2 0x120C PUSH0 MLOAD PUSH1 0x20 PUSH2 0x4A3C PUSH0 CODECOPY PUSH0 MLOAD SWAP1 PUSH0 MSTORE CALLER PUSH2 0x1A06 JUMP JUMPDEST PUSH2 0x1274 JUMPI PUSH1 0x40 MLOAD PUSH3 0x461BCD PUSH1 0xE5 SHL DUP2 MSTORE PUSH1 0x20 PUSH1 0x4 DUP3 ADD MSTORE PUSH1 0x33 PUSH1 0x24 DUP3 ADD MSTORE PUSH32 0x4D75737420686176652041444D494E20726F6C65206F72206869676865722074 PUSH1 0x44 DUP3 ADD MSTORE PUSH19 0x6F20657865637574652070726F706F73616C73 PUSH1 0x68 SHL PUSH1 0x64 DUP3 ADD MSTORE PUSH1 0x84 ADD PUSH2 0xD14 JUMP JUMPDEST PUSH0 DUP2 DUP2 MSTORE PUSH1 0xF PUSH1 0x20 MSTORE PUSH1 0x40 DUP2 KECCAK256 DUP1 SLOAD SWAP1 SWAP2 SUB PUSH2 0x12A2 JUMPI PUSH1 0x40 MLOAD PUSH3 0x461BCD PUSH1 0xE5 SHL DUP2 MSTORE PUSH1 0x4 ADD PUSH2 0xD14 SWAP1 PUSH2 0x4838 JUMP JUMPDEST PUSH1 0x8 DUP2 ADD SLOAD PUSH1 0xFF AND ISZERO PUSH2 0x12C7 JUMPI PUSH1 0x40 MLOAD PUSH3 0x461BCD PUSH1 0xE5 SHL DUP2 MSTORE PUSH1 0x4 ADD PUSH2 0xD14 SWAP1 PUSH2 0x486F JUMP JUMPDEST PUSH1 0x8 DUP2 ADD SLOAD PUSH2 0x100 SWAP1 DIV PUSH1 0xFF AND ISZERO PUSH2 0x12F1 JUMPI PUSH1 0x40 MLOAD PUSH3 0x461BCD PUSH1 0xE5 SHL DUP2 MSTORE PUSH1 0x4 ADD PUSH2 0xD14 SWAP1 PUSH2 0x48A6 JUMP JUMPDEST PUSH1 0xE SLOAD DUP2 PUSH1 0x6 ADD SLOAD LT ISZERO PUSH2 0x1340 JUMPI PUSH1 0x40 MLOAD PUSH3 0x461BCD PUSH1 0xE5 SHL DUP2 MSTORE PUSH1 0x20 PUSH1 0x4 DUP3 ADD MSTORE PUSH1 0x16 PUSH1 0x24 DUP3 ADD MSTORE PUSH22 0x496E73756666696369656E7420617070726F76616C73 PUSH1 0x50 SHL PUSH1 0x44 DUP3 ADD MSTORE PUSH1 0x64 ADD PUSH2 0xD14 JUMP JUMPDEST PUSH2 0x11CC DUP3 PUSH2 0x3336 JUMP JUMPDEST PUSH0 DUP2 DUP2 MSTORE PUSH1 0x2 PUSH1 0x20 MSTORE PUSH1 0x40 DUP2 KECCAK256 SLOAD PUSH1 0x1 PUSH1 0x1 PUSH1 0xA0 SHL SUB AND PUSH2 0x136B JUMPI POP PUSH0 SWAP2 SWAP1 POP JUMP JUMPDEST POP PUSH0 SWAP1 DUP2 MSTORE PUSH1 0xB PUSH1 0x20 MSTORE PUSH1 0x40 SWAP1 KECCAK256 SLOAD PUSH1 0xFF AND ISZERO SWAP1 JUMP JUMPDEST PUSH0 PUSH2 0x1399 PUSH0 MLOAD PUSH1 0x20 PUSH2 0x4A3C PUSH0 CODECOPY PUSH0 MLOAD SWAP1 PUSH0 MSTORE DUP4 PUSH2 0x1A06 JUMP JUMPDEST DUP1 PUSH2 0x13B6 JUMPI POP PUSH2 0x13B6 PUSH0 MLOAD PUSH1 0x20 PUSH2 0x4A5C PUSH0 CODECOPY PUSH0 MLOAD SWAP1 PUSH0 MSTORE DUP4 PUSH2 0x1A06 JUMP JUMPDEST DUP1 PUSH2 0xA94 JUMPI POP PUSH2 0xA94 PUSH0 MLOAD PUSH1 0x20 PUSH2 0x49FC PUSH0 CODECOPY PUSH0 MLOAD SWAP1 PUSH0 MSTORE DUP4 PUSH2 0x1A06 JUMP JUMPDEST PUSH1 0x1 PUSH1 0x1 PUSH1 0xA0 SHL SUB DUP3 AND PUSH2 0x13FC JUMPI PUSH1 0x40 MLOAD PUSH4 0x32505749 PUSH1 0xE1 SHL DUP2 MSTORE PUSH0 PUSH1 0x4 DUP3 ADD MSTORE PUSH1 0x24 ADD PUSH2 0xD14 JUMP JUMPDEST PUSH0 PUSH2 0x1408 DUP4 DUP4 CALLER PUSH2 0x354F JUMP JUMPDEST SWAP1 POP DUP4 PUSH1 0x1 PUSH1 0x1 PUSH1 0xA0 SHL SUB AND DUP2 PUSH1 0x1 PUSH1 0x1 PUSH1 0xA0 SHL SUB AND EQ PUSH2 0x1456 JUMPI PUSH1 0x40 MLOAD PUSH4 0x64283D7B PUSH1 0xE0 SHL DUP2 MSTORE PUSH1 0x1 PUSH1 0x1 PUSH1 0xA0 SHL SUB DUP1 DUP7 AND PUSH1 0x4 DUP4 ADD MSTORE PUSH1 0x24 DUP3 ADD DUP5 SWAP1 MSTORE DUP3 AND PUSH1 0x44 DUP3 ADD MSTORE PUSH1 0x64 ADD PUSH2 0xD14 JUMP JUMPDEST POP POP POP POP JUMP JUMPDEST PUSH0 PUSH2 0x1474 PUSH0 MLOAD PUSH1 0x20 PUSH2 0x4A3C PUSH0 CODECOPY PUSH0 MLOAD SWAP1 PUSH0 MSTORE DUP4 PUSH2 0x1A06 JUMP JUMPDEST DUP1 PUSH2 0xA94 JUMPI POP PUSH2 0xA94 PUSH0 MLOAD PUSH1 0x20 PUSH2 0x4A5C PUSH0 CODECOPY PUSH0 MLOAD SWAP1 PUSH0 MSTORE DUP4 PUSH2 0x1A06 JUMP JUMPDEST PUSH0 DUP2 DUP2 MSTORE PUSH1 0x11 PUSH1 0x20 SWAP1 DUP2 MSTORE PUSH1 0x40 SWAP2 DUP3 SWAP1 KECCAK256 DUP1 SLOAD DUP4 MLOAD DUP2 DUP5 MUL DUP2 ADD DUP5 ADD SWAP1 SWAP5 MSTORE DUP1 DUP5 MSTORE PUSH1 0x60 SWAP4 SWAP3 DUP4 ADD DUP3 DUP3 DUP1 ISZERO PUSH2 0x14EE JUMPI PUSH1 0x20 MUL DUP3 ADD SWAP2 SWAP1 PUSH0 MSTORE PUSH1 0x20 PUSH0 KECCAK256 SWAP1 JUMPDEST DUP2 SLOAD PUSH1 0x1 PUSH1 0x1 PUSH1 0xA0 SHL SUB AND DUP2 MSTORE PUSH1 0x1 SWAP1 SWAP2 ADD SWAP1 PUSH1 0x20 ADD DUP1 DUP4 GT PUSH2 0x14D0 JUMPI JUMPDEST POP POP POP POP POP SWAP1 POP SWAP2 SWAP1 POP JUMP JUMPDEST PUSH2 0x1511 PUSH0 MLOAD PUSH1 0x20 PUSH2 0x4A3C PUSH0 CODECOPY PUSH0 MLOAD SWAP1 PUSH0 MSTORE CALLER PUSH2 0x1A06 JUMP JUMPDEST ISZERO PUSH2 0x15DA JUMPI PUSH0 MLOAD PUSH1 0x20 PUSH2 0x4A5C PUSH0 CODECOPY PUSH0 MLOAD SWAP1 PUSH0 MSTORE DUP3 EQ DUP1 PUSH2 0x153D JUMPI POP PUSH0 MLOAD PUSH1 0x20 PUSH2 0x4A1C PUSH0 CODECOPY PUSH0 MLOAD SWAP1 PUSH0 MSTORE DUP3 EQ JUMPDEST DUP1 PUSH2 0x1554 JUMPI POP PUSH0 MLOAD PUSH1 0x20 PUSH2 0x49FC PUSH0 CODECOPY PUSH0 MLOAD SWAP1 PUSH0 MSTORE DUP3 EQ JUMPDEST DUP1 PUSH2 0x156B JUMPI POP PUSH0 MLOAD PUSH1 0x20 PUSH2 0x4A7C PUSH0 CODECOPY PUSH0 MLOAD SWAP1 PUSH0 MSTORE DUP3 EQ JUMPDEST PUSH2 0x15CB JUMPI PUSH1 0x40 MLOAD PUSH3 0x461BCD PUSH1 0xE5 SHL DUP2 MSTORE PUSH1 0x20 PUSH1 0x4 DUP3 ADD MSTORE PUSH1 0x2B PUSH1 0x24 DUP3 ADD MSTORE PUSH32 0x53555045525F41444D494E2063616E6E6F74206772616E742044454641554C54 PUSH1 0x44 DUP3 ADD MSTORE PUSH11 0x5F41444D494E5F524F4C45 PUSH1 0xA8 SHL PUSH1 0x64 DUP3 ADD MSTORE PUSH1 0x84 ADD PUSH2 0xD14 JUMP JUMPDEST PUSH2 0x15D5 DUP3 DUP3 PUSH2 0x35F4 JUMP JUMPDEST POP POP POP JUMP JUMPDEST PUSH2 0x11CC DUP3 DUP3 PUSH2 0x3685 JUMP JUMPDEST PUSH1 0x1 PUSH1 0x1 PUSH1 0xA0 SHL SUB DUP2 AND CALLER EQ PUSH2 0x160D JUMPI PUSH1 0x40 MLOAD PUSH4 0x334BD919 PUSH1 0xE1 SHL DUP2 MSTORE PUSH1 0x4 ADD PUSH1 0x40 MLOAD DUP1 SWAP2 SUB SWAP1 REVERT JUMPDEST PUSH2 0x15D5 DUP3 DUP3 PUSH2 0x36A9 JUMP JUMPDEST PUSH0 MLOAD PUSH1 0x20 PUSH2 0x4A3C PUSH0 CODECOPY PUSH0 MLOAD SWAP1 PUSH0 MSTORE PUSH2 0x162E DUP2 PUSH2 0x3714 JUMP JUMPDEST PUSH2 0x1636 PUSH2 0x371E JUMP JUMPDEST POP JUMP JUMPDEST PUSH2 0x15D5 DUP4 DUP4 DUP4 PUSH1 0x40 MLOAD DUP1 PUSH1 0x20 ADD PUSH1 0x40 MSTORE DUP1 PUSH0 DUP2 MSTORE POP PUSH2 0x2B75 JUMP JUMPDEST PUSH0 MLOAD PUSH1 0x20 PUSH2 0x4A3C PUSH0 CODECOPY PUSH0 MLOAD SWAP1 PUSH0 MSTORE PUSH2 0x166A DUP2 PUSH2 0x3714 JUMP JUMPDEST PUSH2 0x1674 DUP4 DUP6 PUSH2 0x1A06 JUMP JUMPDEST PUSH2 0x16C0 JUMPI PUSH1 0x40 MLOAD PUSH3 0x461BCD PUSH1 0xE5 SHL DUP2 MSTORE PUSH1 0x20 PUSH1 0x4 DUP3 ADD MSTORE PUSH1 0x1C PUSH1 0x24 DUP3 ADD MSTORE PUSH32 0x5573657220646F6573206E6F742068617665207468697320726F6C6500000000 PUSH1 0x44 DUP3 ADD MSTORE PUSH1 0x64 ADD PUSH2 0xD14 JUMP JUMPDEST PUSH2 0x16CA DUP4 DUP6 PUSH2 0x36A9 JUMP JUMPDEST POP DUP3 DUP5 PUSH1 0x1 PUSH1 0x1 PUSH1 0xA0 SHL SUB AND CALLER PUSH1 0x1 PUSH1 0x1 PUSH1 0xA0 SHL SUB AND PUSH32 0xF460E388DC46FDEE464EE024CA3B0C33AB26345AC38DE78EA140BB5CBCE141C1 DUP6 PUSH1 0x40 MLOAD PUSH2 0x170F SWAP2 SWAP1 PUSH2 0x414C JUMP JUMPDEST PUSH1 0x40 MLOAD DUP1 SWAP2 SUB SWAP1 LOG4 POP POP POP POP JUMP JUMPDEST PUSH1 0x11 PUSH1 0x20 MSTORE DUP2 PUSH0 MSTORE PUSH1 0x40 PUSH0 KECCAK256 DUP2 DUP2 SLOAD DUP2 LT PUSH2 0x1736 JUMPI PUSH0 DUP1 REVERT JUMPDEST PUSH0 SWAP2 DUP3 MSTORE PUSH1 0x20 SWAP1 SWAP2 KECCAK256 ADD SLOAD PUSH1 0x1 PUSH1 0x1 PUSH1 0xA0 SHL SUB AND SWAP2 POP DUP3 SWAP1 POP JUMP JUMPDEST PUSH0 PUSH2 0xA94 DUP3 PUSH2 0x32F1 JUMP JUMPDEST PUSH0 PUSH1 0x1 PUSH1 0x1 PUSH1 0xA0 SHL SUB DUP3 AND PUSH2 0x1785 JUMPI PUSH1 0x40 MLOAD PUSH4 0x22718AD9 PUSH1 0xE2 SHL DUP2 MSTORE PUSH0 PUSH1 0x4 DUP3 ADD MSTORE PUSH1 0x24 ADD PUSH2 0xD14 JUMP JUMPDEST POP PUSH1 0x1 PUSH1 0x1 PUSH1 0xA0 SHL SUB AND PUSH0 SWAP1 DUP2 MSTORE PUSH1 0x3 PUSH1 0x20 MSTORE PUSH1 0x40 SWAP1 KECCAK256 SLOAD SWAP1 JUMP JUMPDEST PUSH2 0x17A8 PUSH2 0x3770 JUMP JUMPDEST PUSH2 0x17B1 PUSH0 PUSH2 0x379D JUMP JUMPDEST JUMP JUMPDEST PUSH2 0x17BD DUP3 CALLER PUSH2 0x1A06 JUMP JUMPDEST ISZERO PUSH2 0x1802 JUMPI PUSH1 0x40 MLOAD PUSH3 0x461BCD PUSH1 0xE5 SHL DUP2 MSTORE PUSH1 0x20 PUSH1 0x4 DUP3 ADD MSTORE PUSH1 0x15 PUSH1 0x24 DUP3 ADD MSTORE PUSH21 0x416C726561647920686173207468697320726F6C65 PUSH1 0x58 SHL PUSH1 0x44 DUP3 ADD MSTORE PUSH1 0x64 ADD PUSH2 0xD14 JUMP JUMPDEST PUSH0 MLOAD PUSH1 0x20 PUSH2 0x4A1C PUSH0 CODECOPY PUSH0 MLOAD SWAP1 PUSH0 MSTORE DUP3 EQ DUP1 PUSH2 0x1829 JUMPI POP PUSH0 MLOAD PUSH1 0x20 PUSH2 0x49FC PUSH0 CODECOPY PUSH0 MLOAD SWAP1 PUSH0 MSTORE DUP3 EQ JUMPDEST DUP1 PUSH2 0x1840 JUMPI POP PUSH0 MLOAD PUSH1 0x20 PUSH2 0x4A7C PUSH0 CODECOPY PUSH0 MLOAD SWAP1 PUSH0 MSTORE DUP3 EQ JUMPDEST DUP1 PUSH2 0x1857 JUMPI POP PUSH0 MLOAD PUSH1 0x20 PUSH2 0x4A5C PUSH0 CODECOPY PUSH0 MLOAD SWAP1 PUSH0 MSTORE DUP3 EQ JUMPDEST PUSH2 0x18A3 JUMPI PUSH1 0x40 MLOAD PUSH3 0x461BCD PUSH1 0xE5 SHL DUP2 MSTORE PUSH1 0x20 PUSH1 0x4 DUP3 ADD MSTORE PUSH1 0x1F PUSH1 0x24 DUP3 ADD MSTORE PUSH32 0x43616E6E6F7420726571756573742053555045525F41444D494E5F524F4C4500 PUSH1 0x44 DUP3 ADD MSTORE PUSH1 0x64 ADD PUSH2 0xD14 JUMP JUMPDEST DUP2 CALLER PUSH1 0x1 PUSH1 0x1 PUSH1 0xA0 SHL SUB AND PUSH32 0x98F6F2D133C420A141A671CE9479E3956417C7F04BD370DE1CD64CE10D385D94 DUP4 PUSH1 0x40 MLOAD PUSH2 0x18DD SWAP2 SWAP1 PUSH2 0x414C JUMP JUMPDEST PUSH1 0x40 MLOAD DUP1 SWAP2 SUB SWAP1 LOG3 POP POP JUMP JUMPDEST PUSH0 MLOAD PUSH1 0x20 PUSH2 0x4A3C PUSH0 CODECOPY PUSH0 MLOAD SWAP1 PUSH0 MSTORE PUSH2 0x1900 DUP2 PUSH2 0x3714 JUMP JUMPDEST PUSH2 0x1636 PUSH2 0x37EE JUMP JUMPDEST PUSH0 MLOAD PUSH1 0x20 PUSH2 0x4A3C PUSH0 CODECOPY PUSH0 MLOAD SWAP1 PUSH0 MSTORE PUSH2 0x191F DUP2 PUSH2 0x3714 JUMP JUMPDEST DUP2 MLOAD DUP4 MLOAD EQ PUSH2 0x1969 JUMPI PUSH1 0x40 MLOAD PUSH3 0x461BCD PUSH1 0xE5 SHL DUP2 MSTORE PUSH1 0x20 PUSH1 0x4 DUP3 ADD MSTORE PUSH1 0x16 PUSH1 0x24 DUP3 ADD MSTORE PUSH22 0x82E4E4C2F2E640D8CADCCEE8D040DAD2E6DAC2E8C6D PUSH1 0x53 SHL PUSH1 0x44 DUP3 ADD MSTORE PUSH1 0x64 ADD PUSH2 0xD14 JUMP JUMPDEST PUSH0 JUMPDEST DUP4 MLOAD DUP2 LT ISZERO PUSH2 0x1456 JUMPI PUSH2 0x19B0 DUP4 DUP3 DUP2 MLOAD DUP2 LT PUSH2 0x1989 JUMPI PUSH2 0x1989 PUSH2 0x46E7 JUMP JUMPDEST PUSH1 0x20 MUL PUSH1 0x20 ADD ADD MLOAD DUP6 DUP4 DUP2 MLOAD DUP2 LT PUSH2 0x19A3 JUMPI PUSH2 0x19A3 PUSH2 0x46E7 JUMP JUMPDEST PUSH1 0x20 MUL PUSH1 0x20 ADD ADD MLOAD PUSH2 0x14FA JUMP JUMPDEST PUSH1 0x1 ADD PUSH2 0x196B JUMP JUMPDEST PUSH0 PUSH2 0x19D0 PUSH0 MLOAD PUSH1 0x20 PUSH2 0x4A3C PUSH0 CODECOPY PUSH0 MLOAD SWAP1 PUSH0 MSTORE DUP4 PUSH2 0x1A06 JUMP JUMPDEST DUP1 PUSH2 0x19ED JUMPI POP PUSH2 0x19ED PUSH0 MLOAD PUSH1 0x20 PUSH2 0x4A5C PUSH0 CODECOPY PUSH0 MLOAD SWAP1 PUSH0 MSTORE DUP4 PUSH2 0x1A06 JUMP JUMPDEST DUP1 PUSH2 0xA94 JUMPI POP PUSH2 0xA94 PUSH0 MLOAD PUSH1 0x20 PUSH2 0x4A1C PUSH0 CODECOPY PUSH0 MLOAD SWAP1 PUSH0 MSTORE DUP4 JUMPDEST PUSH0 SWAP2 DUP3 MSTORE PUSH1 0x8 PUSH1 0x20 SWAP1 DUP2 MSTORE PUSH1 0x40 DUP1 DUP5 KECCAK256 PUSH1 0x1 PUSH1 0x1 PUSH1 0xA0 SHL SUB SWAP4 SWAP1 SWAP4 AND DUP5 MSTORE SWAP2 SWAP1 MSTORE SWAP1 KECCAK256 SLOAD PUSH1 0xFF AND SWAP1 JUMP JUMPDEST PUSH1 0x60 PUSH1 0x1 DUP1 SLOAD PUSH2 0xE4B SWAP1 PUSH2 0x46AF JUMP JUMPDEST PUSH2 0x1A47 PUSH2 0x3265 JUMP JUMPDEST PUSH2 0x1A5E PUSH0 MLOAD PUSH1 0x20 PUSH2 0x4A5C PUSH0 CODECOPY PUSH0 MLOAD SWAP1 PUSH0 MSTORE CALLER PUSH2 0x1A06 JUMP JUMPDEST DUP1 PUSH2 0x1A7B JUMPI POP PUSH2 0x1A7B PUSH0 MLOAD PUSH1 0x20 PUSH2 0x4A3C PUSH0 CODECOPY PUSH0 MLOAD SWAP1 PUSH0 MSTORE CALLER PUSH2 0x1A06 JUMP JUMPDEST PUSH2 0x1AE3 JUMPI PUSH1 0x40 MLOAD PUSH3 0x461BCD PUSH1 0xE5 SHL DUP2 MSTORE PUSH1 0x20 PUSH1 0x4 DUP3 ADD MSTORE PUSH1 0x33 PUSH1 0x24 DUP3 ADD MSTORE PUSH32 0x4D75737420686176652041444D494E20726F6C65206F72206869676865722074 PUSH1 0x44 DUP3 ADD MSTORE PUSH19 0x6F20617070726F76652070726F706F73616C73 PUSH1 0x68 SHL PUSH1 0x64 DUP3 ADD MSTORE PUSH1 0x84 ADD PUSH2 0xD14 JUMP JUMPDEST PUSH0 DUP2 DUP2 MSTORE PUSH1 0xF PUSH1 0x20 MSTORE PUSH1 0x40 DUP2 KECCAK256 DUP1 SLOAD SWAP1 SWAP2 SUB PUSH2 0x1B11 JUMPI PUSH1 0x40 MLOAD PUSH3 0x461BCD PUSH1 0xE5 SHL DUP2 MSTORE PUSH1 0x4 ADD PUSH2 0xD14 SWAP1 PUSH2 0x4838 JUMP JUMPDEST PUSH1 0x8 DUP2 ADD SLOAD PUSH1 0xFF AND ISZERO PUSH2 0x1B36 JUMPI PUSH1 0x40 MLOAD PUSH3 0x461BCD PUSH1 0xE5 SHL DUP2 MSTORE PUSH1 0x4 ADD PUSH2 0xD14 SWAP1 PUSH2 0x486F JUMP JUMPDEST PUSH1 0x8 DUP2 ADD SLOAD PUSH2 0x100 SWAP1 DIV PUSH1 0xFF AND ISZERO PUSH2 0x1B60 JUMPI PUSH1 0x40 MLOAD PUSH3 0x461BCD PUSH1 0xE5 SHL DUP2 MSTORE PUSH1 0x4 ADD PUSH2 0xD14 SWAP1 PUSH2 0x48A6 JUMP JUMPDEST PUSH1 0x1 DUP2 ADD SLOAD CALLER PUSH1 0x1 PUSH1 0x1 PUSH1 0xA0 SHL SUB SWAP1 SWAP2 AND SUB PUSH2 0x1BBE JUMPI PUSH1 0x40 MLOAD PUSH3 0x461BCD PUSH1 0xE5 SHL DUP2 MSTORE PUSH1 0x20 PUSH1 0x4 DUP3 ADD DUP2 SWAP1 MSTORE PUSH1 0x24 DUP3 ADD MSTORE PUSH32 0x43616E6E6F7420617070726F766520796F7572206F776E2070726F706F73616C PUSH1 0x44 DUP3 ADD MSTORE PUSH1 0x64 ADD PUSH2 0xD14 JUMP JUMPDEST PUSH0 DUP3 DUP2 MSTORE PUSH1 0x10 PUSH1 0x20 SWAP1 DUP2 MSTORE PUSH1 0x40 DUP1 DUP4 KECCAK256 CALLER DUP5 MSTORE SWAP1 SWAP2 MSTORE SWAP1 KECCAK256 SLOAD PUSH1 0xFF AND ISZERO PUSH2 0x1C1A JUMPI PUSH1 0x40 MLOAD PUSH3 0x461BCD PUSH1 0xE5 SHL DUP2 MSTORE PUSH1 0x20 PUSH1 0x4 DUP3 ADD MSTORE PUSH1 0x10 PUSH1 0x24 DUP3 ADD MSTORE PUSH16 0x105B1C9958591E48185C1C1C9BDD9959 PUSH1 0x82 SHL PUSH1 0x44 DUP3 ADD MSTORE PUSH1 0x64 ADD PUSH2 0xD14 JUMP JUMPDEST PUSH0 DUP3 DUP2 MSTORE PUSH1 0x10 PUSH1 0x20 SWAP1 DUP2 MSTORE PUSH1 0x40 DUP1 DUP4 KECCAK256 CALLER DUP1 DUP6 MSTORE SWAP1 DUP4 MSTORE DUP2 DUP5 KECCAK256 DUP1 SLOAD PUSH1 0xFF NOT AND PUSH1 0x1 SWAP1 DUP2 OR SWAP1 SWAP2 SSTORE DUP7 DUP6 MSTORE PUSH1 0x11 DUP5 MSTORE SWAP2 DUP5 KECCAK256 DUP1 SLOAD DUP1 DUP5 ADD DUP3 SSTORE SWAP1 DUP6 MSTORE SWAP3 DUP5 KECCAK256 SWAP1 SWAP3 ADD DUP1 SLOAD PUSH1 0x1 PUSH1 0x1 PUSH1 0xA0 SHL SUB NOT AND SWAP1 SWAP3 OR SWAP1 SWAP2 SSTORE PUSH1 0x6 DUP4 ADD DUP1 SLOAD SWAP2 SWAP3 SWAP1 SWAP2 PUSH2 0x1C83 SWAP1 DUP5 SWAP1 PUSH2 0x4727 JUMP JUMPDEST SWAP1 SWAP2 SSTORE POP POP PUSH1 0x6 DUP2 ADD SLOAD PUSH1 0x40 MLOAD SWAP1 DUP2 MSTORE CALLER SWAP1 DUP4 SWAP1 PUSH32 0x2F0F51D2F12C71357E60D575D47E93E081DBAF32072245AB1E01540F0AADBF1A SWAP1 PUSH1 0x20 ADD PUSH1 0x40 MLOAD DUP1 SWAP2 SUB SWAP1 LOG3 PUSH1 0xE SLOAD DUP2 PUSH1 0x6 ADD SLOAD LT PUSH2 0x11CC JUMPI PUSH2 0x11CC DUP3 PUSH2 0x3336 JUMP JUMPDEST PUSH0 PUSH2 0x1CE3 PUSH2 0x3265 JUMP JUMPDEST PUSH2 0x1CFA PUSH0 MLOAD PUSH1 0x20 PUSH2 0x4A5C PUSH0 CODECOPY PUSH0 MLOAD SWAP1 PUSH0 MSTORE CALLER PUSH2 0x1A06 JUMP JUMPDEST DUP1 PUSH2 0x1D17 JUMPI POP PUSH2 0x1D17 PUSH0 MLOAD PUSH1 0x20 PUSH2 0x4A3C PUSH0 CODECOPY PUSH0 MLOAD SWAP1 PUSH0 MSTORE CALLER PUSH2 0x1A06 JUMP JUMPDEST PUSH2 0x1D7E JUMPI PUSH1 0x40 MLOAD PUSH3 0x461BCD PUSH1 0xE5 SHL DUP2 MSTORE PUSH1 0x20 PUSH1 0x4 DUP3 ADD MSTORE PUSH1 0x32 PUSH1 0x24 DUP3 ADD MSTORE PUSH32 0x4D75737420686176652041444D494E20726F6C65206F72206869676865722074 PUSH1 0x44 DUP3 ADD MSTORE PUSH18 0x6F206372656174652070726F706F73616C73 PUSH1 0x70 SHL PUSH1 0x64 DUP3 ADD MSTORE PUSH1 0x84 ADD PUSH2 0xD14 JUMP JUMPDEST PUSH1 0x1 PUSH1 0x1 PUSH1 0xA0 SHL SUB DUP6 AND PUSH2 0x1DD4 JUMPI PUSH1 0x40 MLOAD PUSH3 0x461BCD PUSH1 0xE5 SHL DUP2 MSTORE PUSH1 0x20 PUSH1 0x4 DUP3 ADD MSTORE PUSH1 0x19 PUSH1 0x24 DUP3 ADD MSTORE PUSH32 0x496E76616C696420726563697069656E74206164647265737300000000000000 PUSH1 0x44 DUP3 ADD MSTORE PUSH1 0x64 ADD PUSH2 0xD14 JUMP JUMPDEST PUSH0 DUP5 MLOAD GT PUSH2 0x1E24 JUMPI PUSH1 0x40 MLOAD PUSH3 0x461BCD PUSH1 0xE5 SHL DUP2 MSTORE PUSH1 0x20 PUSH1 0x4 DUP3 ADD MSTORE PUSH1 0x1E PUSH1 0x24 DUP3 ADD MSTORE PUSH32 0x526563697069656E74206E616D652063616E6E6F7420626520656D7074790000 PUSH1 0x44 DUP3 ADD MSTORE PUSH1 0x64 ADD PUSH2 0xD14 JUMP JUMPDEST PUSH0 DUP4 MLOAD GT PUSH2 0x1E6C JUMPI PUSH1 0x40 MLOAD PUSH3 0x461BCD PUSH1 0xE5 SHL DUP2 MSTORE PUSH1 0x20 PUSH1 0x4 DUP3 ADD MSTORE PUSH1 0x15 PUSH1 0x24 DUP3 ADD MSTORE PUSH21 0x47726164652063616E6E6F7420626520656D707479 PUSH1 0x58 SHL PUSH1 0x44 DUP3 ADD MSTORE PUSH1 0x64 ADD PUSH2 0xD14 JUMP JUMPDEST PUSH0 DUP3 MLOAD GT PUSH2 0x1EBC JUMPI PUSH1 0x40 MLOAD PUSH3 0x461BCD PUSH1 0xE5 SHL DUP2 MSTORE PUSH1 0x20 PUSH1 0x4 DUP3 ADD MSTORE PUSH1 0x1C PUSH1 0x24 DUP3 ADD MSTORE PUSH32 0x4D65746164617461205552492063616E6E6F7420626520656D70747900000000 PUSH1 0x44 DUP3 ADD MSTORE PUSH1 0x64 ADD PUSH2 0xD14 JUMP JUMPDEST PUSH1 0x1 PUSH1 0xD PUSH0 DUP3 DUP3 SLOAD PUSH2 0x1ECE SWAP2 SWAP1 PUSH2 0x4727 JUMP JUMPDEST SWAP1 SWAP2 SSTORE POP POP PUSH1 0xD SLOAD PUSH1 0x40 DUP1 MLOAD PUSH2 0x140 DUP2 ADD DUP3 MSTORE DUP3 DUP2 MSTORE CALLER PUSH1 0x20 DUP1 DUP4 ADD SWAP2 DUP3 MSTORE PUSH1 0x1 PUSH1 0x1 PUSH1 0xA0 SHL SUB DUP11 DUP2 AND DUP5 DUP7 ADD SWAP1 DUP2 MSTORE PUSH1 0x60 DUP6 ADD DUP12 DUP2 MSTORE PUSH1 0x80 DUP7 ADD DUP12 SWAP1 MSTORE PUSH1 0xA0 DUP7 ADD DUP11 SWAP1 MSTORE PUSH0 PUSH1 0xC0 DUP8 ADD DUP2 SWAP1 MSTORE TIMESTAMP PUSH1 0xE0 DUP9 ADD MSTORE PUSH2 0x100 DUP8 ADD DUP2 SWAP1 MSTORE PUSH2 0x120 DUP8 ADD DUP2 SWAP1 MSTORE DUP9 DUP2 MSTORE PUSH1 0xF SWAP1 SWAP5 MSTORE SWAP6 SWAP1 SWAP3 KECCAK256 DUP5 MLOAD DUP2 SSTORE SWAP3 MLOAD PUSH1 0x1 DUP5 ADD DUP1 SLOAD PUSH1 0x1 PUSH1 0x1 PUSH1 0xA0 SHL SUB NOT SWAP1 DUP2 AND SWAP3 DUP5 AND SWAP3 SWAP1 SWAP3 OR SWAP1 SSTORE SWAP2 MLOAD PUSH1 0x2 DUP5 ADD DUP1 SLOAD SWAP1 SWAP4 AND SWAP2 AND OR SWAP1 SSTORE SWAP2 MLOAD SWAP1 SWAP2 SWAP1 PUSH1 0x3 DUP3 ADD SWAP1 PUSH2 0x1F82 SWAP1 DUP3 PUSH2 0x477E JUMP JUMPDEST POP PUSH1 0x80 DUP3 ADD MLOAD PUSH1 0x4 DUP3 ADD SWAP1 PUSH2 0x1F97 SWAP1 DUP3 PUSH2 0x477E JUMP JUMPDEST POP PUSH1 0xA0 DUP3 ADD MLOAD PUSH1 0x5 DUP3 ADD SWAP1 PUSH2 0x1FAC SWAP1 DUP3 PUSH2 0x477E JUMP JUMPDEST POP PUSH1 0xC0 DUP3 ADD MLOAD PUSH1 0x6 DUP3 ADD SSTORE PUSH1 0xE0 DUP3 ADD MLOAD PUSH1 0x7 DUP3 ADD SSTORE PUSH2 0x100 DUP1 DUP4 ADD MLOAD PUSH1 0x8 SWAP1 SWAP3 ADD DUP1 SLOAD PUSH2 0x120 SWAP1 SWAP5 ADD MLOAD PUSH2 0xFFFF NOT SWAP1 SWAP5 AND SWAP3 ISZERO ISZERO PUSH2 0xFF00 NOT AND SWAP3 SWAP1 SWAP3 OR SWAP3 ISZERO ISZERO MUL SWAP2 SWAP1 SWAP2 OR SWAP1 SSTORE PUSH1 0x12 DUP1 SLOAD PUSH1 0x1 DUP2 ADD DUP3 SSTORE PUSH0 SWAP2 SWAP1 SWAP2 MSTORE PUSH32 0xBB8A6A4669BA250D26CD7A459ECA9D215F8307E33AEBE50379BC5A3617EC3444 ADD DUP2 SWAP1 SSTORE PUSH1 0x40 MLOAD PUSH1 0x1 PUSH1 0x1 PUSH1 0xA0 SHL SUB DUP8 AND SWAP1 CALLER SWAP1 DUP4 SWAP1 PUSH32 0xBF0FCD54B591A07A1943CF5EAF6FDD64E31BC7B4C469E9BA81FB00E21FD859F5 SWAP1 PUSH2 0x2066 SWAP1 DUP9 SWAP1 PUSH2 0x414C JUMP JUMPDEST PUSH1 0x40 MLOAD DUP1 SWAP2 SUB SWAP1 LOG4 SWAP6 SWAP5 POP POP POP POP POP JUMP JUMPDEST PUSH0 MLOAD PUSH1 0x20 PUSH2 0x4A3C PUSH0 CODECOPY PUSH0 MLOAD SWAP1 PUSH0 MSTORE PUSH2 0x208E DUP2 PUSH2 0x3714 JUMP JUMPDEST PUSH0 DUP3 GT PUSH2 0x20DD JUMPI PUSH1 0x40 MLOAD PUSH3 0x461BCD PUSH1 0xE5 SHL DUP2 MSTORE PUSH1 0x20 PUSH1 0x4 DUP3 ADD DUP2 SWAP1 MSTORE PUSH1 0x24 DUP3 ADD MSTORE PUSH32 0x5468726573686F6C64206D7573742062652067726561746572207468616E2030 PUSH1 0x44 DUP3 ADD MSTORE PUSH1 0x64 ADD PUSH2 0xD14 JUMP JUMPDEST PUSH1 0xA DUP3 GT ISZERO PUSH2 0x212E JUMPI PUSH1 0x40 MLOAD PUSH3 0x461BCD PUSH1 0xE5 SHL DUP2 MSTORE PUSH1 0x20 PUSH1 0x4 DUP3 ADD MSTORE PUSH1 0x1B PUSH1 0x24 DUP3 ADD MSTORE PUSH32 0x5468726573686F6C6420746F6F206869676820286D6178203130290000000000 PUSH1 0x44 DUP3 ADD MSTORE PUSH1 0x64 ADD PUSH2 0xD14 JUMP JUMPDEST PUSH1 0xE DUP1 SLOAD SWAP1 DUP4 SWAP1 SSTORE PUSH1 0x40 DUP1 MLOAD DUP3 DUP2 MSTORE PUSH1 0x20 DUP2 ADD DUP6 SWAP1 MSTORE CALLER DUP2 DUP4 ADD MSTORE SWAP1 MLOAD PUSH32 0x9A1127D9E62039A535871E1A9A938D02BCB5CE43543C8284B8FF514499EB23E7 SWAP2 DUP2 SWAP1 SUB PUSH1 0x60 ADD SWAP1 LOG1 POP POP POP JUMP JUMPDEST PUSH2 0x11CC CALLER DUP4 DUP4 PUSH2 0x382B JUMP JUMPDEST PUSH1 0x60 PUSH0 PUSH2 0x2191 DUP4 PUSH2 0x2F54 JUMP JUMPDEST SWAP1 POP PUSH0 DUP2 PUSH1 0x1 PUSH1 0x1 PUSH1 0x40 SHL SUB DUP2 GT ISZERO PUSH2 0x21AC JUMPI PUSH2 0x21AC PUSH2 0x415E JUMP JUMPDEST PUSH1 0x40 MLOAD SWAP1 DUP1 DUP3 MSTORE DUP1 PUSH1 0x20 MUL PUSH1 0x20 ADD DUP3 ADD PUSH1 0x40 MSTORE DUP1 ISZERO PUSH2 0x21D5 JUMPI DUP2 PUSH1 0x20 ADD PUSH1 0x20 DUP3 MUL DUP1 CALLDATASIZE DUP4 CALLDATACOPY ADD SWAP1 POP JUMPDEST POP SWAP5 SWAP4 POP POP POP POP JUMP JUMPDEST PUSH1 0x60 PUSH0 DUP1 JUMPDEST PUSH1 0x12 SLOAD DUP2 LT ISZERO PUSH2 0x2472 JUMPI PUSH0 PUSH1 0x12 DUP3 DUP2 SLOAD DUP2 LT PUSH2 0x2201 JUMPI PUSH2 0x2201 PUSH2 0x46E7 JUMP JUMPDEST PUSH0 SWAP2 DUP3 MSTORE PUSH1 0x20 DUP1 DUP4 KECCAK256 SWAP1 SWAP2 ADD SLOAD DUP1 DUP4 MSTORE PUSH1 0xF DUP3 MSTORE PUSH1 0x40 DUP1 DUP5 KECCAK256 DUP2 MLOAD PUSH2 0x140 DUP2 ADD DUP4 MSTORE DUP2 SLOAD DUP2 MSTORE PUSH1 0x1 DUP3 ADD SLOAD PUSH1 0x1 PUSH1 0x1 PUSH1 0xA0 SHL SUB SWAP1 DUP2 AND SWAP6 DUP3 ADD SWAP6 SWAP1 SWAP6 MSTORE PUSH1 0x2 DUP3 ADD SLOAD SWAP1 SWAP5 AND SWAP2 DUP5 ADD SWAP2 SWAP1 SWAP2 MSTORE PUSH1 0x3 DUP2 ADD DUP1 SLOAD SWAP3 SWAP6 POP SWAP1 SWAP2 PUSH1 0x60 DUP5 ADD SWAP2 SWAP1 PUSH2 0x2267 SWAP1 PUSH2 0x46AF JUMP JUMPDEST DUP1 PUSH1 0x1F ADD PUSH1 0x20 DUP1 SWAP2 DIV MUL PUSH1 0x20 ADD PUSH1 0x40 MLOAD SWAP1 DUP2 ADD PUSH1 0x40 MSTORE DUP1 SWAP3 SWAP2 SWAP1 DUP2 DUP2 MSTORE PUSH1 0x20 ADD DUP3 DUP1 SLOAD PUSH2 0x2293 SWAP1 PUSH2 0x46AF JUMP JUMPDEST DUP1 ISZERO PUSH2 0x22DE JUMPI DUP1 PUSH1 0x1F LT PUSH2 0x22B5 JUMPI PUSH2 0x100 DUP1 DUP4 SLOAD DIV MUL DUP4 MSTORE SWAP2 PUSH1 0x20 ADD SWAP2 PUSH2 0x22DE JUMP JUMPDEST DUP3 ADD SWAP2 SWAP1 PUSH0 MSTORE PUSH1 0x20 PUSH0 KECCAK256 SWAP1 JUMPDEST DUP2 SLOAD DUP2 MSTORE SWAP1 PUSH1 0x1 ADD SWAP1 PUSH1 0x20 ADD DUP1 DUP4 GT PUSH2 0x22C1 JUMPI DUP3 SWAP1 SUB PUSH1 0x1F AND DUP3 ADD SWAP2 JUMPDEST POP POP POP POP POP DUP2 MSTORE PUSH1 0x20 ADD PUSH1 0x4 DUP3 ADD DUP1 SLOAD PUSH2 0x22F7 SWAP1 PUSH2 0x46AF JUMP JUMPDEST DUP1 PUSH1 0x1F ADD PUSH1 0x20 DUP1 SWAP2 DIV MUL PUSH1 0x20 ADD PUSH1 0x40 MLOAD SWAP1 DUP2 ADD PUSH1 0x40 MSTORE DUP1 SWAP3 SWAP2 SWAP1 DUP2 DUP2 MSTORE PUSH1 0x20 ADD DUP3 DUP1 SLOAD PUSH2 0x2323 SWAP1 PUSH2 0x46AF JUMP JUMPDEST DUP1 ISZERO PUSH2 0x236E JUMPI DUP1 PUSH1 0x1F LT PUSH2 0x2345 JUMPI PUSH2 0x100 DUP1 DUP4 SLOAD DIV MUL DUP4 MSTORE SWAP2 PUSH1 0x20 ADD SWAP2 PUSH2 0x236E JUMP JUMPDEST DUP3 ADD SWAP2 SWAP1 PUSH0 MSTORE PUSH1 0x20 PUSH0 KECCAK256 SWAP1 JUMPDEST DUP2 SLOAD DUP2 MSTORE SWAP1 PUSH1 0x1 ADD SWAP1 PUSH1 0x20 ADD DUP1 DUP4 GT PUSH2 0x2351 JUMPI DUP3 SWAP1 SUB PUSH1 0x1F AND DUP3 ADD SWAP2 JUMPDEST POP POP POP POP POP DUP2 MSTORE PUSH1 0x20 ADD PUSH1 0x5 DUP3 ADD DUP1 SLOAD PUSH2 0x2387 SWAP1 PUSH2 0x46AF JUMP JUMPDEST DUP1 PUSH1 0x1F ADD PUSH1 0x20 DUP1 SWAP2 DIV MUL PUSH1 0x20 ADD PUSH1 0x40 MLOAD SWAP1 DUP2 ADD PUSH1 0x40 MSTORE DUP1 SWAP3 SWAP2 SWAP1 DUP2 DUP2 MSTORE PUSH1 0x20 ADD DUP3 DUP1 SLOAD PUSH2 0x23B3 SWAP1 PUSH2 0x46AF JUMP JUMPDEST DUP1 ISZERO PUSH2 0x23FE JUMPI DUP1 PUSH1 0x1F LT PUSH2 0x23D5 JUMPI PUSH2 0x100 DUP1 DUP4 SLOAD DIV MUL DUP4 MSTORE SWAP2 PUSH1 0x20 ADD SWAP2 PUSH2 0x23FE JUMP JUMPDEST DUP3 ADD SWAP2 SWAP1 PUSH0 MSTORE PUSH1 0x20 PUSH0 KECCAK256 SWAP1 JUMPDEST DUP2 SLOAD DUP2 MSTORE SWAP1 PUSH1 0x1 ADD SWAP1 PUSH1 0x20 ADD DUP1 DUP4 GT PUSH2 0x23E1 JUMPI DUP3 SWAP1 SUB PUSH1 0x1F AND DUP3 ADD SWAP2 JUMPDEST POP POP POP SWAP2 DUP4 MSTORE POP POP PUSH1 0x6 DUP3 ADD SLOAD PUSH1 0x20 DUP3 ADD MSTORE PUSH1 0x7 DUP3 ADD SLOAD PUSH1 0x40 DUP3 ADD MSTORE PUSH1 0x8 SWAP1 SWAP2 ADD SLOAD PUSH1 0xFF DUP1 DUP3 AND ISZERO ISZERO PUSH1 0x60 DUP5 ADD MSTORE PUSH2 0x100 SWAP2 DUP3 SWAP1 DIV AND ISZERO ISZERO PUSH1 0x80 SWAP1 SWAP3 ADD SWAP2 SWAP1 SWAP2 MSTORE DUP2 ADD MLOAD SWAP1 SWAP2 POP ISZERO DUP1 ISZERO PUSH2 0x2455 JUMPI POP DUP1 PUSH2 0x120 ADD MLOAD ISZERO JUMPDEST ISZERO PUSH2 0x2468 JUMPI DUP4 PUSH2 0x2464 DUP2 PUSH2 0x470F JUMP JUMPDEST SWAP5 POP POP JUMPDEST POP POP PUSH1 0x1 ADD PUSH2 0x21E3 JUMP JUMPDEST POP PUSH0 DUP2 PUSH1 0x1 PUSH1 0x1 PUSH1 0x40 SHL SUB DUP2 GT ISZERO PUSH2 0x248C JUMPI PUSH2 0x248C PUSH2 0x415E JUMP JUMPDEST PUSH1 0x40 MLOAD SWAP1 DUP1 DUP3 MSTORE DUP1 PUSH1 0x20 MUL PUSH1 0x20 ADD DUP3 ADD PUSH1 0x40 MSTORE DUP1 ISZERO PUSH2 0x24B5 JUMPI DUP2 PUSH1 0x20 ADD PUSH1 0x20 DUP3 MUL DUP1 CALLDATASIZE DUP4 CALLDATACOPY ADD SWAP1 POP JUMPDEST POP SWAP1 POP PUSH0 DUP1 JUMPDEST PUSH1 0x12 SLOAD DUP2 LT ISZERO PUSH2 0x2768 JUMPI PUSH0 PUSH1 0x12 DUP3 DUP2 SLOAD DUP2 LT PUSH2 0x24D9 JUMPI PUSH2 0x24D9 PUSH2 0x46E7 JUMP JUMPDEST PUSH0 SWAP2 DUP3 MSTORE PUSH1 0x20 DUP1 DUP4 KECCAK256 SWAP1 SWAP2 ADD SLOAD DUP1 DUP4 MSTORE PUSH1 0xF DUP3 MSTORE PUSH1 0x40 DUP1 DUP5 KECCAK256 DUP2 MLOAD PUSH2 0x140 DUP2 ADD DUP4 MSTORE DUP2 SLOAD DUP2 MSTORE PUSH1 0x1 DUP3 ADD SLOAD PUSH1 0x1 PUSH1 0x1 PUSH1 0xA0 SHL SUB SWAP1 DUP2 AND SWAP6 DUP3 ADD SWAP6 SWAP1 SWAP6 MSTORE PUSH1 0x2 DUP3 ADD SLOAD SWAP1 SWAP5 AND SWAP2 DUP5 ADD SWAP2 SWAP1 SWAP2 MSTORE PUSH1 0x3 DUP2 ADD DUP1 SLOAD SWAP3 SWAP6 POP SWAP1 SWAP2 PUSH1 0x60 DUP5 ADD SWAP2 SWAP1 PUSH2 0x253F SWAP1 PUSH2 0x46AF JUMP JUMPDEST DUP1 PUSH1 0x1F ADD PUSH1 0x20 DUP1 SWAP2 DIV MUL PUSH1 0x20 ADD PUSH1 0x40 MLOAD SWAP1 DUP2 ADD PUSH1 0x40 MSTORE DUP1 SWAP3 SWAP2 SWAP1 DUP2 DUP2 MSTORE PUSH1 0x20 ADD DUP3 DUP1 SLOAD PUSH2 0x256B SWAP1 PUSH2 0x46AF JUMP JUMPDEST DUP1 ISZERO PUSH2 0x25B6 JUMPI DUP1 PUSH1 0x1F LT PUSH2 0x258D JUMPI PUSH2 0x100 DUP1 DUP4 SLOAD DIV MUL DUP4 MSTORE SWAP2 PUSH1 0x20 ADD SWAP2 PUSH2 0x25B6 JUMP JUMPDEST DUP3 ADD SWAP2 SWAP1 PUSH0 MSTORE PUSH1 0x20 PUSH0 KECCAK256 SWAP1 JUMPDEST DUP2 SLOAD DUP2 MSTORE SWAP1 PUSH1 0x1 ADD SWAP1 PUSH1 0x20 ADD DUP1 DUP4 GT PUSH2 0x2599 JUMPI DUP3 SWAP1 SUB PUSH1 0x1F AND DUP3 ADD SWAP2 JUMPDEST POP POP POP POP POP DUP2 MSTORE PUSH1 0x20 ADD PUSH1 0x4 DUP3 ADD DUP1 SLOAD PUSH2 0x25CF SWAP1 PUSH2 0x46AF JUMP JUMPDEST DUP1 PUSH1 0x1F ADD PUSH1 0x20 DUP1 SWAP2 DIV MUL PUSH1 0x20 ADD PUSH1 0x40 MLOAD SWAP1 DUP2 ADD PUSH1 0x40 MSTORE DUP1 SWAP3 SWAP2 SWAP1 DUP2 DUP2 MSTORE PUSH1 0x20 ADD DUP3 DUP1 SLOAD PUSH2 0x25FB SWAP1 PUSH2 0x46AF JUMP JUMPDEST DUP1 ISZERO PUSH2 0x2646 JUMPI DUP1 PUSH1 0x1F LT PUSH2 0x261D JUMPI PUSH2 0x100 DUP1 DUP4 SLOAD DIV MUL DUP4 MSTORE SWAP2 PUSH1 0x20 ADD SWAP2 PUSH2 0x2646 JUMP JUMPDEST DUP3 ADD SWAP2 SWAP1 PUSH0 MSTORE PUSH1 0x20 PUSH0 KECCAK256 SWAP1 JUMPDEST DUP2 SLOAD DUP2 MSTORE SWAP1 PUSH1 0x1 ADD SWAP1 PUSH1 0x20 ADD DUP1 DUP4 GT PUSH2 0x2629 JUMPI DUP3 SWAP1 SUB PUSH1 0x1F AND DUP3 ADD SWAP2 JUMPDEST POP POP POP POP POP DUP2 MSTORE PUSH1 0x20 ADD PUSH1 0x5 DUP3 ADD DUP1 SLOAD PUSH2 0x265F SWAP1 PUSH2 0x46AF JUMP JUMPDEST DUP1 PUSH1 0x1F ADD PUSH1 0x20 DUP1 SWAP2 DIV MUL PUSH1 0x20 ADD PUSH1 0x40 MLOAD SWAP1 DUP2 ADD PUSH1 0x40 MSTORE DUP1 SWAP3 SWAP2 SWAP1 DUP2 DUP2 MSTORE PUSH1 0x20 ADD DUP3 DUP1 SLOAD PUSH2 0x268B SWAP1 PUSH2 0x46AF JUMP JUMPDEST DUP1 ISZERO PUSH2 0x26D6 JUMPI DUP1 PUSH1 0x1F LT PUSH2 0x26AD JUMPI PUSH2 0x100 DUP1 DUP4 SLOAD DIV MUL DUP4 MSTORE SWAP2 PUSH1 0x20 ADD SWAP2 PUSH2 0x26D6 JUMP JUMPDEST DUP3 ADD SWAP2 SWAP1 PUSH0 MSTORE PUSH1 0x20 PUSH0 KECCAK256 SWAP1 JUMPDEST DUP2 SLOAD DUP2 MSTORE SWAP1 PUSH1 0x1 ADD SWAP1 PUSH1 0x20 ADD DUP1 DUP4 GT PUSH2 0x26B9 JUMPI DUP3 SWAP1 SUB PUSH1 0x1F AND DUP3 ADD SWAP2 JUMPDEST POP POP POP SWAP2 DUP4 MSTORE POP POP PUSH1 0x6 DUP3 ADD SLOAD PUSH1 0x20 DUP3 ADD MSTORE PUSH1 0x7 DUP3 ADD SLOAD PUSH1 0x40 DUP3 ADD MSTORE PUSH1 0x8 SWAP1 SWAP2 ADD SLOAD PUSH1 0xFF DUP1 DUP3 AND ISZERO ISZERO PUSH1 0x60 DUP5 ADD MSTORE PUSH2 0x100 SWAP2 DUP3 SWAP1 DIV AND ISZERO ISZERO PUSH1 0x80 SWAP1 SWAP3 ADD SWAP2 SWAP1 SWAP2 MSTORE DUP2 ADD MLOAD SWAP1 SWAP2 POP ISZERO DUP1 ISZERO PUSH2 0x272D JUMPI POP DUP1 PUSH2 0x120 ADD MLOAD ISZERO JUMPDEST ISZERO PUSH2 0x275E JUMPI DUP2 DUP6 DUP6 DUP2 MLOAD DUP2 LT PUSH2 0x2745 JUMPI PUSH2 0x2745 PUSH2 0x46E7 JUMP JUMPDEST PUSH1 0x20 SWAP1 DUP2 MUL SWAP2 SWAP1 SWAP2 ADD ADD MSTORE DUP4 PUSH2 0x275A DUP2 PUSH2 0x470F JUMP JUMPDEST SWAP5 POP POP JUMPDEST POP POP PUSH1 0x1 ADD PUSH2 0x24BB JUMP JUMPDEST POP SWAP1 SWAP4 SWAP3 POP POP POP JUMP JUMPDEST PUSH0 DUP1 DUP1 PUSH1 0x60 DUP2 PUSH2 0x2795 DUP7 PUSH0 SWAP1 DUP2 MSTORE PUSH1 0x2 PUSH1 0x20 MSTORE PUSH1 0x40 SWAP1 KECCAK256 SLOAD PUSH1 0x1 PUSH1 0x1 PUSH1 0xA0 SHL SUB AND SWAP1 JUMP JUMPDEST PUSH1 0x1 PUSH1 0x1 PUSH1 0xA0 SHL SUB AND SUB PUSH2 0x27EB JUMPI PUSH1 0x40 MLOAD PUSH3 0x461BCD PUSH1 0xE5 SHL DUP2 MSTORE PUSH1 0x20 PUSH1 0x4 DUP3 ADD MSTORE PUSH1 0x1A PUSH1 0x24 DUP3 ADD MSTORE PUSH32 0x436572746966696361746520646F6573206E6F74206578697374000000000000 PUSH1 0x44 DUP3 ADD MSTORE PUSH1 0x64 ADD PUSH2 0xD14 JUMP JUMPDEST PUSH0 DUP6 DUP2 MSTORE PUSH1 0xC PUSH1 0x20 SWAP1 DUP2 MSTORE PUSH1 0x40 DUP1 DUP4 KECCAK256 DUP2 MLOAD PUSH1 0x80 DUP2 ADD DUP4 MSTORE DUP2 SLOAD PUSH1 0x1 PUSH1 0x1 PUSH1 0xA0 SHL SUB AND DUP2 MSTORE PUSH1 0x1 DUP3 ADD SLOAD SWAP4 DUP2 ADD SWAP4 SWAP1 SWAP4 MSTORE PUSH1 0x2 DUP2 ADD SLOAD PUSH1 0xFF AND ISZERO ISZERO SWAP2 DUP4 ADD SWAP2 SWAP1 SWAP2 MSTORE PUSH1 0x3 DUP2 ADD DUP1 SLOAD PUSH1 0x60 DUP5 ADD SWAP2 SWAP1 PUSH2 0x2842 SWAP1 PUSH2 0x46AF JUMP JUMPDEST DUP1 PUSH1 0x1F ADD PUSH1 0x20 DUP1 SWAP2 DIV MUL PUSH1 0x20 ADD PUSH1 0x40 MLOAD SWAP1 DUP2 ADD PUSH1 0x40 MSTORE DUP1 SWAP3 SWAP2 SWAP1 DUP2 DUP2 MSTORE PUSH1 0x20 ADD DUP3 DUP1 SLOAD PUSH2 0x286E SWAP1 PUSH2 0x46AF JUMP JUMPDEST DUP1 ISZERO PUSH2 0x28B9 JUMPI DUP1 PUSH1 0x1F LT PUSH2 0x2890 JUMPI PUSH2 0x100 DUP1 DUP4 SLOAD DIV MUL DUP4 MSTORE SWAP2 PUSH1 0x20 ADD SWAP2 PUSH2 0x28B9 JUMP JUMPDEST DUP3 ADD SWAP2 SWAP1 PUSH0 MSTORE PUSH1 0x20 PUSH0 KECCAK256 SWAP1 JUMPDEST DUP2 SLOAD DUP2 MSTORE SWAP1 PUSH1 0x1 ADD SWAP1 PUSH1 0x20 ADD DUP1 DUP4 GT PUSH2 0x289C JUMPI DUP3 SWAP1 SUB PUSH1 0x1F AND DUP3 ADD SWAP2 JUMPDEST POP POP POP POP POP DUP2 MSTORE POP POP SWAP1 POP PUSH2 0x28E2 DUP7 PUSH0 SWAP1 DUP2 MSTORE PUSH1 0x2 PUSH1 0x20 MSTORE PUSH1 0x40 SWAP1 KECCAK256 SLOAD PUSH1 0x1 PUSH1 0x1 PUSH1 0xA0 SHL SUB AND SWAP1 JUMP JUMPDEST DUP2 PUSH1 0x20 ADD MLOAD DUP3 PUSH1 0x40 ADD MLOAD PUSH2 0x28F5 DUP10 PUSH2 0x2E49 JUMP JUMPDEST SWAP5 POP SWAP5 POP SWAP5 POP SWAP5 POP POP SWAP2 SWAP4 POP SWAP2 SWAP4 JUMP JUMPDEST PUSH2 0x290D PUSH2 0x3265 JUMP JUMPDEST PUSH0 DUP2 DUP2 MSTORE PUSH1 0xF PUSH1 0x20 MSTORE PUSH1 0x40 DUP2 KECCAK256 DUP1 SLOAD SWAP1 SWAP2 SUB PUSH2 0x293B JUMPI PUSH1 0x40 MLOAD PUSH3 0x461BCD PUSH1 0xE5 SHL DUP2 MSTORE PUSH1 0x4 ADD PUSH2 0xD14 SWAP1 PUSH2 0x4838 JUMP JUMPDEST PUSH1 0x8 DUP2 ADD SLOAD PUSH1 0xFF AND ISZERO PUSH2 0x2960 JUMPI PUSH1 0x40 MLOAD PUSH3 0x461BCD PUSH1 0xE5 SHL DUP2 MSTORE PUSH1 0x4 ADD PUSH2 0xD14 SWAP1 PUSH2 0x486F JUMP JUMPDEST PUSH1 0x8 DUP2 ADD SLOAD PUSH2 0x100 SWAP1 DIV PUSH1 0xFF AND ISZERO PUSH2 0x298A JUMPI PUSH1 0x40 MLOAD PUSH3 0x461BCD PUSH1 0xE5 SHL DUP2 MSTORE PUSH1 0x4 ADD PUSH2 0xD14 SWAP1 PUSH2 0x48A6 JUMP JUMPDEST PUSH0 DUP3 DUP2 MSTORE PUSH1 0x10 PUSH1 0x20 SWAP1 DUP2 MSTORE PUSH1 0x40 DUP1 DUP4 KECCAK256 CALLER DUP5 MSTORE SWAP1 SWAP2 MSTORE SWAP1 KECCAK256 SLOAD PUSH1 0xFF AND PUSH2 0x29EB JUMPI PUSH1 0x40 MLOAD PUSH3 0x461BCD PUSH1 0xE5 SHL DUP2 MSTORE PUSH1 0x20 PUSH1 0x4 DUP3 ADD MSTORE PUSH1 0x16 PUSH1 0x24 DUP3 ADD MSTORE PUSH22 0x2737BA1030B8383937BB32B210313C9039B2B73232B9 PUSH1 0x51 SHL PUSH1 0x44 DUP3 ADD MSTORE PUSH1 0x64 ADD PUSH2 0xD14 JUMP JUMPDEST PUSH0 DUP3 DUP2 MSTORE PUSH1 0x10 PUSH1 0x20 SWAP1 DUP2 MSTORE PUSH1 0x40 DUP1 DUP4 KECCAK256 CALLER DUP5 MSTORE SWAP1 SWAP2 MSTORE DUP2 KECCAK256 DUP1 SLOAD PUSH1 0xFF NOT AND SWAP1 SSTORE PUSH1 0x6 DUP3 ADD DUP1 SLOAD PUSH1 0x1 SWAP3 SWAP1 PUSH2 0x2A20 SWAP1 DUP5 SWAP1 PUSH2 0x48D5 JUMP JUMPDEST SWAP1 SWAP2 SSTORE POP POP PUSH0 DUP3 DUP2 MSTORE PUSH1 0x11 PUSH1 0x20 MSTORE PUSH1 0x40 DUP2 KECCAK256 SWAP1 JUMPDEST DUP2 SLOAD DUP2 LT ISZERO PUSH2 0x2B27 JUMPI CALLER PUSH1 0x1 PUSH1 0x1 PUSH1 0xA0 SHL SUB AND DUP3 DUP3 DUP2 SLOAD DUP2 LT PUSH2 0x2A59 JUMPI PUSH2 0x2A59 PUSH2 0x46E7 JUMP JUMPDEST PUSH0 SWAP2 DUP3 MSTORE PUSH1 0x20 SWAP1 SWAP2 KECCAK256 ADD SLOAD PUSH1 0x1 PUSH1 0x1 PUSH1 0xA0 SHL SUB AND SUB PUSH2 0x2B1F JUMPI DUP2 SLOAD DUP3 SWAP1 PUSH2 0x2A82 SWAP1 PUSH1 0x1 SWAP1 PUSH2 0x48D5 JUMP JUMPDEST DUP2 SLOAD DUP2 LT PUSH2 0x2A92 JUMPI PUSH2 0x2A92 PUSH2 0x46E7 JUMP JUMPDEST SWAP1 PUSH0 MSTORE PUSH1 0x20 PUSH0 KECCAK256 ADD PUSH0 SWAP1 SLOAD SWAP1 PUSH2 0x100 EXP SWAP1 DIV PUSH1 0x1 PUSH1 0x1 PUSH1 0xA0 SHL SUB AND DUP3 DUP3 DUP2 SLOAD DUP2 LT PUSH2 0x2ABF JUMPI PUSH2 0x2ABF PUSH2 0x46E7 JUMP JUMPDEST SWAP1 PUSH0 MSTORE PUSH1 0x20 PUSH0 KECCAK256 ADD PUSH0 PUSH2 0x100 EXP DUP2 SLOAD DUP2 PUSH1 0x1 PUSH1 0x1 PUSH1 0xA0 SHL SUB MUL NOT AND SWAP1 DUP4 PUSH1 0x1 PUSH1 0x1 PUSH1 0xA0 SHL SUB AND MUL OR SWAP1 SSTORE POP DUP2 DUP1 SLOAD DUP1 PUSH2 0x2AFA JUMPI PUSH2 0x2AFA PUSH2 0x48E8 JUMP JUMPDEST PUSH0 DUP3 DUP2 MSTORE PUSH1 0x20 SWAP1 KECCAK256 DUP2 ADD PUSH0 NOT SWAP1 DUP2 ADD DUP1 SLOAD PUSH1 0x1 PUSH1 0x1 PUSH1 0xA0 SHL SUB NOT AND SWAP1 SSTORE ADD SWAP1 SSTORE PUSH2 0x2B27 JUMP JUMPDEST PUSH1 0x1 ADD PUSH2 0x2A34 JUMP JUMPDEST POP CALLER PUSH1 0x1 PUSH1 0x1 PUSH1 0xA0 SHL SUB AND DUP4 PUSH32 0x3897F90B3A67B47C3C460799AC827C771876A05B3E0A49E3CCC82E3315887785 DUP5 PUSH1 0x6 ADD SLOAD PUSH1 0x40 MLOAD PUSH2 0x2B68 SWAP2 DUP2 MSTORE PUSH1 0x20 ADD SWAP1 JUMP JUMPDEST PUSH1 0x40 MLOAD DUP1 SWAP2 SUB SWAP1 LOG3 POP POP POP JUMP JUMPDEST PUSH2 0x2B80 DUP5 DUP5 DUP5 PUSH2 0x13D3 JUMP JUMPDEST PUSH2 0x1456 CALLER DUP6 DUP6 DUP6 DUP6 PUSH2 0x38C1 JUMP JUMPDEST PUSH0 DUP2 DUP2 MSTORE PUSH1 0xF PUSH1 0x20 SWAP1 DUP2 MSTORE PUSH1 0x40 DUP1 DUP4 KECCAK256 DUP2 MLOAD PUSH2 0x140 DUP2 ADD DUP4 MSTORE DUP2 SLOAD DUP2 MSTORE PUSH1 0x1 DUP3 ADD SLOAD PUSH1 0x1 PUSH1 0x1 PUSH1 0xA0 SHL SUB SWAP1 DUP2 AND SWAP5 DUP3 ADD SWAP5 SWAP1 SWAP5 MSTORE PUSH1 0x2 DUP3 ADD SLOAD SWAP1 SWAP4 AND SWAP2 DUP4 ADD SWAP2 SWAP1 SWAP2 MSTORE PUSH1 0x3 DUP2 ADD DUP1 SLOAD DUP5 SWAP4 DUP5 SWAP4 PUSH1 0x60 SWAP4 DUP5 SWAP4 DUP5 SWAP4 DUP8 SWAP4 DUP5 SWAP4 DUP5 SWAP4 DUP5 SWAP4 DUP5 SWAP4 SWAP1 SWAP3 SWAP1 SWAP2 DUP4 DUP11 ADD SWAP2 SWAP1 PUSH2 0x2BFD SWAP1 PUSH2 0x46AF JUMP JUMPDEST DUP1 PUSH1 0x1F ADD PUSH1 0x20 DUP1 SWAP2 DIV MUL PUSH1 0x20 ADD PUSH1 0x40 MLOAD SWAP1 DUP2 ADD PUSH1 0x40 MSTORE DUP1 SWAP3 SWAP2 SWAP1 DUP2 DUP2 MSTORE PUSH1 0x20 ADD DUP3 DUP1 SLOAD PUSH2 0x2C29 SWAP1 PUSH2 0x46AF JUMP JUMPDEST DUP1 ISZERO PUSH2 0x2C74 JUMPI DUP1 PUSH1 0x1F LT PUSH2 0x2C4B JUMPI PUSH2 0x100 DUP1 DUP4 SLOAD DIV MUL DUP4 MSTORE SWAP2 PUSH1 0x20 ADD SWAP2 PUSH2 0x2C74 JUMP JUMPDEST DUP3 ADD SWAP2 SWAP1 PUSH0 MSTORE PUSH1 0x20 PUSH0 KECCAK256 SWAP1 JUMPDEST DUP2 SLOAD DUP2 MSTORE SWAP1 PUSH1 0x1 ADD SWAP1 PUSH1 0x20 ADD DUP1 DUP4 GT PUSH2 0x2C57 JUMPI DUP3 SWAP1 SUB PUSH1 0x1F AND DUP3 ADD SWAP2 JUMPDEST POP POP POP POP POP DUP2 MSTORE PUSH1 0x20 ADD PUSH1 0x4 DUP3 ADD DUP1 SLOAD PUSH2 0x2C8D SWAP1 PUSH2 0x46AF JUMP JUMPDEST DUP1 PUSH1 0x1F ADD PUSH1 0x20 DUP1 SWAP2 DIV MUL PUSH1 0x20 ADD PUSH1 0x40 MLOAD SWAP1 DUP2 ADD PUSH1 0x40 MSTORE DUP1 SWAP3 SWAP2 SWAP1 DUP2 DUP2 MSTORE PUSH1 0x20 ADD DUP3 DUP1 SLOAD PUSH2 0x2CB9 SWAP1 PUSH2 0x46AF JUMP JUMPDEST DUP1 ISZERO PUSH2 0x2D04 JUMPI DUP1 PUSH1 0x1F LT PUSH2 0x2CDB JUMPI PUSH2 0x100 DUP1 DUP4 SLOAD DIV MUL DUP4 MSTORE SWAP2 PUSH1 0x20 ADD SWAP2 PUSH2 0x2D04 JUMP JUMPDEST DUP3 ADD SWAP2 SWAP1 PUSH0 MSTORE PUSH1 0x20 PUSH0 KECCAK256 SWAP1 JUMPDEST DUP2 SLOAD DUP2 MSTORE SWAP1 PUSH1 0x1 ADD SWAP1 PUSH1 0x20 ADD DUP1 DUP4 GT PUSH2 0x2CE7 JUMPI DUP3 SWAP1 SUB PUSH1 0x1F AND DUP3 ADD SWAP2 JUMPDEST POP POP POP POP POP DUP2 MSTORE PUSH1 0x20 ADD PUSH1 0x5 DUP3 ADD DUP1 SLOAD PUSH2 0x2D1D SWAP1 PUSH2 0x46AF JUMP JUMPDEST DUP1 PUSH1 0x1F ADD PUSH1 0x20 DUP1 SWAP2 DIV MUL PUSH1 0x20 ADD PUSH1 0x40 MLOAD SWAP1 DUP2 ADD PUSH1 0x40 MSTORE DUP1 SWAP3 SWAP2 SWAP1 DUP2 DUP2 MSTORE PUSH1 0x20 ADD DUP3 DUP1 SLOAD PUSH2 0x2D49 SWAP1 PUSH2 0x46AF JUMP JUMPDEST DUP1 ISZERO PUSH2 0x2D94 JUMPI DUP1 PUSH1 0x1F LT PUSH2 0x2D6B JUMPI PUSH2 0x100 DUP1 DUP4 SLOAD DIV MUL DUP4 MSTORE SWAP2 PUSH1 0x20 ADD SWAP2 PUSH2 0x2D94 JUMP JUMPDEST DUP3 ADD SWAP2 SWAP1 PUSH0 MSTORE PUSH1 0x20 PUSH0 KECCAK256 SWAP1 JUMPDEST DUP2 SLOAD DUP2 MSTORE SWAP1 PUSH1 0x1 ADD SWAP1 PUSH1 0x20 ADD DUP1 DUP4 GT PUSH2 0x2D77 JUMPI DUP3 SWAP1 SUB PUSH1 0x1F AND DUP3 ADD SWAP2 JUMPDEST POP POP POP SWAP2 DUP4 MSTORE POP POP PUSH1 0x6 DUP3 ADD SLOAD PUSH1 0x20 DUP3 ADD MSTORE PUSH1 0x7 DUP3 ADD SLOAD PUSH1 0x40 DUP3 ADD MSTORE PUSH1 0x8 SWAP1 SWAP2 ADD SLOAD PUSH1 0xFF DUP1 DUP3 AND ISZERO ISZERO PUSH1 0x60 DUP5 ADD MSTORE PUSH2 0x100 SWAP1 SWAP2 DIV AND ISZERO ISZERO PUSH1 0x80 SWAP1 SWAP2 ADD MSTORE DUP1 MLOAD SWAP1 SWAP2 POP PUSH0 SUB PUSH2 0x2DF4 JUMPI PUSH1 0x40 MLOAD PUSH3 0x461BCD PUSH1 0xE5 SHL DUP2 MSTORE PUSH1 0x4 ADD PUSH2 0xD14 SWAP1 PUSH2 0x4838 JUMP JUMPDEST DUP1 PUSH0 ADD MLOAD DUP2 PUSH1 0x20 ADD MLOAD DUP3 PUSH1 0x40 ADD MLOAD DUP4 PUSH1 0x60 ADD MLOAD DUP5 PUSH1 0x80 ADD MLOAD DUP6 PUSH1 0xA0 ADD MLOAD DUP7 PUSH1 0xC0 ADD MLOAD DUP8 PUSH1 0xE0 ADD MLOAD DUP9 PUSH2 0x100 ADD MLOAD DUP10 PUSH2 0x120 ADD MLOAD SWAP11 POP SWAP11 POP SWAP11 POP SWAP11 POP SWAP11 POP SWAP11 POP SWAP11 POP SWAP11 POP SWAP11 POP SWAP11 POP POP SWAP2 SWAP4 SWAP6 SWAP8 SWAP10 POP SWAP2 SWAP4 SWAP6 SWAP8 SWAP10 JUMP JUMPDEST PUSH1 0x60 PUSH2 0x2E54 DUP3 PUSH2 0x32F1 JUMP JUMPDEST POP PUSH0 DUP3 DUP2 MSTORE PUSH1 0x6 PUSH1 0x20 MSTORE PUSH1 0x40 DUP2 KECCAK256 DUP1 SLOAD PUSH2 0x2E6D SWAP1 PUSH2 0x46AF JUMP JUMPDEST DUP1 PUSH1 0x1F ADD PUSH1 0x20 DUP1 SWAP2 DIV MUL PUSH1 0x20 ADD PUSH1 0x40 MLOAD SWAP1 DUP2 ADD PUSH1 0x40 MSTORE DUP1 SWAP3 SWAP2 SWAP1 DUP2 DUP2 MSTORE PUSH1 0x20 ADD DUP3 DUP1 SLOAD PUSH2 0x2E99 SWAP1 PUSH2 0x46AF JUMP JUMPDEST DUP1 ISZERO PUSH2 0x2EE4 JUMPI DUP1 PUSH1 0x1F LT PUSH2 0x2EBB JUMPI PUSH2 0x100 DUP1 DUP4 SLOAD DIV MUL DUP4 MSTORE SWAP2 PUSH1 0x20 ADD SWAP2 PUSH2 0x2EE4 JUMP JUMPDEST DUP3 ADD SWAP2 SWAP1 PUSH0 MSTORE PUSH1 0x20 PUSH0 KECCAK256 SWAP1 JUMPDEST DUP2 SLOAD DUP2 MSTORE SWAP1 PUSH1 0x1 ADD SWAP1 PUSH1 0x20 ADD DUP1 DUP4 GT PUSH2 0x2EC7 JUMPI DUP3 SWAP1 SUB PUSH1 0x1F AND DUP3 ADD SWAP2 JUMPDEST POP POP POP POP POP SWAP1 POP PUSH0 PUSH2 0x2F00 PUSH1 0x40 DUP1 MLOAD PUSH1 0x20 DUP2 ADD SWAP1 SWAP2 MSTORE PUSH0 DUP2 MSTORE SWAP1 JUMP JUMPDEST SWAP1 POP DUP1 MLOAD PUSH0 SUB PUSH2 0x2F11 JUMPI POP SWAP3 SWAP2 POP POP JUMP JUMPDEST DUP2 MLOAD ISZERO PUSH2 0x2F43 JUMPI DUP1 DUP3 PUSH1 0x40 MLOAD PUSH1 0x20 ADD PUSH2 0x2F2B SWAP3 SWAP2 SWAP1 PUSH2 0x4913 JUMP JUMPDEST PUSH1 0x40 MLOAD PUSH1 0x20 DUP2 DUP4 SUB SUB DUP2 MSTORE SWAP1 PUSH1 0x40 MSTORE SWAP3 POP POP POP SWAP2 SWAP1 POP JUMP JUMPDEST PUSH2 0x2F4C DUP5 PUSH2 0x39E9 JUMP JUMPDEST SWAP5 SWAP4 POP POP POP POP JUMP JUMPDEST PUSH0 PUSH2 0x2F5F DUP3 CALLER PUSH2 0x1A06 JUMP JUMPDEST ISZERO PUSH2 0x2F6C JUMPI POP PUSH1 0x1 SWAP2 SWAP1 POP JUMP JUMPDEST POP PUSH0 SWAP2 SWAP1 POP JUMP JUMPDEST PUSH2 0x2F8A PUSH0 MLOAD PUSH1 0x20 PUSH2 0x4A3C PUSH0 CODECOPY PUSH0 MLOAD SWAP1 PUSH0 MSTORE CALLER PUSH2 0x1A06 JUMP JUMPDEST ISZERO PUSH2 0x3045 JUMPI PUSH0 MLOAD PUSH1 0x20 PUSH2 0x4A5C PUSH0 CODECOPY PUSH0 MLOAD SWAP1 PUSH0 MSTORE DUP3 EQ DUP1 PUSH2 0x2FB6 JUMPI POP PUSH0 MLOAD PUSH1 0x20 PUSH2 0x4A1C PUSH0 CODECOPY PUSH0 MLOAD SWAP1 PUSH0 MSTORE DUP3 EQ JUMPDEST DUP1 PUSH2 0x2FCD JUMPI POP PUSH0 MLOAD PUSH1 0x20 PUSH2 0x49FC PUSH0 CODECOPY PUSH0 MLOAD SWAP1 PUSH0 MSTORE DUP3 EQ JUMPDEST DUP1 PUSH2 0x2FE4 JUMPI POP PUSH0 MLOAD PUSH1 0x20 PUSH2 0x4A7C PUSH0 CODECOPY PUSH0 MLOAD SWAP1 PUSH0 MSTORE DUP3 EQ JUMPDEST PUSH2 0x160D JUMPI PUSH1 0x40 MLOAD PUSH3 0x461BCD PUSH1 0xE5 SHL DUP2 MSTORE PUSH1 0x20 PUSH1 0x4 DUP3 ADD MSTORE PUSH1 0x2C PUSH1 0x24 DUP3 ADD MSTORE PUSH32 0x53555045525F41444D494E2063616E6E6F74207265766F6B652044454641554C PUSH1 0x44 DUP3 ADD MSTORE PUSH12 0x545F41444D494E5F524F4C45 PUSH1 0xA0 SHL PUSH1 0x64 DUP3 ADD MSTORE PUSH1 0x84 ADD PUSH2 0xD14 JUMP JUMPDEST PUSH2 0x11CC DUP3 DUP3 PUSH2 0x3A5A JUMP JUMPDEST PUSH0 MLOAD PUSH1 0x20 PUSH2 0x4A3C PUSH0 CODECOPY PUSH0 MLOAD SWAP1 PUSH0 MSTORE PUSH2 0x3066 DUP2 PUSH2 0x3714 JUMP JUMPDEST PUSH0 DUP3 DUP2 MSTORE PUSH1 0xF PUSH1 0x20 MSTORE PUSH1 0x40 DUP2 KECCAK256 DUP1 SLOAD SWAP1 SWAP2 SUB PUSH2 0x3094 JUMPI PUSH1 0x40 MLOAD PUSH3 0x461BCD PUSH1 0xE5 SHL DUP2 MSTORE PUSH1 0x4 ADD PUSH2 0xD14 SWAP1 PUSH2 0x4838 JUMP JUMPDEST PUSH1 0x8 DUP2 ADD SLOAD PUSH1 0xFF AND ISZERO PUSH2 0x30E9 JUMPI PUSH1 0x40 MLOAD PUSH3 0x461BCD PUSH1 0xE5 SHL DUP2 MSTORE PUSH1 0x20 PUSH1 0x4 DUP3 ADD MSTORE PUSH1 0x1F PUSH1 0x24 DUP3 ADD MSTORE PUSH32 0x43616E6E6F742063616E63656C2065786563757465642070726F706F73616C00 PUSH1 0x44 DUP3 ADD MSTORE PUSH1 0x64 ADD PUSH2 0xD14 JUMP JUMPDEST PUSH1 0x8 DUP2 ADD SLOAD PUSH2 0x100 SWAP1 DIV PUSH1 0xFF AND ISZERO PUSH2 0x3143 JUMPI PUSH1 0x40 MLOAD PUSH3 0x461BCD PUSH1 0xE5 SHL DUP2 MSTORE PUSH1 0x20 PUSH1 0x4 DUP3 ADD MSTORE PUSH1 0x1A PUSH1 0x24 DUP3 ADD MSTORE PUSH32 0x50726F706F73616C20616C72656164792063616E63656C6C6564000000000000 PUSH1 0x44 DUP3 ADD MSTORE PUSH1 0x64 ADD PUSH2 0xD14 JUMP JUMPDEST PUSH1 0x8 DUP2 ADD DUP1 SLOAD PUSH2 0xFF00 NOT AND PUSH2 0x100 OR SWAP1 SSTORE PUSH1 0x40 MLOAD CALLER SWAP1 DUP5 SWAP1 PUSH32 0x74C34A008CE735D9FCF0BD03A9B238D212AD4C441C020661F4FFBB6442645B85 SWAP1 PUSH0 SWAP1 LOG3 POP POP POP JUMP JUMPDEST PUSH1 0x1 PUSH1 0x1 PUSH1 0xA0 SHL SUB SWAP2 DUP3 AND PUSH0 SWAP1 DUP2 MSTORE PUSH1 0x5 PUSH1 0x20 SWAP1 DUP2 MSTORE PUSH1 0x40 DUP1 DUP4 KECCAK256 SWAP4 SWAP1 SWAP5 AND DUP3 MSTORE SWAP2 SWAP1 SWAP2 MSTORE KECCAK256 SLOAD PUSH1 0xFF AND SWAP1 JUMP JUMPDEST PUSH1 0x60 PUSH1 0x12 DUP1 SLOAD DUP1 PUSH1 0x20 MUL PUSH1 0x20 ADD PUSH1 0x40 MLOAD SWAP1 DUP2 ADD PUSH1 0x40 MSTORE DUP1 SWAP3 SWAP2 SWAP1 DUP2 DUP2 MSTORE PUSH1 0x20 ADD DUP3 DUP1 SLOAD DUP1 ISZERO PUSH2 0xEC2 JUMPI PUSH1 0x20 MUL DUP3 ADD SWAP2 SWAP1 PUSH0 MSTORE PUSH1 0x20 PUSH0 KECCAK256 SWAP1 JUMPDEST DUP2 SLOAD DUP2 MSTORE PUSH1 0x20 ADD SWAP1 PUSH1 0x1 ADD SWAP1 DUP1 DUP4 GT PUSH2 0x31EA JUMPI POP POP POP POP POP SWAP1 POP SWAP1 JUMP JUMPDEST PUSH2 0x320F PUSH2 0x3770 JUMP JUMPDEST PUSH1 0x1 PUSH1 0x1 PUSH1 0xA0 SHL SUB DUP2 AND PUSH2 0x3238 JUMPI PUSH1 0x40 MLOAD PUSH4 0x1E4FBDF7 PUSH1 0xE0 SHL DUP2 MSTORE PUSH0 PUSH1 0x4 DUP3 ADD MSTORE PUSH1 0x24 ADD PUSH2 0xD14 JUMP JUMPDEST PUSH2 0x1636 DUP2 PUSH2 0x379D JUMP JUMPDEST PUSH0 PUSH1 0x1 PUSH1 0x1 PUSH1 0xE0 SHL SUB NOT DUP3 AND PUSH4 0x7965DB0B PUSH1 0xE0 SHL EQ DUP1 PUSH2 0xA94 JUMPI POP PUSH2 0xA94 DUP3 PUSH2 0x3A7E JUMP JUMPDEST PUSH1 0x9 SLOAD PUSH1 0xFF AND ISZERO PUSH2 0x17B1 JUMPI PUSH1 0x40 MLOAD PUSH4 0xD93C0665 PUSH1 0xE0 SHL DUP2 MSTORE PUSH1 0x4 ADD PUSH1 0x40 MLOAD DUP1 SWAP2 SUB SWAP1 REVERT JUMPDEST PUSH2 0x11CC DUP3 DUP3 PUSH1 0x40 MLOAD DUP1 PUSH1 0x20 ADD PUSH1 0x40 MSTORE DUP1 PUSH0 DUP2 MSTORE POP PUSH2 0x3AA2 JUMP JUMPDEST PUSH0 DUP3 DUP2 MSTORE PUSH1 0x6 PUSH1 0x20 MSTORE PUSH1 0x40 SWAP1 KECCAK256 PUSH2 0x32B9 DUP3 DUP3 PUSH2 0x477E JUMP JUMPDEST POP PUSH1 0x40 MLOAD DUP3 DUP2 MSTORE PUSH32 0xF8E1A15ABA9398E019F0B49DF1A4FDE98EE17AE345CB5F6B5E2C27F5033E8CE7 SWAP1 PUSH1 0x20 ADD PUSH1 0x40 MLOAD DUP1 SWAP2 SUB SWAP1 LOG1 POP POP JUMP JUMPDEST PUSH0 DUP2 DUP2 MSTORE PUSH1 0x2 PUSH1 0x20 MSTORE PUSH1 0x40 DUP2 KECCAK256 SLOAD PUSH1 0x1 PUSH1 0x1 PUSH1 0xA0 SHL SUB AND DUP1 PUSH2 0xA94 JUMPI PUSH1 0x40 MLOAD PUSH4 0x7E273289 PUSH1 0xE0 SHL DUP2 MSTORE PUSH1 0x4 DUP2 ADD DUP5 SWAP1 MSTORE PUSH1 0x24 ADD PUSH2 0xD14 JUMP JUMPDEST PUSH2 0x15D5 DUP4 DUP4 DUP4 PUSH1 0x1 PUSH2 0x3AB9 JUMP JUMPDEST PUSH0 DUP2 DUP2 MSTORE PUSH1 0xF PUSH1 0x20 MSTORE PUSH1 0x40 DUP2 KECCAK256 PUSH1 0x8 DUP2 ADD DUP1 SLOAD PUSH1 0xFF NOT AND PUSH1 0x1 SWAP1 DUP2 OR SWAP1 SWAP2 SSTORE PUSH1 0xA DUP1 SLOAD SWAP3 SWAP4 SWAP2 SWAP3 SWAP1 SWAP2 SWAP1 PUSH2 0x336B SWAP1 DUP5 SWAP1 PUSH2 0x4727 JUMP JUMPDEST SWAP1 SWAP2 SSTORE POP POP PUSH1 0xA SLOAD PUSH1 0x2 DUP3 ADD SLOAD PUSH2 0x338B SWAP1 PUSH1 0x1 PUSH1 0x1 PUSH1 0xA0 SHL SUB AND DUP3 PUSH2 0x3289 JUMP JUMPDEST PUSH2 0x341F DUP2 DUP4 PUSH1 0x5 ADD DUP1 SLOAD PUSH2 0x339E SWAP1 PUSH2 0x46AF JUMP JUMPDEST DUP1 PUSH1 0x1F ADD PUSH1 0x20 DUP1 SWAP2 DIV MUL PUSH1 0x20 ADD PUSH1 0x40 MLOAD SWAP1 DUP2 ADD PUSH1 0x40 MSTORE DUP1 SWAP3 SWAP2 SWAP1 DUP2 DUP2 MSTORE PUSH1 0x20 ADD DUP3 DUP1 SLOAD PUSH2 0x33CA SWAP1 PUSH2 0x46AF JUMP JUMPDEST DUP1 ISZERO PUSH2 0x3415 JUMPI DUP1 PUSH1 0x1F LT PUSH2 0x33EC JUMPI PUSH2 0x100 DUP1 DUP4 SLOAD DIV MUL DUP4 MSTORE SWAP2 PUSH1 0x20 ADD SWAP2 PUSH2 0x3415 JUMP JUMPDEST DUP3 ADD SWAP2 SWAP1 PUSH0 MSTORE PUSH1 0x20 PUSH0 KECCAK256 SWAP1 JUMPDEST DUP2 SLOAD DUP2 MSTORE SWAP1 PUSH1 0x1 ADD SWAP1 PUSH1 0x20 ADD DUP1 DUP4 GT PUSH2 0x33F8 JUMPI DUP3 SWAP1 SUB PUSH1 0x1F AND DUP3 ADD SWAP2 JUMPDEST POP POP POP POP POP PUSH2 0x32A2 JUMP JUMPDEST PUSH1 0x40 DUP1 MLOAD PUSH1 0x80 DUP2 ADD DUP3 MSTORE PUSH1 0x2 DUP5 DUP2 ADD SLOAD PUSH1 0x1 PUSH1 0x1 PUSH1 0xA0 SHL SUB SWAP1 DUP2 AND DUP4 MSTORE TIMESTAMP PUSH1 0x20 DUP1 DUP6 ADD SWAP2 DUP3 MSTORE PUSH0 DUP6 DUP8 ADD DUP2 DUP2 MSTORE DUP8 MLOAD DUP1 DUP10 ADD DUP10 MSTORE PUSH1 0x12 DUP2 MSTORE PUSH18 0x135D5B1D1A4B54DA59C8105C1C1C9BDD9959 PUSH1 0x72 SHL DUP2 DUP6 ADD MSTORE PUSH1 0x60 DUP9 ADD SWAP1 DUP2 MSTORE DUP10 DUP4 MSTORE PUSH1 0xC SWAP1 SWAP4 MSTORE SWAP7 SWAP1 KECCAK256 DUP6 MLOAD DUP2 SLOAD PUSH1 0x1 PUSH1 0x1 PUSH1 0xA0 SHL SUB NOT AND SWAP5 AND SWAP4 SWAP1 SWAP4 OR DUP4 SSTORE SWAP1 MLOAD PUSH1 0x1 DUP4 ADD SSTORE SWAP4 MLOAD SWAP2 DUP2 ADD DUP1 SLOAD PUSH1 0xFF NOT AND SWAP3 ISZERO ISZERO SWAP3 SWAP1 SWAP3 OR SWAP1 SWAP2 SSTORE SWAP2 MLOAD SWAP1 SWAP2 SWAP1 PUSH1 0x3 DUP3 ADD SWAP1 PUSH2 0x34C9 SWAP1 DUP3 PUSH2 0x477E JUMP JUMPDEST POP POP POP PUSH1 0x2 DUP3 ADD SLOAD PUSH1 0x40 MLOAD PUSH1 0x1 PUSH1 0x1 PUSH1 0xA0 SHL SUB SWAP1 SWAP2 AND SWAP1 DUP3 SWAP1 DUP6 SWAP1 PUSH32 0xE285E47F4804F679760AA4E907DA874045AF16436D55DF64B64FFD9CA2539DFA SWAP1 PUSH0 SWAP1 LOG4 PUSH1 0x2 DUP3 ADD SLOAD PUSH1 0x40 MLOAD PUSH1 0x1 PUSH1 0x1 PUSH1 0xA0 SHL SUB SWAP1 SWAP2 AND SWAP1 DUP3 SWAP1 PUSH32 0x8F25BA6A82901A4FD6415EF13A61A268CA433A2B06840284ED6CEE98D0237D9E SWAP1 PUSH2 0x2B68 SWAP1 PUSH1 0x5 DUP8 ADD SWAP1 PUSH2 0x4927 JUMP JUMPDEST PUSH0 DUP3 DUP2 MSTORE PUSH1 0x2 PUSH1 0x20 MSTORE PUSH1 0x40 DUP2 KECCAK256 SLOAD PUSH1 0x1 PUSH1 0x1 PUSH1 0xA0 SHL SUB AND DUP1 ISZERO DUP1 ISZERO SWAP1 PUSH2 0x357D JUMPI POP PUSH1 0x1 PUSH1 0x1 PUSH1 0xA0 SHL SUB DUP6 AND ISZERO ISZERO JUMPDEST ISZERO PUSH2 0x35E0 JUMPI PUSH1 0x40 MLOAD PUSH3 0x461BCD PUSH1 0xE5 SHL DUP2 MSTORE PUSH1 0x20 PUSH1 0x4 DUP3 ADD MSTORE PUSH1 0x2D PUSH1 0x24 DUP3 ADD MSTORE PUSH32 0x436572746966696361746520697320736F756C626F756E6420616E64206E6F6E PUSH1 0x44 DUP3 ADD MSTORE PUSH13 0x2D7472616E7366657261626C65 PUSH1 0x98 SHL PUSH1 0x64 DUP3 ADD MSTORE PUSH1 0x84 ADD PUSH2 0xD14 JUMP JUMPDEST PUSH2 0x35EB DUP6 DUP6 DUP6 PUSH2 0x3BBD JUMP JUMPDEST SWAP6 SWAP5 POP POP POP POP POP JUMP JUMPDEST PUSH0 PUSH2 0x35FF DUP4 DUP4 PUSH2 0x1A06 JUMP JUMPDEST PUSH2 0x367E JUMPI PUSH0 DUP4 DUP2 MSTORE PUSH1 0x8 PUSH1 0x20 SWAP1 DUP2 MSTORE PUSH1 0x40 DUP1 DUP4 KECCAK256 PUSH1 0x1 PUSH1 0x1 PUSH1 0xA0 SHL SUB DUP7 AND DUP5 MSTORE SWAP1 SWAP2 MSTORE SWAP1 KECCAK256 DUP1 SLOAD PUSH1 0xFF NOT AND PUSH1 0x1 OR SWAP1 SSTORE PUSH2 0x3636 CALLER SWAP1 JUMP JUMPDEST PUSH1 0x1 PUSH1 0x1 PUSH1 0xA0 SHL SUB AND DUP3 PUSH1 0x1 PUSH1 0x1 PUSH1 0xA0 SHL SUB AND DUP5 PUSH32 0x2F8788117E7EFF1D82E926EC794901D17C78024A50270940304540A733656F0D PUSH1 0x40 MLOAD PUSH1 0x40 MLOAD DUP1 SWAP2 SUB SWAP1 LOG4 POP PUSH1 0x1 PUSH2 0xA94 JUMP JUMPDEST POP PUSH0 PUSH2 0xA94 JUMP JUMPDEST PUSH0 DUP3 DUP2 MSTORE PUSH1 0x8 PUSH1 0x20 MSTORE PUSH1 0x40 SWAP1 KECCAK256 PUSH1 0x1 ADD SLOAD PUSH2 0x369F DUP2 PUSH2 0x3714 JUMP JUMPDEST PUSH2 0x1456 DUP4 DUP4 PUSH2 0x35F4 JUMP JUMPDEST PUSH0 PUSH2 0x36B4 DUP4 DUP4 PUSH2 0x1A06 JUMP JUMPDEST ISZERO PUSH2 0x367E JUMPI PUSH0 DUP4 DUP2 MSTORE PUSH1 0x8 PUSH1 0x20 SWAP1 DUP2 MSTORE PUSH1 0x40 DUP1 DUP4 KECCAK256 PUSH1 0x1 PUSH1 0x1 PUSH1 0xA0 SHL SUB DUP7 AND DUP1 DUP6 MSTORE SWAP3 MSTORE DUP1 DUP4 KECCAK256 DUP1 SLOAD PUSH1 0xFF NOT AND SWAP1 SSTORE MLOAD CALLER SWAP3 DUP7 SWAP2 PUSH32 0xF6391F5C32D9C69D2A47EA670B442974B53935D1EDC7FD64EB21E047A839171B SWAP2 SWAP1 LOG4 POP PUSH1 0x1 PUSH2 0xA94 JUMP JUMPDEST PUSH2 0x1636 DUP2 CALLER PUSH2 0x3CAF JUMP JUMPDEST PUSH2 0x3726 PUSH2 0x3CE8 JUMP JUMPDEST PUSH1 0x9 DUP1 SLOAD PUSH1 0xFF NOT AND SWAP1 SSTORE PUSH32 0x5DB9EE0A495BF2E6FF9C91A7834C1BA4FDD244A5E8AA4E537BD38AEAE4B073AA CALLER JUMPDEST PUSH1 0x40 MLOAD PUSH1 0x1 PUSH1 0x1 PUSH1 0xA0 SHL SUB SWAP1 SWAP2 AND DUP2 MSTORE PUSH1 0x20 ADD PUSH1 0x40 MLOAD DUP1 SWAP2 SUB SWAP1 LOG1 JUMP JUMPDEST PUSH1 0x7 SLOAD PUSH1 0x1 PUSH1 0x1 PUSH1 0xA0 SHL SUB AND CALLER EQ PUSH2 0x17B1 JUMPI PUSH1 0x40 MLOAD PUSH4 0x118CDAA7 PUSH1 0xE0 SHL DUP2 MSTORE CALLER PUSH1 0x4 DUP3 ADD MSTORE PUSH1 0x24 ADD PUSH2 0xD14 JUMP JUMPDEST PUSH1 0x7 DUP1 SLOAD PUSH1 0x1 PUSH1 0x1 PUSH1 0xA0 SHL SUB DUP4 DUP2 AND PUSH1 0x1 PUSH1 0x1 PUSH1 0xA0 SHL SUB NOT DUP4 AND DUP2 OR SWAP1 SWAP4 SSTORE PUSH1 0x40 MLOAD SWAP2 AND SWAP2 SWAP1 DUP3 SWAP1 PUSH32 0x8BE0079C531659141344CD1FD0A4F28419497F9722A3DAAFE3B4186F6B6457E0 SWAP1 PUSH0 SWAP1 LOG3 POP POP JUMP JUMPDEST PUSH2 0x37F6 PUSH2 0x3265 JUMP JUMPDEST PUSH1 0x9 DUP1 SLOAD PUSH1 0xFF NOT AND PUSH1 0x1 OR SWAP1 SSTORE PUSH32 0x62E78CEA01BEE320CD4E420270B5EA74000D11B0C9F74754EBDBFC544B05A258 PUSH2 0x3753 CALLER SWAP1 JUMP JUMPDEST PUSH1 0x1 PUSH1 0x1 PUSH1 0xA0 SHL SUB DUP3 AND PUSH2 0x385D JUMPI PUSH1 0x40 MLOAD PUSH4 0xB611743 PUSH1 0xE3 SHL DUP2 MSTORE PUSH1 0x1 PUSH1 0x1 PUSH1 0xA0 SHL SUB DUP4 AND PUSH1 0x4 DUP3 ADD MSTORE PUSH1 0x24 ADD PUSH2 0xD14 JUMP JUMPDEST PUSH1 0x1 PUSH1 0x1 PUSH1 0xA0 SHL SUB DUP4 DUP2 AND PUSH0 DUP2 DUP2 MSTORE PUSH1 0x5 PUSH1 0x20 SWAP1 DUP2 MSTORE PUSH1 0x40 DUP1 DUP4 KECCAK256 SWAP5 DUP8 AND DUP1 DUP5 MSTORE SWAP5 DUP3 MSTORE SWAP2 DUP3 SWAP1 KECCAK256 DUP1 SLOAD PUSH1 0xFF NOT AND DUP7 ISZERO ISZERO SWAP1 DUP2 OR SWAP1 SWAP2 SSTORE SWAP2 MLOAD SWAP2 DUP3 MSTORE PUSH32 0x17307EAB39AB6107E8899845AD3D59BD9653F200F220920489CA2B5937696C31 SWAP2 ADD PUSH2 0x2B68 JUMP JUMPDEST PUSH1 0x1 PUSH1 0x1 PUSH1 0xA0 SHL SUB DUP4 AND EXTCODESIZE ISZERO PUSH2 0x39E2 JUMPI PUSH1 0x40 MLOAD PUSH4 0xA85BD01 PUSH1 0xE1 SHL DUP2 MSTORE PUSH1 0x1 PUSH1 0x1 PUSH1 0xA0 SHL SUB DUP5 AND SWAP1 PUSH4 0x150B7A02 SWAP1 PUSH2 0x3903 SWAP1 DUP9 SWAP1 DUP9 SWAP1 DUP8 SWAP1 DUP8 SWAP1 PUSH1 0x4 ADD PUSH2 0x49AE JUMP JUMPDEST PUSH1 0x20 PUSH1 0x40 MLOAD DUP1 DUP4 SUB DUP2 PUSH0 DUP8 GAS CALL SWAP3 POP POP POP DUP1 ISZERO PUSH2 0x393D JUMPI POP PUSH1 0x40 DUP1 MLOAD PUSH1 0x1F RETURNDATASIZE SWAP1 DUP2 ADD PUSH1 0x1F NOT AND DUP3 ADD SWAP1 SWAP3 MSTORE PUSH2 0x393A SWAP2 DUP2 ADD SWAP1 PUSH2 0x49E0 JUMP JUMPDEST PUSH1 0x1 JUMPDEST PUSH2 0x39A4 JUMPI RETURNDATASIZE DUP1 DUP1 ISZERO PUSH2 0x396A JUMPI PUSH1 0x40 MLOAD SWAP2 POP PUSH1 0x1F NOT PUSH1 0x3F RETURNDATASIZE ADD AND DUP3 ADD PUSH1 0x40 MSTORE RETURNDATASIZE DUP3 MSTORE RETURNDATASIZE PUSH0 PUSH1 0x20 DUP5 ADD RETURNDATACOPY PUSH2 0x396F JUMP JUMPDEST PUSH1 0x60 SWAP2 POP JUMPDEST POP DUP1 MLOAD PUSH0 SUB PUSH2 0x399C JUMPI PUSH1 0x40 MLOAD PUSH4 0x32505749 PUSH1 0xE1 SHL DUP2 MSTORE PUSH1 0x1 PUSH1 0x1 PUSH1 0xA0 SHL SUB DUP6 AND PUSH1 0x4 DUP3 ADD MSTORE PUSH1 0x24 ADD PUSH2 0xD14 JUMP JUMPDEST DUP1 MLOAD PUSH1 0x20 DUP3 ADD REVERT JUMPDEST PUSH1 0x1 PUSH1 0x1 PUSH1 0xE0 SHL SUB NOT DUP2 AND PUSH4 0xA85BD01 PUSH1 0xE1 SHL EQ PUSH2 0x39E0 JUMPI PUSH1 0x40 MLOAD PUSH4 0x32505749 PUSH1 0xE1 SHL DUP2 MSTORE PUSH1 0x1 PUSH1 0x1 PUSH1 0xA0 SHL SUB DUP6 AND PUSH1 0x4 DUP3 ADD MSTORE PUSH1 0x24 ADD PUSH2 0xD14 JUMP JUMPDEST POP JUMPDEST POP POP POP POP POP JUMP JUMPDEST PUSH1 0x60 PUSH2 0x39F4 DUP3 PUSH2 0x32F1 JUMP JUMPDEST POP PUSH0 PUSH2 0x3A0A PUSH1 0x40 DUP1 MLOAD PUSH1 0x20 DUP2 ADD SWAP1 SWAP2 MSTORE PUSH0 DUP2 MSTORE SWAP1 JUMP JUMPDEST SWAP1 POP PUSH0 DUP2 MLOAD GT PUSH2 0x3A28 JUMPI PUSH1 0x40 MLOAD DUP1 PUSH1 0x20 ADD PUSH1 0x40 MSTORE DUP1 PUSH0 DUP2 MSTORE POP PUSH2 0x3A53 JUMP JUMPDEST DUP1 PUSH2 0x3A32 DUP5 PUSH2 0x3D0B JUMP JUMPDEST PUSH1 0x40 MLOAD PUSH1 0x20 ADD PUSH2 0x3A43 SWAP3 SWAP2 SWAP1 PUSH2 0x4913 JUMP JUMPDEST PUSH1 0x40 MLOAD PUSH1 0x20 DUP2 DUP4 SUB SUB DUP2 MSTORE SWAP1 PUSH1 0x40 MSTORE JUMPDEST SWAP4 SWAP3 POP POP POP JUMP JUMPDEST PUSH0 DUP3 DUP2 MSTORE PUSH1 0x8 PUSH1 0x20 MSTORE PUSH1 0x40 SWAP1 KECCAK256 PUSH1 0x1 ADD SLOAD PUSH2 0x3A74 DUP2 PUSH2 0x3714 JUMP JUMPDEST PUSH2 0x1456 DUP4 DUP4 PUSH2 0x36A9 JUMP JUMPDEST PUSH0 PUSH1 0x1 PUSH1 0x1 PUSH1 0xE0 SHL SUB NOT DUP3 AND PUSH4 0x24832483 PUSH1 0xE1 SHL EQ DUP1 PUSH2 0xA94 JUMPI POP PUSH2 0xA94 DUP3 PUSH2 0x3D9A JUMP JUMPDEST PUSH2 0x3AAC DUP4 DUP4 PUSH2 0x3DE9 JUMP JUMPDEST PUSH2 0x15D5 CALLER PUSH0 DUP6 DUP6 DUP6 PUSH2 0x38C1 JUMP JUMPDEST DUP1 DUP1 PUSH2 0x3ACD JUMPI POP PUSH1 0x1 PUSH1 0x1 PUSH1 0xA0 SHL SUB DUP3 AND ISZERO ISZERO JUMPDEST ISZERO PUSH2 0x3B8E JUMPI PUSH0 PUSH2 0x3ADC DUP5 PUSH2 0x32F1 JUMP JUMPDEST SWAP1 POP PUSH1 0x1 PUSH1 0x1 PUSH1 0xA0 SHL SUB DUP4 AND ISZERO DUP1 ISZERO SWAP1 PUSH2 0x3B08 JUMPI POP DUP3 PUSH1 0x1 PUSH1 0x1 PUSH1 0xA0 SHL SUB AND DUP2 PUSH1 0x1 PUSH1 0x1 PUSH1 0xA0 SHL SUB AND EQ ISZERO JUMPDEST DUP1 ISZERO PUSH2 0x3B1B JUMPI POP PUSH2 0x3B19 DUP2 DUP5 PUSH2 0x3185 JUMP JUMPDEST ISZERO JUMPDEST ISZERO PUSH2 0x3B44 JUMPI PUSH1 0x40 MLOAD PUSH4 0xA9FBF51F PUSH1 0xE0 SHL DUP2 MSTORE PUSH1 0x1 PUSH1 0x1 PUSH1 0xA0 SHL SUB DUP5 AND PUSH1 0x4 DUP3 ADD MSTORE PUSH1 0x24 ADD PUSH2 0xD14 JUMP JUMPDEST DUP2 ISZERO PUSH2 0x3B8C JUMPI DUP4 DUP6 PUSH1 0x1 PUSH1 0x1 PUSH1 0xA0 SHL SUB AND DUP3 PUSH1 0x1 PUSH1 0x1 PUSH1 0xA0 SHL SUB AND PUSH32 0x8C5BE1E5EBEC7D5BD14F71427D1E84F3DD0314C0F7B2291E5B200AC8C7C3B925 PUSH1 0x40 MLOAD PUSH1 0x40 MLOAD DUP1 SWAP2 SUB SWAP1 LOG4 JUMPDEST POP JUMPDEST POP POP PUSH0 SWAP1 DUP2 MSTORE PUSH1 0x4 PUSH1 0x20 MSTORE PUSH1 0x40 SWAP1 KECCAK256 DUP1 SLOAD PUSH1 0x1 PUSH1 0x1 PUSH1 0xA0 SHL SUB NOT AND PUSH1 0x1 PUSH1 0x1 PUSH1 0xA0 SHL SUB SWAP3 SWAP1 SWAP3 AND SWAP2 SWAP1 SWAP2 OR SWAP1 SSTORE JUMP JUMPDEST PUSH0 DUP3 DUP2 MSTORE PUSH1 0x2 PUSH1 0x20 MSTORE PUSH1 0x40 DUP2 KECCAK256 SLOAD PUSH1 0x1 PUSH1 0x1 PUSH1 0xA0 SHL SUB SWAP1 DUP2 AND SWAP1 DUP4 AND ISZERO PUSH2 0x3BE9 JUMPI PUSH2 0x3BE9 DUP2 DUP5 DUP7 PUSH2 0x3E4A JUMP JUMPDEST PUSH1 0x1 PUSH1 0x1 PUSH1 0xA0 SHL SUB DUP2 AND ISZERO PUSH2 0x3C23 JUMPI PUSH2 0x3C04 PUSH0 DUP6 PUSH0 PUSH0 PUSH2 0x3AB9 JUMP JUMPDEST PUSH1 0x1 PUSH1 0x1 PUSH1 0xA0 SHL SUB DUP2 AND PUSH0 SWAP1 DUP2 MSTORE PUSH1 0x3 PUSH1 0x20 MSTORE PUSH1 0x40 SWAP1 KECCAK256 DUP1 SLOAD PUSH0 NOT ADD SWAP1 SSTORE JUMPDEST PUSH1 0x1 PUSH1 0x1 PUSH1 0xA0 SHL SUB DUP6 AND ISZERO PUSH2 0x3C51 JUMPI PUSH1 0x1 PUSH1 0x1 PUSH1 0xA0 SHL SUB DUP6 AND PUSH0 SWAP1 DUP2 MSTORE PUSH1 0x3 PUSH1 0x20 MSTORE PUSH1 0x40 SWAP1 KECCAK256 DUP1 SLOAD PUSH1 0x1 ADD SWAP1 SSTORE JUMPDEST PUSH0 DUP5 DUP2 MSTORE PUSH1 0x2 PUSH1 0x20 MSTORE PUSH1 0x40 DUP1 DUP3 KECCAK256 DUP1 SLOAD PUSH1 0x1 PUSH1 0x1 PUSH1 0xA0 SHL SUB NOT AND PUSH1 0x1 PUSH1 0x1 PUSH1 0xA0 SHL SUB DUP10 DUP2 AND SWAP2 DUP3 OR SWAP1 SWAP3 SSTORE SWAP2 MLOAD DUP8 SWAP4 SWAP2 DUP6 AND SWAP2 PUSH32 0xDDF252AD1BE2C89B69C2B068FC378DAA952BA7F163C4A11628F55A4DF523B3EF SWAP2 LOG4 SWAP5 SWAP4 POP POP POP POP JUMP JUMPDEST PUSH2 0x3CB9 DUP3 DUP3 PUSH2 0x1A06 JUMP JUMPDEST PUSH2 0x11CC JUMPI PUSH1 0x40 MLOAD PUSH4 0xE2517D3F PUSH1 0xE0 SHL DUP2 MSTORE PUSH1 0x1 PUSH1 0x1 PUSH1 0xA0 SHL SUB DUP3 AND PUSH1 0x4 DUP3 ADD MSTORE PUSH1 0x24 DUP2 ADD DUP4 SWAP1 MSTORE PUSH1 0x44 ADD PUSH2 0xD14 JUMP JUMPDEST PUSH1 0x9 SLOAD PUSH1 0xFF AND PUSH2 0x17B1 JUMPI PUSH1 0x40 MLOAD PUSH4 0x8DFC202B PUSH1 0xE0 SHL DUP2 MSTORE PUSH1 0x4 ADD PUSH1 0x40 MLOAD DUP1 SWAP2 SUB SWAP1 REVERT JUMPDEST PUSH1 0x60 PUSH0 PUSH2 0x3D17 DUP4 PUSH2 0x3EAE JUMP JUMPDEST PUSH1 0x1 ADD SWAP1 POP PUSH0 DUP2 PUSH1 0x1 PUSH1 0x1 PUSH1 0x40 SHL SUB DUP2 GT ISZERO PUSH2 0x3D35 JUMPI PUSH2 0x3D35 PUSH2 0x415E JUMP JUMPDEST PUSH1 0x40 MLOAD SWAP1 DUP1 DUP3 MSTORE DUP1 PUSH1 0x1F ADD PUSH1 0x1F NOT AND PUSH1 0x20 ADD DUP3 ADD PUSH1 0x40 MSTORE DUP1 ISZERO PUSH2 0x3D5F JUMPI PUSH1 0x20 DUP3 ADD DUP2 DUP1 CALLDATASIZE DUP4 CALLDATACOPY ADD SWAP1 POP JUMPDEST POP SWAP1 POP DUP2 DUP2 ADD PUSH1 0x20 ADD JUMPDEST PUSH0 NOT ADD PUSH16 0x181899199A1A9B1B9C1CB0B131B232B3 PUSH1 0x81 SHL PUSH1 0xA DUP7 MOD BYTE DUP2 MSTORE8 PUSH1 0xA DUP6 DIV SWAP5 POP DUP5 PUSH2 0x3D69 JUMPI POP SWAP4 SWAP3 POP POP POP JUMP JUMPDEST PUSH0 PUSH1 0x1 PUSH1 0x1 PUSH1 0xE0 SHL SUB NOT DUP3 AND PUSH4 0x80AC58CD PUSH1 0xE0 SHL EQ DUP1 PUSH2 0x3DCA JUMPI POP PUSH1 0x1 PUSH1 0x1 PUSH1 0xE0 SHL SUB NOT DUP3 AND PUSH4 0x5B5E139F PUSH1 0xE0 SHL EQ JUMPDEST DUP1 PUSH2 0xA94 JUMPI POP PUSH4 0x1FFC9A7 PUSH1 0xE0 SHL PUSH1 0x1 PUSH1 0x1 PUSH1 0xE0 SHL SUB NOT DUP4 AND EQ PUSH2 0xA94 JUMP JUMPDEST PUSH1 0x1 PUSH1 0x1 PUSH1 0xA0 SHL SUB DUP3 AND PUSH2 0x3E12 JUMPI PUSH1 0x40 MLOAD PUSH4 0x32505749 PUSH1 0xE1 SHL DUP2 MSTORE PUSH0 PUSH1 0x4 DUP3 ADD MSTORE PUSH1 0x24 ADD PUSH2 0xD14 JUMP JUMPDEST PUSH0 PUSH2 0x3E1E DUP4 DUP4 PUSH0 PUSH2 0x354F JUMP JUMPDEST SWAP1 POP PUSH1 0x1 PUSH1 0x1 PUSH1 0xA0 SHL SUB DUP2 AND ISZERO PUSH2 0x15D5 JUMPI PUSH1 0x40 MLOAD PUSH4 0x39E35637 PUSH1 0xE1 SHL DUP2 MSTORE PUSH0 PUSH1 0x4 DUP3 ADD MSTORE PUSH1 0x24 ADD PUSH2 0xD14 JUMP JUMPDEST PUSH2 0x3E55 DUP4 DUP4 DUP4 PUSH2 0x3F85 JUMP JUMPDEST PUSH2 0x15D5 JUMPI PUSH1 0x1 PUSH1 0x1 PUSH1 0xA0 SHL SUB DUP4 AND PUSH2 0x3E83 JUMPI PUSH1 0x40 MLOAD PUSH4 0x7E273289 PUSH1 0xE0 SHL DUP2 MSTORE PUSH1 0x4 DUP2 ADD DUP3 SWAP1 MSTORE PUSH1 0x24 ADD PUSH2 0xD14 JUMP JUMPDEST PUSH1 0x40 MLOAD PUSH4 0x177E802F PUSH1 0xE0 SHL DUP2 MSTORE PUSH1 0x1 PUSH1 0x1 PUSH1 0xA0 SHL SUB DUP4 AND PUSH1 0x4 DUP3 ADD MSTORE PUSH1 0x24 DUP2 ADD DUP3 SWAP1 MSTORE PUSH1 0x44 ADD PUSH2 0xD14 JUMP JUMPDEST PUSH0 DUP1 PUSH19 0x184F03E93FF9F4DAA797ED6E38ED64BF6A1F01 PUSH1 0x40 SHL DUP4 LT PUSH2 0x3EEC JUMPI PUSH19 0x184F03E93FF9F4DAA797ED6E38ED64BF6A1F01 PUSH1 0x40 SHL DUP4 DIV SWAP3 POP PUSH1 0x40 ADD JUMPDEST PUSH14 0x4EE2D6D415B85ACEF8100000000 DUP4 LT PUSH2 0x3F18 JUMPI PUSH14 0x4EE2D6D415B85ACEF8100000000 DUP4 DIV SWAP3 POP PUSH1 0x20 ADD JUMPDEST PUSH7 0x2386F26FC10000 DUP4 LT PUSH2 0x3F36 JUMPI PUSH7 0x2386F26FC10000 DUP4 DIV SWAP3 POP PUSH1 0x10 ADD JUMPDEST PUSH4 0x5F5E100 DUP4 LT PUSH2 0x3F4E JUMPI PUSH4 0x5F5E100 DUP4 DIV SWAP3 POP PUSH1 0x8 ADD JUMPDEST PUSH2 0x2710 DUP4 LT PUSH2 0x3F62 JUMPI PUSH2 0x2710 DUP4 DIV SWAP3 POP PUSH1 0x4 ADD JUMPDEST PUSH1 0x64 DUP4 LT PUSH2 0x3F74 JUMPI PUSH1 0x64 DUP4 DIV SWAP3 POP PUSH1 0x2 ADD JUMPDEST PUSH1 0xA DUP4 LT PUSH2 0xA94 JUMPI PUSH1 0x1 ADD SWAP3 SWAP2 POP POP JUMP JUMPDEST PUSH0 PUSH1 0x1 PUSH1 0x1 PUSH1 0xA0 SHL SUB DUP4 AND ISZERO DUP1 ISZERO SWAP1 PUSH2 0x2F4C JUMPI POP DUP3 PUSH1 0x1 PUSH1 0x1 PUSH1 0xA0 SHL SUB AND DUP5 PUSH1 0x1 PUSH1 0x1 PUSH1 0xA0 SHL SUB AND EQ DUP1 PUSH2 0x3FBE JUMPI POP PUSH2 0x3FBE DUP5 DUP5 PUSH2 0x3185 JUMP JUMPDEST DUP1 PUSH2 0x2F4C JUMPI POP POP PUSH0 SWAP1 DUP2 MSTORE PUSH1 0x4 PUSH1 0x20 MSTORE PUSH1 0x40 SWAP1 KECCAK256 SLOAD PUSH1 0x1 PUSH1 0x1 PUSH1 0xA0 SHL SUB SWAP1 DUP2 AND SWAP2 AND EQ SWAP2 SWAP1 POP JUMP JUMPDEST PUSH0 PUSH1 0x20 DUP3 DUP5 SUB SLT ISZERO PUSH2 0x3FF6 JUMPI PUSH0 PUSH0 REVERT JUMPDEST POP CALLDATALOAD SWAP2 SWAP1 POP JUMP JUMPDEST PUSH0 DUP2 MLOAD DUP1 DUP5 MSTORE DUP1 PUSH1 0x20 DUP5 ADD PUSH1 0x20 DUP7 ADD MCOPY PUSH0 PUSH1 0x20 DUP3 DUP7 ADD ADD MSTORE PUSH1 0x20 PUSH1 0x1F NOT PUSH1 0x1F DUP4 ADD AND DUP6 ADD ADD SWAP2 POP POP SWAP3 SWAP2 POP POP JUMP JUMPDEST DUP11 DUP2 MSTORE PUSH1 0x1 PUSH1 0x1 PUSH1 0xA0 SHL SUB DUP11 DUP2 AND PUSH1 0x20 DUP4 ADD MSTORE DUP10 AND PUSH1 0x40 DUP3 ADD MSTORE PUSH2 0x140 PUSH1 0x60 DUP3 ADD DUP2 SWAP1 MSTORE PUSH0 SWAP1 PUSH2 0x405D SWAP1 DUP4 ADD DUP11 PUSH2 0x3FFD JUMP JUMPDEST DUP3 DUP2 SUB PUSH1 0x80 DUP5 ADD MSTORE PUSH2 0x406F DUP2 DUP11 PUSH2 0x3FFD JUMP JUMPDEST SWAP1 POP DUP3 DUP2 SUB PUSH1 0xA0 DUP5 ADD MSTORE PUSH2 0x4083 DUP2 DUP10 PUSH2 0x3FFD JUMP JUMPDEST PUSH1 0xC0 DUP5 ADD SWAP8 SWAP1 SWAP8 MSTORE POP POP PUSH1 0xE0 DUP2 ADD SWAP4 SWAP1 SWAP4 MSTORE SWAP1 ISZERO ISZERO PUSH2 0x100 DUP4 ADD MSTORE ISZERO ISZERO PUSH2 0x120 SWAP1 SWAP2 ADD MSTORE SWAP7 SWAP6 POP POP POP POP POP POP JUMP JUMPDEST PUSH1 0x1 PUSH1 0x1 PUSH1 0xE0 SHL SUB NOT DUP2 AND DUP2 EQ PUSH2 0x1636 JUMPI PUSH0 PUSH0 REVERT JUMPDEST PUSH0 PUSH1 0x20 DUP3 DUP5 SUB SLT ISZERO PUSH2 0x40D6 JUMPI PUSH0 PUSH0 REVERT JUMPDEST DUP2 CALLDATALOAD PUSH2 0x3A53 DUP2 PUSH2 0x40B1 JUMP JUMPDEST DUP1 CALLDATALOAD PUSH1 0x1 PUSH1 0x1 PUSH1 0xA0 SHL SUB DUP2 AND DUP2 EQ PUSH2 0x40F7 JUMPI PUSH0 PUSH0 REVERT JUMPDEST SWAP2 SWAP1 POP JUMP JUMPDEST PUSH0 PUSH1 0x20 DUP3 DUP5 SUB SLT ISZERO PUSH2 0x410C JUMPI PUSH0 PUSH0 REVERT JUMPDEST PUSH2 0x3A53 DUP3 PUSH2 0x40E1 JUMP JUMPDEST PUSH1 0x20 DUP1 DUP3 MSTORE DUP3 MLOAD DUP3 DUP3 ADD DUP2 SWAP1 MSTORE PUSH0 SWAP2 DUP5 ADD SWAP1 PUSH1 0x40 DUP5 ADD SWAP1 DUP4 JUMPDEST DUP2 DUP2 LT ISZERO PUSH2 0xCB0 JUMPI DUP4 MLOAD DUP4 MSTORE PUSH1 0x20 SWAP4 DUP5 ADD SWAP4 SWAP1 SWAP3 ADD SWAP2 PUSH1 0x1 ADD PUSH2 0x412E JUMP JUMPDEST PUSH1 0x20 DUP2 MSTORE PUSH0 PUSH2 0x3A53 PUSH1 0x20 DUP4 ADD DUP5 PUSH2 0x3FFD JUMP JUMPDEST PUSH4 0x4E487B71 PUSH1 0xE0 SHL PUSH0 MSTORE PUSH1 0x41 PUSH1 0x4 MSTORE PUSH1 0x24 PUSH0 REVERT JUMPDEST PUSH1 0x40 MLOAD PUSH1 0x1F DUP3 ADD PUSH1 0x1F NOT AND DUP2 ADD PUSH1 0x1 PUSH1 0x1 PUSH1 0x40 SHL SUB DUP2 GT DUP3 DUP3 LT OR ISZERO PUSH2 0x419A JUMPI PUSH2 0x419A PUSH2 0x415E JUMP JUMPDEST PUSH1 0x40 MSTORE SWAP2 SWAP1 POP JUMP JUMPDEST PUSH0 PUSH0 PUSH1 0x1 PUSH1 0x1 PUSH1 0x40 SHL SUB DUP5 GT ISZERO PUSH2 0x41BB JUMPI PUSH2 0x41BB PUSH2 0x415E JUMP JUMPDEST POP PUSH1 0x1F DUP4 ADD PUSH1 0x1F NOT AND PUSH1 0x20 ADD PUSH2 0x41D0 DUP2 PUSH2 0x4172 JUMP JUMPDEST SWAP2 POP POP DUP3 DUP2 MSTORE DUP4 DUP4 DUP4 ADD GT ISZERO PUSH2 0x41E4 JUMPI PUSH0 PUSH0 REVERT JUMPDEST DUP3 DUP3 PUSH1 0x20 DUP4 ADD CALLDATACOPY PUSH0 PUSH1 0x20 DUP5 DUP4 ADD ADD MSTORE SWAP4 SWAP3 POP POP POP JUMP JUMPDEST PUSH0 DUP3 PUSH1 0x1F DUP4 ADD SLT PUSH2 0x4209 JUMPI PUSH0 PUSH0 REVERT JUMPDEST PUSH2 0x3A53 DUP4 DUP4 CALLDATALOAD PUSH1 0x20 DUP6 ADD PUSH2 0x41A2 JUMP JUMPDEST PUSH0 PUSH0 PUSH1 0x40 DUP4 DUP6 SUB SLT ISZERO PUSH2 0x4229 JUMPI PUSH0 PUSH0 REVERT JUMPDEST PUSH2 0x4232 DUP4 PUSH2 0x40E1 JUMP JUMPDEST SWAP2 POP PUSH1 0x20 DUP4 ADD CALLDATALOAD PUSH1 0x1 PUSH1 0x1 PUSH1 0x40 SHL SUB DUP2 GT ISZERO PUSH2 0x424C JUMPI PUSH0 PUSH0 REVERT JUMPDEST PUSH2 0x4258 DUP6 DUP3 DUP7 ADD PUSH2 0x41FA JUMP JUMPDEST SWAP2 POP POP SWAP3 POP SWAP3 SWAP1 POP JUMP JUMPDEST PUSH0 PUSH0 PUSH1 0x40 DUP4 DUP6 SUB SLT ISZERO PUSH2 0x4273 JUMPI PUSH0 PUSH0 REVERT JUMPDEST PUSH2 0x427C DUP4 PUSH2 0x40E1 JUMP JUMPDEST SWAP5 PUSH1 0x20 SWAP4 SWAP1 SWAP4 ADD CALLDATALOAD SWAP4 POP POP POP JUMP JUMPDEST PUSH0 PUSH0 PUSH1 0x40 DUP4 DUP6 SUB SLT ISZERO PUSH2 0x429B JUMPI PUSH0 PUSH0 REVERT JUMPDEST DUP3 CALLDATALOAD SWAP2 POP PUSH2 0x42AB PUSH1 0x20 DUP5 ADD PUSH2 0x40E1 JUMP JUMPDEST SWAP1 POP SWAP3 POP SWAP3 SWAP1 POP JUMP JUMPDEST PUSH0 PUSH0 PUSH0 PUSH1 0x60 DUP5 DUP7 SUB SLT ISZERO PUSH2 0x42C6 JUMPI PUSH0 PUSH0 REVERT JUMPDEST PUSH2 0x42CF DUP5 PUSH2 0x40E1 JUMP JUMPDEST SWAP3 POP PUSH2 0x42DD PUSH1 0x20 DUP6 ADD PUSH2 0x40E1 JUMP JUMPDEST SWAP3 SWAP6 SWAP3 SWAP5 POP POP POP PUSH1 0x40 SWAP2 SWAP1 SWAP2 ADD CALLDATALOAD SWAP1 JUMP JUMPDEST PUSH1 0x20 DUP1 DUP3 MSTORE DUP3 MLOAD DUP3 DUP3 ADD DUP2 SWAP1 MSTORE PUSH0 SWAP2 DUP5 ADD SWAP1 PUSH1 0x40 DUP5 ADD SWAP1 DUP4 JUMPDEST DUP2 DUP2 LT ISZERO PUSH2 0xCB0 JUMPI DUP4 MLOAD PUSH1 0x1 PUSH1 0x1 PUSH1 0xA0 SHL SUB AND DUP4 MSTORE PUSH1 0x20 SWAP4 DUP5 ADD SWAP4 SWAP1 SWAP3 ADD SWAP2 PUSH1 0x1 ADD PUSH2 0x4307 JUMP JUMPDEST PUSH0 PUSH0 PUSH0 PUSH1 0x60 DUP5 DUP7 SUB SLT ISZERO PUSH2 0x4340 JUMPI PUSH0 PUSH0 REVERT JUMPDEST PUSH2 0x4349 DUP5 PUSH2 0x40E1 JUMP JUMPDEST SWAP3 POP PUSH1 0x20 DUP5 ADD CALLDATALOAD SWAP2 POP PUSH1 0x40 DUP5 ADD CALLDATALOAD PUSH1 0x1 PUSH1 0x1 PUSH1 0x40 SHL SUB DUP2 GT ISZERO PUSH2 0x436A JUMPI PUSH0 PUSH0 REVERT JUMPDEST PUSH2 0x4376 DUP7 DUP3 DUP8 ADD PUSH2 0x41FA JUMP JUMPDEST SWAP2 POP POP SWAP3 POP SWAP3 POP SWAP3 JUMP JUMPDEST PUSH0 PUSH0 PUSH1 0x40 DUP4 DUP6 SUB SLT ISZERO PUSH2 0x4391 JUMPI PUSH0 PUSH0 REVERT JUMPDEST POP POP DUP1 CALLDATALOAD SWAP3 PUSH1 0x20 SWAP1 SWAP2 ADD CALLDATALOAD SWAP2 POP JUMP JUMPDEST PUSH0 PUSH0 PUSH1 0x40 DUP4 DUP6 SUB SLT ISZERO PUSH2 0x43B1 JUMPI PUSH0 PUSH0 REVERT JUMPDEST DUP3 CALLDATALOAD SWAP2 POP PUSH1 0x20 DUP4 ADD CALLDATALOAD PUSH1 0x1 PUSH1 0x1 PUSH1 0x40 SHL SUB DUP2 GT ISZERO PUSH2 0x424C JUMPI PUSH0 PUSH0 REVERT JUMPDEST PUSH0 PUSH1 0x1 PUSH1 0x1 PUSH1 0x40 SHL SUB DUP3 GT ISZERO PUSH2 0x43E5 JUMPI PUSH2 0x43E5 PUSH2 0x415E JUMP JUMPDEST POP PUSH1 0x5 SHL PUSH1 0x20 ADD SWAP1 JUMP JUMPDEST PUSH0 DUP3 PUSH1 0x1F DUP4 ADD SLT PUSH2 0x43FE JUMPI PUSH0 PUSH0 REVERT JUMPDEST DUP2 CALLDATALOAD PUSH2 0x4411 PUSH2 0x440C DUP3 PUSH2 0x43CD JUMP JUMPDEST PUSH2 0x4172 JUMP JUMPDEST DUP1 DUP3 DUP3 MSTORE PUSH1 0x20 DUP3 ADD SWAP2 POP PUSH1 0x20 DUP4 PUSH1 0x5 SHL DUP7 ADD ADD SWAP3 POP DUP6 DUP4 GT ISZERO PUSH2 0x4432 JUMPI PUSH0 PUSH0 REVERT JUMPDEST PUSH1 0x20 DUP6 ADD JUMPDEST DUP4 DUP2 LT ISZERO PUSH2 0x444F JUMPI DUP1 CALLDATALOAD DUP4 MSTORE PUSH1 0x20 SWAP3 DUP4 ADD SWAP3 ADD PUSH2 0x4437 JUMP JUMPDEST POP SWAP6 SWAP5 POP POP POP POP POP JUMP JUMPDEST PUSH0 PUSH0 PUSH1 0x40 DUP4 DUP6 SUB SLT ISZERO PUSH2 0x446A JUMPI PUSH0 PUSH0 REVERT JUMPDEST DUP3 CALLDATALOAD PUSH1 0x1 PUSH1 0x1 PUSH1 0x40 SHL SUB DUP2 GT ISZERO PUSH2 0x447F JUMPI PUSH0 PUSH0 REVERT JUMPDEST DUP4 ADD PUSH1 0x1F DUP2 ADD DUP6 SGT PUSH2 0x448F JUMPI PUSH0 PUSH0 REVERT JUMPDEST DUP1 CALLDATALOAD PUSH2 0x449D PUSH2 0x440C DUP3 PUSH2 0x43CD JUMP JUMPDEST DUP1 DUP3 DUP3 MSTORE PUSH1 0x20 DUP3 ADD SWAP2 POP PUSH1 0x20 DUP4 PUSH1 0x5 SHL DUP6 ADD ADD SWAP3 POP DUP8 DUP4 GT ISZERO PUSH2 0x44BE JUMPI PUSH0 PUSH0 REVERT JUMPDEST PUSH1 0x20 DUP5 ADD SWAP4 POP JUMPDEST DUP3 DUP5 LT ISZERO PUSH2 0x44E7 JUMPI PUSH2 0x44D6 DUP5 PUSH2 0x40E1 JUMP JUMPDEST DUP3 MSTORE PUSH1 0x20 SWAP4 DUP5 ADD SWAP4 SWAP1 SWAP2 ADD SWAP1 PUSH2 0x44C5 JUMP JUMPDEST SWAP5 POP POP POP POP PUSH1 0x20 DUP4 ADD CALLDATALOAD PUSH1 0x1 PUSH1 0x1 PUSH1 0x40 SHL SUB DUP2 GT ISZERO PUSH2 0x4504 JUMPI PUSH0 PUSH0 REVERT JUMPDEST PUSH2 0x4258 DUP6 DUP3 DUP7 ADD PUSH2 0x43EF JUMP JUMPDEST PUSH0 PUSH0 PUSH0 PUSH0 PUSH1 0x80 DUP6 DUP8 SUB SLT ISZERO PUSH2 0x4523 JUMPI PUSH0 PUSH0 REVERT JUMPDEST PUSH2 0x452C DUP6 PUSH2 0x40E1 JUMP JUMPDEST SWAP4 POP PUSH1 0x20 DUP6 ADD CALLDATALOAD PUSH1 0x1 PUSH1 0x1 PUSH1 0x40 SHL SUB DUP2 GT ISZERO PUSH2 0x4546 JUMPI PUSH0 PUSH0 REVERT JUMPDEST PUSH2 0x4552 DUP8 DUP3 DUP9 ADD PUSH2 0x41FA JUMP JUMPDEST SWAP4 POP POP PUSH1 0x40 DUP6 ADD CALLDATALOAD PUSH1 0x1 PUSH1 0x1 PUSH1 0x40 SHL SUB DUP2 GT ISZERO PUSH2 0x456D JUMPI PUSH0 PUSH0 REVERT JUMPDEST PUSH2 0x4579 DUP8 DUP3 DUP9 ADD PUSH2 0x41FA JUMP JUMPDEST SWAP3 POP POP PUSH1 0x60 DUP6 ADD CALLDATALOAD PUSH1 0x1 PUSH1 0x1 PUSH1 0x40 SHL SUB DUP2 GT ISZERO PUSH2 0x4594 JUMPI PUSH0 PUSH0 REVERT JUMPDEST PUSH2 0x45A0 DUP8 DUP3 DUP9 ADD PUSH2 0x41FA JUMP JUMPDEST SWAP2 POP POP SWAP3 SWAP6 SWAP2 SWAP5 POP SWAP3 POP JUMP JUMPDEST PUSH0 PUSH0 PUSH1 0x40 DUP4 DUP6 SUB SLT ISZERO PUSH2 0x45BD JUMPI PUSH0 PUSH0 REVERT JUMPDEST PUSH2 0x45C6 DUP4 PUSH2 0x40E1 JUMP JUMPDEST SWAP2 POP PUSH1 0x20 DUP4 ADD CALLDATALOAD DUP1 ISZERO ISZERO DUP2 EQ PUSH2 0x45DA JUMPI PUSH0 PUSH0 REVERT JUMPDEST DUP1 SWAP2 POP POP SWAP3 POP SWAP3 SWAP1 POP JUMP JUMPDEST PUSH1 0x1 DUP1 PUSH1 0xA0 SHL SUB DUP6 AND DUP2 MSTORE DUP4 PUSH1 0x20 DUP3 ADD MSTORE DUP3 ISZERO ISZERO PUSH1 0x40 DUP3 ADD MSTORE PUSH1 0x80 PUSH1 0x60 DUP3 ADD MSTORE PUSH0 PUSH2 0x4613 PUSH1 0x80 DUP4 ADD DUP5 PUSH2 0x3FFD JUMP JUMPDEST SWAP7 SWAP6 POP POP POP POP POP POP JUMP JUMPDEST PUSH0 PUSH0 PUSH0 PUSH0 PUSH1 0x80 DUP6 DUP8 SUB SLT ISZERO PUSH2 0x4630 JUMPI PUSH0 PUSH0 REVERT JUMPDEST PUSH2 0x4639 DUP6 PUSH2 0x40E1 JUMP JUMPDEST SWAP4 POP PUSH2 0x4647 PUSH1 0x20 DUP7 ADD PUSH2 0x40E1 JUMP JUMPDEST SWAP3 POP PUSH1 0x40 DUP6 ADD CALLDATALOAD SWAP2 POP PUSH1 0x60 DUP6 ADD CALLDATALOAD PUSH1 0x1 PUSH1 0x1 PUSH1 0x40 SHL SUB DUP2 GT ISZERO PUSH2 0x4668 JUMPI PUSH0 PUSH0 REVERT JUMPDEST DUP6 ADD PUSH1 0x1F DUP2 ADD DUP8 SGT PUSH2 0x4678 JUMPI PUSH0 PUSH0 REVERT JUMPDEST PUSH2 0x45A0 DUP8 DUP3 CALLDATALOAD PUSH1 0x20 DUP5 ADD PUSH2 0x41A2 JUMP JUMPDEST PUSH0 PUSH0 PUSH1 0x40 DUP4 DUP6 SUB SLT ISZERO PUSH2 0x4698 JUMPI PUSH0 PUSH0 REVERT JUMPDEST PUSH2 0x46A1 DUP4 PUSH2 0x40E1 JUMP JUMPDEST SWAP2 POP PUSH2 0x42AB PUSH1 0x20 DUP5 ADD PUSH2 0x40E1 JUMP JUMPDEST PUSH1 0x1 DUP2 DUP2 SHR SWAP1 DUP3 AND DUP1 PUSH2 0x46C3 JUMPI PUSH1 0x7F DUP3 AND SWAP2 POP JUMPDEST PUSH1 0x20 DUP3 LT DUP2 SUB PUSH2 0x46E1 JUMPI PUSH4 0x4E487B71 PUSH1 0xE0 SHL PUSH0 MSTORE PUSH1 0x22 PUSH1 0x4 MSTORE PUSH1 0x24 PUSH0 REVERT JUMPDEST POP SWAP2 SWAP1 POP JUMP JUMPDEST PUSH4 0x4E487B71 PUSH1 0xE0 SHL PUSH0 MSTORE PUSH1 0x32 PUSH1 0x4 MSTORE PUSH1 0x24 PUSH0 REVERT JUMPDEST PUSH4 0x4E487B71 PUSH1 0xE0 SHL PUSH0 MSTORE PUSH1 0x11 PUSH1 0x4 MSTORE PUSH1 0x24 PUSH0 REVERT JUMPDEST PUSH0 PUSH1 0x1 DUP3 ADD PUSH2 0x4720 JUMPI PUSH2 0x4720 PUSH2 0x46FB JUMP JUMPDEST POP PUSH1 0x1 ADD SWAP1 JUMP JUMPDEST DUP1 DUP3 ADD DUP1 DUP3 GT ISZERO PUSH2 0xA94 JUMPI PUSH2 0xA94 PUSH2 0x46FB JUMP JUMPDEST PUSH1 0x1F DUP3 GT ISZERO PUSH2 0x15D5 JUMPI DUP1 PUSH0 MSTORE PUSH1 0x20 PUSH0 KECCAK256 PUSH1 0x1F DUP5 ADD PUSH1 0x5 SHR DUP2 ADD PUSH1 0x20 DUP6 LT ISZERO PUSH2 0x475F JUMPI POP DUP1 JUMPDEST PUSH1 0x1F DUP5 ADD PUSH1 0x5 SHR DUP3 ADD SWAP2 POP JUMPDEST DUP2 DUP2 LT ISZERO PUSH2 0x39E2 JUMPI PUSH0 DUP2 SSTORE PUSH1 0x1 ADD PUSH2 0x476B JUMP JUMPDEST DUP2 MLOAD PUSH1 0x1 PUSH1 0x1 PUSH1 0x40 SHL SUB DUP2 GT ISZERO PUSH2 0x4797 JUMPI PUSH2 0x4797 PUSH2 0x415E JUMP JUMPDEST PUSH2 0x47AB DUP2 PUSH2 0x47A5 DUP5 SLOAD PUSH2 0x46AF JUMP JUMPDEST DUP5 PUSH2 0x473A JUMP JUMPDEST PUSH1 0x20 PUSH1 0x1F DUP3 GT PUSH1 0x1 DUP2 EQ PUSH2 0x47DD JUMPI PUSH0 DUP4 ISZERO PUSH2 0x47C6 JUMPI POP DUP5 DUP3 ADD MLOAD JUMPDEST PUSH0 NOT PUSH1 0x3 DUP6 SWAP1 SHL SHR NOT AND PUSH1 0x1 DUP5 SWAP1 SHL OR DUP5 SSTORE PUSH2 0x39E2 JUMP JUMPDEST PUSH0 DUP5 DUP2 MSTORE PUSH1 0x20 DUP2 KECCAK256 PUSH1 0x1F NOT DUP6 AND SWAP2 JUMPDEST DUP3 DUP2 LT ISZERO PUSH2 0x480C JUMPI DUP8 DUP6 ADD MLOAD DUP3 SSTORE PUSH1 0x20 SWAP5 DUP6 ADD SWAP5 PUSH1 0x1 SWAP1 SWAP3 ADD SWAP2 ADD PUSH2 0x47EC JUMP JUMPDEST POP DUP5 DUP3 LT ISZERO PUSH2 0x4829 JUMPI DUP7 DUP5 ADD MLOAD PUSH0 NOT PUSH1 0x3 DUP8 SWAP1 SHL PUSH1 0xF8 AND SHR NOT AND DUP2 SSTORE JUMPDEST POP POP POP POP PUSH1 0x1 SWAP1 DUP2 SHL ADD SWAP1 SSTORE POP JUMP JUMPDEST PUSH1 0x20 DUP1 DUP3 MSTORE PUSH1 0x17 SWAP1 DUP3 ADD MSTORE PUSH32 0x50726F706F73616C20646F6573206E6F74206578697374000000000000000000 PUSH1 0x40 DUP3 ADD MSTORE PUSH1 0x60 ADD SWAP1 JUMP JUMPDEST PUSH1 0x20 DUP1 DUP3 MSTORE PUSH1 0x19 SWAP1 DUP3 ADD MSTORE PUSH32 0x50726F706F73616C20616C726561647920657865637574656400000000000000 PUSH1 0x40 DUP3 ADD MSTORE PUSH1 0x60 ADD SWAP1 JUMP JUMPDEST PUSH1 0x20 DUP1 DUP3 MSTORE PUSH1 0x15 SWAP1 DUP3 ADD MSTORE PUSH21 0x141C9BDC1BDCD85B081A5CC818D85B98D95B1B1959 PUSH1 0x5A SHL PUSH1 0x40 DUP3 ADD MSTORE PUSH1 0x60 ADD SWAP1 JUMP JUMPDEST DUP2 DUP2 SUB DUP2 DUP2 GT ISZERO PUSH2 0xA94 JUMPI PUSH2 0xA94 PUSH2 0x46FB JUMP JUMPDEST PUSH4 0x4E487B71 PUSH1 0xE0 SHL PUSH0 MSTORE PUSH1 0x31 PUSH1 0x4 MSTORE PUSH1 0x24 PUSH0 REVERT JUMPDEST PUSH0 DUP2 MLOAD DUP1 PUSH1 0x20 DUP5 ADD DUP6 MCOPY PUSH0 SWAP4 ADD SWAP3 DUP4 MSTORE POP SWAP1 SWAP2 SWAP1 POP JUMP JUMPDEST PUSH0 PUSH2 0x2F4C PUSH2 0x4921 DUP4 DUP7 PUSH2 0x48FC JUMP JUMPDEST DUP5 PUSH2 0x48FC JUMP JUMPDEST PUSH1 0x20 DUP2 MSTORE PUSH0 PUSH0 DUP4 SLOAD PUSH2 0x4938 DUP2 PUSH2 0x46AF JUMP JUMPDEST DUP1 PUSH1 0x20 DUP7 ADD MSTORE PUSH1 0x1 DUP3 AND PUSH0 DUP2 EQ PUSH2 0x4956 JUMPI PUSH1 0x1 DUP2 EQ PUSH2 0x4972 JUMPI PUSH2 0x49A3 JUMP JUMPDEST PUSH1 0xFF NOT DUP4 AND PUSH1 0x40 DUP8 ADD MSTORE PUSH1 0x40 DUP3 ISZERO ISZERO PUSH1 0x5 SHL DUP8 ADD ADD SWAP4 POP PUSH2 0x49A3 JUMP JUMPDEST DUP7 PUSH0 MSTORE PUSH1 0x20 PUSH0 KECCAK256 PUSH0 JUMPDEST DUP4 DUP2 LT ISZERO PUSH2 0x499A JUMPI DUP2 SLOAD DUP9 DUP3 ADD PUSH1 0x40 ADD MSTORE PUSH1 0x1 SWAP1 SWAP2 ADD SWAP1 PUSH1 0x20 ADD PUSH2 0x497B JUMP JUMPDEST DUP8 ADD PUSH1 0x40 ADD SWAP5 POP POP JUMPDEST POP SWAP2 SWAP6 SWAP5 POP POP POP POP POP JUMP JUMPDEST PUSH1 0x1 PUSH1 0x1 PUSH1 0xA0 SHL SUB DUP6 DUP2 AND DUP3 MSTORE DUP5 AND PUSH1 0x20 DUP3 ADD MSTORE PUSH1 0x40 DUP2 ADD DUP4 SWAP1 MSTORE PUSH1 0x80 PUSH1 0x60 DUP3 ADD DUP2 SWAP1 MSTORE PUSH0 SWAP1 PUSH2 0x4613 SWAP1 DUP4 ADD DUP5 PUSH2 0x3FFD JUMP JUMPDEST PUSH0 PUSH1 0x20 DUP3 DUP5 SUB SLT ISZERO PUSH2 0x49F0 JUMPI PUSH0 PUSH0 REVERT JUMPDEST DUP2 MLOAD PUSH2 0x3A53 DUP2 PUSH2 0x40B1 JUMP INVALID 0xCE EXTCODEHASH CALLVALUE SWAP2 CODECOPY 0x21 0xDA SSTORE DUP16 LT TLOAD 0xEF 0xB5 PUSH25 0xD87278DEBBBD073A8D552B5DE0D168DEEE30114E74F6EA3BD8 NOT SWAP10 DUP16 PUSH25 0x687BFCB11B140DA08E9B7D222FA9C1F1BA1F2AA1227613A25E 0xCC PUSH20 0x8585A232AD50A301178F12B3BA8887D13E138B52 EXTCODECOPY TIMESTAMP PUSH10 0xC47689A49807205CE4D3 SSTORE MULMOD 0x2E CREATE2 0xA8 LOG1 DUP16 JUMP 0xE8 SWAP2 EXTCODECOPY DELEGATECALL LOG2 ADD 0xFB 0xE2 DUP8 DUP3 JUMPDEST MULMOD JUMP SWAP4 0xC2 OR PUSH22 0xCE23C3E399818CFEE81A7AB0880F714E53D7672B08D CREATE STATICCALL PUSH3 0xF28434 AND 0xE1 0xEA MULMOD LOG2 PUSH5 0x6970667358 0x22 SLT KECCAK256 0xD4 0xD2 0xC1 0xC6 STATICCALL PUSH2 0xEE6F PUSH24 0xA0B11D3AC2695D7FACF2D0B1BA051DC2D7D98F2CC1886C64 PUSH20 0x6F6C634300081C00337613A25ECC738585A232AD POP LOG3 ADD OR DUP16 SLT 0xB3 0xBA DUP9 DUP8 0xD1 RETURNDATACOPY SGT DUP12 MSTORE EXTCODECOPY TIMESTAMP PUSH10 0xC47689A49807205CE4D3 SSTORE MULMOD 0x2E CREATE2 0xA8 LOG1 DUP16 JUMP 0xE8 SWAP2 EXTCODECOPY DELEGATECALL LOG2 ADD 0xFB 0xE2 DUP8 DUP3 JUMPDEST MULMOD JUMP SWAP4 0xC2 OR PUSH22 0x0 "},"methodIdentifiers":{"ADMIN_ROLE()":"75b238fc","DEFAULT_ADMIN_ROLE()":"a217fddf","ISSUER_ROLE()":"82aefa24","REVOKER_ROLE()":"7c4acabf","SUPER_ADMIN_ROLE()":"4460bdd6","VERIFIER_ROLE()":"e7705db6","approvalThreshold()":"7d0eef61","approve(address,uint256)":"095ea7b3","approveProposal(uint256)":"98951b56","balanceOf(address)":"70a08231","batchGrantRoles(address[],bytes32[])":"8d66692d","canIssue(address)":"8d705511","canRevoke(address)":"18f0eb9b","cancelProposal(uint256)":"e0a8f6f5","createProposal(address,string,string,string)":"9dae1e77","emergencyRevokeRole(address,bytes32,string)":"447fd63c","executeProposal(uint256)":"0d61b519","getAllProposalIds()":"efa90d36","getApproved(uint256)":"081812fc","getCertificateDetails(uint256)":"a901fe5e","getPendingProposals()":"a80db6fc","getProposal(uint256)":"c7f758a8","getProposalApprovers(uint256)":"2e8e2f5d","getProposalCount()":"c08cc02d","getRoleAdmin(bytes32)":"248a9ca3","getRoleMemberCount(bytes32)":"ca15c873","getRoleMembers(bytes32)":"a3246ad3","getTotalMinted()":"0ca1c5c9","getUserRoles(address)":"06a36aee","grantRole(bytes32,address)":"2f2ff15d","hasApproved(uint256,address)":"2358d5a8","hasRole(bytes32,address)":"91d14854","isAdmin(address)":"24d7806c","isApprovedForAll(address,address)":"e985e9c5","isRevoked(uint256)":"5ccc561e","mintCertificate(address,string)":"0712249f","name()":"06fdde03","owner()":"8da5cb5b","ownerOf(uint256)":"6352211e","pause()":"8456cb59","paused()":"5c975abb","proposalApprovals(uint256,address)":"4733c271","proposalApprovers(uint256,uint256)":"5d07c0e2","proposals(uint256)":"013cf08b","renounceOwnership()":"715018a6","renounceRole(bytes32,address)":"36568abe","requestRole(bytes32,string)":"768b01aa","revokeApproval(uint256)":"b1e130fc","revokeCertificate(uint256)":"06f5497e","revokeRole(bytes32,address)":"d547741f","safeTransferFrom(address,address,uint256)":"42842e0e","safeTransferFrom(address,address,uint256,bytes)":"b88d4fde","setApprovalForAll(address,bool)":"a22cb465","setApprovalThreshold(uint256)":"a0016b8c","supportsInterface(bytes4)":"01ffc9a7","symbol()":"95d89b41","tokenURI(uint256)":"c87b56dd","transferFrom(address,address,uint256)":"23b872dd","transferOwnership(address)":"f2fde38b","unpause()":"3f4ba83a","verifyCertificate(uint256)":"1692a942"}}}}}